S01600002E2F44656275672F5254532D4C61622E73313936
S3152000000000BFDFF814D000F0FCF904F031FE00F058
S315200000100ABAFEE700BF000000C00120314900E017
S315200000203149EFF3088020ED108A7246EFF31183F1
S3152000003020E9FC0F2D4FD7F80080C8F800001EE0FD
S31520000040084601F071FF2A4801F06EFF294801F0A9
S315200000506BFFD8F8040001F0B3FF274801F064FFD6
S31520000060D8F8000001F07DFF244801F05DFFD8F8A4
S315200000700000006801F075FF1D4801F055FFDFF80C
S315200000808080D8F80080C7F8008018E01D4801F06D
S315200000904BFFD8F8040001F093FF1B4801F044FF02
S315200000A0D8F8000001F05DFF144801F03DFFD8F8B4
S315200000B00000006801F055FF0D4801F035FF134A96
S315200000C0536843F00063536000BFD8F80000B0E8DF
S315200000D0FC0F83F311889646B0EC108A80F30888CB
S315200000E07047000050A6002061A6002004A700202B
S315200000F0D1A6002082A600209AA60020A2A6002033
S3152000010054AD0020ABA60020C0A6002000ED00E0E4
S3152000011080B400AF00BFBD465DF8047B704780B554
S3152000012086B000AF454807F0E5FF454806F000FEDB
S31520000130444806F0FDFD01214FF0007001F094FCCB
S3152000014001214FF0806001F08FFC0121022001F097
S315200001502BFC09220921394808F0EEF90922082149
S31520000160364808F0E9F907F11003184608F003F9B4
S315200001704FF400733B6102233B750023BB750023BC
S31520000180FB7502237B7507F1100319462B4808F0EF
S3152000019063F84FF480733B6102233B750023BB75E4
S315200001A00123FB7502237B7507F1100319462348AB
S315200001B008F052F809220621204808F0BDF9092244
S315200001C005211E4808F0B8F940233B6102233B7500
S315200001D00023BB750023FB7502237B7507F11003F3
S315200001E01946164808F038F820233B6102233B7550
S315200001F00023BB750123FB7502237B7507F11003D2
S3152000020019460E4808F028F80023BB720023FB721B
S3152000021001233B7300233B8000237B800023BB808C
S315200002200023FB8000233B8101237B733B4618463A
S3152000023006F073FE00BF1837BD4680BD000402409D
S31520000240006400400068004080B586B000AF012100
S315200002504FF0005001F008FC07F11003184608F093
S315200002608AF820233B6103233B750023FB7507F1A6
S31520000270100319460F4807F0EFFF04F023FD3B4615
S31520000280184604F061FD00233B6000237B600023B9
S31520000290FB603B461946102004F022FD0121102068
S315200002A004F068FD0021082004F012FE00BF183774
S315200002B0BD4680BD0000024080B584B000AF01215C
S315200002C04FF4804001F0F0FB0721012008F0ACF943
S315200002D007F008FE3B46184607F090FE80233B6059
S315200002E000233B710C237B710123BB713B461846CF
S315200002F007F012FE07F10803184608F03CF802231F
S31520000300BB6001233B730123BB730023FB730123D3
S315200003107B7307F108031946184807F09DFF012350
S31520000320BB6001233B730123BB730023FB730123B3
S315200003307B7307F108031946104807F08DFF012249
S3152000034002210E4808F0BFF8012201210B4808F0CF
S31520000350BAF88023BB6000233B730023BB730023C2
S31520000360FB7301237B7307F108031946034807F043
S3152000037073FF00BF1037BD4680BD00BF000402409A
S3152000038080B483B000AFEFF314833B603B6823F067
S3152000039003037B607B6883F3148800BF094B4FF40B
S315200003A004725A61074B5B69064A43F0080353619E
S315200003B0054B4FF000425A6000BF0C37BD465DF832
S315200003C0047B704700ED00E030EF00E080B500AF21
S315200003D00121082001F048FB0121082001F084FCBE
S315200003E000BF80BD80B400AF124A02E0002342F86D
S315200003F0043B114B9A42F9D300BFBD465DF8047BFE
S31520000400704780B500AFFFF7EDFFFFF781FEFFF7DE
S3152000041086FEFFF719FFFFF74FFFFFF7B1FFFFF744
S31520000420D5FF00BF80BD80B400AF00BFBD465DF8DC
S31520000430047B704728AD0020B030012080B483B003
S3152000044000AF0346FB71FB7903F01F03012202FA7A
S3152000045003F1064A97F907305B0942F8231000BFDB
S315200004600C37BD465DF8047B704700BF00E100E015
S3152000047080B483B000AF03463960FB7197F907302B
S31520000480002B0BDA3B68DAB20C49FB7903F00F0339
S31520000490043B1201D2B20B441A7609E03B68DAB269
S315200004A0074997F907301201D2B20B4483F800238B
S315200004B000BF0C37BD465DF8047B704700ED00E0B9
S315200004C000E100E080B582B000AF786039607B68DB
S315200004D000229A617B689A697B685A617B685A69AF
S315200004E07B68DA61012240F225510A4800F0BAFC05
S315200004F0002240F22771074800F0B4FC0221252093
S31520000500FFF7B6FF2520FFF799FF00BF0837BD4646
S3152000051080BD00BF0010014080B483B000AF78607A
S315200005200B46FB707B68DB69B3F5806F17DA7B6857
S315200005305B697A681344FA7883F820207B685B69C4
S3152000054001335A42C3F30903C2F3090258BF534287
S315200005507A6853617B68DB695A1C7B68DA6100BF65
S315200005600C37BD465DF8047B704780B582B000AF7E
S31520000570786039607B68DB69002B18D17B689B68C3
S31520000580012240F22771184600F06CFC0FE03B6810
S315200005901B780A2B03D10D217868FFF7BDFF3B6836
S315200005A05A1C3A601B7819467868FFF7B5FF3B68F6
S315200005B01B78002BEBD100BF00BF0837BD4680BD9E
S315200005C080B582B000AF786039607B68DB69002B2C
S315200005D007D17B689B68012240F22771184600F0FC
S315200005E041FC3B68DBB219467868FFF795FF00BFF0
S315200005F00837BD4680BD80B586B002AF78603960C9
S315200006007B689B682021184600F074FC0346012B6A
S3152000061018D17B689B68184600F08FFA0346FB606A
S315200006207B68DB68002B0DD07B68DA687B681969EC
S31520000630FB6800930B460021002002F0B1F8234B03
S3152000064001221A607B689B688021184600F052FCC4
S315200006500346012B35D17B68DB69002B29DD7B68BE
S3152000066098687B689B697A68134493F820309BB21C
S31520000670194600F050FA7B689B6901335A42C3F34E
S315200006800903C2F3090258BF53427A6893617B6813
S31520000690DB695A1E7B68DA617B68DB69002B10D127
S315200006A07B689B68002240F22771184600F0DAFB2F
S315200006B007E07B689B68002240F22771184600F00D
S315200006C0D1FB002318461037BD4680BD34AD00202F
S315200006D080B582B000AF78607B683B4A934208D1F0
S315200006E00121102001F080FA0021102001F07CFA6F
S315200006F065E07B68354A93420AD101214FF40030E8
S3152000070001F052FA00214FF4003001F04DFA56E084
S315200007107B682F4A93420AD101214FF4802001F0B1
S3152000072043FA00214FF4802001F03EFA47E07B682F
S31520000730284A93420AD101214FF4002001F034FACD
S3152000074000214FF4002001F02FFA38E07B68224A7E
S3152000075093420AD101214FF4801001F025FA00219D
S315200007604FF4801001F020FA29E07B681B4A93425F
S3152000077008D10121202001F037FA0021202001F0A4
S3152000078033FA1CE07B68164A93420AD101214FF0C6
S31520000790804001F009FA00214FF0804001F004FA70
S315200007A00DE07B680F4A934209D101214FF00040AA
S315200007B001F0FAF900214FF0004001F0F5F900BFF1
S315200007C00837BD4680BD00BF0010014000440040F0
S315200007D000480040004C00400050004000140140FA
S315200007E000780040007C004080B58AB000AF786079
S315200007F0396000237B6200233B620023FB610023D8
S31520000800BB617B681B8A9BB27B627B6A23F4405365
S315200008107B623B68DB881A467B6A13437B627B6A72
S315200008209AB27B681A827B689B899BB27B627B6AC1
S3152000083023F4B05323F00C037B623B689A883B6811
S315200008401B8913439AB23B685B8913439BB21A46B2
S315200008507B6A13437B627B6A9AB27B689A817B6848
S315200008609B8A9BB27B627B6A23F440737B623B68E4
S315200008709B891A467B6A13437B627B6A9AB27B68A2
S315200008809A8207F10803184600F0D8FE7B68304AA2
S31520000890934203D07B682F4A934202D17B693B6205
S315200008A001E03B693B627B689B899BB21BB2002BB4
S315200008B00CDA3A6A13469B0013449A001A443B68A2
S315200008C01B685B00B2FBF3F3FB610BE03A6A13464D
S315200008D09B0013449A001A443B681B689B00B2FB9A
S315200008E0F3F3FB61FB691C4AA2FB03235B091B0193
S315200008F07B627B6A1B09642202FB03F3FA69D31A23
S31520000900BB617B689B899BB21BB2002B0CDABB694F
S31520000910DB003233104AA2FB03235B0903F00703F3
S315200009207A6A13437B620BE0BB691B0132330A4AA6
S31520000930A2FB03235B0903F00F037A6A13437B624E
S315200009407B6A9AB27B681A8100BF2837BD4680BD74
S3152000095000100140001401401F85EB5180B483B084
S3152000096000AF78607B684FF416521A607B680022CD
S315200009709A807B680022DA807B6800221A817B6855
S315200009800C225A817B6800229A8100BF0C37BD4613
S315200009905DF8047B704780B485B000AF786039601D
S315200009A00023FB607B681B8A9BB2FB60FB6823F4F9
S315200009B07063FB603B681A883B685B8813439AB276
S315200009C03B689B8813439AB23B68DB8813439BB2F0
S315200009D01A46FB681343FB60FB689AB27B681A824F
S315200009E000BF1437BD465DF8047B704780B483B0E2
S315200009F000AF78607B6800221A807B6800225A80CC
S31520000A007B6800229A807B680022DA8000BF0C3740
S31520000A10BD465DF8047B704780B483B000AF786034
S31520000A200B46FB70FB78002B08D07B689B899BB21A
S31520000A3043F400539AB27B689A8107E07B689B89CE
S31520000A409BB223F400539AB27B689A8100BF0C377D
S31520000A50BD465DF8047B704780B483B000AF7860F4
S31520000A600B46FB707B681B8B9BB223F0FF039AB26D
S31520000A707B681A837B681B8B9AB2FB789BB21343E5
S31520000A809AB27B681A8300BF0C37BD465DF8047B9B
S31520000A90704780B483B000AF78600B46FB70FB785C
S31520000AA0002B0AD07B689B899BB26FEA43436FEA8F
S31520000AB053439AB27B689A8107E07B689B899BB2F5
S31520000AC0C3F30E039AB27B689A8100BF0C37BD46EA
S31520000AD05DF8047B704780B483B000AF78600B4626
S31520000AE0FB70FB78002B08D07B689B8A9BB243F473
S31520000AF000639AB27B689A8207E07B689B8A9BB2E6
S31520000B0023F400639AB27B689A8200BF0C37BD46F5
S31520000B105DF8047B704780B483B000AF78600B46E5
S31520000B207B807B88C3F308039AB27B689A8000BFD8
S31520000B300C37BD465DF8047B704780B483B000AFA8
S31520000B4078607B689B889BB2C3F308039BB21846E8
S31520000B500C37BD465DF8047B704780B483B000AF88
S31520000B6078600B46FB707B681B8A9BB223F00F03D1
S31520000B709AB27B681A827B681B8A9AB2FB789BB2F0
S31520000B8013439AB27B681A8200BF0C37BD465DF8C4
S31520000B90047B704780B483B000AF78600B46FB704F
S31520000BA0FB78002B08D07B689B899BB243F002031D
S31520000BB09AB27B689A8107E07B689B899BB223F077
S31520000BC002039AB27B689A8100BF0C37BD465DF856
S31520000BD0047B704780B483B000AF78600B467B807F
S31520000BE07B689B899BB223F400639AB27B689A81C7
S31520000BF07B689B899AB27B8813439AB27B689A81D9
S31520000C0000BF0C37BD465DF8047B704780B483B0C7
S31520000C1000AF78600B467B807B681B8A9BB223F0F3
S31520000C2020039AB27B681A827B681B8A9AB27B88D9
S31520000C3013439AB27B681A8200BF0C37BD465DF813
S31520000C40047B704780B483B000AF78600B46FB709E
S31520000C50FB78002B08D07B681B8A9BB243F4804329
S31520000C609AB27B681A8207E07B681B8A9BB223F4C0
S31520000C7080439AB27B681A8200BF0C37BD465DF866
S31520000C80047B704780B483B000AF78607B689B8913
S31520000C909BB243F001039AB27B689A8100BF0C375E
S31520000CA0BD465DF8047B704780B483B000AF7860A2
S31520000CB00B46FB70FB78002B08D07B689B8A9BB287
S31520000CC043F008039AB27B689A8207E07B689B8A86
S31520000CD09BB223F008039AB27B689A8200BF0C3736
S31520000CE0BD465DF8047B704780B483B000AF786062
S31520000CF00B46FB707B681B8B9BB2DBB29AB27B6880
S31520000D001A837B681B8B9AB2FB789BB21B029BB221
S31520000D1013439AB27B681A8300BF0C37BD465DF831
S31520000D20047B704780B483B000AF78600B46FB70BD
S31520000D30FB78002B08D07B689B8A9BB243F020036C
S31520000D409AB27B689A8207E07B689B8A9BB223F0E3
S31520000D5020039AB27B689A8200BF0C37BD465DF8A5
S31520000D60047B704780B483B000AF78600B46FB707D
S31520000D70FB78002B08D07B689B8A9BB243F010033C
S31520000D809AB27B689A8207E07B689B8A9BB223F0A3
S31520000D9010039AB27B689A8200BF0C37BD465DF875
S31520000DA0047B704780B483B000AF78600B467B80AD
S31520000DB07B689B8A9BB223F004039AB27B689A8253
S31520000DC07B689B8A9AB27B8813439AB27B689A8205
S31520000DD000BF0C37BD465DF8047B704780B483B0F6
S31520000DE000AF78600B46FB70FB78002B08D07B6841
S31520000DF09B8A9BB243F002039AB27B689A8207E0F1
S31520000E007B689B8A9BB223F002039AB27B689A8204
S31520000E1000BF0C37BD465DF8047B704780B483B0B5
S31520000E2000AF78600B467B8013467B707B78002B67
S31520000E3008D07B689B8A9AB27B8813439AB27B68D8
S31520000E409A8209E07B689B8A9AB27B88DB439BB2B5
S31520000E5013409AB27B689A8200BF0C37BD465DF874
S31520000E60047B704780B487B000AF78600B467B80E8
S31520000E7013467B7000233B610023FB600023BB608D
S31520000E8000237B617B687B617B88DBB25B09DBB2FD
S31520000E903B617B8803F01F03FB600122FB6802FA9B
S31520000EA003F3BB603B69012B03D17B690C337B6168
S31520000EB009E03B69022B03D17B6910337B6102E099
S31520000EC07B6914337B617B78002B06D07B6919689C
S31520000ED07B69BA680A431A6006E07B691968BB68B1
S31520000EE0DA437B690A401A6000BF1C37BD465DF8AD
S31520000EF0047B704780B485B000AF78600B467B805A
S31520000F000023FB737B681B889AB27B8813409BB2B5
S31520000F10002B02D00123FB7301E00023FB73FB7B34
S31520000F2018461437BD465DF8047B704780B483B0FD
S31520000F3000AF78600B467B807B88DB439AB27B6868
S31520000F401A8000BF0C37BD465DF8047B704780B41D
S31520000F5087B000AF78600B467B800023FB600023C0
S31520000F607B610023BB600023FB747B88DBB25B09BB
S31520000F70DBB2BB607B8803F01F037B6101227B69A8
S31520000F8002FA03F37B61BB68012B07D17B689B893F
S31520000F909BB21A467B6913407B6111E0BB68022B2A
S31520000FA007D17B681B8A9BB21A467B6913407B61FB
S31520000FB006E07B689B8A9BB21A467B6913407B615D
S31520000FC07B881B0A9BB2FB600122FB6802FA03F3B3
S31520000FD0FB607B681B889BB21A46FB681340FB604C
S31520000FE07B69002B05D0FB68002B02D00123FB7404
S31520000FF001E00023FB74FB7C18461C37BD465DF8D8
S31520001000047B704780B485B000AF78600B467B8048
S315200010100023FB810023BB817B881B0AFB81FB8984
S31520001020012202FA03F3BB81BB89DB439AB27B68B8
S315200010301A8000BF1437BD465DF8047B704700BF99
S3152000104080B483B000AF0346FB71FB7903F01F0326
S31520001050012202FA03F1064A97F907305B0942F8A2
S31520001060231000BF0C37BD465DF8047B704700BFD8
S3152000107000E100E080B483B000AF03463960FB7125
S3152000108097F90730002B0BDA3B68DAB20C49FB796B
S3152000109003F00F03043B1201D2B20B441A7609E087
S315200010A03B68DAB2074997F907301201D2B20B44EE
S315200010B083F8002300BF0C37BD465DF8047B7047DC
S315200010C000ED00E000E100E080B582B000AF78607E
S315200010D0396000220121074807F0F5F9022117207F
S315200010E0FFF7C8FF1720FFF7ABFF00BF0837BD4645
S315200010F080BD00BF0004024080B582B000AF78609A
S3152000110039607B689B688021184607F070F9034692
S3152000111018460837BD4680BD80B582B000AF7860DE
S3152000112039607B689B683A68D2B20121184607F07D
S31520001130CAF900BF0837BD4680BD80B582B000AF72
S31520001140786039607B689B680121184607F0E2F9D0
S3152000115000BF0837BD4680BD80B584B000AF78603B
S31520001160396007F10803184606F048FF8023BB6064
S3152000117000233B733B68002B01D0082300E00C239F
S315200011807B730123BB7307F10803184606F0C4FEE0
S3152000119000BF1037BD4680BD80B584B002AF7860F1
S315200011A03960802006F07CFF0346012B14D1802075
S315200011B006F090FF7B68DB68002B10D07B68DA682E
S315200011C07B681B69002100910021002001F0E8FACC
S315200011D0054B01221A6002E0044800F0A5FE002318
S315200011E018460837BD4680BD34AD0020689C0020D7
S315200011F080B400AF164B1B68154A43F001031360F9
S31520001200134B00229A60124B1B68114A23F0A853F5
S3152000121023F4102313600E4B0E4A5A600C4B0E4AD1
S31520001220C3F884200A4B0D4AC3F88820084B1B6854
S31520001230074A23F480231360054B0022DA60044B0F
S315200012400022C3F88C2000BFBD465DF8047B7047A2
S3152000125000380240103000240030002000300024E6
S3152000126080B483B000AF0346FB71064B00221A7090
S31520001270044AFB79137000BF0C37BD465DF8047B2A
S31520001280704700BF0238024080B582B000AF00230D
S315200012903B600023FB710023BB71312000F08AFDE7
S315200012A00346BB713B6801333B603B68B3F5A04FF7
S315200012B002D0BB79002BF0D0312000F07BFD034615
S315200012C0002B02D00123FB7101E00023FB71FB7987
S315200012D018460837BD4680BD80B485B000AF0346AA
S315200012E0FB710023FB600A4B1B68FB60FB6823F045
S315200012F0F803FB60FB79DB00FA681343FB60044AC2
S31520001300FB68136000BF1437BD465DF8047B704749
S315200013100038024080B483B000AF0346FB71044A14
S31520001320FB79136000BF0C37BD465DF8047B704720
S315200013300000474280B483B000AF0346FB710D4BDB
S3152000134000221A700B4B00221A70FB79012B02D057
S31520001350042B04D007E0074B01221A7003E0054B4B
S3152000136005221A7000BF00BF0C37BD465DF8047B0E
S31520001370704700BF7038024080B483B000AF034688
S31520001380FB71044AFB79136000BF0C37BD465DF83C
S31520001390047B7047800E474280B485B000AFF8606A
S315200013A0B9607A603B607B689A01BB681A433B68E8
S315200013B05B08013B1B041A43FB681A43BB691B06E7
S315200013C0044913434B6000BF1437BD465DF8047BC8
S315200013D0704700BF0038024080B483B000AF034698
S315200013E0FB71044AFB79136000BF0C37BD465DF8DC
S315200013F0047B70476000474280B483B000AF7860BA
S3152000140039607B689A013B681B0705491343C1F87D
S31520001410843000BF0C37BD465DF8047B704700BFA3
S315200014200038024080B483B000AF0346FB71044A03
S31520001430FB79136000BF0C37BD465DF8047B70470F
S315200014406800474280B485B000AFF860B9607A6022
S31520001450FB689A01BB681B061A437B681B07054974
S315200014601343C1F8883000BF1437BD465DF8047BAE
S31520001470704700BF0038024080B483B000AF0346F7
S31520001480FB71044AFB79136000BF0C37BD465DF83B
S31520001490047B70477000474280B483B000AF034698
S315200014A0FB71044AFB79136000BF0C37BD465DF81B
S315200014B0047B70474C00474280B485B000AF78600B
S315200014C039600023FB600B4B9B68FB60FB6823F0B5
S315200014D0EC63FB607A683B681343FA681343FB604E
S315200014E0044AFB68936000BF1437BD465DF8047B51
S315200014F0704700BF0038024080B485B000AF7860E6
S3152000150039600023FB600B4B9B68FB60FB6823F074
S315200015107843FB607A683B681343FA681343FB60A1
S31520001520044AFB68936000BF1437BD465DF8047B10
S31520001530704700BF0038024080B485B000AF7860A5
S315200015400023FB60094B9B68FB60FB6823F00303C9
S31520001550FB60FA687B681343FB60044AFB68936070
S3152000156000BF1437BD465DF8047B70470038024043
S3152000157080B400AF054B9B68DBB203F00C03DBB2F3
S315200015801846BD465DF8047B704700BF0038024010
S3152000159080B485B000AF78600023FB60094B9B6860
S315200015A0FB60FB6823F0F003FB60FA687B6813435B
S315200015B0FB60044AFB68936000BF1437BD465DF8A4
S315200015C0047B70470038024080B485B000AF786055
S315200015D00023FB60094B9B68FB60FB6823F4E05308
S315200015E0FB60FA687B681343FB60044AFB689360E0
S315200015F000BF1437BD465DF8047B704700380240B3
S3152000160080B485B000AF78600023FB600A4B9B68EE
S31520001610FB60FB6823F46043FB607B68DB00FA68B1
S315200016201343FB60044AFB68936000BF1437BD4632
S315200016305DF8047B704700BF0038024080B489B053
S3152000164000AF78600023BB6100237B610023FB6130
S3152000165002233B610023FB600223BB604A4B9B684D
S3152000166003F00C03BB61BB69082B11D0BB69082BA7
S3152000167044D8BB69002B03D0BB69042B04D03DE0C2
S315200016807B68424A1A603DE07B68414A1A6039E02D
S315200016903D4B5B689B0D03F00103FB603A4B5B6897
S315200016A003F03F03BB60FB68002B0CD0384ABB68B5
S315200016B0B2FBF3F3344A52689209C2F3080202FBE2
S315200016C003F3FB610BE0314ABB68B2FBF3F32E4A0E
S315200016D052689209C2F3080202FB03F3FB612A4B0C
S315200016E05B681B0C03F0030301335B003B61FA6963
S315200016F03B69B2FBF3F27B681A6003E07B68234AFE
S315200017001A6000BF204B9B6803F0F003BB61BB69E6
S315200017101B09BB611F4ABB6913441B78DBB27B6183
S315200017207B681A687B69DA407B685A60164B9B682F
S3152000173003F4E053BB61BB699B0ABB61154ABB69D5
S3152000174013441B78DBB27B617B685A687B69DA407D
S315200017507B689A600C4B9B6803F46043BB61BB6952
S315200017605B0BBB610B4ABB6913441B78DBB27B6105
S315200017707B685A687B69DA407B68DA6000BF243769
S31520001780BD465DF8047B7047003802400024F40013
S3152000179000127A00D4A6002080B485B000AF78600D
S315200017A00023FB607B6803F44073B3F5407F11D1BF
S315200017B00F4B9B68FB60FB6823F4F813FB607B6888
S315200017C023F0704323F44073FA681343FB60084AFE
S315200017D0FB689360064B1A6F7B68C3F30B030449BF
S315200017E013430B6700BF1437BD465DF8047B704773
S315200017F00038024080B483B000AF0346FB71044A30
S31520001800FB79136000BF0C37BD465DF8047B70473B
S315200018103C0E474280B483B000AF0346FB71044AB6
S31520001820FB79136000BF0C37BD465DF8047B70471B
S31520001830400E474280B483B000AF7860044A7B688C
S31520001840136000BF0C37BD465DF8047B704700BFB0
S315200018505C01474280B485B000AF78600023FB600E
S315200018600B4BD3F88C30FB60FB6823F01F03FB6027
S315200018707B68013BFA681343FB60054AFB68C2F8A4
S315200018808C3000BF1437BD465DF8047B704700BF1F
S315200018900038024080B485B000AF78600023FB603A
S315200018A00B4BD3F88C30FB60FB6823F4F853FB60BA
S315200018B07B68013B1B02FA681343FB60044AFB6802
S315200018C0C2F88C3000BF1437BD465DF8047B7047E4
S315200018D00038024080B485B000AF78600023FB60FA
S315200018E00A4BD3F88C30FB60FB6823F44013FB6073
S315200018F0FA687B681343FB60044AFB68C2F88C30A5
S3152000190000BF1437BD465DF8047B7047003802409F
S3152000191080B485B000AF78600023FB600A4BD3F813
S315200019208C30FB60FB6823F44003FB60FA687B681D
S315200019301343FB60044AFB68C2F88C3000BF14379F
S31520001940BD465DF8047B70470038024080B485B000
S3152000195000AF78600023FB600A4BD3F88C30FB6025
S31520001960FB6823F44033FB60FA687B681343FB6013
S31520001970044AFB68C2F88C3000BF1437BD465DF8B8
S31520001980047B70470038024080B483B000AF786093
S31520001990044A7B68136000BF0C37BD465DF8047BA4
S315200019A0704700BFE011474280B483B000AF786033
S315200019B00B46FB70FB78002B06D00A4B1A6B0949A5
S315200019C07B6813430B6306E0064B1A6B7B68DB438D
S315200019D0044913400B6300BF0C37BD465DF8047BFA
S315200019E0704700BF0038024080B483B000AF7860F3
S315200019F00B46FB70FB78002B06D00A4B5A6B094925
S31520001A007B6813434B6306E0064B5A6B7B68DB43CC
S31520001A10044913404B6300BF0C37BD465DF8047B79
S31520001A20704700BF0038024080B483B000AF7860B2
S31520001A300B46FB70FB78002B06D00A4B9A6B0949A4
S31520001A407B6813438B6306E0064B9A6B7B68DB430C
S31520001A50044913408B6300BF0C37BD465DF8047BF9
S31520001A60704700BF0038024080B483B000AF786072
S31520001A700B46FB70FB78002B06D00A4B1A6C0949E3
S31520001A807B6813430B6406E0064B1A6C7B68DB43CA
S31520001A90044913400B6400BF0C37BD465DF8047B38
S31520001AA0704700BF0038024080B483B000AF786032
S31520001AB00B46FB70FB78002B06D00A4B5A6C094963
S31520001AC07B6813434B6406E0064B5A6C7B68DB430A
S31520001AD0044913404B6400BF0C37BD465DF8047BB8
S31520001AE0704700BF0038024080B483B000AF7860F2
S31520001AF00B46FB70FB78002B06D00A4B1A69094966
S31520001B007B6813430B6106E0064B1A697B68DB434F
S31520001B10044913400B6100BF0C37BD465DF8047BBA
S31520001B20704700BF0038024080B483B000AF7860B1
S31520001B300B46FB70FB78002B06D00A4B5A690949E5
S31520001B407B6813434B6106E0064B5A697B68DB438F
S31520001B50044913404B6100BF0C37BD465DF8047B3A
S31520001B60704700BF0038024080B483B000AF786071
S31520001B700B46FB70FB78002B06D00A4B9A69094965
S31520001B807B6813438B6106E0064B9A697B68DB43CF
S31520001B90044913408B6100BF0C37BD465DF8047BBA
S31520001BA0704700BF0038024080B483B000AF786031
S31520001BB00B46FB70FB78002B06D00A4B1A6A0949A4
S31520001BC07B6813430B6206E0064B1A6A7B68DB438D
S31520001BD0044913400B6200BF0C37BD465DF8047BF9
S31520001BE0704700BF0038024080B483B000AF7860F1
S31520001BF00B46FB70FB78002B06D00A4B5A6A094924
S31520001C007B6813434B6206E0064B5A6A7B68DB43CC
S31520001C10044913404B6200BF0C37BD465DF8047B78
S31520001C20704700BF0038024080B483B000AF7860B0
S31520001C300B46FB70FB78002B06D00A4B1A6D094920
S31520001C407B6813430B6506E0064B1A6D7B68DB4306
S31520001C50044913400B6500BF0C37BD465DF8047B75
S31520001C60704700BF0038024080B483B000AF786070
S31520001C700B46FB70FB78002B06D00A4B5A6D0949A0
S31520001C807B6813434B6506E0064B5A6D7B68DB4346
S31520001C90044913404B6500BF0C37BD465DF8047BF5
S31520001CA0704700BF0038024080B483B000AF786030
S31520001CB00B46FB70FB78002B06D00A4B9A6D094920
S31520001CC07B6813438B6506E0064B9A6D7B68DB4386
S31520001CD0044913408B6500BF0C37BD465DF8047B75
S31520001CE0704700BF0038024080B483B000AF7860F0
S31520001CF00B46FB70FB78002B06D00A4B1A6E09495F
S31520001D007B6813430B6606E0064B1A6E7B68DB4343
S31520001D10044913400B6600BF0C37BD465DF8047BB3
S31520001D20704700BF0038024080B483B000AF7860AF
S31520001D300B46FB70FB78002B06D00A4B5A6E0949DE
S31520001D407B6813434B6606E0064B5A6E7B68DB4383
S31520001D50044913404B6600BF0C37BD465DF8047B33
S31520001D60704700BF0038024080B483B000AF0346FE
S31520001D700A46FB711346BB71BB79002B08D00C4B6E
S31520001D801B78DAB20A49FB791343DBB20B7009E000
S31520001D90074B1B78DAB2FB79DB43DBB204491340ED
S31520001DA0DBB20B7000BF0C37BD465DF8047B704775
S31520001DB00D38024080B487B000AF0346FB71002384
S31520001DC0FB6000237B610023FB74FB795B09DBB29C
S31520001DD0FB60FB68012B03D1124B1B687B6109E07A
S31520001DE0FB68022B03D10F4B1B6F7B6102E00D4B6F
S31520001DF05B6F7B61FB7903F01F03FB607A69FB68ED
S31520001E0022FA03F303F00103002B02D00123FB7413
S31520001E1001E00023FB74FB7C18461C37BD465DF8A9
S31520001E20047B70470038024080B400AF054B5B6FDF
S31520001E30044A43F08073536700BFBD465DF8047BB8
S31520001E40704700BF0038024080B485B000AF03461B
S31520001E50FB710023FB73094BDA68FB791340002BD7
S31520001E6002D00123FB7301E00023FB73FB7B1846A2
S31520001E701437BD465DF8047B704700BF003802402A
S31520001E8080B483B000AF0346FB71044AFB7913701C
S31520001E9000BF0C37BD465DF8047B70470E38024004
S31520001EA080B483B000AF0346FB71FB7903F01F03B8
S31520001EB0012202FA03F1064A97F907305B0942F834
S31520001EC0231000BF0C37BD465DF8047B704700BF6A
S31520001ED000E100E080B483B000AF03463960FB71B7
S31520001EE097F90730002B0BDA3B68DAB20C49FB79FD
S31520001EF003F00F03043B1201D2B20B441A7609E019
S31520001F003B68DAB2074997F907301201D2B20B447F
S31520001F1083F8002300BF0C37BD465DF8047B70476D
S31520001F2000ED00E000E100E080B582B000AF78600F
S31520001F300EE07B681B780D2B07D07B685A1C7A60D5
S31520001F401B78184600F060F902E07B6801337B605D
S31520001F507B681B78002BECD100BF00BF0837BD463D
S31520001F6080BD80B586B000AF786000237B617B683A
S31520001F7003F00F027B69591C796110498A5C07F1CD
S31520001F8018010B4403F80C2C7B681B097B607B68CB
S31520001F90002BECD10AE07B69013B7B6107F10C0247
S31520001FA07B6913441B78184600F02EF97B69002BB9
S31520001FB0F1D100BF00BF1837BD4680BDE4A6002082
S31520001FC080B59EB000AF78607B68002B02DA4FF0B8
S31520001FD0FF3300E001233B677B683A6F02FB03F384
S31520001FE07B6000237B6779681C4B83FB01239A1057
S31520001FF0CB17D21A13469B0013445B00CA1A7B6F79
S31520002000591C796716498A5C07F178010B4403F855
S315200020106C2C7B68114A82FB03129210DB17D31AB1
S315200020207B607B68002BDED13B6F002B0EDA2D20E8
S3152000203000F0EAF80AE07B6F013B7B6707F10C02B0
S315200020407B6F13441B78184600F0DEF87B6F002B5D
S31520002050F1D100BF00BF7837BD4680BD6766666692
S31520002060E4A6002080B483B000AF10237B607B6899
S3152000207083F3118800BF00BF0C37BD465DF8047B93
S31520002080704780B483B000AF30237B607B6883F3D6
S31520002090118800BF00BF0C37BD465DF8047B704732
S315200020A080B584B000AF78600B48FFF73DFF0B4B3F
S315200020B01B68002B02D1094B094A1A60074B1B6883
S315200020C0FB60064B1A687B681344044A1360FB685E
S315200020D018461037BD4680BD8C9C002098B0002045
S315200020E0B030012080B485B000AF786039603B689D
S315200020F003F5F95310337A6813607B681B68BB605D
S315200021000023FB600AE0FB689B001A46BB68134469
S315200021101A4600231360FB680133FB60FB68332BF0
S31520002120F1DDBB686FF016021A60BB6804331A46ED
S3152000213003231360BB6884331A464FF08073136001
S3152000214000BF1437BD465DF8047B704780B485B068
S3152000215000AF786039607B681B688033FB60FB6862
S315200021603A681A6000BF1437BD465DF8047B704795
S3152000217080B584B000AF1D4802F0CCFF3B1D184649
S3152000218003F014F940F24733BB803B1D194617482C
S3152000219003F0A0F8164B174A1A6002216FF00100CF
S315200021A0FFF798FE144B154A1A6000216FF00400C1
S315200021B0FFF790FE124B134A1A6002213220FFF7D6
S315200021C089FE3220FFF76CFE0021084803F038F91B
S315200021D00121064803F001FA01220221034804F0F6
S315200021E0D0F900BF1037BD4680BD00BF000C0040AF
S315200021F038C00120210000202CC001201D00002015
S3152000220008C101208F25002080B582B000AF03468B
S31520002210FB71FB799BB219460748FEF77CFC00BF91
S3152000222080210548FEF766FE0346002BF8D000BF46
S3152000223000BF0837BD4680BD0010014080B500AF05
S31520002240124803F019F903461A46114B1A60114B2E
S3152000225001221A60104B00221A60104B1B68002BBB
S3152000226006D00E4B1B680E4A12680021104698476E
S31520002270084B00221A60084B1B68002B01D000F087
S315200022805DFA054B00221A6000BF80BD000C00409D
S3152000229038AD002030AD002034AD0020A8AD0020A0
S315200022A048AD002080B500AF124803F0E5F803469C
S315200022B01A46114B1A60114B01221A60104B00224C
S315200022C01A60104B5B68002B06D00E4B5B680E4ADB
S315200022D05268012110469847084B00221A60084B85
S315200022E01B68002B01D000F029FA054B00221A604A
S315200022F000BF80BD000C004038AD002030AD00206E
S3152000230034AD0020A8AD002048AD002080B500AF38
S31520002310124803F0B1F803461A46114B1A60114BC6
S3152000232001221A60104B00221A60104B9B68002B6A
S3152000233006D00E4B9B680E4A92680221104698479B
S31520002340084B00221A60084B1B68002B01D000F0B6
S31520002350F5F9054B00221A6000BF80BD000C004035
S3152000236038AD002030AD002034AD0020A8AD0020CF
S3152000237048AD002080B485B000AF78603960002376
S31520002380FB603B681B68BB6004E0BB68FB60BB6806
S315200023901B68BB60BB68002B05D0BB689A687B684E
S315200023A09B689A42F1DD7B68BA681A60FB68002B4D
S315200023B003D13B687A681A6002E0FB687A681A6083
S315200023C000BF1437BD465DF8047B704780B485B0E6
S315200023D000AF786039600023FB603B681B68BB60F8
S315200023E004E0BB68FB60BB681B68BB60BB68002B56
S315200023F005D0BB685A687B685B689A42F1DD7B68CA
S31520002400BA681A60FB68002B03D13B687A681A60A9
S3152000241002E0FB687A681A6000BF1437BD465DF893
S31520002420047B704780B584B000AF78607B681B68FA
S31520002430FB60FB68002B04D0FB681A687B681A6077
S315200024400CE00948FFF770FD00220221074806F03C
S315200024503AF80748FFF768FD30BFFDE7FB681846E6
S315200024601037BD4680BD00BFA49C0020000402405A
S31520002470B09C002080B584B000AF78607B681B6874
S31520002480FB60FB68002B04D0FB681A687B681A6027
S315200024900CE00948FFF748FD00220221074806F014
S315200024A012F80748FFF740FD30BFFDE7FB681846E6
S315200024B01037BD4680BD00BFA49C0020000402400A
S315200024C0BC9C002080B483B000AF786039603B6844
S315200024D01A687B681A603B687A681A6000BF0C37F6
S315200024E0BD465DF8047B704780B483B000AF78604A
S315200024F039603B681A687B689A603B687A681A601C
S3152000250000BF0C37BD465DF8047B704780B485B0AC
S3152000251000AF78607B681B68FB60FB689A687B6805
S315200025201A60FB6818461437BD465DF8047B704771
S3152000253080B485B000AF786039600023FB603B68CB
S315200025401B68BB6004E0BB68FB60BB681B68BB60A4
S31520002550BB68002B03D0BA687B689A42F3D1BB686C
S31520002560002B0DD0FB68002B04D0BB681A68FB68D3
S315200025701A6003E0BB681A683B681A60012300E012
S31520002580002318461437BD465DF8047B704780B596
S3152000259082B000AF02211E4804F07DF81C4802F0EC
S315200025A06BFF03467B6007E01A48FFF73BFF0346B5
S315200025B019491846FFF7DEFE164B1B68002B06D07E
S315200025C0144B1B685A687B68D31A002BECDD114B21
S315200025D01B68002B16D00E4802F04EFF03463B60C8
S315200025E00C4B1B685B683A689A4204DD0022022184
S315200025F00A4805F068FF074B1B685B6819460448C4
S3152000260003F079FA00F09AF800BF0837BD4680BD7E
S31520002610000C00402CAD002028AD00200004024014
S315200026200346024A136010DFF74600BF54AD002070
S315200026300346054A1360054B5B68044A43F0805302
S315200026405360F74600BF00BF54AD002000ED00E008
S3152000265080B582B000AF7860094B5B68C3F308038E
S31520002660002B03D17868FFF7DBFF02E07868FFF7DD
S31520002670DFFFFFF706FD00BF0837BD4680BD00BF60
S3152000268000ED00E090B585B000AF234B1C682348D1
S31520002690FFF7C8FE0346E360E368BB60FFF7F1FC83
S315200026A0BB68D868BB681969BB685B691A4600F0C5
S315200026B015F9FFF7D7FC1A49B868FFF703FF194B3E
S315200026C01B689B68DB687B60144B1B68002B0AD059
S315200026D07B68002BD9D0114B1B689A687B689B6856
S315200026E0D31A002BD1DD0F48FFF710FF03460E4902
S315200026F01846FFF7F9FE0B4B1B68FB6003E0FB68EF
S315200027001B691B68FB60FB681B69002BF7D1F86807
S31520002710FFF79EFFB9E700BF04A7002028AD0020E1
S31520002720F8A6002000A70020FCA6002080B500AF58
S3152000273000F004F8FFF7A5FC30BFFBE780B582B0B8
S3152000274000AF144B1B68DB687B60134B1B68002BA8
S315200027501BD0124B1B68002B17D07B68002B07D091
S315200027600D4B1B689A687B689B68D31A002B0CDA82
S315200027700A48FFF7CBFE034606491846FFF7B4FE84
S31520002780044B1B681846FFF763FF00BF0837BD469A
S3152000279080BD00BF00A7002028AD0020FCA6002099
S315200027A080B588B000AFF860B9607A603B60EFF31F
S315200027B012833B613B691B09012B14BF01230023B4
S315200027C0DBB2FB77FFF74EFC3A48FFF753FEB861C2
S315200027D0BB697A68DA60BB693A681A61BB69BA6A0A
S315200027E05A61354B1B68002B04D1344B1B68DB68C0
S315200027F05B6801E0324B1B68FA681A44BB695A6071
S31520002800BB695A68BB68002B01DDBB6801E06FF02D
S3152000281000431A44BB699A602A4802F02DFE0346FB
S315200028207B61BB695A687B69D31A002B16DD264962
S31520002830B869FFF7CBFD244B1B685B687A699A421F
S3152000284004DD00220221214805F03DFE1E4B1B68B7
S315200028505B6819461B4803F04EF921E01C49B8690C
S31520002860FFF788FDFB7F002B1AD01A4B1B68002B25
S3152000287016D0174B1B689A68174B1B68DB689B683A
S31520002880D31A002B0CDA1348FFF740FE03461249F1
S315200028901846FFF729FE104B1B681846FFF7D8FE8F
S315200028A0FB7F002B01D0FFF7ECFBBB6918462037D6
S315200028B0BD4680BDF8A6002030AD002004A700202C
S315200028C038AD0020000C00402CAD00200004024052
S315200028D028AD0020FCA6002000A7002080B588B0E7
S315200028E000AFF860B9607A60EFF312833B613B6911
S315200028F01B09012B14BF01230023DBB2FB76FFF754
S31520002900B1FBFB681B68FB61FB69002B37D003E03A
S31520002910FB691B691B68FB61FB691B69002BF7D1EF
S31520002920304B1B68FA699A4202D0FB7E002B07D1F6
S31520002930FB7E002B01D0FFF7A4FB4FF0FF334DE0C9
S31520002940FB685B68002B03D0FB685B6800221A617A
S31520002950244B1A68FB685A60224B1B68FA681A6176
S31520002960F869FFF775FE1F4B1B68DB68002B06D145
S31520002970FB7E002B01D0FFF784FB00232EE0194BB2
S315200029801A68FB681A60FB7E002B05D0FB685B6823
S31520002990012B01D0FFF775FBBB687968F86898476B
S315200029A07861FFF75FFBFB6800221A60FB685B68B3
S315200029B0FB61FB69002B0BD0FB69012B08D0FB6860
S315200029C000225A60FB6900221A61F869FFF740FE6F
S315200029D0FB7E002B01D0FFF754FB7B69184620377E
S315200029E0BD4680BD04A7002080B586B000AF7860C4
S315200029F0EFF31283FB60FB681B09012B14BF012335
S31520002A000023DBB2FB74FFF72DFB1F497868FFF725
S31520002A108FFD0346002B06D11C497868FFF788FDF9
S31520002A200346002B04D01A497868FFF74BFD21E0B6
S31520002A30184B1B687B611AE0174B1B687A699A4210
S31520002A4012D07B69DB687A689A420DD17B691A6954
S31520002A507B68DB689A4207D17B690022DA600C49E1
S31520002A607868FFF72FFD05E07B699B687B617B69B2
S31520002A70002BE1D1FB7C002B01D0FFF702FB00BF2E
S31520002A801837BD4680BD00BF2CAD002028AD0020E4
S31520002A90F8A6002000A7002004A7002080B485B057
S31520002AA000AF7860EFF31283FB60FB681B09012BF4
S31520002AB004D0074B1B68DB685B6801E0054B1B688D
S31520002AC07A68136000BF1437BD465DF8047B7047F3
S31520002AD004A7002038AD002080B485B000AF786010
S31520002AE0EFF31283FB60FB681B09012B04D0084B14
S31520002AF01B68DB685B6801E0064B1B687A68126816
S31520002B009B1A18461437BD465DF8047B704700BFF4
S31520002B1004A7002038AD002080B584B000AFEFF3C5
S31520002B2012837B607B681B09012B14BF01230023C2
S31520002B30DBB2FB73FFF796FA0C4802F09DFC0346C6
S31520002B40BB60FB7B002B01D0FFF79BFAFB7B002BA6
S31520002B5004D0074B1B68DB685B6801E0054B1B68EC
S31520002B60BA68D31A18461037BD4680BD000C0040FF
S31520002B7004A7002038AD002080B582B000AF002326
S31520002B807B6012E07B685A1C13465B001344DB0013
S31520002B90444A991843487A6813465B001344DB007D
S31520002BA0034419607B6801337B607B681C2BE9DD5D
S31520002BB03C4B0022C3F8B82200237B6013E07B68DD
S31520002BC05A1C13469B0013449B00374A99183648D3
S31520002BD07A6813469B0013449B000344083319600C
S31520002BE07B6801337B607B68022BE8DD2E4B00225D
S31520002BF05A6400237B6030E02B497A6813469B0099
S31520002C0013449B000B4404337A681A607A6813468F
S31520002C109B0013449B00244A1A447B685B03234988
S31520002C200B4419461046FFF75DFA7A6813469B0057
S31520002C3013449B001C4A13441D491846FFF786FA85
S31520002C4019497A6813469B0013449B000B441033A2
S31520002C5000221A607B6801337B607B68032BCBDD07
S31520002C60144B4FF0FF325A60124B00229A60114BE0
S31520002C7000221A610F4B0022DA600F48FFF754F941
S31520002C800E48FFF751F90E48FFF74EF90A48FFF7AD
S31520002C904BF90948FFF748F9FFF76AFA00BF0837EA
S31520002CA0BD4680BDC8AD002058AD0020A0B0002094
S31520002CB085260020B4AD0020C89C0020CC9C002096
S31520002CC0D89C002080B586B000AFF860B960134666
S31520002CD0FB71FB79022B41D8EFF312833B613B69F1
S31520002CE01B09012B14BF01230023DBB2FB75FFF761
S31520002CF0B9F9FB79022B0ED0022B10DC002B02D067
S31520002D00012B04D00BE0174B174A1A6014E0174B1F
S31520002D10174A1A6010E0174B174A1A600CE017483A
S31520002D20FFF702F900220221154805F0CCFB1548D1
S31520002D30FFF7FAF830BFFDE7FB791349FA6841F847
S31520002D402320FB791149BA6841F82320FB68012228
S31520002D505A60FB7D002B01D0FFF793F900BF18378F
S31520002D60BD4680BDD4C001203D22002090C0012058
S31520002D70A52200209CC001200D230020A49C002019
S31520002D8000040240F09C002048AD0020A8AD0020A1
S31520002D9080B586B002AFF860B9607A60FFF762F955
S31520002DA0FFF7EAFEBB68002B16D00F4802F064FB43
S31520002DB003461A460D4B1A600D4B01221A607B689A
S31520002DC00093BB68FA6800210020FFF7E9FC084B56
S31520002DD000221A60FFF7B2FCFFF7A8FC0023184672
S31520002DE01037BD4680BD00BF000C004038AD002026
S31520002DF030AD002080B5A0B000AF786039603A6869
S31520002E0007F170031068516803C31189927A1980FB
S31520002E109A7097F8703007F10C00364A642106F054
S31520002E2027F907F10C031A4633493448FFF756FDB4
S31520002E307B685B690133042B57D801A252F823F033
S31520002E40552E0020E12E0020E12E0020C12E00204C
S31520002E50E12E002097F870307E2B1AD07E2B41DC95
S31520002E607A2B02D07B2B0CD03CE0254B1A462249EC
S31520002E702248FFF733FD7B689B685A1C7B689A6063
S31520002E801DE07B6801225A6197F871301A467B68EB
S31520002E901A611C4B1A4618491848FFF71FFD07F1FF
S31520002EA070030333184606F0ABF8F8677B689B6817
S31520002EB0FA6F9A4202DD7B68FA6F9A6000BF11E0D2
S31520002EC097F870307F2B0FD197F871301A467B68B0
S31520002ED0DB689A4202DD7B6800229A6100BF03E02C
S31520002EE000BF02E000BF00E000BF00BF8037BD4644
S31520002EF080BD00BF109D00206B05002018A8002073
S31520002F00249D00205C9D002080B5A2B002AF786091
S31520002F1039601F4B1A461F491F48FFF7DFFC7B68A5
S31520002F209A687B68DB6807F11000009313461B4AFA
S31520002F30642106F09DF807F110031A461549164834
S31520002F40FFF7CCFC7B68DB68DBB287F875307E2325
S31520002F5087F874307B689B6883EAE372A2EBE3729E
S31520002F6007F10C030E49184606F0D2F8012387F81C
S31520002F7076303B7B87F8773007F174031A46094988
S31520002F800948FFF7ABFC00BF8037BD4680BD00BFB8
S31520002F90949D00206B05002018A80020D49D0020B9
S31520002FA0F09D0020FF3500204CAC002080B5A0B05D
S31520002FB002AF78603960144B1A4614491448FFF75B
S31520002FC08DFC7B6899687B681B697A68D26807F1F3
S31520002FD00800019200930B460E4A642106F048F839
S31520002FE007F108031A4609490948FFF777FC7B6869
S31520002FF0DB68DBB287F86D307A2387F86C3000BF48
S315200030007837BD4680BD00BFF49D00206B050020AB
S3152000301018A80020389E002080B586B000AF7860C2
S3152000302039600B4B1A460B490B48FFF757FC7B6858
S315200030301B69DBB27B737D233B7307F10C031A46B6
S3152000304006490748FFF74AFC00BF1837BD4680BD32
S31520003050609E00206B05002018A80020FF35002068
S315200030604CAC002080B586B000AF786039600B4B41
S315200030701A460B490B48FFF731FC7B68DB68DBB24D
S315200030807B737B233B7307F10C031A4606490748DB
S31520003090FFF724FC00BF1837BD4680BDA09E002048
S315200030A06B05002018A80020FF3500204CAC00201E
S315200030B080B586B000AF786039600D4B1A460D4951
S315200030C00D48FFF70BFC7B68DB68DBB27B737F2345
S315200030D03B7307F10C031A4608490948FFF7FEFB24
S315200030E07B6802225A6100BF1837BD4680BD00BFEB
S315200030F0F09E00206B05002018A80020FF35002038
S315200031004CAC002080B586B000AF78603960114B9A
S315200031101A4611491148FFF7E1FB7B68DB68DBB2F1
S315200031207B737C233B7307F108033A680C491846E6
S3152000313005F0EEFF0123BB733B7AFB7307F10C030B
S315200031401A4608490848FFF7C9FB00BF1837BD468D
S3152000315080BD00BF349F00206B05002018A80020EA
S31520003160F09D0020FF3500204CAC002080B483B0B9
S3152000317000AF786039607B6802225A6100BF0C3745
S31520003180BD465DF8047B704780B584B002AF786099
S3152000319039607B689B69002B0BD07B6800225A61C3
S315200031A000230093084B7A6800210020FFF7F8FAE5
S315200031B003E07B684FF0FF325A617B6801229A61F7
S315200031C000BF0837BD4680BD6530002080B584B07D
S315200031D002AF78603960002300930C4B0C4A002123
S315200031E00020FFF7DDFA0B4B1A460B490B48FFF779
S315200031F075FB002300930A4B054A00210948FFF777
S31520003200CFFA00BF0837BD4680BD00BFAD2F0020D6
S3152000321008A70020849F00206B05002018A8002006
S31520003220092F0020400D030080B59CB000AF7860C8
S3152000323039607B689B6807F10C00074A642105F01A
S3152000324017FF07F10C031A4604490548FFF746FB0A
S3152000325000BF7037BD4680BDA09F00206B050020B3
S3152000326018A8002080B483B000AF0346FB71FB7919
S3152000327003F01F03012202FA03F1064A97F90730E9
S315200032805B0942F8231000BF0C37BD465DF8047B6E
S31520003290704700BF00E100E080B483B000AF034672
S315200032A03960FB7197F90730002B0BDA3B68DAB2ED
S315200032B00C49FB7903F00F03043B1201D2B20B44F5
S315200032C01A7609E03B68DAB2074997F90730120106
S315200032D0D2B20B4483F8002300BF0C37BD465DF8FD
S315200032E0047B704700ED00E000E100E080B586B089
S315200032F000AF786039607B6800229A617B689A69A2
S315200033007B685A617B685A697B68DA6107F10C032E
S31520003310184603F0C5FE0023BB740023FB7400236C
S315200033203B7501237B751C48FEF7FEFD0023BB750C
S315200033300023FB750023BB730023FB7302233B741E
S3152000334003237B740723BB8107F10C03194613481B
S3152000335003F012FD0346002B02D11148FEF7E4FDCF
S3152000336007F10C0319460F4803F006FD0346002B10
S3152000337002D10D48FEF7D8FD02211420FFF78CFF5D
S315200033801420FFF76FFF01220221044804F0C6FA39
S3152000339000BF1837BD4680BDB49F002000640040A2
S315200033A0D89F002000680040F09F0020B0B58AB06A
S315200033B002AF786039607B689B685A49184604F0EA
S315200033C0CBFA0346012B02D05748FEF7ADFD7B68AA
S315200033D0DB69072B00F39F807B689B6807F1080257
S315200033E00021184604F0A0F8BB681B09DBB27A68F6
S315200033F0526903F07F03D8B2796813469B001344C1
S315200034005B0013440B44203302461A70BB68DBB2C0
S315200034107A68526903F00F03D8B2796813469B0085
S3152000342013445B0013440B44213302461A70BB7CC1
S315200034307A68526903F00F03D8B2796813469B0065
S3152000344013445B0013440B44223302461A700023B4
S31520003450FB7716E0FB7F7A685269F97F07F1200037
S31520003460034413F80D4C786813469B0013445B0005
S31520003470134403440B44233322461A70FB7F013343
S31520003480FB777B685A69796813469B0013445B0077
S3152000349013440B4422331B78FA7F9A42DAD37B6893
S315200034A0DB68002B25D07B68DC687B681D697B6820
S315200034B05A69796813469B0013445B0013440B44F6
S315200034C020331B7819017B685A69786813469B005C
S315200034D013445B001344034421331B780B440093AD
S315200034E02B46224600210020FFF75AF90F4B0122D6
S315200034F01A607B685B6901335A4203F0070302F0C6
S31520003500070258BF53427A6853617B68DB695A1CAD
S315200035107B68DA6102E00648FEF706FD00BF203729
S31520003520BD46B0BD0300001208A0002034AD002027
S3152000353030A0002090B484B000AF786039607B68FA
S31520003540DB69002B55DD7B689A69796813469B00F9
S3152000355013445B0013440B4420331A783B681A70DB
S315200035607B689A69796813469B0013445B00134471
S315200035700B4421331A783B685A707B689A697968BC
S3152000358013469B0013445B0013440B4422331A78E2
S315200035903B689A700023FB7313E07B689A69F87B7B
S315200035A0F97B7C6813469B0013445B001344234439
S315200035B0034423331A783B680B44DA70FB7B0133D0
S315200035C0FB733B689B78FA7B9A42E6D37B689B69C0
S315200035D001335A4203F0070302F0070258BF534251
S315200035E07A6893617B68DB695A1E7B68DA610023FF
S315200035F000E0012318461037BD4690BC704780B5C1
S315200036008AB000AF786039607B689B683B62002394
S31520003610FB773B681B781B013A6852781344BB60E2
S3152000362000237B7400233B743B689B78082B02D9CC
S315200036303B6808229A703B689B78BB74002387F806
S31520003640273010E097F8272097F8273039680A4462
S31520003650D27807F128010B4403F8152C97F8273068
S31520003660013387F827303B689B7897F827209A42C2
S31520003670E8D307F108031946386A03F0D5FD034657
S31520003680FB77FB7F042B04D10F48FEF74DFC01236B
S3152000369016E000BFFB7F1946386A03F096FE034604
S315200036A0022BF7D0FB7F1946386A03F08EFE0346BD
S315200036B0002B04D10548FEF737FC012300E0002348
S315200036C018462837BD4680BD50A0002064A00020A3
S315200036D080B584B000AF7860396000220F49104869
S315200036E0FFF7FCF8F8607B6888331846FFF7F4F993
S315200036F0B8607B68D3F89430BA68D31A094A9342E3
S3152000370008DDFB68002B05D1074B1A4607490848F8
S31520003710FFF7E4F800BF1037BD4680BDF910002042
S3152000372038AC00209F860100D8A100206B05002020
S3152000373018A80020B0B5BAB000AF78603960002371
S31520003740C7F8E4307B68DB6F022B0CDC7B68DA6F12
S315200037507B681C32396843F822107B68DB6F5A1C61
S315200037607B68DA6715E07B683A681A670023C7F832
S31520003770E0307B681B6FC7F8E0307B685A6F7B6848
S315200037801A677B689A6F7B685A677B68D7F8E02050
S315200037909A677B68DB6F032B40F0A1807B681A6FEA
S315200037A07B685B6FD31A504A9342C0F298807B683D
S315200037B01A6F7B685B6FD31A42F20F72934200F343
S315200037C08E807B681A6F7B689B6FD31A464A93421A
S315200037D0C0F285807B681A6F7B689B6FD31A42F292
S315200037E00F7293427BDC7B689A6F7B685B6FD31A80
S315200037F03D4A934273DB7B689A6F7B685B6FD31A73
S3152000380042F20F7293426ADC7B681A6F7B685B6FA9
S315200038101A447B689B6F1344344A82FB0312DB17DE
S31520003820D31AC7F8DC30D7F8DC30314A82FB0312D2
S315200038305213DB17D31A184605F0C4F804460D4672
S31520003840D7F8DC202A4B83FB02135913D317CB1A44
S31520003850284901FB03F3D31A274A82FB031252118C
S31520003860DB17D31A07EE903AF8EEE77A17EE900AAE
S3152000387005F0BAF84FF00002204B05F037FA024661
S315200038800B462046294604F051FF02460B461046B9
S31520003890194605F013FB0346C7F8D830DFED186A42
S315200038A097ED367AC6EE877AFDEEE77A17EE903AEE
S315200038B0C7F8D43007F10C00D7F8D430114AC82104
S315200038C005F0D6FB07F10C031A460F490F48FFF700
S315200038D005F8D7F8D4200E490E48FEF7FFFF00BFA3
S315200038E0E837BD46B0BD00BFF1D8FFFF5655555548
S315200038F089B5F814A08601001F85EB5100408F4042
S3152000390000007042F4A100206B05002018A80020BA
S3152000391039450020F8A7002080B5C0B002AF7860F6
S3152000392039607B68D3F89830002B2BD17B6888339D
S315200039301846FFF7D1F8C7F8D4007B68D3F894303F
S31520003940D7F8D420D31AC7F8D0307B68D7F8D02040
S31520003950C3F89C207B68D7F8D420C3F894207B68D2
S315200039600122C3F89820012289498A48FEF7B6FF2A
S3152000397000230093884B7A6841F288318748FEF706
S315200039800FFF01E17B6888331846FFF7A5F8C7F8D3
S31520003990F4007B68D3F89430D7F8F420D31AC7F80C
S315200039A0F030D7F8F0307E4A934269DC7B68D3F852
S315200039B09C30C7F8F030D7F8F03042F20F729342BD
S315200039C00FDC784B1A4678497848FEF787FF7B68E4
S315200039D00022C3F8982000226D496E48FEF77EFF2C
S315200039E0D2E0D7F8F030724A82FB03125113DA176D
S315200039F08A1A6A4901FB02F29A1A13469B0013445B
S31520003A005B00C7F8E030D7F8F020694B83FB021340
S31520003A105913D317CB1A614901FB03F3D31A654A0D
S31520003A2082FB03125211DB17D31AC7F8DC30D7F802
S31520003A30F0305F4A82FB03125213DB17D31AC7F802
S31520003A40D83007F10800D7F8E0300193D7F8DC30FA
S31520003A500093D7F8D830584AC82105F009FBD7F883
S31520003A60F0300093554B7A6800210020FEF798FE2F
S31520003A7007F108031A464C494C48FEF72FFF7AE017
S31520003A80D7F8F0304A4A82FB03125113DA178A1A02
S31520003A90424901FB02F29A1A13469B0013445B002B
S31520003AA0C7F8EC30D7F8F020414B83FB02135913AB
S31520003AB0D317CB1A394901FB03F3D31A3D4A82FBAC
S31520003AC003125211DB17D31AC7F8E830D7F8F030B3
S31520003AD0374A82FB03125213DB17D31AC7F8E43096
S31520003AE007F10800D7F8EC300193D7F8E8300093B7
S31520003AF0D7F8E430324AC82105F0BAFA07F10803AC
S31520003B001A4629492948FEF7E9FED7F8F0302D4A0A
S31520003B10934208DD002300932B4B7A680021002076
S31520003B20FEF73EFE27E0D7F8F030284A934222DD02
S31520003B30274B1A461C491D48FEF7D0FE7B68D3F852
S31520003B408030002B17D1234B1A4617491748FEF70A
S31520003B50C5FE00230093204B7A6800210020FEF743
S31520003B601FFE78221D491E48FEF7B8FE00221D4979
S31520003B701B48FEF7B3FE7B680022C3F8982000227C
S31520003B8003490448FEF7AAFEF837BD4680BD00BFAC
S31520003B905911002038AC0020D1360020A086010023
S31520003BA09F86010004A200206B05002018A8002093
S31520003BB089B5F8141F85EB5110A200203537002057
S31520003BC04CA2002020A10700B1300020400D0300A8
S31520003BD078A200208CA20020193000203945002030
S31520003BE0F8A70020F544002080B483B000AF7860A9
S31520003BF039607B680122C3F8A0207B684FF0FF3232
S31520003C00C3F880207B684FF0FF32C3F8A8207B687A
S31520003C100022C3F8A42000BF0C37BD465DF8047B04
S31520003C20704780B483B000AF786039607B68D3F882
S31520003C30A43018460C37BD465DF8047B704780B427
S31520003C4083B000AF786039607B68D3F8A830184617
S31520003C500C37BD465DF8047B704780B483B000AF57
S31520003C60786039607B68D3F8A03018460C37BD469B
S31520003C705DF8047B704780B483B000AF786039600C
S31520003C807B681B6918460C37BD465DF8047B704778
S31520003C9080B5A2B002AF78603960814B1A4681495F
S31520003CA08148FEF71BFE07F170031A467F498048BC
S31520003CB0FEF714FE7F4B1A467A497B48FEF70EFE26
S31520003CC097F8703007F10C007B4A642105F0D0F993
S31520003CD097F870301A4673497348FEF7FFFD97F838
S31520003CE07030642B08D907F170030093734B744A24
S31520003CF000210020FEF754FD0023FB677B68D3F8E4
S31520003D008030002B00F0C38097F87030082B2DDC14
S31520003D10002B13DCBDE0793B052B00F2BA8001A213
S31520003D2052F823F02B3E0020933E0020933E0020A5
S31520003D30933E00203B3E0020773E0020013B072B90
S31520003D4000F2A78001A252F823F000BF793D00209F
S31520003D508B3D00209D3D0020AF3D0020C53D00202D
S31520003D60DF3D0020FD3D0020173E00207E2B00F386
S31520003D709080792BCFDA8CE001230093514B524A65
S31520003D8000210020FEF70CFD86E0002300934D4B1A
S31520003D904D4A00210020FEF703FD7DE0002300931D
S31520003DA04A4B494A00210020FEF7FAFC74E0002223
S31520003DB047494548FEF792FD002246494648FEF708
S31520003DC08DFD69E007F170030333184605F018F9F5
S31520003DD0F867FA6F41494048FEF780FD5CE007F13D
S31520003DE070030333184605F00BF9F867FB6F5B4247
S31520003DF01A463A493848FEF771FD4DE007F170033F
S31520003E000333184605F0FCF8F867FA6F3449324850
S31520003E10FEF764FD40E0782231492F48FEF75EFD2B
S31520003E2000222E492C48FEF759FD7B68D3F8A03096
S31520003E305A1C7B68C3F8A0202EE07B68D3F8A42008
S31520003E407B68D3F8A8309A4225D001230093254BCE
S31520003E50214A00210020FEF7A3FC00230093224BD9
S31520003E601D4A00210020FEF79BFC00221F4978688E
S31520003E70FEF734FD0FE007F170030333184605F013
S31520003E80BFF8F8677B68FA6FC3F8A02004E000BF8C
S31520003E9002E000BF00E000BF00BF8037BD4680BD06
S31520003EA0B0A200206B05002018A800203535002080
S31520003EB04CAC0020E8A20020FCA20020F52D00201A
S31520003EC008A70020F13E0020D4A70020DD3F0020D7
S31520003ED0114400209D440020F8A70020F54400202E
S31520003EE039450020414600205D460020193000203B
S31520003EF080B483B000AF786039603B68012B09D16C
S31520003F007B681B69132B05DC7B681B695A1C7B6845
S31520003F101A610BE03B68002B08D17B681B69012BDB
S31520003F2004DD7B681B695A1E7B681A6100BF0C374B
S31520003F30BD465DF8047B704780B483B000AF7860DF
S31520003F4039607B689B69002B03D17B6801229A61CB
S31520003F5002E07B6800229A6100BF0C37BD465DF8FF
S31520003F60047B704780B586B002AF78603960002246
S31520003F7012491348FEF7B2FCF860FB68002B18D1F3
S31520003F807B68D3F8AC30002B13D07B68D3F8803015
S31520003F90012B0ED10B4B1A460B490C48FEF79EFC03
S31520003FA0002300930A4B0B4A00210B48FEF7F8FB2F
S31520003FB000E000BF1037BD4680BD00BF773C002023
S31520003FC0D4A7002004A300206B05002018A80020F9
S31520003FD0653F002024A7002040420F0080B584B012
S31520003FE002AF78607B681B69002B04D17B685A6915
S31520003FF07B681A610EE07B681A697B685A617B6868
S3152000400000221A6100230093044B054A0021002058
S31520004010FEF7C6FB00BF0837BD4680BD653F0020C2
S3152000402024A7002080B483B000AF786039607B6815
S315200040300122DA6100BF0C37BD465DF8047B70476C
S3152000404080B584B002AF786039607B68DB68002B6E
S315200040500CBF01230023DBB21A467B68DA607B683B
S31520004060DB69002B03D0224B00221A700CE07B6800
S31520004070DB68002B05D07B681A691D4BD2B21A70FB
S3152000408002E01B4B00221A707B689B68002B2AD00B
S315200040907B689B69002B16D07B681B6A154A82FBBE
S315200040A003129210DB17D01A7B681B6A114A82FB17
S315200040B003129210DB17D11A002300930E4B7A6855
S315200040C0FEF76EFB10E07B681B6A0A4A82FB03122E
S315200040D09210DB17D01A00230093074B7A68002131
S315200040E0FEF75EFB00E000BF0837BD4680BD00BF7F
S315200040F01C740040676666664140002080B483B029
S3152000410000AF786039607B683A681A6200BF0C3766
S31520004110BD465DF8047B704780B483B000AF7860FD
S3152000412039607B680022DA6100BF0C37BD465DF836
S31520004130047B704780B586B002AF786039607B68B3
S315200041409B68002B39D07B685B693A689A4234D1E8
S3152000415000221C491C48FEF7C1FB7B685B6907EE01
S31520004160903AB8EEE77ADFED196AC6EE877AC7EDA0
S31520004170037AD7ED037A9FED167A67EE877A9FED5D
S31520004180157A67EE877AFDEEE76AD7ED037A9FED1B
S31520004190127A67EE877A9FED0F7A67EE877AFDEEC1
S315200041A0E77A7B685B6900930C4B7A6817EE901A66
S315200041B016EE900AFEF7F4FA00E000BF1037BD466F
S315200041C080BD00BF3B11002038AC002000007042AB
S315200041D00000FA430000C84200007A43354100201F
S315200041E080B58AB002AF786039607B689B68002B07
S315200041F000F0E180002272497248FEF76FFBF861F9
S31520004200002271496F48FEF769FBB86100226F49A9
S315200042106F48FEF763FB7B68DB680A337B617B684C
S315200042201B696C4A52F823207B6913446A4A9B0017
S315200042301344D3ED007A9FED697A67EE877AFDEE17
S31520004240E77A17EE903A3B613A6965496048FEF78E
S3152000425045FB7B681B69634A52F82330FB607B6809
S315200042605B6907EE903AB8EEE77ADFED5F6AC6EE55
S31520004270877AC7ED027A7B685B693A689A4230D0C2
S315200042807B681B690F2B0BD07B681B69112B07D012
S315200042907B681B69152B03D07B681B69172B05D1FF
S315200042A0012252495248FEF719FB04E000224F49E9
S315200042B04F48FEF713FBD7ED027A9FED4E7A67EE55
S315200042C0877A9FED4D7A67EE877AFDEEE77A7B68EF
S315200042D05B690093494B4A4A002117EE900AFEF784
S315200042E05FFA7B681B6901335A4203F01F0302F011
S315200042F01F0258BF53427A6813617B681B69FA69AB
S3152000430093FBF2F2F96901FB02F29B1ABA699A420F
S3152000431052D1FB684FF4FA7202FB03F307EE903A90
S31520004320B8EEE77AD7ED027A67EE277A9FED357AEF
S3152000433077EEC77A9FED307A67EE877AFDEEE77AD9
S3152000434000230093304B224A41F2883117EE900A1F
S31520004350FEF726FAFB684FF4FA7202FB03F307EE28
S31520004360903AB8EEE77AD7ED027A67EE277A9FED94
S31520004370227A67EE877AFDEEE76AFB68FA2202FB6D
S3152000438003F307EE903AB8EEE77AD7ED027A67EEB6
S31520004390277A9FED197A67EE877AFDEEE77A7B68B2
S315200043A05B690093194B7A6817EE901A16EE900AFD
S315200043B0FEF7F6F900E000BF2037BD4680BD00BFFE
S315200043C05B3C002024A70020233C0020194100202C
S315200043D0D4A7002074A00020F4A000200024744953
S315200043E0FD40002058A10020000070421911002035
S315200043F038AC00200000FA430000C84235410020B6
S31520004400F8A700200000484225400020E141002076
S3152000441080B584B002AF786039607B689B68002BDA
S315200044200CBF01230023DBB21A467B689A607B68A7
S315200044309B68002B13D0114B1A4611491148FEF7E1
S315200044404DFA00230093104B104A00210020FEF75E
S31520004450A7F901220E490F48FEF740FA0AE00E4B53
S315200044601A4607490748FEF739FA0022084909483B
S31520004470FEF734FA00BF0837BD4680BD14A30020DE
S315200044806B05002018A8002041400020D4A700205A
S315200044901911002038AC002020A3002080B584B05C
S315200044A002AF786039607B689B68002B0CBF0123C4
S315200044B00023DBB21A467B689A607B685B690093AF
S315200044C0094B0A4A00210020FEF76AF97B685B69DE
S315200044D00093074B054A00210020FEF761F900BF33
S315200044E00837BD4680BD00BF35410020F8A7002013
S315200044F0E141002080B582B000AF786039603B682A
S3152000450013F1050F06DB3B68052B03DC7B683A6855
S31520004510DA6006E0054B1A4605490648FEF7DEF93D
S3152000452000BF00BF0837BD4680BD00BF2CA30020BA
S315200045306B05002018A8002080B582B000AF7860F7
S3152000454039603B681D2B07DD3B68B3F5967F03DC9E
S315200045507B683A685A6106E0054B1A4605490648C3
S31520004560FEF7BCF900BF00BF0837BD4680BD00BFBF
S315200045703CA300206B05002018A8002080B586B03B
S3152000458000AF786039603B68002B02DA06233B7364
S3152000459001E005233B737B68D3F8A430DBB27B7341
S315200045A03B6883EAE372A2EBE37207F10803094949
S315200045B0184604F0ADFD0123BB733B7AFB7307F16C
S315200045C00C031A4604490548FEF788F900BF183738
S315200045D0BD4680BD4CA30020FF3500204CAC0020FA
S315200045E080B586B000AF7860396007F108033A6875
S315200045F01049184604F08CFD06233B737B68D3F8DC
S31520004600A430DBB27B730323BB733B7AFB737B7AC9
S315200046103B743B68632B01DDBB7A7B7407F10C038B
S315200046201A4605490548FEF759F900BF1837BD4611
S3152000463080BD00BF4CA30020FF3500204CAC0020DD
S3152000464080B483B000AF786039607B683A68DA61FD
S3152000465000BF0C37BD465DF8047B704780B59EB021
S3152000466002AF786039607B68DB69002B17D07B68E6
S315200046705B6907F10C000C4A642104F0F9FC07F190
S315200046800C031A4609490A48FEF728F90023009325
S31520004690084B7A6800210848FEF782F800E000BF40
S315200046A07037BD4680BD00BF50A300206B0500209B
S315200046B018A800205D46002040420F0080B5A2B019
S315200046C002AF78603960BC4B1A46BC49BC48FEF73D
S315200046D005F9BC4B1A46B949B948FEF7FFF83A68BE
S315200046E0B949B748FEF7FAF8B84B1A46B349B44861
S315200046F0FEF7F4F83B68613B172B00F2EC8101A230
S3152000470052F823F057480020DD470020D74A0020E2
S31520004710D74A00206F490020D74A0020D74A0020D8
S31520004720D74A0020D74A0020D74A002099470020A0
S31520004730D74A00208D480020D74A00206547002010
S31520004740C34800202148002031490020D74A0020B4
S31520004750A14A0020D74A0020D74A0020D74A002065
S31520004760FD48002000230093994B9A4A00210020FF
S31520004770FEF716F800230093974B964A00214CF239
S315200047805030FEF70DF800230093944B914A0021F8
S315200047909348FEF705F89EE17B689B687A68134488
S315200047A000221A737B680C33184604F029FCF8673C
S315200047B07B6800229A607B68D3F88030002B04D176
S315200047C0FA6F88498848FEF789F8FB6F0093874B74
S315200047D07A6800210020FDF7E3FF7CE17B689B6877
S315200047E07A68134400221A737B680C33184604F047
S315200047F007FCF8677B6800229A607B68D3F88030D4
S31520004800002B04D1FA6F7A497748FEF767F8FB6FD9
S315200048100093784B7A6800210020FDF7C1FF5AE10A
S315200048207B68D3F88030002B07D101230093724B8D
S31520004830724A00210020FDF7B3FF01233B730023BA
S315200048407B730023BB7307F10C031A466C496D4832
S31520004850FEF744F83FE17B68D3F88030002B07D180
S3152000486000230093644B654A00210020FDF798FF42
S3152000487002233B7300237B730023BB7307F10C03D6
S315200048801A465F495F48FEF729F824E17B68D3F88A
S315200048908030012B07D1002300935B4B574A002120
S315200048A00020FDF77DFF03233B7300237B7300234A
S315200048B0BB7307F10C031A4651495248FEF70EF80E
S315200048C009E17B68D3F88030002B09D100224F49BB
S315200048D04A48FEF703F800224D494348FDF7FEFFFC
S315200048E004233B7300237B730023BB7307F10C0364
S315200048F01A4643494348FDF7F1FFECE07B68D3F8BD
S31520004900A0107B68D3F8A8307A68D2F8A42007F1E3
S315200049101800019200930B463E4A642104F0A8FB3E
S3152000492007F118031A4625492548FDF7D7FFD2E097
S315200049307B68D3F88030002B40F0C880364B1A466F
S315200049401E491F48FDF7CAFF00230093334B7A68A0
S3152000495000210020FDF724FF782225492248FDF773
S31520004960BDFF00221F492048FDF7B8FFAEE07B6857
S31520004970D3F88030002B6BD17B68D3F8AC30002B7A
S3152000498054D17B680122C3F8AC20254B1A460B492B
S315200049900B48FDF7A3FF01230093224B124A002167
S315200049A00020FDF7FDFE002300931F4B0E4A002139
S315200049B00020FDF7F5FE4BE064A300206B050020E8
S315200049C018A800209CA30020C1050020A4A3002035
S315200049D06D31002008A70020B13000208931002049
S315200049E0A0860100F5440020F8A700207D45002080
S315200049F039450020E1450020F13E0020D4A70020C3
S31520004A00FF3500204CAC0020DD3F00201144002063
S31520004A109D440020A8A300208CA20020193000204D
S31520004A20D0A30020414600205D460020384B1A4680
S31520004A3038493948FDF752FF7B680022C3F8AC207D
S31520004A4000230093354B364A00210020FDF7A8FEAF
S31520004A507B68D3F88030012B3AD17B68D3F8AC3011
S31520004A60002B12D17B680122C3F8AC202D4B1A46AD
S31520004A7028492948FDF732FF002300932A4B7A68FC
S31520004A8000210020FDF78CFE22E0284B1A46214902
S31520004A902148FDF723FF7B680022C3F8AC2017E0EE
S31520004AA07B68D3F88030012B14D100230093204B50
S31520004AB0204A00210020FDF773FE002300931A4BA5
S31520004AC07A6800210020FDF76BFE03E000BF02E0BC
S31520004AD000BF00E000BF3B682F2B02DD3B68392B6F
S31520004AE006DD7B689B68002B0DD13B682D2B0AD1F8
S31520004AF07B689B68591C7A6891603A68D1B27A685B
S31520004B0013440A461A7300BF8037BD4680BD00BFD6
S31520004B1000A400206B05002018A800204146002094
S31520004B20F8A7002030A40020653F002064A40020C0
S31520004B30DD3F0020D4A7002080B5A0B002AF78606A
S31520004B403960002239493A48FDF7C8FE0022394922
S31520004B503948FDF7C3FE002238493948FDF7BEFE25
S31520004B607B6888331846FDF799FF0022354934487B
S31520004B70FDF7B4FE344B1A4634492F48FDF7AEFEF6
S31520004B8000217868FFF730F8314B1A462F492A481A
S31520004B90FDF7A4FE012387F86C30012387F86D30DA
S31520004BA0062387F86E30482387F86F30652387F809
S31520004BB070306C2387F871306C2387F872306F233E
S31520004BC087F87330002387F8743007F16C031A4690
S31520004BD020491748FDF782FE7B68D3F8803007F11D
S31520004BE008001D4A642104F043FA07F108031A4617
S31520004BF016491148FDF772FE00230093174B184AF9
S31520004C0000210020FDF7CCFD164B1A460F490A4815
S31520004C10FDF764FE00230093134B114A002113482D
S31520004C20FDF7BEFD00BF7837BD4680BDED320020C2
S31520004C304CAC0020C504002018A80020C910002074
S31520004C4038AC00201911002098A400206B05002004
S31520004C50ACA40020FF350020E4A40020CD310020A4
S31520004C6008A70020F0A4002029320020801A060080
S31520004C7080B500AF00220B490B48FEF723F801222E
S31520004C800A490B48FEF71EF802220A490A48FEF78F
S31520004C9019F8002209490A48FEF77AF8002318462F
S31520004CA080BD00BFF705002018A80020AD330020E6
S31520004CB04CAC00209911002038AC0020394B002044
S31520004CC024A7002080B500AF01214FF00050FCF74B
S31520004CD06BFF00214FF00050FCF766FF00BF80BD40
S31520004CE080B485B000AF786039600023FB60002374
S31520004CF0BB60144B1B68FB6040F6FE727B6802FAB1
S31520004D0003F3DB43FA681340FB603B681A683B6891
S31520004D105B681A433B689B681A433B68DB6813430E
S31520004D20BB60BA687B6802FA03F3FA681343FB6038
S31520004D30044AFB68136000BF1437BD465DF8047B48
S31520004D40704700BF0074004080B483B000AF786025
S31520004D507B6800221A607B6800225A607B680022EA
S31520004D609A607B680022DA6000BF0C37BD465DF88A
S31520004D70047B704780B483B000AF78600B46FB702D
S31520004D80FB78002B09D00D4B1A6801217B6801FAAC
S31520004D9003F30A4913430B6009E0084B1A68012103
S31520004DA07B6801FA03F3DB43044913400B6000BF21
S31520004DB00C37BD465DF8047B704700BF0074004089
S31520004DC080B483B000AF78600B46FB70FB78002B75
S31520004DD00AD00E4B5A687B681B09012101FA03F39E
S31520004DE00A4913434B600AE0084B5A687B681B0943
S31520004DF0012101FA03F3DB43044913404B6000BF52
S31520004E000C37BD465DF8047B704700BF0074004038
S31520004E1080B483B000AF0346FB71FB79002B06D02C
S31520004E20094B5B68084A43F00303536005E0064BD1
S31520004E305B68054A23F00303536000BF0C37BD4669
S31520004E405DF8047B704700BF0074004080B485B0D5
S31520004E5000AFF860B9601346FB71FB79002B09D0CF
S31520004E600C4B1A68B968FB6801FA03F30949134326
S31520004E700B6009E0074B1A68B968FB6801FA03F36F
S31520004E80DB43044913400B6000BF1437BD465DF871
S31520004E90047B70470074004080B485B000AF786012
S31520004EA00B467B800023FB60084BFB60FA687B681F
S31520004EB013440833FB60FB681A467B88136000BFE7
S31520004EC01437BD465DF8047B704700BF0074004070
S31520004ED080B485B000AF78600B467B800023FB60F2
S31520004EE0084BFB60FA687B6813441433FB60FB684D
S31520004EF01A467B88136000BF1437BD465DF8047BD5
S31520004F00704700BF0074004080B485B000AF786061
S31520004F100B467B8013463B800023FB600023BB604F
S31520004F207B68082B05D17B881A023B881343FB60DC
S31520004F3004E07B881A043B881343FB60074BBB6065
S31520004F407A68BB6813442033BB60BB68FA681A6072
S31520004F5000BF1437BD465DF8047B704700740040DF
S31520004F6080B485B000AF78600023FB60084BFB60FF
S31520004F707B689A08FB6813442C33FB60FB681B682C
S31520004F809BB218461437BD465DF8047B704700BFB8
S31520004F900074004080B483B000AF78600B46FB708D
S31520004FA0FB78002B0AD00E4B1A684FF480517B6891
S31520004FB001FA03F30A4913430B600AE0084B1A6807
S31520004FC04FF480517B6801FA03F3DB430449134015
S31520004FD00B6000BF0C37BD465DF8047B704700BFF1
S31520004FE00074004080B485B000AFF860B960134605
S31520004FF0FB71FB79002B09D00C4B1A68B968FB684A
S3152000500001FA03F3094913430B6009E0074B1A68B9
S31520005010B968FB6801FA03F3DB43044913400B60CC
S3152000502000BF1437BD465DF8047B7047007400400E
S3152000503080B485B000AF786039600023FB730A4BDB
S315200050405A6B39687B6801FA03F31340002B02D0B0
S315200050500123FB7301E00023FB73FB7B1846143707
S31520005060BD465DF8047B70470074004080B483B071
S3152000507000AF7860396006493A687B6802FA03F324
S315200050804B6300BF0C37BD465DF8047B704700BFFD
S315200050900074004080B485B000AF7860396000238A
S315200050A0FB730023BB60104B1A6839687B6801FAD2
S315200050B003F31340BB600C4B5A6B39687B6801FACB
S315200050C003F31340002B05D0BB68002B02D001232D
S315200050D0FB7301E00023FB73FB7B18461437BD46A8
S315200050E05DF8047B704700BF0074004080B483B035
S315200050F000AF7860396006493A687B6802FA03F3A4
S315200051004B6300BF0C37BD465DF8047B704700BF7C
S315200051100074004080B582B000AF78607B68604A3A
S31520005120934208D101210120FCF75EFD00210120D8
S31520005130FCF75AFDAFE07B68B3F1804F08D101211F
S315200051400120FCF731FD00210120FCF72DFDA2E016
S315200051507B68544A934208D101210220FCF724FDA2
S3152000516000210220FCF720FD95E07B684E4A934201
S3152000517008D101210420FCF717FD00210420FCF7AB
S3152000518013FD88E07B68494A934208D10121082013
S31520005190FCF70AFD00210820FCF706FD7BE07B6872
S315200051A0434A934208D101211020FCF7FDFC00213F
S315200051B01020FCF7F9FC6EE07B683E4A934208D14A
S315200051C001212020FCF7F0FC00212020FCF7ECFC3C
S315200051D061E07B68384A934208D101210220FCF71E
S315200051E003FD00210220FCF7FFFC54E07B68334AD4
S315200051F093420AD101214FF48030FCF7F5FC0021BF
S315200052004FF48030FCF7F0FC45E07B682C4A934253
S315200052100AD101214FF40030FCF7E6FC00214FF4BF
S315200052200030FCF7E1FC36E07B68264A93420AD13F
S3152000523001214FF48020FCF7D7FC00214FF4802079
S31520005240FCF7D2FC27E07B681F4A934208D1012154
S315200052504020FCF7A9FC00214020FCF7A5FC1AE021
S315200052607B681A4A934208D101218020FCF79CFCD6
S3152000527000218020FCF798FC0DE07B68144A9342BD
S3152000528009D101214FF48070FCF78EFC00214FF4E8
S315200052908070FCF789FC00BF0837BD4680BD00BF83
S315200052A0000001400004004000080040000C0040BF
S315200052B0001000400014004000040140004001405E
S315200052C0004401400048014000180040001C0040F6
S315200052D00020004080B485B000AF7860396000239C
S315200052E0FB817B681B88FB817B68294A934213D00C
S315200052F07B68284A93420FD07B68B3F1804F0BD04E
S315200053007B68254A934207D07B68244A934203D080
S315200053107B68234A934208D1FB8923F07003FB81E3
S315200053203B685A88FB891343FB817B681D4A93425D
S315200053300CD07B681C4A934208D0FB8923F4407327
S31520005340FB813B681A89FB891343FB817B68FA89B9
S315200053501A803B685A687B68DA623B681A887B68E1
S315200053601A857B680A4A934203D07B68094A93428E
S3152000537004D13B689B7A9AB27B681A867B680122A5
S315200053809A8200BF1437BD465DF8047B704700BF84
S3152000539000000140000401400004004000080040D5
S315200053A0000C0040001000400014004080B483B080
S315200053B000AF78607B684FF0FF325A607B6800222E
S315200053C01A807B6800221A817B6800225A807B68BB
S315200053D000229A7200BF0C37BD465DF8047B7047E9
S315200053E080B483B000AF78600B467B8013463B8049
S315200053F07B687A881A857B683A889A8200BF0C3740
S31520005400BD465DF8047B704780B485B000AF7860F8
S315200054100B467B800023FB817B681B88FB81FB89F5
S3152000542023F07003FB81FA897B881343FB817B6819
S31520005430FA891A8000BF1437BD465DF8047B704791
S3152000544080B483B000AF786039607B683A685A626E
S3152000545000BF0C37BD465DF8047B704780B483B02F
S3152000546000AF786039607B683A68DA6200BF0C3733
S31520005470BD465DF8047B704780B483B000AF78608A
S315200054807B685B6A18460C37BD465DF8047B70471F
S3152000549080B483B000AF78607B681B8D9BB21846C2
S315200054A00C37BD465DF8047B704780B483B000AFEF
S315200054B078600B46FB70FB78002B08D07B681B8836
S315200054C09BB243F002039AB27B681A8007E07B689E
S315200054D01B889BB223F002039AB27B681A8000BF16
S315200054E00C37BD465DF8047B704780B483B000AFAF
S315200054F078600B467B807B88002B08D07B681B88D6
