S01600002E2F44656275672F5254532D4C61622E73313936
S3152000000000BFDFF814D000F0FCF906F005F800F088
S315200000100ABAFEE700BF000000C00120314900E017
S315200000203149EFF3088020ED108A7246EFF31183F1
S3152000003020E9FC0F2D4FD7F80080C8F800001EE0FD
S31520000040084602F0C1FB2A4802F0BEFB294802F00E
S31520000050BBFBD8F8040002F003FC274802F0B4FBEF
S31520000060D8F8000002F0CDFB244802F0ADFBD8F80A
S315200000700000006802F0C5FB1D4802F0A5FBDFF872
S315200000808080D8F80080C7F8008018E01D4802F06C
S315200000909BFBD8F8040002F0E3FB1B4802F094FB1C
S315200000A0D8F8000002F0ADFB144802F08DFBD8F81A
S315200000B00000006802F0A5FB0D4802F085FB134AFC
S315200000C0536843F00063536000BFD8F80000B0E8DF
S315200000D0FC0F83F311889646B0EC108A80F30888CB
S315200000E07047000058BC002069BC002040BD00209D
S315200000F0D9BC00208ABC0020A2BC0020AABC0020BB
S315200001009CC30020B3BC0020C8BC002000ED00E04A
S3152000011080B400AF00BFBD465DF8047B704780B554
S3152000012086B000AF454809F0B9F9454807F0D4FF35
S31520000130444807F0D1FF01214FF0007002F0E4F8A7
S3152000014001214FF0806002F0DFF80121022002F049
S315200001507BF809220921394809F0C2FB0922082126
S31520000160364809F0BDFB07F11003184609F0D7FA07
S315200001704FF400733B6102233B750023BB750023BC
S31520000180FB7502237B7507F1100319462B4809F0EE
S3152000019037FA4FF480733B6102233B750023BB750E
S315200001A00123FB7502237B7507F1100319462348AB
S315200001B009F026FA09220621204809F091FB092296
S315200001C005211E4809F08CFB40233B6102233B7529
S315200001D00023BB750023FB7502237B7507F11003F3
S315200001E01946164809F00CFA20233B6102233B7579
S315200001F00023BB750123FB7502237B7507F11003D2
S3152000020019460E4809F0FCF90023BB720023FB7245
S3152000021001233B7300233B8000237B800023BB808C
S315200002200023FB8000233B8101237B733B4618463A
S3152000023008F047F800BF1837BD4680BD00040240CD
S31520000240006400400068004080B586B000AF012100
S315200002504FF0005002F058F807F11003184609F045
S315200002605EFA20233B6103233B750023FB7507F1D0
S31520000270100319460F4809F0C3F905F0F7FE3B466F
S31520000280184605F035FF00233B6000237B600023E2
S31520000290FB603B461946102005F0F6FE0121102092
S315200002A005F03CFF0021082005F0E6FF00BF1837C7
S315200002B0BD4680BD0000024080B584B000AF01215C
S315200002C04FF4804002F040F80721012009F080FB1E
S315200002D008F0DCFF3B46184609F064F880233B60B3
S315200002E000233B710C237B710123BB713B461846CF
S315200002F008F0E6FF07F10803184609F010FA022372
S31520000300BB6001233B730123BB730023FB730123D3
S315200003107B7307F108031946184809F071F9012380
S31520000320BB6001233B730123BB730023FB730123B3
S315200003307B7307F108031946104809F061F9012279
S3152000034002210E4809F093FA012201210B4809F0F7
S315200003508EFA8023BB6000233B730023BB730023EC
S31520000360FB7301237B7307F108031946034809F041
S3152000037047F900BF1037BD4680BD00BF00040240CC
S3152000038080B483B000AFEFF314833B603B6823F067
S3152000039003037B607B6883F3148800BF094B4FF40B
S315200003A004725A61074B5B69064A43F0080353619E
S315200003B0054B4FF000425A6000BF0C37BD465DF832
S315200003C0047B704700ED00E030EF00E080B500AF21
S315200003D00121082001F098FF0121082002F0D4F81D
S315200003E000BF80BD80B400AF124A02E0002342F86D
S315200003F0043B114B9A42F9D300BFBD465DF8047BFE
S31520000400704780B500AFFFF7EDFFFFF781FEFFF7DE
S3152000041086FEFFF719FFFFF74FFFFFF7B1FFFFF744
S31520000420D5FF00BF80BD80B400AF00BFBD465DF8DC
S31520000430047B704770C30020F846012080B483B047
S3152000044000AF0346FB71FB7903F01F03012202FA7A
S3152000045003F1064A97F907305B0942F8231000BFDB
S315200004600C37BD465DF8047B704700BF00E100E015
S3152000047080B483B000AF03463960FB7197F907302B
S31520000480002B0BDA3B68DAB20C49FB7903F00F0339
S31520000490043B1201D2B20B441A7609E03B68DAB269
S315200004A0074997F907301201D2B20B4483F800238B
S315200004B000BF0C37BD465DF8047B704700ED00E0B9
S315200004C000E100E080B582B000AF786039607B68DB
S315200004D000229A617B689A697B685A617B685A69AF
S315200004E07B68DA61012240F225510A4801F00AF9B7
S315200004F0002240F22771074801F004F90221252045
S31520000500FFF7B6FF2520FFF799FF00BF0837BD4646
S3152000051080BD00BF0010014080B483B000AF78607A
S315200005200B46FB707B68DB69B3F5806F17DA7B6857
S315200005305B697A681344FA7883F820207B685B69C4
S3152000054001335A42C3F30903C2F3090258BF534287
S315200005507A6853617B68DB695A1C7B68DA6100BF65
S315200005600C37BD465DF8047B704780B582B000AF7E
S31520000570786039607B68DB69002B18D17B689B68C3
S31520000580012240F22771184601F0BCF80FE03B68C3
S315200005901B780A2B03D10D217868FFF7BDFF3B6836
S315200005A05A1C3A601B7819467868FFF7B5FF3B68F6
S315200005B01B78002BEBD100BF00BF0837BD4680BD9E
S315200005C080B582B000AF786039607B68DB69002B2C
S315200005D007D17B689B68012240F22771184601F0FB
S315200005E091F83B68DBB219467868FFF795FF00BFA4
S315200005F00837BD4680BD80B586B002AF78603960C9
S315200006007B689B682021184601F0C4F80346012B1D
S3152000061018D17B689B68184600F0DFFE0346FB6016
S315200006207B68DB68002B0DD07B68DA687B681969EC
S31520000630FB6800930B460021002002F001FD234BAE
S3152000064001221A607B689B688021184601F0A2F877
S315200006500346012B35D17B68DB69002B29DD7B68BE
S3152000066098687B689B697A68134493F820309BB21C
S31520000670194600F0A0FE7B689B6901335A42C3F3FA
S315200006800903C2F3090258BF53427A6893617B6813
S31520000690DB695A1E7B68DA617B68DB69002B10D127
S315200006A07B689B68002240F22771184601F02AF8E1
S315200006B007E07B689B68002240F22771184601F00C
S315200006C021F8002318461037BD4680BD7CC3002084
S315200006D080B5A6B002AF786039603A6807F170033A
S315200006E01068516803C31189927A19809A7097F815
S315200006F0703007F10C005D4A642109F091FE97F8ED
S315200007007030772B06D007F10C031A465849594802
S3152000071002F034FD00225849584802F02FFDC7F850
S315200007208C0000225649554802F028FDC7F888005B
S3152000073000225449514802F021FDC7F884000022C6
S3152000074051494E4802F01AFDC7F8800097F87030DC
S315200007503B3B052B00F2868001A252F823F000BF16
S31520000760330800200D080020E5070020BD070020E3
S315200007709B0700207907002097F871301A467B687E
S315200007800232002143F8221097F871307A68043338
S315200007909B00134400225A6064E097F871301A4691
S315200007A07B680232012143F8221097F871307A686B
S315200007B004339B00134401225A6053E0D7F88C304F
S315200007C0072B06D17B68D7F884200232012143F813
S315200007D0221097F871301A467B680232062143F8B8
S315200007E022103FE0D7F88C30072B06D17B68D7F84C
S315200007F084200232012143F8221097F871301A46DC
S315200008007B680232052143F822102BE0D7F880308E
S31520000810013300931D4B194A0021002002F010FCE1
S31520000820002300931A4B7A680021002002F008FC6E
S3152000083018E007F170030333184609F0B9FDF8678D
S31520000840FB6F0093114B0D4A0021002002F0F8FBAC
S3152000085097F8713000930F4B084A0021002002F0D0
S31520000860EFFBFFE700BF9037BD4680BD18B00020E4
S315200008706B05002060BE0020593F002044BD0020AB
S315200008801F3B0020053B0020393B0020C93F0020AC
S31520000890450D0020E53F002080B59AB002AF786074
S315200008A0396000229149924802F068FC786400235E
S315200008B0FB650023BB6500237B6500233B65002287
S315200008C08C498B4802F05AFC386400228A498848B1
S315200008D002F054FCF8630023FB644FE03B6C052BCD
S315200008E00DD03B6C062B0AD07B68FA6C023253F88B
S315200008F022207968FB6C04339B000B445A607A688B
S31520000900FB6C04339B0013445B6813F1020F16D172
S31520000910FB6D0133FB657B68FA6C0232072143F8D5
S31520000920221007F10800FB6C744A642109F078FD57
S3152000093007F108031A467249724802F01FFC7A68CA
S31520000940FB6C04339B0013445B68002B05D1BB6D05
S315200009500133BB653B6D01333B657A68FB6C043321
S315200009609B0013445B68012B05D1BB6D0133BB652E
S315200009707B6D01337B65FB6C0133FB64FB6C022BC7
S31520000980ACDD7B683A6D1A637B687A6DDA62BA6D84
S31520000990FB6B9A4207DA002300935B4B5B4A0021EC
S315200009A0002002F04DFBBB6D0093594B504A0021AD
S315200009B0002002F045FB3B6D012B15DD07F10803F6
S315200009C0544A6421184609F02BFD07F108031A46FC
S315200009D04B494C4802F0D2FB002300934E4B444A2D
S315200009E00021002002F02CFB3B6C072B0AD1BB6DAB
S315200009F0002B07DD00230093484B3D4A00210020B1
S31520000A0002F01EFB3B6D002B52D1BB6D012B30D16A
S31520000A103B6C012B2DD17B687A6C023253F8223045
S31520000A20052B06D07B687A6C023253F82230062BCF
S31520000A3016D100230093384B2D4A0021002002F0C6
S31520000A40FFFA07F10803364A6421184609F0E8FC44
S31520000A5007F108031A462A492A4802F08FFB27E0A5
S31520000A60002300932F4B294A0021002002F0E8FAA8
S31520000A701EE03B6C052B1BD03B6C062B18D03B6C29
S31520000A80072B15D007F10803274A6421184609F0D9
S31520000A90C7FC07F108031A4619491A4802F06EFBEB
S31520000AA0002300931C4B124A0021002002F0C8FAB2
S31520000AB0002300931D4B7A6800214CF2503002F03F
S31520000AC0BFFA0023BB6409E07B68BA6C02326FF080
S31520000AD0010143F82210BB6C0133BB64BB6C022BB3
S31520000AE0F2DD00BF00BF6037BD4680BD1F3B002042
S31520000AF044BD0020593F0020393B00202CB0002067
S31520000B006B05002060BE0020ED59002040BE00206D
S31520000B10C93F00203CB00020733F002069430020DD
S31520000B2058B00020A159002078B000209908002054
S31520000B3080B58AB002AF78603960002229492A48F8
S31520000B4002F01CFBF86100222849274802F016FB18
S31520000B50B8617B68FA690232B96943F82210FB69E9
S31520000B60DBB27B73BB69072B21D801A252F823F095
S31520000B70910B0020970B0020AF0B0020AF0B00201D
S31520000B80AF0B0020A90B0020A30B00209D0B0020FB
S31520000B9040233B730BE03F233B7308E03F233B732B
S31520000BA005E03E233B7302E03D233B7300BFBB6958
S31520000BB0052B09D0BB69062B06D007F10C031A4674
S31520000BC00B490C4802F0DAFA002300930A4B7A68A4
S31520000BD000214CF2503002F033FA00BF2037BD46D8
S31520000BE080BD00BF053B002044BD0020593F0020AA
S31520000BF01747002094C20020310B002080B483B018
S31520000C0000AF786039607B689B6A18460C37BD4612
S31520000C105DF8047B704780B483B000AF786039609C
S31520000C207B683A689A6200BF0C37BD465DF8047B44
S31520000C30704780B485B000AF786039600023FB60D0
S31520000C400BE07B68FA68023253F82230002B01D180
S31520000C50012306E0FB680133FB60FB68022BF0DD15
S31520000C60002318461437BD465DF8047B704780B5CF
S31520000C7086B000AF7860396000220A490A4802F03F
S31520000C807DFA78617B69DBB27B723E233B7207F18A
S31520000C9008031A460549064802F070FA00BF1837BD
S31520000CA0BD4680BD053B002044BD002017470020DF
S31520000CB094C2002080B586B000AF786039600022EB
S31520000CC00A490B4802F05AFA78617B69DBB27B72DB
S31520000CD03D233B7207F108031A460649064802F0EF
S31520000CE04DFA00BF1837BD4680BD00BF053B00202A
S31520000CF044BD00201747002094C2002080B586B04E
S31520000D0000AF7860396000220A490B4802F036FAB3
S31520000D1078617B69DBB27B723C233B7207F1080367
S31520000D201A460649064802F029FA00BF1837BD467A
S31520000D3080BD00BF053B002044BD00201747002092
S31520000D4094C2002080B58AB000AF78603960002256
S31520000D501849194802F012FA7862002217491648F3
S31520000D6002F00CFA38627B6A002B20D13B6ADBB298
S31520000D707B743B233B74002211490F4802F0FEF995
S31520000D80F861FB6983EAE372A2EBE37207F10C03D5
S31520000D900C49184609F094FB0123BB743B7BFB747A
S31520000DA007F110031A460849084802F0E7F92837E0
S31520000DB0BD4680BD593F002044BD0020053B002094
S31520000DC0393B00209CB000201747002094C2002009
S31520000DD080B584B000AF7860396000220A490B489C
S31520000DE002F0CCF9F8607B68FA680232396843F879
S31520000DF022107A68FB6804339B0013443A685A60D1
S31520000E0000BF1037BD4680BD053B002044BD0020F5
S31520000E1080B59EB002AF7860396007F10803494A71
S31520000E206421184609F0FCFA07F108031A464649D8
S31520000E30464802F0A3F90023FB6669E007F10800A3
S31520000E40FB6E434A642109F0EBFA07F108031A46C0
S31520000E503D493E4802F092F97A68FB6E04339B00C6
S31520000E6013445B680233092B4ED801A252F823F0B3
S31520000E70FB0E0020B50E0020990E0020A70E0020A4
S31520000E80C30E0020090F0020090F0020D10E0020DC
S31520000E90DF0E0020ED0E00202E4B1A462A492B4845
S31520000EA002F06CF931E02C4B1A462749274802F00C
S31520000EB065F92AE0294B1A462349244802F05EF9AF
S31520000EC023E0274B1A462049204802F057F91CE018
S31520000ED0244B1A461C491D4802F050F915E0214BB7
S31520000EE01A461949194802F049F90EE01D4B1A46CF
S31520000EF01549164802F042F907E01B4B1A461249DB
S31520000F00124802F03BF900E000BFFB6E0133FB669E
S31520000F10FB6E022B92DD7B681A6B7B68DB6A07F11E
S31520000F20080000931346114A642109F079FA07F163
S31520000F3008031A460449054802F020F900BF703715
S31520000F40BD4680BDA0B000206B05002060BE0020FD
S31520000F50B8B00020C8B00020D0B00020D8B0002003
S31520000F60E0B00020ECB00020F8B0002004B1002052
S31520000F7080B582B000AF78607B683B4A934208D147
S31520000F800121102001F080FA0021102001F07CFAC6
S31520000F9065E07B68354A93420AD101214FF400303F
S31520000FA001F052FA00214FF4003001F04DFA56E0DC
S31520000FB07B682F4A93420AD101214FF4802001F009
S31520000FC043FA00214FF4802001F03EFA47E07B6887
S31520000FD0284A93420AD101214FF4002001F034FA25
S31520000FE000214FF4002001F02FFA38E07B68224AD6
S31520000FF093420AD101214FF4801001F025FA0021F5
S315200010004FF4801001F020FA29E07B681B4A9342B6
S3152000101008D10121202001F037FA0021202001F0FB
S3152000102033FA1CE07B68164A93420AD101214FF01D
S31520001030804001F009FA00214FF0804001F004FAC7
S315200010400DE07B680F4A934209D101214FF0004001
S3152000105001F0FAF900214FF0004001F0F5F900BF48
S315200010600837BD4680BD00BF001001400044004047
S3152000107000480040004C0040005000400014014051
S3152000108000780040007C004080B58AB000AF7860D0
S31520001090396000237B6200233B620023FB6100232F
S315200010A0BB617B681B8A9BB27B627B6A23F44053BD
S315200010B07B623B68DB881A467B6A13437B627B6ACA
S315200010C09AB27B681A827B689B899BB27B627B6A19
S315200010D023F4B05323F00C037B623B689A883B6869
S315200010E01B8913439AB23B685B8913439BB21A460A
S315200010F07B6A13437B627B6A9AB27B689A817B68A0
S315200011009B8A9BB27B627B6A23F440737B623B683B
S315200011109B891A467B6A13437B627B6A9AB27B68F9
S315200011209A8207F10803184600F0D8FE7B68304AF9
S31520001130934203D07B682F4A934202D17B693B625C
S3152000114001E03B693B627B689B899BB21BB2002B0B
S315200011500CDA3A6A13469B0013449A001A443B68F9
S315200011601B685B00B2FBF3F3FB610BE03A6A1346A4
S315200011709B0013449A001A443B681B689B00B2FBF1
S31520001180F3F3FB61FB691C4AA2FB03235B091B01EA
S315200011907B627B6A1B09642202FB03F3FA69D31A7A
S315200011A0BB617B689B899BB21BB2002B0CDABB69A7
S315200011B0DB003233104AA2FB03235B0903F007034B
S315200011C07A6A13437B620BE0BB691B0132330A4AFE
S315200011D0A2FB03235B0903F00F037A6A13437B62A6
S315200011E07B6A9AB27B681A8100BF2837BD4680BDCC
S315200011F000100140001401401F85EB5180B483B0DC
S3152000120000AF78607B684FF416521A607B68002224
S315200012109A807B680022DA807B6800221A817B68AC
S315200012200C225A817B6800229A8100BF0C37BD466A
S315200012305DF8047B704780B485B000AF7860396074
S315200012400023FB607B681B8A9BB2FB60FB6823F450
S315200012507063FB603B681A883B685B8813439AB2CD
S315200012603B689B8813439AB23B68DB8813439BB247
S315200012701A46FB681343FB60FB689AB27B681A82A6
S3152000128000BF1437BD465DF8047B704780B483B039
S3152000129000AF78607B6800221A807B6800225A8023
S315200012A07B6800229A807B680022DA8000BF0C3798
S315200012B0BD465DF8047B704780B483B000AF78608C
S315200012C00B46FB70FB78002B08D07B689B899BB272
S315200012D043F400539AB27B689A8107E07B689B8926
S315200012E09BB223F400539AB27B689A8100BF0C37D5
S315200012F0BD465DF8047B704780B483B000AF78604C
S315200013000B46FB707B681B8B9BB223F0FF039AB2C4
S315200013107B681A837B681B8B9AB2FB789BB213433C
S315200013209AB27B681A8300BF0C37BD465DF8047BF2
S31520001330704780B483B000AF78600B46FB70FB78B3
S31520001340002B0AD07B689B899BB26FEA43436FEAE6
S3152000135053439AB27B689A8107E07B689B899BB24C
S31520001360C3F30E039AB27B689A8100BF0C37BD4641
S315200013705DF8047B704780B483B000AF78600B467D
S31520001380FB70FB78002B08D07B689B8A9BB243F4CA
S3152000139000639AB27B689A8207E07B689B8A9BB23D
S315200013A023F400639AB27B689A8200BF0C37BD464D
S315200013B05DF8047B704780B483B000AF78600B463D
S315200013C07B807B88C3F308039AB27B689A8000BF30
S315200013D00C37BD465DF8047B704780B483B000AF00
S315200013E078607B689B889BB2C3F308039BB2184640
S315200013F00C37BD465DF8047B704780B483B000AFE0
S3152000140078600B46FB707B681B8A9BB223F00F0328
S315200014109AB27B681A827B681B8A9AB2FB789BB247
S3152000142013439AB27B681A8200BF0C37BD465DF81B
S31520001430047B704780B483B000AF78600B46FB70A6
S31520001440FB78002B08D07B689B899BB243F0020374
S315200014509AB27B689A8107E07B689B899BB223F0CE
S3152000146002039AB27B689A8100BF0C37BD465DF8AD
S31520001470047B704780B483B000AF78600B467B80D6
S315200014807B689B899BB223F400639AB27B689A811E
S315200014907B689B899AB27B8813439AB27B689A8130
S315200014A000BF0C37BD465DF8047B704780B483B01F
S315200014B000AF78600B467B807B681B8A9BB223F04B
S315200014C020039AB27B681A827B681B8A9AB27B8831
S315200014D013439AB27B681A8200BF0C37BD465DF86B
S315200014E0047B704780B483B000AF78600B46FB70F6
S315200014F0FB78002B08D07B681B8A9BB243F4804381
S315200015009AB27B681A8207E07B681B8A9BB223F417
S3152000151080439AB27B681A8200BF0C37BD465DF8BD
S31520001520047B704780B483B000AF78607B689B896A
S315200015309BB243F001039AB27B689A8100BF0C37B5
S31520001540BD465DF8047B704780B483B000AF7860F9
S315200015500B46FB70FB78002B08D07B689B8A9BB2DE
S3152000156043F008039AB27B689A8207E07B689B8ADD
S315200015709BB223F008039AB27B689A8200BF0C378D
S31520001580BD465DF8047B704780B483B000AF7860B9
S315200015900B46FB707B681B8B9BB2DBB29AB27B68D7
S315200015A01A837B681B8B9AB2FB789BB21B029BB279
S315200015B013439AB27B681A8300BF0C37BD465DF889
S315200015C0047B704780B483B000AF78600B46FB7015
S315200015D0FB78002B08D07B689B8A9BB243F02003C4
S315200015E09AB27B689A8207E07B689B8A9BB223F03B
S315200015F020039AB27B689A8200BF0C37BD465DF8FD
S31520001600047B704780B483B000AF78600B46FB70D4
S31520001610FB78002B08D07B689B8A9BB243F0100393
S315200016209AB27B689A8207E07B689B8A9BB223F0FA
S3152000163010039AB27B689A8200BF0C37BD465DF8CC
S31520001640047B704780B483B000AF78600B467B8004
S315200016507B689B8A9BB223F004039AB27B689A82AA
S315200016607B689B8A9AB27B8813439AB27B689A825C
S3152000167000BF0C37BD465DF8047B704780B483B04D
S3152000168000AF78600B46FB70FB78002B08D07B6898
S315200016909B8A9BB243F002039AB27B689A8207E048
S315200016A07B689B8A9BB223F002039AB27B689A825C
S315200016B000BF0C37BD465DF8047B704780B483B00D
S315200016C000AF78600B467B8013467B707B78002BBF
S315200016D008D07B689B8A9AB27B8813439AB27B6830
S315200016E09A8209E07B689B8A9AB27B88DB439BB20D
S315200016F013409AB27B689A8200BF0C37BD465DF8CC
S31520001700047B704780B487B000AF78600B467B803F
S3152000171013467B7000233B610023FB600023BB60E4
S3152000172000237B617B687B617B88DBB25B09DBB254
S315200017303B617B8803F01F03FB600122FB6802FAF2
S3152000174003F3BB603B69012B03D17B690C337B61BF
S3152000175009E03B69022B03D17B6910337B6102E0F0
S315200017607B6914337B617B78002B06D07B691968F3
S315200017707B69BA680A431A6006E07B691968BB6808
S31520001780DA437B690A401A6000BF1C37BD465DF804
S31520001790047B704780B485B000AF78600B467B80B1
S315200017A00023FB737B681B889AB27B8813409BB20D
S315200017B0002B02D00123FB7301E00023FB73FB7B8C
S315200017C018461437BD465DF8047B704780B483B055
S315200017D000AF78600B467B807B88DB439AB27B68C0
S315200017E01A8000BF0C37BD465DF8047B704780B475
S315200017F087B000AF78600B467B800023FB60002318
S315200018007B610023BB600023FB747B88DBB25B0912
S31520001810DBB2BB607B8803F01F037B6101227B69FF
S3152000182002FA03F37B61BB68012B07D17B689B8996
S315200018309BB21A467B6913407B6111E0BB68022B81
S3152000184007D17B681B8A9BB21A467B6913407B6152
S3152000185006E07B689B8A9BB21A467B6913407B61B4
S315200018607B881B0A9BB2FB600122FB6802FA03F30A
S31520001870FB607B681B889BB21A46FB681340FB60A3
S315200018807B69002B05D0FB68002B02D00123FB745B
S3152000189001E00023FB74FB7C18461C37BD465DF82F
S315200018A0047B704780B485B000AF78600B467B80A0
S315200018B00023FB810023BB817B881B0AFB81FB89DC
S315200018C0012202FA03F3BB81BB89DB439AB27B6810
S315200018D01A8000BF1437BD465DF8047B704700BFF1
S315200018E080B483B000AF0346FB71FB7903F01F037E
S315200018F0012202FA03F1064A97F907305B0942F8FA
S31520001900231000BF0C37BD465DF8047B704700BF2F
S3152000191000E100E080B483B000AF03463960FB717C
S3152000192097F90730002B0BDA3B68DAB20C49FB79C2
S3152000193003F00F03043B1201D2B20B441A7609E0DE
S315200019403B68DAB2074997F907301201D2B20B4445
S3152000195083F8002300BF0C37BD465DF8047B704733
S3152000196000ED00E000E100E080B582B000AF7860D5
S31520001970396000220121074807F079FF022117204C
S31520001980FFF7C8FF1720FFF7ABFF00BF0837BD469C
S3152000199080BD00BF0004024080B582B000AF7860F1
S315200019A039607B689B688021184607F0F4FE034661
S315200019B018460837BD4680BD80B582B000AF786036
S315200019C039607B689B683A68D2B20121184607F0D5
S315200019D04EFF00BF0837BD4680BD80B582B000AF40
S315200019E0786039607B689B680121184607F066FF9E
S315200019F000BF0837BD4680BD80B584B000AF786093
S31520001A00396007F10803184607F0CCFC8023BB6039
S31520001A1000233B733B68002B01D0082300E00C23F6
S31520001A207B730123BB7307F10803184607F048FCB4
S31520001A3000BF1037BD4680BD80B584B002AF786048
S31520001A403960802007F000FD0346012B14D1802049
S31520001A5007F014FD7B68DB68002B10D07B68DA6802
S31520001A607B681B69002100910021002001F0E8FA23
S31520001A70054B01221A6002E0044800F0A5FE00236F
S31520001A8018460837BD4680BD7CC3002024B10020FF
S31520001A9080B400AF164B1B68154A43F00103136050
S31520001AA0134B00229A60124B1B68114A23F0A8534D
S31520001AB023F4102313600E4B0E4A5A600C4B0E4A29
S31520001AC0C3F884200A4B0D4AC3F88820084B1B68AC
S31520001AD0074A23F480231360054B0022DA60044B67
S31520001AE00022C3F88C2000BFBD465DF8047B7047FA
S31520001AF0003802401030002400300020003000243E
S31520001B0080B483B000AF0346FB71064B00221A70E7
S31520001B10044AFB79137000BF0C37BD465DF8047B81
S31520001B20704700BF0238024080B582B000AF002364
S31520001B303B600023FB710023BB71312000F08AFD3E
S31520001B400346BB713B6801333B603B68B3F5A04F4E
S31520001B5002D0BB79002BF0D0312000F07BFD03466C
S31520001B60002B02D00123FB7101E00023FB71FB79DE
S31520001B7018460837BD4680BD80B485B000AF034601
S31520001B80FB710023FB600A4B1B68FB60FB6823F09C
S31520001B90F803FB60FB79DB00FA681343FB60044A19
S31520001BA0FB68136000BF1437BD465DF8047B7047A1
S31520001BB00038024080B483B000AF0346FB71044A6C
S31520001BC0FB79136000BF0C37BD465DF8047B704778
S31520001BD00000474280B483B000AF0346FB710D4B33
S31520001BE000221A700B4B00221A70FB79012B02D0AF
S31520001BF0042B04D007E0074B01221A7003E0054BA3
S31520001C0005221A7000BF00BF0C37BD465DF8047B65
S31520001C10704700BF7038024080B483B000AF0346DF
S31520001C20FB71044AFB79136000BF0C37BD465DF893
S31520001C30047B7047800E474280B485B000AFF860C1
S31520001C40B9607A603B607B689A01BB681A433B683F
S31520001C505B08013B1B041A43FB681A43BB691B063E
S31520001C60044913434B6000BF1437BD465DF8047B1F
S31520001C70704700BF0038024080B483B000AF0346EF
S31520001C80FB71044AFB79136000BF0C37BD465DF833
S31520001C90047B70476000474280B483B000AF786011
S31520001CA039607B689A013B681B0705491343C1F8D5
S31520001CB0843000BF0C37BD465DF8047B704700BFFB
S31520001CC00038024080B483B000AF0346FB71044A5B
S31520001CD0FB79136000BF0C37BD465DF8047B704767
S31520001CE06800474280B485B000AFF860B9607A607A
S31520001CF0FB689A01BB681B061A437B681B070549CC
S31520001D001343C1F8883000BF1437BD465DF8047B05
S31520001D10704700BF0038024080B483B000AF03464E
S31520001D20FB71044AFB79136000BF0C37BD465DF892
S31520001D30047B70477000474280B483B000AF0346EF
S31520001D40FB71044AFB79136000BF0C37BD465DF872
S31520001D50047B70474C00474280B485B000AF786062
S31520001D6039600023FB600B4B9B68FB60FB6823F00C
S31520001D70EC63FB607A683B681343FA681343FB60A5
S31520001D80044AFB68936000BF1437BD465DF8047BA8
S31520001D90704700BF0038024080B485B000AF78603D
S31520001DA039600023FB600B4B9B68FB60FB6823F0CC
S31520001DB07843FB607A683B681343FA681343FB60F9
S31520001DC0044AFB68936000BF1437BD465DF8047B68
S31520001DD0704700BF0038024080B485B000AF7860FD
S31520001DE00023FB60094B9B68FB60FB6823F0030321
S31520001DF0FB60FA687B681343FB60044AFB689360C8
S31520001E0000BF1437BD465DF8047B7047003802409A
S31520001E1080B400AF054B9B68DBB203F00C03DBB24A
S31520001E201846BD465DF8047B704700BF0038024067
S31520001E3080B485B000AF78600023FB60094B9B68B7
S31520001E40FB60FB6823F0F003FB60FA687B681343B2
S31520001E50FB60044AFB68936000BF1437BD465DF8FB
S31520001E60047B70470038024080B485B000AF7860AC
S31520001E700023FB60094B9B68FB60FB6823F4E0535F
S31520001E80FB60FA687B681343FB60044AFB68936037
S31520001E9000BF1437BD465DF8047B7047003802400A
S31520001EA080B485B000AF78600023FB600A4B9B6846
S31520001EB0FB60FB6823F46043FB607B68DB00FA6809
S31520001EC01343FB60044AFB68936000BF1437BD468A
S31520001ED05DF8047B704700BF0038024080B489B0AB
S31520001EE000AF78600023BB6100237B610023FB6188
S31520001EF002233B610023FB600223BB604A4B9B68A5
S31520001F0003F00C03BB61BB69082B11D0BB69082BFE
S31520001F1044D8BB69002B03D0BB69042B04D03DE019
S31520001F207B68424A1A603DE07B68414A1A6039E084
S31520001F303D4B5B689B0D03F00103FB603A4B5B68EE
S31520001F4003F03F03BB60FB68002B0CD0384ABB680C
S31520001F50B2FBF3F3344A52689209C2F3080202FB39
S31520001F6003F3FB610BE0314ABB68B2FBF3F32E4A65
S31520001F7052689209C2F3080202FB03F3FB612A4B63
S31520001F805B681B0C03F0030301335B003B61FA69BA
S31520001F903B69B2FBF3F27B681A6003E07B68234A55
S31520001FA01A6000BF204B9B6803F0F003BB61BB693E
S31520001FB01B09BB611F4ABB6913441B78DBB27B61DB
S31520001FC07B681A687B69DA407B685A60164B9B6887
S31520001FD003F4E053BB61BB699B0ABB61154ABB692D
S31520001FE013441B78DBB27B617B685A687B69DA40D5
S31520001FF07B689A600C4B9B6803F46043BB61BB69AA
S315200020005B0BBB610B4ABB6913441B78DBB27B615C
S315200020107B685A687B69DA407B68DA6000BF2437C0
S31520002020BD465DF8047B7047003802400024F4006A
S3152000203000127A0010BD002080B485B000AF786011
S315200020400023FB607B6803F44073B3F5407F11D116
S315200020500F4B9B68FB60FB6823F4F813FB607B68DF
S3152000206023F0704323F44073FA681343FB60084A55
S31520002070FB689360064B1A6F7B68C3F30B03044916
S3152000208013430B6700BF1437BD465DF8047B7047CA
S315200020900038024080B483B000AF0346FB71044A87
S315200020A0FB79136000BF0C37BD465DF8047B704793
S315200020B03C0E474280B483B000AF0346FB71044A0E
S315200020C0FB79136000BF0C37BD465DF8047B704773
S315200020D0400E474280B483B000AF7860044A7B68E4
S315200020E0136000BF0C37BD465DF8047B704700BF08
S315200020F05C01474280B485B000AF78600023FB6066
S315200021000B4BD3F88C30FB60FB6823F01F03FB607E
S315200021107B68013BFA681343FB60054AFB68C2F8FB
S315200021208C3000BF1437BD465DF8047B704700BF76
S315200021300038024080B485B000AF78600023FB6091
S315200021400B4BD3F88C30FB60FB6823F4F853FB6011
S315200021507B68013B1B02FA681343FB60044AFB6859
S31520002160C2F88C3000BF1437BD465DF8047B70473B
S315200021700038024080B485B000AF78600023FB6051
S315200021800A4BD3F88C30FB60FB6823F44013FB60CA
S31520002190FA687B681343FB60044AFB68C2F88C30FC
S315200021A000BF1437BD465DF8047B704700380240F7
S315200021B080B485B000AF78600023FB600A4BD3F86B
S315200021C08C30FB60FB6823F44003FB60FA687B6875
S315200021D01343FB60044AFB68C2F88C3000BF1437F7
S315200021E0BD465DF8047B70470038024080B485B058
S315200021F000AF78600023FB600A4BD3F88C30FB607D
S31520002200FB6823F44033FB60FA687B681343FB606A
S31520002210044AFB68C2F88C3000BF1437BD465DF80F
S31520002220047B70470038024080B483B000AF7860EA
S31520002230044A7B68136000BF0C37BD465DF8047BFB
S31520002240704700BFE011474280B483B000AF78608A
S315200022500B46FB70FB78002B06D00A4B1A6B0949FC
S315200022607B6813430B6306E0064B1A6B7B68DB43E4
S31520002270044913400B6300BF0C37BD465DF8047B51
S31520002280704700BF0038024080B483B000AF78604A
S315200022900B46FB70FB78002B06D00A4B5A6B09497C
S315200022A07B6813434B6306E0064B5A6B7B68DB4324
S315200022B0044913404B6300BF0C37BD465DF8047BD1
S315200022C0704700BF0038024080B483B000AF78600A
S315200022D00B46FB70FB78002B06D00A4B9A6B0949FC
S315200022E07B6813438B6306E0064B9A6B7B68DB4364
S315200022F0044913408B6300BF0C37BD465DF8047B51
S31520002300704700BF0038024080B483B000AF7860C9
S315200023100B46FB70FB78002B06D00A4B1A6C09493A
S315200023207B6813430B6406E0064B1A6C7B68DB4321
S31520002330044913400B6400BF0C37BD465DF8047B8F
S31520002340704700BF0038024080B483B000AF786089
S315200023500B46FB70FB78002B06D00A4B5A6C0949BA
S315200023607B6813434B6406E0064B5A6C7B68DB4361
S31520002370044913404B6400BF0C37BD465DF8047B0F
S31520002380704700BF0038024080B483B000AF786049
S315200023900B46FB70FB78002B06D00A4B1A690949BD
S315200023A07B6813430B6106E0064B1A697B68DB43A7
S315200023B0044913400B6100BF0C37BD465DF8047B12
S315200023C0704700BF0038024080B483B000AF786009
S315200023D00B46FB70FB78002B06D00A4B5A6909493D
S315200023E07B6813434B6106E0064B5A697B68DB43E7
S315200023F0044913404B6100BF0C37BD465DF8047B92
S31520002400704700BF0038024080B483B000AF7860C8
S315200024100B46FB70FB78002B06D00A4B9A690949BC
S315200024207B6813438B6106E0064B9A697B68DB4326
S31520002430044913408B6100BF0C37BD465DF8047B11
S31520002440704700BF0038024080B483B000AF786088
S315200024500B46FB70FB78002B06D00A4B1A6A0949FB
S315200024607B6813430B6206E0064B1A6A7B68DB43E4
S31520002470044913400B6200BF0C37BD465DF8047B50
S31520002480704700BF0038024080B483B000AF786048
S315200024900B46FB70FB78002B06D00A4B5A6A09497B
S315200024A07B6813434B6206E0064B5A6A7B68DB4324
S315200024B0044913404B6200BF0C37BD465DF8047BD0
S315200024C0704700BF0038024080B483B000AF786008
S315200024D00B46FB70FB78002B06D00A4B1A6D094978
S315200024E07B6813430B6506E0064B1A6D7B68DB435E
S315200024F0044913400B6500BF0C37BD465DF8047BCD
S31520002500704700BF0038024080B483B000AF7860C7
S315200025100B46FB70FB78002B06D00A4B5A6D0949F7
S315200025207B6813434B6506E0064B5A6D7B68DB439D
S31520002530044913404B6500BF0C37BD465DF8047B4C
S31520002540704700BF0038024080B483B000AF786087
S315200025500B46FB70FB78002B06D00A4B9A6D094977
S315200025607B6813438B6506E0064B9A6D7B68DB43DD
S31520002570044913408B6500BF0C37BD465DF8047BCC
S31520002580704700BF0038024080B483B000AF786047
S315200025900B46FB70FB78002B06D00A4B1A6E0949B6
S315200025A07B6813430B6606E0064B1A6E7B68DB439B
S315200025B0044913400B6600BF0C37BD465DF8047B0B
S315200025C0704700BF0038024080B483B000AF786007
S315200025D00B46FB70FB78002B06D00A4B5A6E094936
S315200025E07B6813434B6606E0064B5A6E7B68DB43DB
S315200025F0044913404B6600BF0C37BD465DF8047B8B
S31520002600704700BF0038024080B483B000AF034655
S315200026100A46FB711346BB71BB79002B08D00C4BC5
S315200026201B78DAB20A49FB791343DBB20B7009E057
S31520002630074B1B78DAB2FB79DB43DBB20449134044
S31520002640DBB20B7000BF0C37BD465DF8047B7047CC
S315200026500D38024080B487B000AF0346FB710023DB
S31520002660FB6000237B610023FB74FB795B09DBB2F3
S31520002670FB60FB68012B03D1124B1B687B6109E0D1
S31520002680FB68022B03D10F4B1B6F7B6102E00D4BC6
S315200026905B6F7B61FB7903F01F03FB607A69FB6844
S315200026A022FA03F303F00103002B02D00123FB746B
S315200026B001E00023FB74FB7C18461C37BD465DF801
S315200026C0047B70470038024080B400AF054B5B6F37
S315200026D0044A43F08073536700BFBD465DF8047B10
S315200026E0704700BF0038024080B485B000AF034673
S315200026F0FB710023FB73094BDA68FB791340002B2F
S3152000270002D00123FB7301E00023FB73FB7B1846F9
S315200027101437BD465DF8047B704700BF0038024081
S3152000272080B483B000AF0346FB71044AFB79137073
S3152000273000BF0C37BD465DF8047B70470E3802405B
S3152000274080B483B000AF0346FB71FB7903F01F030F
S31520002750012202FA03F1064A97F907305B0942F88B
S31520002760231000BF0C37BD465DF8047B704700BFC1
S3152000277000E100E080B483B000AF03463960FB710E
S3152000278097F90730002B0BDA3B68DAB20C49FB7954
S3152000279003F00F03043B1201D2B20B441A7609E070
S315200027A03B68DAB2074997F907301201D2B20B44D7
S315200027B083F8002300BF0C37BD465DF8047B7047C5
S315200027C000ED00E000E100E080B582B000AF786067
S315200027D00EE07B681B780D2B07D07B685A1C7A602D
S315200027E01B78184600F060F902E07B6801337B60B5
S315200027F07B681B78002BECD100BF00BF0837BD4695
S3152000280080BD80B586B000AF786000237B617B6891
S3152000281003F00F027B69591C796110498A5C07F124
S3152000282018010B4403F80C2C7B681B097B607B6822
S31520002830002BECD10AE07B69013B7B6107F10C029E
S315200028407B6913441B78184600F02EF97B69002B10
S31520002850F1D100BF00BF1837BD4680BD20BD002086
S3152000286080B59EB000AF78607B68002B02DA4FF00F
S31520002870FF3300E001233B677B683A6F02FB03F3DB
S315200028807B6000237B6779681C4B83FB01239A10AE
S31520002890CB17D21A13469B0013445B00CA1A7B6FD0
S315200028A0591C796716498A5C07F178010B4403F8AD
S315200028B06C2C7B68114A82FB03129210DB17D31A09
S315200028C07B607B68002BDED13B6F002B0EDA2D2040
S315200028D000F0EAF80AE07B6F013B7B6707F10C0208
S315200028E07B6F13441B78184600F0DEF87B6F002BB5
S315200028F0F1D100BF00BF7837BD4680BD67666666EA
S3152000290020BD002080B483B000AF10237B607B689D
S3152000291083F3118800BF00BF0C37BD465DF8047BEA
S31520002920704780B483B000AF30237B607B6883F32D
S31520002930118800BF00BF0C37BD465DF8047B704789
S3152000294080B584B000AF78600B48FFF73DFF0B4B96
S315200029501B68002B02D1094B094A1A60074B1B68DA
S31520002960FB60064B1A687B681344044A1360FB68B5
S3152000297018461037BD4680BD48B10020E0C600206D
S31520002980F846012080B485B000AF786039603B6896
S3152000299003F5F95310337A6813607B681B68BB60B4
S315200029A00023FB600AE0FB689B001A46BB681344C1
S315200029B01A4600231360FB680133FB60FB68332B48
S315200029C0F1DDBB686FF016021A60BB6804331A4645
S315200029D003231360BB6884331A464FF08073136059
S315200029E000BF1437BD465DF8047B704780B485B0C0
S315200029F000AF786039607B681B688033FB60FB68BA
S31520002A003A681A6000BF1437BD465DF8047B7047EC
S31520002A1080B584B000AF1D4803F050FD3B1D18461D
S31520002A2003F098FE40F24733BB803B1D19461748FA
S31520002A3003F024FE164B174A1A6002216FF001009C
S31520002A40FFF798FE144B154A1A6000216FF0040018
S31520002A50FFF790FE124B134A1A6002213220FFF72D
S31520002A6089FE3220FFF76CFE0021084803F0BCFEE9
S31520002A700121064803F085FF01220221034804F0C4
S31520002A8054FF00BF1037BD4680BD00BF000C00407C
S31520002A9038C00120210000202CC001201D0000206C
S31520002AA008C101202F2E002080B582B000AF03463A
S31520002AB0FB71FB799BB219460748FEF77CFC00BFE9
S31520002AC080210548FEF766FE0346002BF8D000BF9E
S31520002AD000BF0837BD4680BD0010014080B500AF5D
S31520002AE0124803F09DFE03461A46114B1A60114BFD
S31520002AF001221A60104B00221A60104B1B68002B13
S31520002B0006D00E4B1B680E4A1268002110469847C5
S31520002B10084B00221A60084B1B68002B01D000F0DE
S31520002B205DFA054B00221A6000BF80BD000C0040F4
S31520002B3080C3002078C300207CC30020F0C300207F
S31520002B4090C3002080B500AF124803F069FE03460B
S31520002B501A46114B1A60114B01221A60104B0022A3
S31520002B601A60104B5B68002B06D00E4B5B680E4A32
S31520002B705268012110469847084B00221A60084BDC
S31520002B801B68002B01D000F029FA054B00221A60A1
S31520002B9000BF80BD000C004080C3002078C3002009
S31520002BA07CC30020F0C3002090C3002080B500AF76
S31520002BB0124803F035FE03461A46114B1A60114B94
S31520002BC001221A60104B00221A60104B9B68002BC2
S31520002BD006D00E4B9B680E4A9268022110469847F3
S31520002BE0084B00221A60084B1B68002B01D000F00E
S31520002BF0F5F9054B00221A6000BF80BD000C00408D
S31520002C0080C3002078C300207CC30020F0C30020AE
S31520002C1090C3002080B485B000AF7860396000236F
S31520002C20FB603B681B68BB6004E0BB68FB60BB685D
S31520002C301B68BB60BB68002B05D0BB689A687B68A5
S31520002C409B689A42F1DD7B68BA681A60FB68002BA4
S31520002C5003D13B687A681A6002E0FB687A681A60DA
S31520002C6000BF1437BD465DF8047B704780B485B03D
S31520002C7000AF786039600023FB603B681B68BB604F
S31520002C8004E0BB68FB60BB681B68BB60BB68002BAD
S31520002C9005D0BB685A687B685B689A42F1DD7B6821
S31520002CA0BA681A60FB68002B03D13B687A681A6001
S31520002CB002E0FB687A681A6000BF1437BD465DF8EB
S31520002CC0047B704780B584B000AF78607B681B6852
S31520002CD0FB60FB68002B04D0FB681A687B681A60CF
S31520002CE00CE00948FFF770FD00220221074806F094
S31520002CF0BEFD0748FFF768FD30BFFDE7FB681846B5
S31520002D001037BD4680BD00BF60B1002000040240E0
S31520002D106CB1002080B584B000AF78607B681B68FA
S31520002D20FB60FB68002B04D0FB681A687B681A607E
S31520002D300CE00948FFF748FD00220221074806F06B
S31520002D4096FD0748FFF740FD30BFFDE7FB681846B4
S31520002D501037BD4680BD00BF60B100200004024090
S31520002D6078B1002080B483B000AF786039603B68CA
S31520002D701A687B681A603B687A681A6000BF0C374D
S31520002D80BD465DF8047B704780B483B000AF7860A1
S31520002D9039603B681A687B689A603B687A681A6073
S31520002DA000BF0C37BD465DF8047B704780B485B004
S31520002DB000AF78607B681B68FB60FB689A687B685D
S31520002DC01A60FB6818461437BD465DF8047B7047C9
S31520002DD080B485B000AF786039600023FB603B6823
S31520002DE01B68BB6004E0BB68FB60BB681B68BB60FC
S31520002DF0BB68002B03D0BA687B689A42F3D1BB68C4
S31520002E00002B0DD0FB68002B04D0BB681A68FB682A
S31520002E101A6003E0BB681A683B681A60012300E069
S31520002E20002318461437BD465DF8047B704780B5ED
S31520002E3082B000AF02211E4804F001FE1C4803F0B8
S31520002E40EFFC03467B6007E01A48FFF73BFF03468B
S31520002E5019491846FFF7DEFE164B1B68002B06D0D5
S31520002E60144B1B685A687B68D31A002BECDD114B78
S31520002E701B68002B16D00E4803F0D2FC03463B609D
S31520002E800C4B1B685B683A689A4204DD00220221DB
S31520002E900A4806F0ECFC074B1B685B681946044899
S31520002EA003F0FDFF00F09AF800BF0837BD4680BD4D
S31520002EB0000C004074C3002070C3002000040240B0
S31520002EC00346024A136010DFF74600BF9CC300206A
S31520002ED00346054A1360054B5B68044A43F080535A
S31520002EE05360F74600BF00BF9CC3002000ED00E002
S31520002EF080B582B000AF7860094B5B68C3F30803E6
S31520002F00002B03D17868FFF7DBFF02E07868FFF734
S31520002F10DFFFFFF706FD00BF0837BD4680BD00BFB7
S31520002F2000ED00E090B585B000AF234B1C68234828
S31520002F30FFF7C8FE0346E360E368BB60FFF7F1FCDA
S31520002F40BB68D868BB681969BB685B691A4600F01C
S31520002F5015F9FFF7D7FC1A49B868FFF703FF194B95
S31520002F601B689B68DB687B60144B1B68002B0AD0B0
S31520002F707B68002BD9D0114B1B689A687B689B68AD
S31520002F80D31A002BD1DD0F48FFF710FF03460E4959
S31520002F901846FFF7F9FE0B4B1B68FB6003E0FB6846
S31520002FA01B691B68FB60FB681B69002BF7D1F8685F
S31520002FB0FFF79EFFB9E700BF40BD002070C3002089
S31520002FC034BD00203CBD002038BD002080B500AFB8
S31520002FD000F004F8FFF7A5FC30BFFBE780B582B010
S31520002FE000AF144B1B68DB687B60134B1B68002B00
S31520002FF01BD0124B1B68002B17D07B68002B07D0E9
S315200030000D4B1B689A687B689B68D31A002B0CDAD9
S315200030100A48FFF7CBFE034606491846FFF7B4FEDB
S31520003020044B1B681846FFF763FF00BF0837BD46F1
S3152000303080BD00BF3CBD002070C3002038BD0020ED
S3152000304080B588B000AFF860B9607A603B60EFF376
S3152000305012833B613B691B09012B14BF012300230B
S31520003060DBB2FB77FFF74EFC3A48FFF753FEB86119
S31520003070BB697A68DA60BB693A681A61BB69BA6A61
S315200030805A61354B1B68002B04D1344B1B68DB6817
S315200030905B6801E0324B1B68FA681A44BB695A60C8
S315200030A0BB695A68BB68002B01DDBB6801E06FF085
S315200030B000431A44BB699A602A4803F0B1FB0346D1
S315200030C07B61BB695A687B69D31A002B16DD2649BA
S315200030D0B869FFF7CBFD244B1B685B687A699A4277
S315200030E004DD00220221214806F0C1FB1E4B1B688D
S315200030F05B6819461B4803F0D2FE21E01C49B869DB
S31520003100FFF788FDFB7F002B1AD01A4B1B68002B7C
S3152000311016D0174B1B689A68174B1B68DB689B6891
S31520003120D31A002B0CDA1348FFF740FE0346124948
S315200031301846FFF729FE104B1B681846FFF7D8FEE6
S31520003140FB7F002B01D0FFF7ECFBBB69184620372D
S31520003150BD4680BD34BD002078C3002040BD002080
S3152000316080C30020000C004074C3002000040240ED
S3152000317070C3002038BD00203CBD002080B588B03B
S3152000318000AFF860B9607A60EFF312833B613B6968
S315200031901B09012B14BF01230023DBB2FB76FFF7AB
S315200031A0B1FBFB681B68FB61FB69002B37D003E092
S315200031B0FB691B691B68FB61FB691B69002BF7D147
S315200031C0304B1B68FA699A4202D0FB7E002B07D14E
S315200031D0FB7E002B01D0FFF7A4FB4FF0FF334DE021
S315200031E0FB685B68002B03D0FB685B6800221A61D2
S315200031F0244B1A68FB685A60224B1B68FA681A61CE
S31520003200F869FFF775FE1F4B1B68DB68002B06D19C
S31520003210FB7E002B01D0FFF784FB00232EE0194B09
S315200032201A68FB681A60FB7E002B05D0FB685B687A
S31520003230012B01D0FFF775FBBB687968F8689847C2
S315200032407861FFF75FFBFB6800221A60FB685B680A
S31520003250FB61FB69002B0BD0FB69012B08D0FB68B7
S3152000326000225A60FB6900221A61F869FFF740FEC6
S31520003270FB7E002B01D0FFF754FB7B6918462037D5
S31520003280BD4680BD40BD002080B586B000AF7860C9
S31520003290EFF31283FB60FB681B09012B14BF01238C
S315200032A00023DBB2FB74FFF72DFB1F497868FFF77D
S315200032B08FFD0346002B06D11C497868FFF788FD51
S315200032C00346002B04D01A497868FFF74BFD21E00E
S315200032D0184B1B687B611AE0174B1B687A699A4268
S315200032E012D07B69DB687A689A420DD17B691A69AC
S315200032F07B68DB689A4207D17B690022DA600C4939
S315200033007868FFF72FFD05E07B699B687B617B6909
S31520003310002BE1D1FB7C002B01D0FFF702FB00BF85
S315200033201837BD4680BD00BF74C3002070C300207F
S3152000333034BD00203CBD002040BD002080B485B0B7
S3152000334000AF7860EFF31283FB60FB681B09012B4B
S3152000335004D0074B1B68DB685B6801E0054B1B68E4
S315200033607A68136000BF1437BD465DF8047B70474A
S3152000337040BD002080C3002080B485B000AF7860B7
S31520003380EFF31283FB60FB681B09012B04D0084B6B
S315200033901B68DB685B6801E0064B1B687A6812686D
S315200033A09B1A18461437BD465DF8047B704700BF4C
S315200033B040BD002080C3002080B584B000AFEFF36D
S315200033C012837B607B681B09012B14BF012300231A
S315200033D0DBB2FB73FFF796FA0C4803F021FA03469B
S315200033E0BB60FB7B002B01D0FFF79BFAFB7B002BFE
S315200033F004D0074B1B68DB685B6801E0054B1B6844
S31520003400BA68D31A18461037BD4680BD000C004056
S3152000341040BD002080C3002080B582B000AF0023CD
S315200034207B6012E07B685A1C13465B001344DB006A
S31520003430444A991843487A6813465B001344DB00D4
S31520003440034419607B6801337B607B681C2BE9DDB4
S315200034503C4B0022C3F8B82200237B6013E07B6834
S315200034605A1C13469B0013449B00374A991836482A
S315200034707A6813469B0013449B0003440833196063
S315200034807B6801337B607B68022BE8DD2E4B0022B4
S315200034905A6400237B6030E02B497A6813469B00F0
S315200034A013449B000B4404337A681A607A681346E7
S315200034B09B0013449B00244A1A447B685B032349E0
S315200034C00B4419461046FFF75DFA7A6813469B00AF
S315200034D013449B001C4A13441D491846FFF786FADD
S315200034E019497A6813469B0013449B000B441033FA
S315200034F000221A607B6801337B607B68032BCBDD5F
S31520003500144B4FF0FF325A60124B00229A60114B37
S3152000351000221A610F4B0022DA600F48FFF754F998
S315200035200E48FFF751F90E48FFF74EF90A48FFF704
S315200035304BF90948FFF748F9FFF76AFA00BF083741
S31520003540BD4680BD10C40020A0C30020E8C60020D0
S31520003550252F0020FCC3002084B1002088B1002044
S3152000356094B1002080B586B000AFF860B9601346EC
S31520003570FB71FB79022B41D8EFF312833B613B6948
S315200035801B09012B14BF01230023DBB2FB75FFF7B8
S31520003590B9F9FB79022B0ED0022B10DC002B02D0BE
S315200035A0012B04D00BE0174B174A1A6014E0174B77
S315200035B0174A1A6010E0174B174A1A600CE0174892
S315200035C0FFF702F900220221154806F050F91548A6
S315200035D0FFF7FAF830BFFDE7FB791349FA6841F89F
S315200035E02320FB791149BA6841F82320FB68012280
S315200035F05A60FB7D002B01D0FFF793F900BF1837E7
S31520003600BD4680BDD4C00120DD2A002090C0012007
S31520003610452B00209CC00120AD2B002060B100204E
S3152000362000040240ACB1002090C30020F0C300206B
S3152000363080B586B002AFF860B9607A60FFF762F9AC
S31520003640FFF7EAFEBB68002B16D00F4803F0E8F818
S3152000365003461A460D4B1A600D4B01221A607B68F1
S315200036600093BB68FA6800210020FFF7E9FC084BAD
S3152000367000221A60FFF7B2FCFFF7A8FC00231846C9
S315200036801037BD4680BD00BF000C004080C300201F
S3152000369078C3002080B5ACB002AF786039603A6854
S315200036A007F16C031068516803C31189927A198057
S315200036B09A7097F86C30772B0ED097F86C3007F10C
S315200036C008008A4A642106F0ABFE07F108031A4671
S315200036D087498848FFF752FD7B685B690133052BD4
S315200036E000F2E58101A252F823F000BF0537002041
S315200036F0053800203F3800207D3A0020AF3A0020D0
S315200037009D3A002097F86C307E2B65D07E2B00F3F7
S31520003710C7817A2B02D07B2B13D0C1E1764B1A4678
S3152000372073497448FFF72AFD97F86D301A467B686F
S31520003730DB689A4262D07B689B685A1C7B689A60D9
S315200037405CE07B6801225A61012300936B4B6C4A33
S3152000375000210020FFF774FC00226A496A48FFF71F
S315200037600DFDF867FB6F002B05D1012267496848DC
S31520003770FFF704FD04E0002264496548FFF7FEFCDC
S3152000378097F86D301A467B681A617B68DB69002BD7
S315200037901AD17B68DB695A1C7B68DA6100230093A7
S315200037A05C4B574A00210020FFF74AFC0023009378
S315200037B0594B534A00215948FFF742FC584B1A46A9
S315200037C04B494C48FFF7DAFC00230093554B564AE9
S315200037D000210020FFF734FC544B1A464449454843
S315200037E0FFF7CCFC97F86F30BB677B689B68BA6F96
S315200037F09A4205DD7B68BA6F9A6001E000BF4FE10F
S3152000380000BF4DE197F86C307B2B40F04B817B68F5
S3152000381001225A6101230093384B394A00210020A6
S31520003820FFF70EFC97F86D301A467B681A61404BFD
S315200038301A462F492F48FFF7A1FC00BF32E197F81F
S315200038406C30772B40F0308197F86F30C7F8A03076
S3152000385007F10803D7F8A0203649184606F030FEAF
S3152000386007F108031A4622492248FFF787FC01235D
S315200038700093314B2C4A00210020FFF7E1FB002367
S31520003880C7F8A4307B689B68C7F89C307B68DB68E8
S31520003890C7F89830D7F8A030002B03F00103B8BF43
S315200038A05B42012B03D1D7F89C30022B12D0D7F8DC
S315200038B09C30032B46D1D7F8A010204B83FB013236
S315200038C0CB17D21A13465B001344CA1AD7F898307E
S315200038D0934237D10123C7F8A43001230093184B14
S315200038E0094A00210020FFF7ABFB36E0CCB10020CF
S315200038F06B05002060BE0020E0B10020D10D002025
S31520003900DCBC00200D50002018BE0020B919002074
S3152000391080C20020310B002099080020A0860100DB
S3152000392018B20020B952002040BE00202CB2002040
S3152000393064B2002078B20020A15900205655555572
S31520003940A55100200023C7F8A430002300935A4B2A
S315200039505A4A00210020FFF773FB00225849594894
S31520003960FFF70CFCC7F89400D7F894300A33C7F851
S315200039709030554AD7F8A03052F82320D7F8903007
S315200039801344524A9B001344D3ED007A9FED507A9C
S3152000399067EE877AFDEEE77A17EE903AC7F88C3015
S315200039A0D7F88C204B494548FFF7E8FBD7F8A430D9
S315200039B0012B61D1484AD7F8A03052F82330C7F8F6
S315200039C08830002245493F48FFF7D8FBC7F88400D6
S315200039D0D7F8843007EE903AB8EEE77ADFED406A02
S315200039E0C6EE877AC7ED207A002300933D4B334AF3
S315200039F000210020FFF724FB002300933A4B2F4A97
S31520003A0000210020FFF71CFB07F10800D7F8A4309F
S31520003A100193D7F888300093D7F88C30D7F8A020B8
S31520003A20324906F04DFD07F108031A463049314860
S31520003A30FFF7A4FBD7F888304FF4FA7202FB03F3A2
S31520003A4007EE903AB8EEE77AD7ED207A67EE277A36
S31520003A509FED297A77EEC77A9FED287A67EE877AE7
S31520003A60FDEEE77A00230093254B144A41F2883174
S31520003A7017EE900AFFF7E4FA00BF15E097F86C30CE
S31520003A807F2B13D197F86D301A467B68DB689A42F4
S31520003A9002DD7B6800229A6100BF07E000BF06E0D6
S31520003AA000BF04E000BF02E000BF00E000BF00BF8F
S31520003AB0A837BD4680BD00BFA551002018BE0020F6
S31520003AC0AF56002040BE002064B60020E4B6002099
S31520003AD0002474496D51002048B7002095560020D7
S31520003AE00000704289510020FB50002088B200203F
S31520003AF06B05002060BE0020000048420000C8423E
S31520003B00C550002080B483B000AF786039607B68F0
S31520003B10DB6818460C37BD465DF8047B704780B4D9
S31520003B2083B000AF786039607B681B6918460C3714
S31520003B30BD465DF8047B704780B483B000AF7860E3
S31520003B4039607B689B6818460C37BD465DF8047B58
S31520003B50704780B5A0B002AF78603960194B1A461D
S31520003B6019491A48FFF70AFB7B689A687B68DB6865
S31520003B7007F1080000931346154A642106F050FC0D
S31520003B8007F108031A4610491048FFF7F7FA7B6831
S31520003B90DB68DBB287F86D307E2387F86C30022332
S31520003BA087F86E307B689B68DBB287F86F3007F149
S31520003BB06C031A4607490848FFF7E0FA00BF783732
S31520003BC0BD4680BDBCB200206B05002060BE002033
S31520003BD0FCB200201747002094C2002080B5A0B078
S31520003BE002AF786039601A4B1A461A491A48FFF70D
S31520003BF0C5FA7B6899687B681B697A68D26807F181
S31520003C000800019200930B46144A642106F008FC32
S31520003C1007F108031A460F490F48FFF7AFFA7B68EA
S31520003C20DB68DBB287F86D307A2387F86C3007F1D2
S31520003C306C031A460A490B48FFF7A0FA0A4B1A46A4
S31520003C4004490548FFF79AFA00BF7837BD4680BD7C
S31520003C5018B300206B05002060BE00205CB3002056
S31520003C601747002094C2002084B3002080B586B078
S31520003C7000AF786039600B4B1A460B490B48FFF7AB
S31520003C807DFA7B681B69DBB27B737D233B7307F16F
S31520003C900C031A4606490748FFF770FA00BF183783
S31520003CA0BD4680BD98B300206B05002060BE002075
S31520003CB01747002094C2002080B586B000AF7860F8
S31520003CC039600B4B1A460B490B48FFF757FA7B68AE
S31520003CD0DB68DBB27B737B233B7307F10C031A464D
S31520003CE006490748FFF74AFA00BF1837BD4680BD88
S31520003CF0D8B300206B05002060BE002017470020A7
S31520003D0094C2002080B586B000AF786039600B4B36
S31520003D101A460B490B48FFF731FA7B68DB68DBB2A2
S31520003D207B737F233B7307F10C031A46064907482A
S31520003D30FFF724FA00BF1837BD4680BD20B4002007
S31520003D406B05002060BE00201747002094C200208B
S31520003D5080B483B000AF786039607B6802225A61F4
S31520003D6000BF0C37BD465DF8047B704780B584B034
S31520003D7002AF786039607B6800225A610023009385
S31520003D802A4B2B4A00210020FFF75AF97B68DA6874
S31520003D907B681A6100230093264B7A680021002055
S31520003DA0FFF74EF9002224492448FFF7E7F9034696
S31520003DB00093234B214A00212248FFF741F9224B49
S31520003DC01A4622492248FFF7D9F900221A491B48E8
S31520003DD0FFF7D4F9034600931E4B184A0021002012
S31520003DE0FFF72EF97B68DB69002B1AD17B68DB692C
S31520003DF05A1C7B68DA6100230093174B0C4A00217A
S31520003E000020FFF71DF900230093144B084A0021D8
S31520003E101348FFF715F9134B1A460C490C48FFF7C0
S31520003E20ADF900BF0837BD4680BD00BFD10D0020CB
S31520003E30DCBC0020B93C00209556002040BE002066
S31520003E40D553002048E8010064B400206B0500200B
S31520003E5060BE0020F7510020310B00209908002079
S31520003E60A086010018B2002080B584B002AF786029
S31520003E7039607B689B69002B0ED00D4B1A460D4985
S31520003E800D48FFF77BF9002300930C4B7A6800213D
S31520003E900020FFF7D5F803E07B684FF0FF325A6128
S31520003EA07B6801229A6100BF0837BD4680BD00BFEE
S31520003EB07CB400206B05002060BE00206D3D0020F4
S31520003EC080B584B002AF78603960002300930C4B34
S31520003ED00C4A00210020FFF7B3F80B4B1A460B497A
S31520003EE00B48FFF74BF9002300930A4B054A0021A4
S31520003EF00948FFF7A5F800BF0837BD4680BD00BFBB
S31520003F00DD3B002044BD002094B400206B0500203A
S31520003F1060BE0020533B0020400D030080B59CB0BE
S31520003F2000AF786039607B689B6807F10C00074A10
S31520003F30642106F075FA07F10C031A460449054870
S31520003F40FFF71CF900BF7037BD4680BDB0B4002016
S31520003F506B05002060BE002080B483B000AF78607F
S31520003F6039607B685B6918460C37BD465DF8047B73
S31520003F70704780B584B002AF786039600023009323
S31520003F800D4B0E4A00210020FFF75AF8002300931C
S31520003F900B4B0A4A00214FF4FA70FFF751F8002321
S31520003FA00093084B054A00214FF47A70FFF748F832
S31520003FB000BF0837BD4680BD513D002044BD0020CE
S31520003FC0053D0020693E002080B483B000AF7860B4
S31520003FD039607B683A689A6000BF0C37BD465DF849
S31520003FE0047B704780B483B000AF786039607B680B
S31520003FF03A681A6100BF0C37BD465DF8047B7047EE
S3152000400080B582B000AF7860396000220D490E4835
S31520004010FFF7B4F80346002B0FD10C4B1A460C4978
S315200040200C48FFF7ABF800220B497868FFF7A6F893
S3152000403000220A490A48FFF7A1F800BF0837BD4603
S3152000404080BD00BF330C0020DCBC0020C4B400209F
S315200040506B05002060BE0020733F0020BD59002064
S3152000406040BE002080B584B002AF78603960194B1D
S315200040701A4619491948FFF781F87B6801225A61C7
S3152000408001230093164B174A00210020FEF7D8FF84
S315200040907B689B685A1C7B689A6000230093124BAE
S315200040A0104A00210020FEF7CBFF012300930F4B7F
S315200040B00F4A00210020FEF7C3FF002300930D4B7B
S315200040C07A68002142F21070FEF7BAFF00BF083767
S315200040D0BD4680BDDCB400206B05002060BE0020FC
S315200040E0D10D0020DCBC0020FD0C00202750002034
S315200040F064BD00200140002080B59EB002AF7860EC
S3152000410039602B4B1A462B492B48FFF737F87B682B
S315200041105B69002B05D1294B1A4626492648FFF70D
S315200041202DF83B68012B16D17B6805225A610523A1
S315200041300093234B234A00210020FEF781FF002312
S315200041400093214B214A00210020FEF779FF7B684E
S3152000415001229A6028E03B68022B1ED17B6806224A
S315200041605A6106230093164B164A00210020FEF7BB
S3152000417067FF7B6800229A6000230093124B134A44
S3152000418000210020FEF75CFF00230093104B7A6885
S3152000419000211048FEF754FF06E007F10C030E4AF3
S315200041A06421184606F03CF900BF7037BD4680BD35
S315200041B0F4B400206B05002060BE002004B500206A
S315200041C0D10D0020DCBC00202750002064BD00203B
S315200041D06540002060E3160024B5002080B483B03B
S315200041E000AF786039607B685B69052B02D17B68FC
S315200041F001225A6100BF0C37BD465DF8047B70472B
S3152000420080B59EB002AF786039603C4B1A463C4977
S315200042103C48FEF7B3FF7B6899687B68DB687A6861
S31520004220126907F10C00019200930B46364A64216D
S3152000423006F0F6F807F10C031A4631493148FEF725
S315200042409DFF324B1A462E492E48FEF797FF7B6874
S315200042505B690133082B46D801A252F823F000BF30
S31520004260A14200208542002093420020AF42002038
S31520004270E7420020E7420020BD420020CB4200203A
S31520004280D9420020224B1A461D491E48FEF776FFCA
S315200042902AE0204B1A461A491A48FEF76FFF23E0F8
S315200042A01D4B1A4616491748FEF768FF1CE01B4BA4
S315200042B01A4613491348FEF761FF15E0184B1A46B4
S315200042C00F491048FEF75AFF0EE0164B1A460C49C6
S315200042D00C48FEF753FF07E0134B1A4608490948D6
S315200042E0FEF74CFF00E000BF104B1A460449054874
S315200042F0FEF744FF00BF7037BD4680BD44B50020A1
S315200043006B05002060BE002060B5002088B5002027
S3152000431090B5002098B50020A0B50020A8B50020B3
S31520004320B0B50020BCB50020C8B50020D4B500200B
S3152000433080B483B000AF786039607B6801225A610F
S3152000434000BF0C37BD465DF8047B704780B483B050
S3152000435000AF786039607B6801225A6100BF0C3754
S31520004360BD465DF8047B704780B483B000AF7860AB
S3152000437039607B6801225A6100BF0C37BD465DF863
S31520004380047B704780B483B000AF0346FB71FB7992
S3152000439003F01F03012202FA03F1064A97F90730B8
S315200043A05B0942F8231000BF0C37BD465DF8047B3D
S315200043B0704700BF00E100E080B483B000AF034641
S315200043C03960FB7197F90730002B0BDA3B68DAB2BC
S315200043D00C49FB7903F00F03043B1201D2B20B44C4
S315200043E01A7609E03B68DAB2074997F907301201D5
S315200043F0D2B20B4483F8002300BF0C37BD465DF8CC
S31520004400047B704700ED00E000E100E080B586B057
S3152000441000AF786039607B6800229A617B689A6970
S315200044207B685A617B685A697B68DA6107F10C03FD
S31520004430184604F009F80023BB740023FB740023FC
S315200044403B7500237B750023BB750023FB7500237A
S31520004450BB730023FB7302233B7403237B74072364
S31520004460BB8107F10C031946124803F059FE034697
S31520004470002B02D11048FEF7A7F907F10C031946C5
S315200044800E4803F04DFE0346002B02D10C48FEF7E2
S315200044909BF902211420FFF78FFF1420FFF772FFEC
S315200044A001220221034804F00DFC00BF1837BD4647
S315200044B080BD00BF00640040D8B5002000680040E1
S315200044C0F0B50020B0B58AB002AF786039607B685D
S315200044D09B685A49184604F013FC0346012B02D068
S315200044E05748FEF771F97B68DB69072B00F39F803D
S315200044F07B689B6807F108020021184604F0E8F95A
S31520004500BB681B09DBB27A68526903F07F03D8B215
S31520004510796813469B0013445B0013440B442033F5
S3152000452002461A70BB68DBB27A68526903F00F0341
S31520004530D8B2796813469B0013445B0013440B449E
S31520004540213302461A70BB7C7A68526903F00F0346
S31520004550D8B2796813469B0013445B0013440B447E
S31520004560223302461A700023FB7716E0FB7F7A6817
S315200045705269F97F07F12000034413F80D4C78683F
S3152000458013469B0013445B00134403440B4423331C
S3152000459022461A70FB7F0133FB777B685A6979685C
S315200045A013469B0013445B0013440B4422331B78B1
S315200045B0FA7F9A42DAD37B68DB68002B25D07B68AA
S315200045C0DC687B681D697B685A69796813469B009D
S315200045D013445B0013440B4420331B7819017B687A
S315200045E05A69786813469B0013445B0013440344BE
S315200045F021331B780B4400932B46224600210020B2
S31520004600FEF71EFD0F4B01221A607B685B690133A2
S315200046105A4203F0070302F0070258BF53427A6852
S3152000462053617B68DB695A1C7B68DA6102E00648C5
S31520004630FEF7CAF800BF2037BD46B0BD0300001202
S3152000464008B600207CC3002030B6002090B484B089
S3152000465000AF786039607B68DB69002B55DD7B68AD
S315200046609A69796813469B0013445B0013440B44F4
S3152000467020331A783B681A707B689A6979681346E2
S315200046809B0013445B0013440B4421331A783B6888
S315200046905A707B689A69796813469B0013445B00BD
S315200046A013440B4422331A783B689A700023FB7319
S315200046B013E07B689A69F87BF97B7C6813469B003C
S315200046C013445B0013442344034423331A783B6882
S315200046D00B44DA70FB7B0133FB733B689B78FA7BD8
S315200046E09A42E6D37B689B6901335A4203F007035B
S315200046F002F0070258BF53427A6893617B68DB69F0
S315200047005A1E7B68DA61002300E001231846103721
S31520004710BD4690BC704780B58AB000AF78603960DE
S315200047207B689B683B620023FB773B681B781B01F9
S315200047303A6852781344BB6000237B7400233B7491
S315200047403B689B78082B02D93B6808229A703B6805
S315200047509B78BB74002387F8273010E097F8272032
S3152000476097F8273039680A44D27807F128010B4494
S3152000477003F8152C97F82730013387F827303B6844
S315200047809B7897F827209A42E8D307F10803194621
S31520004790386A03F01DFF0346FB77FB7F042B04D109
S315200047A00448FEF711F8012300E0002318462837B5
S315200047B0BD4680BD50B6002080B584B000AF78607D
S315200047C0396000220F491048FEF7D8FCF8607B6854
S315200047D088331846FEF7D0FDB8607B68D3F894304E
S315200047E0BA68D31A094A934208DDFB68002B05D123
S315200047F0074B1A4607490848FEF7C0FC00BF10378A
S31520004800BD4680BD9919002080C200209F860100E8
S31520004810C8B700206B05002060BE0020B0B5BAB036
S3152000482000AF786039600023C7F8E4307B68DB6F1F
S31520004830022B0CDC7B68DA6F7B681C32396843F804
S3152000484022107B68DB6F5A1C7B68DA6715E07B6871
S315200048503A681A670023C7F8E0307B681B6FC7F8F1
S31520004860E0307B685A6F7B681A677B689A6F7B6833
S315200048705A677B68D7F8E0209A677B68DB6F032B43
S3152000488040F0A1807B681A6F7B685B6FD31A504A11
S315200048909342C0F298807B681A6F7B685B6FD31A4D
S315200048A042F20F72934200F38E807B681A6F7B6808
S315200048B09B6FD31A464A9342C0F285807B681A6F53
S315200048C07B689B6FD31A42F20F7293427BDC7B6824
S315200048D09A6F7B685B6FD31A3D4A934273DB7B6882
S315200048E09A6F7B685B6FD31A42F20F7293426ADC2F
S315200048F07B681A6F7B685B6F1A447B689B6F1344D7
S31520004900344A82FB0312DB17D31AC7F8DC30D7F8F8
S31520004910DC30314A82FB03125213DB17D31A1846B6
S3152000492005F024FA04460D46D7F8DC202A4B83FBF3
S3152000493002135913D317CB1A284901FB03F3D31AB1
S31520004940274A82FB03125211DB17D31A07EE903A3D
S31520004950F8EEE77A17EE900A05F01AFA4FF0000201
S31520004960204B05F097FB02460B462046294605F0CC
S31520004970B1F802460B461046194605F073FC03466D
S31520004980C7F8D830DFED186A97ED367AC6EE877A03
S31520004990FDEEE77A17EE903AC7F8D43007F10C000F
S315200049A0D7F8D430114AC82105F03AFD07F10C0397
S315200049B01A460F490F48FEF7E1FBD7F8D4200E49D7
S315200049C00E48FEF7DBFB00BFE837BD46B0BD00BF93
S315200049D0F1D8FFFF5655555589B5F814A086010024
S315200049E01F85EB5100408F4000007042E4B7002045
S315200049F06B05002060BE0020F957002040BE002035
S31520004A0080B5C0B002AF786039607B68D3F8983043
S31520004A10002B2BD17B6888331846FEF7ADFCC7F8F0
S31520004A20D4007B68D3F89430D7F8D420D31AC7F8AB
S31520004A30D0307B68D7F8D020C3F89C207B68D7F885
S31520004A40D420C3F894207B680122C3F89820012241
S31520004A508A498B48FEF792FB00230093894B7A689C
S31520004A6041F288318848FEF7EBFA04E17B68883307
S31520004A701846FEF781FCC7F8F4007B68D3F894301B
S31520004A80D7F8F420D31AC7F8F030D7F8F0307F4A99
S31520004A90934269DC7B68D3F89C30C7F8F030D7F8AE
S31520004AA0F03042F20F7293420FDC794B1A46794965
S31520004AB07948FEF763FB7B680022C3F89820002222
S31520004AC06E496F48FEF75AFBD5E0D7F8F030734AA7
S31520004AD082FB03125113DA178A1A6B4901FB02F281
S31520004AE09A1A13469B0013445B00C7F8E030D7F8A8
S31520004AF0F0206A4B83FB02135913D317CB1A624952
S31520004B0001FB03F3D31A664A82FB03125211DB1709
S31520004B10D31AC7F8DC30D7F8F030604A82FB03128C
S31520004B205213DB17D31AC7F8D83007F10800D7F885
S31520004B30E0300193D7F8DC300093D7F8D830594AC3
S31520004B40C82105F06DFCD7F8F0300093564B7A68F3
S31520004B5000210020FEF774FA07F108031A464D4992
S31520004B604D48FEF70BFB7DE0D7F8F0304B4A82FB31
S31520004B7003125113DA178A1A434901FB02F29A1AD1
S31520004B8013469B0013445B00C7F8EC30D7F8F0209F
S31520004B90424B83FB02135913D317CB1A3A4901FB15
S31520004BA003F3D31A3E4A82FB03125211DB17D31AA0
S31520004BB0C7F8E830D7F8F030384A82FB0312521390
S31520004BC0DB17D31AC7F8E43007F10800D7F8EC3022
S31520004BD00193D7F8E8300093D7F8E430334AC82158
S31520004BE005F01EFC07F108031A462A492A48FEF753
S31520004BF0C5FAD7F8F0302E4A934208DD00230093F9
S31520004C002C4B7A6800210020FEF71AFA2AE0D7F802
S31520004C10F030294A934225DD284B1A461D491E4865
S31520004C20FEF7ACFA002226492648FEF7A7FA0346E5
S31520004C30002B17D1244B1A4616491748FEF79EFA21
S31520004C4000230093214B7A6800210020FEF7F8F913
S31520004C5078221F491F48FEF791FA00221E491D4857
S31520004C60FEF78CFA7B680022C3F8982000220349BD
S31520004C700348FEF783FAF837BD4680BDF9190020B0
S31520004C8080C20020B9470020A08601009F8601002F
S31520004C90F4B700206B05002060BE002089B5F8140B
S31520004CA01F85EB5100B800201D4800203CB800208D
S31520004CB020A10700053D0020400D030068B8002014
S31520004CC0593F002044BD00207CB800206D3C0020C8
S31520004CD0F957002040BE0020B557002080B483B08D
S31520004CE000AF786039607B680122C3F8A0207B681A
S31520004CF04FF0FF32C3F880207B684FF0FF32C3F8B5
S31520004D00A8207B680022C3F8A42000BF0C37BD462C
S31520004D105DF8047B704780B586B002AF7860396055
S31520004D20002212491248FEF729FAF860FB68002B88
S31520004D3018D17B68D3F8AC30002B13D07B68D3F81E
S31520004D408030012B0ED10B4B1A460B490B48FEF730
S31520004D5015FA002300930A4B0A4A00210A48FEF757
S31520004D606FF900E000BF1037BD4680BD0D50002012
S31520004D7018BE0020A0B800206B05002060BE0020D1
S31520004D80174D002064BD002040420F0080B483B040
S31520004D9000AF786039607B683A68C3F8802000BF2E
S31520004DA00C37BD465DF8047B704780B5A2B002AFD4
S31520004DB07860396007F108031A4659495948FEF7C1
S31520004DC0DDF93B7A632B02D83B7A132B1CD83B7A2E
S31520004DD0772B19D0544B1A4654495548FEF7CEF92D
S31520004DE0544B1A4651495248FEF7C8F93B7A07F107
S31520004DF01400514A642105F013FB07F114031A46E7
S31520004E004A494B48FEF7BAF93B7A642B08D907F191
S31520004E1008030093494B4A4A00210020FEF710F967
S31520004E203B7A322B0BD93B7A402B08D807F1080363
S31520004E300093444B444A00210020FEF701F9002349
S31520004E40FB67002241493E48FEF798F9B867BB6FD9
S31520004E50012B5DD13B7A013B072B5BD801A252F88F
S31520004E6023F000BF854E0020974E0020A94E00203B
S31520004E70BB4E0020C74E0020D74E0020EB4E002010
S31520004E80FB4E002001230093314B324A00210020A3
S31520004E90FEF7D6F83FE0002300932D4B2D4A002144
S31520004EA00020FEF7CDF836E0002300932A4B294A4E
S31520004EB000210020FEF7C4F82DE0002227492848CB
S31520004EC0FEF75CF927E0FB7AFB67FA6F2549244851
S31520004ED0FEF754F91FE0FB7AFB67FB6F5B421A462D
S31520004EE020491F48FEF74AF915E0FB7AFB67FA6F5F
S31520004EF01D491B48FEF742F90DE078221A49184849
S31520004F00FEF73CF9002217491548FEF737F902E06B
S31520004F1000BF00E000BF00BF8037BD4680BD00BF98
S31520004F204D46002094C20020B0B800206B0500201A
S31520004F3060BE0020E8B80020FCB80020953600208E
S31520004F4044BD0020D1060020DCBC0020593F0020B3
S31520004F50994F002018BE0020615000206D4F002080
S31520004F6040BE0020B5570020F957002080B483B0FA
S31520004F7000AF786039607B689B68012B03D17B6822
S31520004F8000229A6002E07B6801229A6000BF0C37FB
S31520004F90BD465DF8047B704780B483B000AF78606F
S31520004FA039603B68012B09D17B681B69132B05DC13
S31520004FB07B681B695A1C7B681A610BE03B68002BD7
S31520004FC008D17B681B69012B04DD7B681B695A1E8F
S31520004FD07B681A6100BF0C37BD465DF8047B7047BD
S31520004FE080B483B000AF786039607B689B69002B02
S31520004FF003D17B6801229A6102E07B6800229A61D4
S3152000500000BF0C37BD465DF8047B704780B483B083
S3152000501000AF786039607B681B6918460C37BD463F
S315200050205DF8047B704780B483B000AF7860396048
S315200050303B68012B04D17B685A697B681A6109E0B9
S315200050403B68002B06D17B681A697B685A617B68AE
S3152000505000221A6100BF0C37BD465DF8047B7047FD
S3152000506080B584B002AF78607B681B69002B09D1BC
S315200050707B685A697B681A6100220E490E48FEF742
S315200050807DF813E07B681A697B685A617B68002289
S315200050901A6100230093094B094A00210020FDF7DD
S315200050A0CFFF012203490448FEF768F800BF0837FE
S315200050B0BD4680BDB919002080C20020174D0020B2
S315200050C064BD002080B483B000AF786039607B680F
S315200050D00122DA6100BF0C37BD465DF8047B7047BC
S315200050E080B483B000AF786039607B685B6A18460D
S315200050F00C37BD465DF8047B704780B59EB002AF85
S31520005100786039607B681B6AFB66154B1B78DBB2BF
S315200051101A467B681B699A4203D1114B00221A70EA
S3152000512004E07B681A690E4BD2B21A707B68DB6981
S31520005130002B11D17B685B6A012B0DD1FB6E094ACE
S3152000514082FB03129210DB17D01A3B680093064BA2
S315200051507A680021FDF774FF7037BD4680BD00BF19
S315200051601C74004067666666FB50002080B483B0DE
S3152000517000AF786039607B683A681A6200BF0C37E6
S31520005180BD465DF8047B704780B483B000AF78607D
S3152000519039607B680022DA6100BF0C37BD465DF8B6
S315200051A0047B704780B483B000AF786039607B6839
S315200051B03A685A6200BF0C37BD465DF8047B7047DB
S315200051C080B483B000AF786039607B683A681A6132
S315200051D000BF0C37BD465DF8047B704780B483B0B2
S315200051E000AF786039607B681B6918460C37BD466E
S315200051F05DF8047B704780B586B002AF7860396071
S315200052007B685B693A689A4240D17B689B68002B31
S315200052103CD000221F492048FDF7B0FF7B685B6920
S3152000522007EE903AB8EEE77ADFED1C6AC6EE877A8B
S31520005230C7ED037A00221A491A48FDF79FFF034655
S31520005240002B24D1D7ED037A9FED177A67EE877A64
S315200052509FED167A67EE877AFDEEE76AD7ED037A39
S315200052609FED137A67EE877A9FED107A67EE877A3D
S31520005270FDEEE77A7B685B6900930E4B7A6817EE42
S31520005280901A16EE900AFDF7DBFE00E000BF1037FD
S31520005290BD4680BDDB19002080C200200000704280
S315200052A0593F002044BD00200000FA430000C842B8
S315200052B000007A43F751002080B582B000AF7860B5
S315200052C039607B689B68002B05D000220649074879
S315200052D0FDF754FF04E0012203490448FDF74EFF81
S315200052E000BF0837BD4680BDB919002080C2002006
S315200052F080B586B000AF78603960002230493148E9
S31520005300FDF73CFF786100222F492E48FDF736FF36
S31520005310386100222D492B48FDF730FFF8607B6865
S3152000532000225A627B69032B43D801A252F823F04C
S31520005330B3530020415300204953002091530020AD
S315200053407B6801225A6234E03B6803F00103002B9C
S315200053500ED1FB68002B03D0FB68012B04D028E07C
S315200053607B6801225A6212E07B6800225A620EE0B4
S31520005370FB68002B03D0FB68012B04D019E07B6867
S3152000538000225A6203E07B6801225A6200BF10E0C5
S3152000539039680F4B83FB0132CB17D21A13465B00B9
S315200053A01344CA1A3B69934202D17B6801225A628E
S315200053B000BF7B685B6A18461837BD4680BD00BFB4
S315200053C0393B002044BD0020053B0020593F0020EA
S315200053D05655555580B5A4B002AF786039607B68C4
S315200053E09B68002B00F01981002290499048FDF718
S315200053F0C5FEC7F88400D7F88430002B08D17B6817
S315200054001B6900938B4B8C4A00210020FDF718FE68
S315200054107B681B691A4689498948FDF7AFFEC7F89C
S315200054208000D7F88430052B00F0F980D7F8843037
S31520005430062B00F0F4807B68DB680A33FB677B6809
S315200054401B69804A52F82320FB6F13447E4A9B0037
S315200054501344D3ED007A9FED7D7A67EE877AFDEED1
S31520005460E77A17EE903ABB67BB6F0093784B744A86
S3152000547000210020FDF7E4FD7B681B69754A52F880
S3152000548023307B677B681A697B6859697B689B68D0
S3152000549007F10C000193D7F8803000930B466E4934
S315200054A005F00EF807F10C031A466C496C48FDF717
S315200054B065FE7B685B6907EE903AB8EEE77ADFED2A
S315200054C0696AC6EE877AC7ED1C7A7B685B693A689B
S315200054D09A4230D07B681B690F2B0BD07B681B69E7
S315200054E0112B07D07B681B69152B03D07B681B69A2
S315200054F0172B05D101225C495C48FDF73FFE04E0ED
