S01600002E2F44656275672F5254532D4C61622E73313936
S3152000000000BFDFF814D000F0FCF905F06DFD00F01C
S315200000100ABAFEE700BF000000C00120314900E017
S315200000203149EFF3088020ED108A7246EFF31183F1
S3152000003020E9FC0F2D4FD7F80080C8F800001EE0FD
S31520000040084602F00FFB2A4802F00CFB294802F072
S3152000005009FBD8F8040002F051FB274802F002FB06
S31520000060D8F8000002F01BFB244802F0FBFAD8F86F
S315200000700000006802F013FB1D4802F0F3FADFF8D7
S315200000808080D8F80080C7F8008018E01D4802F06C
S31520000090E9FAD8F8040002F031FB1B4802F0E2FA34
S315200000A0D8F8000002F0FBFA144802F0DBFAD8F880
S315200000B00000006802F0F3FA0D4802F0D3FA134A62
S315200000C0536843F00063536000BFD8F80000B0E8DF
S315200000D0FC0F83F311889646B0EC108A80F30888CB
S315200000E070470000F8B5002009B60020CCB60020E5
S315200000F079B600202AB6002042B600204AB6002053
S3152000010024BD002053B6002068B6002000ED00E094
S3152000011080B400AF00BFBD465DF8047B704780B554
S3152000012086B000AF454808F021FF454807F03CFD62
S31520000130444807F039FD01214FF0007002F032F8F3
S3152000014001214FF0806002F02DF80121022001F0FC
S31520000150C9FF09220921394809F02AF9092208216B
S31520000160364809F025F907F11003184609F03FF83B
S315200001704FF400733B6102233B750023BB750023BC
S31520000180FB7502237B7507F1100319462B4808F0EF
S315200001909FFF4FF480733B6102233B750023BB75A1
S315200001A00123FB7502237B7507F1100319462348AB
S315200001B008F08EFF09220621204809F0F9F80922C5
S315200001C005211E4809F0F4F840233B6102233B75C4
S315200001D00023BB750023FB7502237B7507F11003F3
S315200001E01946164808F074FF20233B6102233B750D
S315200001F00023BB750123FB7502237B7507F11003D2
S3152000020019460E4808F064FF0023BB720023FB72D8
S3152000021001233B7300233B8000237B800023BB808C
S315200002200023FB8000233B8101237B733B4618463A
S3152000023007F0AFFD00BF1837BD4680BD0004024061
S31520000240006400400068004080B586B000AF012100
S315200002504FF0005001F0A6FF07F11003184608F0F2
S31520000260C6FF20233B6103233B750023FB7507F163
S31520000270100319460F4808F02BFF05F05FFC3B469C
S31520000280184605F09DFC00233B6000237B6000237D
S31520000290FB603B461946102005F05EFC012110202C
S315200002A005F0A4FC0021082005F04EFD00BF1837FC
S315200002B0BD4680BD0000024080B584B000AF01215C
S315200002C04FF4804001F08EFF0721012009F0E8F865
S315200002D008F044FD3B46184608F0CCFD80233B60E1
S315200002E000233B710C237B710123BB713B461846CF
S315200002F008F04EFD07F10803184608F078FF0223A0
S31520000300BB6001233B730123BB730023FB730123D3
S315200003107B7307F108031946184808F0D9FE012314
S31520000320BB6001233B730123BB730023FB730123B3
S315200003307B7307F108031946104808F0C9FE01220D
S3152000034002210E4808F0FBFF012201210B4808F08C
S31520000350F6FF8023BB6000233B730023BB7300237F
S31520000360FB7301237B7307F108031946034808F042
S31520000370AFFE00BF1037BD4680BD00BF000402405F
S3152000038080B483B000AFEFF314833B603B6823F067
S3152000039003037B607B6883F3148800BF094B4FF40B
S315200003A004725A61074B5B69064A43F0080353619E
S315200003B0054B4FF000425A6000BF0C37BD465DF832
S315200003C0047B704700ED00E030EF00E080B500AF21
S315200003D00121082001F0E6FE0121082002F022F882
S315200003E000BF80BD80B400AF124A02E0002342F86D
S315200003F0043B114B9A42F9D300BFBD465DF8047BFE
S31520000400704780B500AFFFF7EDFFFFF781FEFFF7DE
S3152000041086FEFFF719FFFFF74FFFFFF7B1FFFFF744
S31520000420D5FF00BF80BD80B400AF00BFBD465DF8DC
S31520000430047B7047F8BC00208040012080B483B044
S3152000044000AF0346FB71FB7903F01F03012202FA7A
S3152000045003F1064A97F907305B0942F8231000BFDB
S315200004600C37BD465DF8047B704700BF00E100E015
S3152000047080B483B000AF03463960FB7197F907302B
S31520000480002B0BDA3B68DAB20C49FB7903F00F0339
S31520000490043B1201D2B20B441A7609E03B68DAB269
S315200004A0074997F907301201D2B20B4483F800238B
S315200004B000BF0C37BD465DF8047B704700ED00E0B9
S315200004C000E100E080B582B000AF786039607B68DB
S315200004D000229A617B689A697B685A617B685A69AF
S315200004E07B68DA61012240F225510A4801F058F86A
S315200004F0002240F22771074801F052F802212520F8
S31520000500FFF7B6FF2520FFF799FF00BF0837BD4646
S3152000051080BD00BF0010014080B483B000AF78607A
S315200005200B46FB707B68DB69B3F5806F17DA7B6857
S315200005305B697A681344FA7883F820207B685B69C4
S3152000054001335A42C3F30903C2F3090258BF534287
S315200005507A6853617B68DB695A1C7B68DA6100BF65
S315200005600C37BD465DF8047B704780B582B000AF7E
S31520000570786039607B68DB69002B18D17B689B68C3
S31520000580012240F22771184601F00AF80FE03B6875
S315200005901B780A2B03D10D217868FFF7BDFF3B6836
S315200005A05A1C3A601B7819467868FFF7B5FF3B68F6
S315200005B01B78002BEBD100BF00BF0837BD4680BD9E
S315200005C080B582B000AF786039607B68DB69002B2C
S315200005D007D17B689B68012240F22771184600F0FC
S315200005E0DFFF3B68DBB219467868FFF795FF00BF4F
S315200005F00837BD4680BD80B586B002AF78603960C9
S315200006007B689B682021184601F012F80346012BCF
S3152000061018D17B689B68184600F02DFE0346FB60C8
S315200006207B68DB68002B0DD07B68DA687B681969EC
S31520000630FB6800930B460021002002F04FFC234B61
S3152000064001221A607B689B688021184600F0F0FF23
S315200006500346012B35D17B68DB69002B29DD7B68BE
S3152000066098687B689B697A68134493F820309BB21C
S31520000670194600F0EEFD7B689B6901335A42C3F3AD
S315200006800903C2F3090258BF53427A6893617B6813
S31520000690DB695A1E7B68DA617B68DB69002B10D127
S315200006A07B689B68002240F22771184600F078FF8D
S315200006B007E07B689B68002240F22771184600F00D
S315200006C06FFF002318461037BD4680BD04BD0020AD
S315200006D080B5A6B002AF786039603A6807F170033A
S315200006E01068516803C31189927A19809A7097F815
S315200006F0703007F10C00674A642109F0F9FB07F115
S315200007000C031A466449654802F086FC00226449B7
S31520000710644802F081FCC7F88C00002262496148D7
S3152000072002F07AFCC7F88800002260495D4802F092
S3152000073073FCC7F8840000225D495A4802F06CFC1D
S31520000740C7F8800097F870303B3B052B00F29E805F
S3152000075001A252F823F000BF5B0800200508002004
S31520000760CD07002095070020830700207107002071
S3152000077097F871301A467B680232002143F822101E
S3152000078084E097F871301A467B680232012143F8DB
S3152000079022107BE0D7F88C30072B06D17B68D7F860
S315200007A084200232012143F8221097F871301A462C
S315200007B07B680232062143F82210002300933D4B2A
S315200007C03D4A0021002002F089FB5FE0D7F88C30FB
S315200007D0072B06D17B68D7F884200232012143F803
S315200007E0221097F871301A467B680232052143F8A9
S315200007F02210002300932F4B2F4A0021002002F0C5
S315200008006DFB43E0002300932C4B7A6800210020E7
S3152000081002F064FBD7F8803001330093284B214A3D
S315200008200021002002F05AFB00230093254B7A6812
S315200008300021002002F052FB012300931F4B7A680F
S315200008400021214802F04AFB002300931F4B7A68BF
S3152000085000211F4802F042FB18E007F17003033322
S31520000860184609F00DFBF867FB6F0093144B0D4AF1
S315200008700021002002F032FB97F871300093154BCF
S31520000880084A0021002002F029FBFFE700BF90372D
S31520000890BD4680BDE8AA00206B050020E8B70020F1
S315200008A0813A0020D0B6002003370020E936002008
S315200008B01D370020E9540020C8B70020330B002044
S315200008C0F13A0020610C0020F0490200250A0020A0
S315200008D0400D03000D3B002080B58CB002AF786040
S315200008E0396000224549464802F096FB786100238C
S315200008F07B6200233B620023FB6100224149404882
S3152000090002F08AFB386100223F493D4802F084FB11
S31520000910F8600023BB612AE07B68BA69023253F88B
S31520000920223013F1020F08D17B6A01337B627B6888
S31520000930BA690232072143F822107B68BA6902326B
S3152000094053F82230002B05D13B6A01333B62FB6909
S315200009500133FB617B68BA69023253F82230012BDE
S3152000096002D13B6A01333B62BB690133BB61BB6980
S31520000970022BD1DD3A6AFB689A4207DA00230093FC
S31520000980224B234A0021002002F0A8FA3B6A00935A
S31520000990204B1B4A0021002002F0A0FAFB69012B04
S315200009A007DD002300931C4B154A0021002002F08E
S315200009B095FA3B69072B0AD13B6A002B07DD0023FA
S315200009C00093164B0E4A0021002002F087FAFB699D
S315200009D0002B07D1002300930F4B094A002100204A
S315200009E002F07CFA002300930D4B7A680021002048
S315200009F002F074FA00BF2837BD4680BD03370020B9
S31520000A00D0B60020813A00201D370020E95400206E
S31520000A10C8B70020F13A00209B3A0020693E00200A
S31520000A20250A002080B58CB002AF7860396000239B
S31520000A307B6209E07B687A6A02326FF0010143F833
S31520000A4022107B6A01337B627B6A022BF2DD002255
S31520000A502A492B4802F0E0FA386200222949284820
S31520000A6002F0DAFAF8617B683A6A0232F96943F8E9
S31520000A7022103B6ADBB27B73FB69072B21D801A2CC
S31520000A8052F823F0A50A0020AB0A0020C30A002052
S31520000A90C30A0020C30A0020BD0A0020B70A00208E
S31520000AA0B10A002040233B730BE03F233B7308E051
S31520000AB03F233B7305E03E233B7302E03D233B731C
S31520000AC000BF07F10C031A460F49104802F0A4FA9A
S31520000AD07B681433184602F09DFBB8617B68BA69BF
S31520000AE09A61002300930A4B7A680021094802F094
S31520000AF0F5F900BF2837BD4680BD00BFE936002086
S31520000B00D0B60020813A00201F4200201CBC0020C5
S31520000B10D9080020A086010080B483B000AF786099
S31520000B2039607B68DB6918460C37BD465DF8047B67
S31520000B30704780B483B000AF786039607B683A68CC
S31520000B40DA6100BF0C37BD465DF8047B704780B480
S31520000B5085B000AF786039600023FB600BE07B68CE
S31520000B60FA68023253F82230002B01D1012306E025
S31520000B70FB680133FB60FB68022BF0DD002318467F
S31520000B801437BD465DF8047B704780B586B000AF4C
S31520000B907860396000220A490A4802F03DFA7861F5
S31520000BA07B69DBB27B723E233B7207F108031A4650
S31520000BB00549064802F030FA00BF1837BD4680BD09
S31520000BC0E9360020D0B600201F4200201CBC0020A1
S31520000BD080B586B000AF7860396000220A490B489C
S31520000BE002F01AFA78617B69DBB27B723D233B7295
S31520000BF007F108031A460649064802F00DFA00BF17
S31520000C001837BD4680BD00BFE9360020D0B600208B
S31520000C101F4200201CBC002080B586B000AF786043
S31520000C20396000220A490B4802F0F6F978617B699F
S31520000C30DBB27B723C233B7207F108031A46064956
S31520000C40064802F0E9F900BF1837BD4680BD00BF4F
S31520000C50E9360020D0B600201F4200201CBC002010
S31520000C6080B58AB000AF78603960002218491948EB
S31520000C7002F0D2F9786200221749164802F0CCF920
S31520000C8038627B6A002B20D13B6ADBB27B743B2324
S31520000C903B74002211490F4802F0BEF9F861FB6946
S31520000CA083EAE372A2EBE37207F10C030C491846C0
S31520000CB009F06EF90123BB743B7BFB7407F110032B
S31520000CC01A460849084802F0A7F92837BD4680BDCC
S31520000CD0813A0020D0B60020E93600201D370020BA
S31520000CE0FCAA00201F4200201CBC002080B59CB01E
S31520000CF000AF786039600023FB6669E007F10800E1
S31520000D00FB6E374A642109F0F3F807F108031A4607
S31520000D103449354802F080F97B68FA6E023253F87E
S31520000D2022300233092B4FD801A252F823F000BFFC
S31520000D30BB0D0020750D0020590D0020670D0020E9
S31520000D40830D0020C90D0020C90D0020910D002023
S31520000D509F0D0020AD0D0020244B1A462149224824
S31520000D6002F05AF931E0224B1A461E491E4802F07B
S31520000D7053F92AE01F4B1A461A491B4802F04CF930
S31520000D8023E01D4B1A461749174802F045F91CE087
S31520000D901A4B1A461349144802F03EF915E0184B2F
S31520000DA01A461049104802F037F90EE0154B1A463C
S31520000DB00C490D4802F030F907E0134B1A46094951
S31520000DC0094802F029F900E000BFFB6E0133FB66FB
S31520000DD0FB6E022B92DD00BF00BF7037BD4680BD83
S31520000DE000AB00206B050020E8B7002010AB0020E8
S31520000DF018AB002020AB002028AB002034AB00200D
S31520000E0040AB00204CAB002058AB002080B582B010
S31520000E1000AF78607B683B4A934208D101211020BD
S31520000E2001F080FA0021102001F07CFA65E07B6851
S31520000E30354A93420AD101214FF4003001F052FA8B
S31520000E4000214FF4003001F04DFA56E07B682F4A1E
S31520000E5093420AD101214FF4802001F043FA002168
S31520000E604FF4802001F03EFA47E07B68284A9342FF
S31520000E700AD101214FF4002001F034FA00214FF469
S31520000E80002001F02FFA38E07B68224A93420AD1EB
S31520000E9001214FF4801001F025FA00214FF4801033
S31520000EA001F020FA29E07B681B4A934208D10121F0
S31520000EB0202001F037FA0021202001F033FA1CE02F
S31520000EC07B68164A93420AD101214FF0804001F0F7
S31520000ED009FA00214FF0804001F004FA0DE07B680A
S31520000EE00F4A934209D101214FF0004001F0FAF94F
S31520000EF000214FF0004001F0F5F900BF0837BD464C
S31520000F0080BD00BF00100140004400400048004062
S31520000F10004C004000500040001401400078004082
S31520000F20007C004080B58AB000AF7860396000232D
S31520000F307B6200233B620023FB610023BB617B684D
S31520000F401B8A9BB27B627B6A23F440537B623B689D
S31520000F50DB881A467B6A13437B627B6A9AB27B687C
S31520000F601A827B689B899BB27B627B6A23F4B0538F
S31520000F7023F00C037B623B689A883B681B891343EA
S31520000F809AB23B685B8913439BB21A467B6A13432A
S31520000F907B627B6A9AB27B689A817B689B8A9BB2CA
S31520000FA07B627B6A23F440737B623B689B891A468B
S31520000FB07B6A13437B627B6A9AB27B689A8207F1CB
S31520000FC00803184600F0D8FE7B68304A934203D0C7
S31520000FD07B682F4A934202D17B693B6201E03B69E1
S31520000FE03B627B689B899BB21BB2002B0CDA3A6A68
S31520000FF013469B0013449A001A443B681B685B0007
S31520001000B2FBF3F3FB610BE03A6A13469B001344F1
S315200010109A001A443B681B689B00B2FBF3F3FB6102
S31520001020FB691C4AA2FB03235B091B017B627B6ACB
S315200010301B09642202FB03F3FA69D31ABB617B689E
S315200010409B899BB21BB2002B0CDABB69DB003233C7
S31520001050104AA2FB03235B0903F007037A6A1343B2
S315200010607B620BE0BB691B0132330A4AA2FB0323D6
S315200010705B0903F00F037A6A13437B627B6A9AB299
S315200010807B681A8100BF2837BD4680BD001001400D
S31520001090001401401F85EB5180B483B000AF786007
S315200010A07B684FF416521A607B6800229A807B6810
S315200010B00022DA807B6800221A817B680C225A8102
S315200010C07B6800229A8100BF0C37BD465DF8047B01
S315200010D0704780B485B000AF786039600023FB602C
S315200010E07B681B8A9BB2FB60FB6823F47063FB6002
S315200010F03B681A883B685B8813439AB23B689B8897
S3152000110013439AB23B68DB8813439BB21A46FB68AB
S315200011101343FB60FB689AB27B681A8200BF1437C0
S31520001120BD465DF8047B704780B483B000AF78601D
S315200011307B6800221A807B6800225A807B68002206
S315200011409A807B680022DA8000BF0C37BD465DF8A6
S31520001150047B704780B483B000AF78600B46FB7089
S31520001160FB78002B08D07B689B899BB243F4005305
S315200011709AB27B689A8107E07B689B899BB223F4AD
S3152000118000539AB27B689A8100BF0C37BD465DF842
S31520001190047B704780B483B000AF78600B46FB7049
S315200011A07B681B8B9BB223F0FF039AB27B681A8362
S315200011B07B681B8B9AB2FB789BB213439AB27B68EF
S315200011C01A8300BF0C37BD465DF8047B704780B498
S315200011D083B000AF78600B46FB70FB78002B0AD0FB
S315200011E07B689B899BB26FEA43436FEA53439AB26B
S315200011F07B689A8107E07B689B899BB2C3F30E03C9
S315200012009AB27B689A8100BF0C37BD465DF8047B95
S31520001210704780B483B000AF78600B46FB70FB78D4
S31520001220002B08D07B689B8A9BB243F400639AB25A
S315200012307B689A8207E07B689B8A9BB223F40063D3
S315200012409AB27B689A8200BF0C37BD465DF8047B54
S31520001250704780B483B000AF78600B467B807B8874
S31520001260C3F308039AB27B689A8000BF0C37BD4649
S315200012705DF8047B704780B483B000AF78607B68EC
S315200012809B889BB2C3F308039BB218460C37BD4616
S315200012905DF8047B704780B483B000AF78600B465E
S315200012A0FB707B681B8A9BB223F00F039AB27B6884
S315200012B01A827B681B8A9AB2FB789BB213439AB236
S315200012C07B681A8200BF0C37BD465DF8047B7047E9
S315200012D080B483B000AF78600B46FB70FB78002BA0
S315200012E008D07B689B899BB243F002039AB27B6845
S315200012F09A8107E07B689B899BB223F002039AB20E
S315200013007B689A8100BF0C37BD465DF8047B704729
S3152000131080B483B000AF78600B467B807B689B8966
S315200013209BB223F400639AB27B689A817B689B897F
S315200013309AB27B8813439AB27B689A8100BF0C3796
S31520001340BD465DF8047B704780B483B000AF7860FB
S315200013500B467B807B681B8A9BB223F020039AB2C4
S315200013607B681A827B681B8A9AB27B8813439AB25F
S315200013707B681A8200BF0C37BD465DF8047B704738
S3152000138080B483B000AF78600B46FB70FB78002BEF
S3152000139008D07B681B8A9BB243F480439AB27B6851
S315200013A01A8207E07B681B8A9BB223F480439AB299
S315200013B07B681A8200BF0C37BD465DF8047B7047F8
S315200013C080B483B000AF78607B689B899BB243F082
S315200013D001039AB27B689A8100BF0C37BD465DF83F
S315200013E0047B704780B483B000AF78600B46FB70F7
S315200013F0FB78002B08D07B689B8A9BB243F00803BE
S315200014009AB27B689A8207E07B689B8A9BB223F01C
S3152000141008039AB27B689A8200BF0C37BD465DF8F6
S31520001420047B704780B483B000AF78600B46FB70B6
S315200014307B681B8B9BB2DBB29AB27B681A837B6874
S315200014401B8B9AB2FB789BB21B029BB213439AB2B8
S315200014507B681A8300BF0C37BD465DF8047B704756
S3152000146080B483B000AF78600B46FB70FB78002B0E
S3152000147008D07B689B8A9BB243F020039AB27B6894
S315200014809A8207E07B689B8A9BB223F020039AB25C
S315200014907B689A8200BF0C37BD465DF8047B704797
S315200014A080B483B000AF78600B46FB70FB78002BCE
S315200014B008D07B689B8A9BB243F010039AB27B6864
S315200014C09A8207E07B689B8A9BB223F010039AB22C
S315200014D07B689A8200BF0C37BD465DF8047B704757
S315200014E080B483B000AF78600B467B807B689B8A94
S315200014F09BB223F004039AB27B689A827B689B8A0C
S315200015009AB27B8813439AB27B689A8200BF0C37C3
S31520001510BD465DF8047B704780B483B000AF786029
S315200015200B46FB70FB78002B08D07B689B8A9BB20E
S3152000153043F002039AB27B689A8207E07B689B8A13
S315200015409BB223F002039AB27B689A8200BF0C37C3
S31520001550BD465DF8047B704780B483B000AF7860E9
S315200015600B467B8013467B707B78002B08D07B68EC
S315200015709B8A9AB27B8813439AB27B689A8209E047
S315200015807B689B8A9AB27B88DB439BB213409AB2D4
S315200015907B689A8200BF0C37BD465DF8047B704796
S315200015A080B487B000AF78600B467B8013467B7093
S315200015B000233B610023FB600023BB6000237B618B
S315200015C07B687B617B88DBB25B09DBB23B617B8816
S315200015D003F01F03FB600122FB6802FA03F3BB60E2
S315200015E03B69012B03D17B690C337B6109E03B69A5
S315200015F0022B03D17B6910337B6102E07B691433B4
S315200016007B617B78002B06D07B6919687B69BA6879
S315200016100A431A6006E07B691968BB68DA437B696E
S315200016200A401A6000BF1C37BD465DF8047B704730
S3152000163080B485B000AF78600B467B800023FB73B7
S315200016407B681B889AB27B8813409BB2002B02D002
S315200016500123FB7301E00023FB73FB7B1846143741
S31520001660BD465DF8047B704780B483B000AF7860D8
S315200016700B467B807B88DB439AB27B681A8000BF4F
S315200016800C37BD465DF8047B704780B487B000AF49
S3152000169078600B467B800023FB6000237B61002360
S315200016A0BB600023FB747B88DBB25B09DBB2BB60CB
S315200016B07B8803F01F037B6101227B6902FA03F317
S315200016C07B61BB68012B07D17B689B899BB21A463D
S315200016D07B6913407B6111E0BB68022B07D17B68D5
S315200016E01B8A9BB21A467B6913407B6106E07B68A6
S315200016F09B8A9BB21A467B6913407B617B881B0AB7
S315200017009BB2FB600122FB6802FA03F3FB607B6855
S315200017101B889BB21A46FB681340FB607B69002B33
S3152000172005D0FB68002B02D00123FB7401E00023C7
S31520001730FB74FB7C18461C37BD465DF8047B70475E
S3152000174080B485B000AF78600B467B800023FB8198
S315200017500023BB817B881B0AFB81FB89012202FABD
S3152000176003F3BB81BB89DB439AB27B681A8000BF37
S315200017701437BD465DF8047B704700BF80B483B044
S3152000178000AF0346FB71FB7903F01F03012202FA27
S3152000179003F1064A97F907305B0942F8231000BF88
S315200017A00C37BD465DF8047B704700BF00E100E0C2
S315200017B080B483B000AF03463960FB7197F90730D8
S315200017C0002B0BDA3B68DAB20C49FB7903F00F03E6
S315200017D0043B1201D2B20B441A7609E03B68DAB216
S315200017E0074997F907301201D2B20B4483F8002338
S315200017F000BF0C37BD465DF8047B704700ED00E066
S3152000180000E100E080B582B000AF78603960002248
S315200018100121074807F093FD02211720FFF7C8FF93
S315200018201720FFF7ABFF00BF0837BD4680BD00BFBE
S315200018300004024080B582B000AF786039607B68D2
S315200018409B688021184607F00EFD03461846083788
S31520001850BD4680BD80B582B000AF786039607B68B8
S315200018609B683A68D2B20121184607F068FD00BF8E
S315200018700837BD4680BD80B582B000AF786039603C
S315200018807B689B680121184607F080FD00BF08375A
S31520001890BD4680BD80B584B000AF7860396007F161
S315200018A00803184607F0E6FA8023BB6000233B7343
S315200018B03B68002B01D0082300E00C237B73012317
S315200018C0BB7307F10803184607F062FA00BF10370A
S315200018D0BD4680BD80B584B002AF78603960802077
S315200018E007F01AFB0346012B14D1802007F02EFBAC
S315200018F07B68DB68002B10D07B68DA687B681B6905
S31520001900002100910021002001F0E8FA054B012278
S315200019101A6002E0044800F0A5FE002318460837A6
S31520001920BD4680BD04BD002064AB002080B400AF5E
S31520001930164B1B68154A43F001031360134B002214
S315200019409A60124B1B68114A23F0A85323F41023E4
S3152000195013600E4B0E4A5A600C4B0E4AC3F8842075
S315200019600A4B0D4AC3F88820084B1B68074A23F404
S3152000197080231360054B0022DA60044B0022C3F853
S315200019808C2000BFBD465DF8047B704700380240BE
S3152000199010300024003000200030002480B483B0B2
S315200019A000AF0346FB71064B00221A70044AFB79EE
S315200019B0137000BF0C37BD465DF8047B704700BF2F
S315200019C00238024080B582B000AF00233B6000237E
S315200019D0FB710023BB71312000F08AFD0346BB71E9
S315200019E03B6801333B603B68B3F5A04F02D0BB791F
S315200019F0002BF0D0312000F07BFD0346002B02D0D7
S31520001A000123FB7101E00023FB71FB79184608379F
S31520001A10BD4680BD80B485B000AF0346FB71002370
S31520001A20FB600A4B1B68FB60FB6823F0F803FB6036
S31520001A30FB79DB00FA681343FB60044AFB681360FA
S31520001A4000BF1437BD465DF8047B7047003802405E
S31520001A5080B483B000AF0346FB71044AFB79136060
S31520001A6000BF0C37BD465DF8047B70470000474237
S31520001A7080B483B000AF0346FB710D4B00221A7071
S31520001A800B4B00221A70FB79012B02D0042B04D0B9
S31520001A9007E0074B01221A7003E0054B05221A7056
S31520001AA000BF00BF0C37BD465DF8047B704700BF02
S31520001AB07038024080B483B000AF0346FB71044AFD
S31520001AC0FB79136000BF0C37BD465DF8047B704779
S31520001AD0800E474280B485B000AFF860B9607A6066
S31520001AE03B607B689A01BB681A433B685B08013BF5
S31520001AF01B041A43FB681A43BB691B06044913439C
S31520001B004B6000BF1437BD465DF8047B704700BFAD
S31520001B100038024080B483B000AF0346FB71044A0C
S31520001B20FB79136000BF0C37BD465DF8047B704718
S31520001B306000474280B483B000AF786039607B682C
S31520001B409A013B681B0705491343C1F8843000BF3F
S31520001B500C37BD465DF8047B704700BF0038024055
S31520001B6080B483B000AF0346FB71044AFB7913604F
S31520001B7000BF0C37BD465DF8047B704768004742BE
S31520001B8080B485B000AFF860B9607A60FB689A01CE
S31520001B90BB681B061A437B681B0705491343C1F81C
S31520001BA0883000BF1437BD465DF8047B704700BF00
S31520001BB00038024080B483B000AF0346FB71044A6C
S31520001BC0FB79136000BF0C37BD465DF8047B704778
S31520001BD07000474280B483B000AF0346FB71044ACD
S31520001BE0FB79136000BF0C37BD465DF8047B704758
S31520001BF04C00474280B485B000AF7860396000233E
S31520001C00FB600B4B9B68FB60FB6823F0EC63FB607F
S31520001C107A683B681343FA681343FB60044AFB68FF
S31520001C20936000BF1437BD465DF8047B704700BF44
S31520001C300038024080B485B000AF78603960002358
S31520001C40FB600B4B9B68FB60FB6823F07843FB60D3
S31520001C507A683B681343FA681343FB60044AFB68BF
S31520001C60936000BF1437BD465DF8047B704700BF04
S31520001C700038024080B485B000AF78600023FB6056
S31520001C80094B9B68FB60FB6823F00303FB60FA6843
S31520001C907B681343FB60044AFB68936000BF1437DC
S31520001CA0BD465DF8047B70470038024080B400AF23
S31520001CB0054B9B68DBB203F00C03DBB21846BD462E
S31520001CC05DF8047B704700BF0038024080B485B0C1
S31520001CD000AF78600023FB60094B9B68FB60FB68C4
S31520001CE023F0F003FB60FA687B681343FB60044A29
S31520001CF0FB68936000BF1437BD465DF8047B7047D0
S31520001D000038024080B485B000AF78600023FB60C5
S31520001D10094B9B68FB60FB6823F4E053FB60FA6881
S31520001D207B681343FB60044AFB68936000BF14374B
S31520001D30BD465DF8047B70470038024080B485B00C
S31520001D4000AF78600023FB600A4B9B68FB60FB6852
S31520001D5023F46043FB607B68DB00FA681343FB6077
S31520001D60044AFB68936000BF1437BD465DF8047BC8
S31520001D70704700BF0038024080B489B000AF786059
S31520001D800023BB6100237B610023FB6102233B61AF
S31520001D900023FB600223BB604A4B9B6803F00C03C5
S31520001DA0BB61BB69082B11D0BB69082B44D8BB6922
S31520001DB0002B03D0BB69042B04D03DE07B68424A4C
S31520001DC01A603DE07B68414A1A6039E03D4B5B680A
S31520001DD09B0D03F00103FB603A4B5B6803F03F0366
S31520001DE0BB60FB68002B0CD0384ABB68B2FBF3F310
S31520001DF0344A52689209C2F3080202FB03F3FB61DC
S31520001E000BE0314ABB68B2FBF3F32E4A52689209C3
S31520001E10C2F3080202FB03F3FB612A4B5B681B0C2F
S31520001E2003F0030301335B003B61FA693B69B2FBB4
S31520001E30F3F27B681A6003E07B68234A1A6000BFCE
S31520001E40204B9B6803F0F003BB61BB691B09BB6198
S31520001E501F4ABB6913441B78DBB27B617B681A6817
S31520001E607B69DA407B685A60164B9B6803F4E05323
S31520001E70BB61BB699B0ABB61154ABB6913441B78CE
S31520001E80DBB27B617B685A687B69DA407B689A6043
S31520001E900C4B9B6803F46043BB61BB695B0BBB6166
S31520001EA00B4ABB6913441B78DBB27B617B685A689B
S31520001EB07B69DA407B68DA6000BF2437BD465DF86F
S31520001EC0047B7047003802400024F40000127A0098
S31520001ED09CB6002080B485B000AF78600023FB60FC
S31520001EE07B6803F44073B3F5407F11D10F4B9B6899
S31520001EF0FB60FB6823F4F813FB607B6823F07043D8
S31520001F0023F44073FA681343FB60084AFB68936026
S31520001F10064B1A6F7B68C3F30B03044913430B6705
S31520001F2000BF1437BD465DF8047B70470038024079
S31520001F3080B483B000AF0346FB71044AFB7913607B
S31520001F4000BF0C37BD465DF8047B70473C0E474208
S31520001F5080B483B000AF0346FB71044AFB7913605B
S31520001F6000BF0C37BD465DF8047B7047400E4742E4
S31520001F7080B483B000AF7860044A7B68136000BFEA
S31520001F800C37BD465DF8047B704700BF5C014742B5
S31520001F9080B485B000AF78600023FB600B4BD3F88C
S31520001FA08C30FB60FB6823F01F03FB607B68013BE2
S31520001FB0FA681343FB60054AFB68C2F88C3000BF01
S31520001FC01437BD465DF8047B704700BF00380240D9
S31520001FD080B485B000AF78600023FB600B4BD3F84C
S31520001FE08C30FB60FB6823F4F853FB607B68013B75
S31520001FF01B02FA681343FB60044AFB68C2F88C3064
S3152000200000BF1437BD465DF8047B70470038024098
S3152000201080B485B000AF78600023FB600A4BD3F80C
S315200020208C30FB60FB6823F44013FB60FA687B6806
S315200020301343FB60044AFB68C2F88C3000BF143798
S31520002040BD465DF8047B70470038024080B485B0F9
S3152000205000AF78600023FB600A4BD3F88C30FB601E
S31520002060FB6823F44003FB60FA687B681343FB603C
S31520002070044AFB68C2F88C3000BF1437BD465DF8B1
S31520002080047B70470038024080B485B000AF78608A
S315200020900023FB600A4BD3F88C30FB60FB6823F4EB
S315200020A04033FB60FA687B681343FB60044AFB6895
S315200020B0C2F88C3000BF1437BD465DF8047B7047EC
S315200020C00038024080B483B000AF7860044A7B6851
S315200020D0136000BF0C37BD465DF8047B704700BF18
S315200020E0E011474280B483B000AF78600B46FB70A6
S315200020F0FB78002B06D00A4B1A6B09497B681343E1
S315200021000B6306E0064B1A6B7B68DB4304491340DE
S315200021100B6300BF0C37BD465DF8047B704700BFDC
S315200021200038024080B483B000AF78600B46FB7065
S31520002130FB78002B06D00A4B5A6B09497B68134360
S315200021404B6306E0064B5A6B7B68DB43044913401E
S315200021504B6300BF0C37BD465DF8047B704700BF5C
S315200021600038024080B483B000AF78600B46FB7025
S31520002170FB78002B06D00A4B9A6B09497B681343E0
S315200021808B6306E0064B9A6B7B68DB43044913405E
S315200021908B6300BF0C37BD465DF8047B704700BFDC
S315200021A00038024080B483B000AF78600B46FB70E5
S315200021B0FB78002B06D00A4B1A6C09497B6813431F
S315200021C00B6406E0064B1A6C7B68DB43044913401C
S315200021D00B6400BF0C37BD465DF8047B704700BF1B
S315200021E00038024080B483B000AF78600B46FB70A5
S315200021F0FB78002B06D00A4B5A6C09497B6813439F
S315200022004B6406E0064B5A6C7B68DB43044913405B
S315200022104B6400BF0C37BD465DF8047B704700BF9A
S315200022200038024080B483B000AF78600B46FB7064
S31520002230FB78002B06D00A4B1A6909497B681343A1
S315200022400B6106E0064B1A697B68DB4304491340A1
S315200022500B6100BF0C37BD465DF8047B704700BF9D
S315200022600038024080B483B000AF78600B46FB7024
S31520002270FB78002B06D00A4B5A6909497B68134321
S315200022804B6106E0064B5A697B68DB4304491340E1
S315200022904B6100BF0C37BD465DF8047B704700BF1D
S315200022A00038024080B483B000AF78600B46FB70E4
S315200022B0FB78002B06D00A4B9A6909497B681343A1
S315200022C08B6106E0064B9A697B68DB430449134021
S315200022D08B6100BF0C37BD465DF8047B704700BF9D
S315200022E00038024080B483B000AF78600B46FB70A4
S315200022F0FB78002B06D00A4B1A6A09497B681343E0
S315200023000B6206E0064B1A6A7B68DB4304491340DE
S315200023100B6200BF0C37BD465DF8047B704700BFDB
S315200023200038024080B483B000AF78600B46FB7063
S31520002330FB78002B06D00A4B5A6A09497B6813435F
S315200023404B6206E0064B5A6A7B68DB43044913401E
S315200023504B6200BF0C37BD465DF8047B704700BF5B
S315200023600038024080B483B000AF78600B46FB7023
S31520002370FB78002B06D00A4B1A6D09497B6813435C
S315200023800B6506E0064B1A6D7B68DB430449134058
S315200023900B6500BF0C37BD465DF8047B704700BF58
S315200023A00038024080B483B000AF78600B46FB70E3
S315200023B0FB78002B06D00A4B5A6D09497B681343DC
S315200023C04B6506E0064B5A6D7B68DB430449134098
S315200023D04B6500BF0C37BD465DF8047B704700BFD8
S315200023E00038024080B483B000AF78600B46FB70A3
S315200023F0FB78002B06D00A4B9A6D09497B6813435C
S315200024008B6506E0064B9A6D7B68DB4304491340D7
S315200024108B6500BF0C37BD465DF8047B704700BF57
S315200024200038024080B483B000AF78600B46FB7062
S31520002430FB78002B06D00A4B1A6E09497B6813439A
S315200024400B6606E0064B1A6E7B68DB430449134095
S315200024500B6600BF0C37BD465DF8047B704700BF96
S315200024600038024080B483B000AF78600B46FB7022
S31520002470FB78002B06D00A4B5A6E09497B6813431A
S315200024804B6606E0064B5A6E7B68DB4304491340D5
S315200024904B6600BF0C37BD465DF8047B704700BF16
S315200024A00038024080B483B000AF03460A46FB7171
S315200024B01346BB71BB79002B08D00C4B1B78DAB2C4
S315200024C00A49FB791343DBB20B7009E0074B1B78F3
S315200024D0DAB2FB79DB43DBB204491340DBB20B7083
S315200024E000BF0C37BD465DF8047B70470D380240AF
S315200024F080B487B000AF0346FB710023FB60002346
S315200025007B610023FB74FB795B09DBB2FB60FB6814
S31520002510012B03D1124B1B687B6109E0FB68022B60
S3152000252003D10F4B1B6F7B6102E00D4B5B6F7B6111
S31520002530FB7903F01F03FB607A69FB6822FA03F339
S3152000254003F00103002B02D00123FB7401E00023DA
S31520002550FB74FB7C18461C37BD465DF8047B704730
S315200025600038024080B400AF054B5B6F044A43F04D
S315200025708073536700BFBD465DF8047B704700BF7C
S315200025800038024080B485B000AF0346FB710023BB
S31520002590FB73094BDA68FB791340002B02D0012329
S315200025A0FB7301E00023FB73FB7B18461437BD4603
S315200025B05DF8047B704700BF0038024080B483B0CA
S315200025C000AF0346FB71044AFB79137000BF0C373A
S315200025D0BD465DF8047B70470E38024080B483B058
S315200025E000AF0346FB71FB7903F01F03012202FAB9
S315200025F003F1064A97F907305B0942F8231000BF1A
S315200026000C37BD465DF8047B704700BF00E100E053
S3152000261080B483B000AF03463960FB7197F9073069
S31520002620002B0BDA3B68DAB20C49FB7903F00F0377
S31520002630043B1201D2B20B441A7609E03B68DAB2A7
S31520002640074997F907301201D2B20B4483F80023C9
S3152000265000BF0C37BD465DF8047B704700ED00E0F7
S3152000266000E100E080B582B000AF78600EE07B68C4
S315200026701B780D2B07D07B685A1C7A601B7818466E
S3152000268000F060F902E07B6801337B607B681B7891
S31520002690002BECD100BF00BF0837BD4680BD80B5FA
S315200026A086B000AF786000237B617B6803F00F0261
S315200026B07B69591C796110498A5C07F118010B4422
S315200026C003F80C2C7B681B097B607B68002BECD104
S315200026D00AE07B69013B7B6107F10C027B691344AD
S315200026E01B78184600F02EF97B69002BF1D100BF2C
S315200026F000BF1837BD4680BDACB6002080B59EB061
S3152000270000AF78607B68002B02DA4FF0FF3300E0E1
S3152000271001233B677B683A6F02FB03F37B60002350
S315200027207B6779681C4B83FB01239A10CB17D21A3F
S3152000273013469B0013445B00CA1A7B6F591C7967AA
S3152000274016498A5C07F178010B4403F86C2C7B68E8
S31520002750114A82FB03129210DB17D31A7B607B6827
S31520002760002BDED13B6F002B0EDA2D2000F0EAF88D
S315200027700AE07B6F013B7B6707F10C027B6F1344FA
S315200027801B78184600F0DEF87B6F002BF1D100BFD6
S3152000279000BF7837BD4680BD67666666ACB600204A
S315200027A080B483B000AF10237B607B6883F31188ED
S315200027B000BF00BF0C37BD465DF8047B704780B470
S315200027C083B000AF30237B607B6883F3118800BF22
S315200027D000BF0C37BD465DF8047B704780B584B0DA
S315200027E000AF78600B48FFF73DFF0B4B1B68002BB3
S315200027F002D1094B094A1A60074B1B68FB60064B3E
S315200028001A687B681344044A1360FB68184610371D
S31520002810BD4680BD88AB002068C0002080400120D6
S3152000282080B485B000AF786039603B6803F5F95312
S3152000283010337A6813607B681B68BB600023FB60DB
S315200028400AE0FB689B001A46BB6813441A4600231D
S315200028501360FB680133FB60FB68332BF1DDBB683B
S315200028606FF016021A60BB6804331A4603231360FE
S31520002870BB6884331A464FF08073136000BF143749
S31520002880BD465DF8047B704780B485B000AF7860A4
S3152000289039607B681B688033FB60FB683A681A6086
S315200028A000BF1437BD465DF8047B704780B584B001
S315200028B000AF1D4803F06AFB3B1D184603F0B2FC2F
S315200028C040F24733BB803B1D1946174803F03EFCB8
S315200028D0164B174A1A6002216FF00100FFF798FE87
S315200028E0144B154A1A6000216FF00400FFF790FE82
S315200028F0124B134A1A6002213220FFF789FE32203A
S31520002900FFF76CFE0021084803F0D6FC012106489B
S3152000291003F09FFD01220221034804F06EFD00BF53
S315200029201037BD4680BD00BF000C004038C00120D6
S31520002930210000202CC001201D00002008C10120FC
S31520002940CB2C002080B582B000AF0346FB71FB790B
S315200029509BB219460748FEF77CFC00BF802105483C
S31520002960FEF766FE0346002BF8D000BF00BF0837EF
S31520002970BD4680BD0010014080B500AF124803F06F
S31520002980B7FC03461A46114B1A60114B01221A60F6
S31520002990104B00221A60104B1B68002B06D00E4BE2
S315200029A01B680E4A1268002110469847084B0022E1
S315200029B01A60084B1B68002B01D000F05DFA054B0E
S315200029C000221A6000BF80BD000C004008BD002018
S315200029D000BD002004BD002078BD002018BD0020C9
S315200029E080B500AF124803F083FC03461A46114B0C
S315200029F01A60114B01221A60104B00221A60104BEC
S31520002A005B68002B06D00E4B5B680E4A526801218C
S31520002A1010469847084B00221A60084B1B68002B6B
S31520002A2001D000F029FA054B00221A6000BF80BDB4
S31520002A30000C004008BD002000BD002004BD002081
S31520002A4078BD002018BD002080B500AF124803F0E5
S31520002A504FFC03461A46114B1A60114B01221A608D
S31520002A60104B00221A60104B9B68002B06D00E4B91
S31520002A709B680E4A9268022110469847084B00220E
S31520002A801A60084B1B68002B01D000F0F5F9054BA6
S31520002A9000221A6000BF80BD000C004008BD002047
S31520002AA000BD002004BD002078BD002018BD0020F8
S31520002AB080B485B000AF786039600023FB603B6846
S31520002AC01B68BB6004E0BB68FB60BB681B68BB601F
S31520002AD0BB68002B05D0BB689A687B689B689A42C6
S31520002AE0F1DD7B68BA681A60FB68002B03D13B686E
S31520002AF07A681A6002E0FB687A681A6000BF1437A9
S31520002B00BD465DF8047B704780B485B000AF786021
S31520002B1039600023FB603B681B68BB6004E0BB6830
S31520002B20FB60BB681B68BB60BB68002B05D0BB681D
S31520002B305A687B685B689A42F1DD7B68BA681A60DE
S31520002B40FB68002B03D13B687A681A6002E0FB68B9
S31520002B507A681A6000BF1437BD465DF8047B70475B
S31520002B6080B584B000AF78607B681B68FB60FB682B
S31520002B70002B04D0FB681A687B681A600CE00948B1
S31520002B80FFF770FD00220221074806F0D8FB074810
S31520002B90FFF768FD30BFFDE7FB6818461037BD46D6
S31520002BA080BD00BFA0AB002000040240ACAB0020DB
S31520002BB080B584B000AF78607B681B68FB60FB68DB
S31520002BC0002B04D0FB681A687B681A600CE0094861
S31520002BD0FFF748FD00220221074806F0B0FB074810
S31520002BE0FFF740FD30BFFDE7FB6818461037BD46AE
S31520002BF080BD00BFA0AB002000040240B8AB00207F
S31520002C0080B483B000AF786039603B681A687B680F
S31520002C101A603B687A681A6000BF0C37BD465DF8BB
S31520002C20047B704780B483B000AF786039603B681E
S31520002C301A687B689A603B687A681A6000BF0C370E
S31520002C40BD465DF8047B704780B485B000AF7860E0
S31520002C507B681B68FB60FB689A687B681A60FB6868
S31520002C6018461437BD465DF8047B704780B485B09E
S31520002C7000AF786039600023FB603B681B68BB604F
S31520002C8004E0BB68FB60BB681B68BB60BB68002BAD
S31520002C9003D0BA687B689A42F3D1BB68002B0DD06B
S31520002CA0FB68002B04D0BB681A68FB681A6003E037
S31520002CB0BB681A683B681A60012300E000231846A7
S31520002CC01437BD465DF8047B704780B582B000AFEF
S31520002CD002211E4804F01BFC1C4803F009FB034696
S31520002CE07B6007E01A48FFF73BFF03461949184661
S31520002CF0FFF7DEFE164B1B68002B06D0144B1B6815
S31520002D005A687B68D31A002BECDD114B1B68002B0D
S31520002D1016D00E4803F0ECFA03463B600C4B1B68BA
S31520002D205B683A689A4204DD002202210A4806F0CE
S31520002D3006FB074B1B685B681946044803F017FE21
S31520002D4000F09AF800BF0837BD4680BD000C004051
S31520002D50FCBC0020F8BC0020000402400346024AC6
S31520002D60136010DFF74600BF24BD00200346054A46
S31520002D701360054B5B68044A43F080535360F74663
S31520002D8000BF00BF24BD002000ED00E080B582B06A
S31520002D9000AF7860094B5B68C3F30803002B03D1AF
S31520002DA07868FFF7DBFF02E07868FFF7DFFFFFF7C1
S31520002DB006FD00BF0837BD4680BD00BF00ED00E020
S31520002DC090B585B000AF234B1C682348FFF7C8FE9B
S31520002DD00346E360E368BB60FFF7F1FCBB68D86895
S31520002DE0BB681969BB685B691A4600F015F9FFF7DD
S31520002DF0D7FC1A49B868FFF703FF194B1B689B6875
S31520002E00DB687B60144B1B68002B0AD07B68002B89
S31520002E10D9D0114B1B689A687B689B68D31A002B04
S31520002E20D1DD0F48FFF710FF03460E491846FFF77E
S31520002E30F9FE0B4B1B68FB6003E0FB681B691B68F4
S31520002E40FB60FB681B69002BF7D1F868FFF79EFF34
S31520002E50B9E700BFCCB60020F8BC0020C0B60020E1
S31520002E60C8B60020C4B6002080B500AF00F004F834
S31520002E70FFF7A5FC30BFFBE780B582B000AF144B4F
S31520002E801B68DB687B60134B1B68002B1BD0124B27
S31520002E901B68002B17D07B68002B07D00D4B1B68B7
S31520002EA09A687B689B68D31A002B0CDA0A48FFF7CE
S31520002EB0CBFE034606491846FFF7B4FE044B1B68B3
S31520002EC01846FFF763FF00BF0837BD4680BD00BF29
S31520002ED0C8B60020F8BC0020C4B6002080B588B053
S31520002EE000AFF860B9607A603B60EFF312833B6114
S31520002EF03B691B09012B14BF01230023DBB2FB779F
S31520002F00FFF74EFC3A48FFF753FEB861BB697A6873
S31520002F10DA60BB693A681A61BB69BA6A5A61354B8D
S31520002F201B68002B04D1344B1B68DB685B6801E00F
S31520002F30324B1B68FA681A44BB695A60BB695A68E7
S31520002F40BB68002B01DDBB6801E06FF000431A442B
S31520002F50BB699A602A4803F0CBF903467B61BB69BB
S31520002F605A687B69D31A002B16DD2649B869FFF704
S31520002F70CBFD244B1B685B687A699A4204DD0022EC
S31520002F800221214806F0DBF91E4B1B685B681946B7
S31520002F901B4803F0ECFC21E01C49B869FFF788FDCB
S31520002FA0FB7F002B1AD01A4B1B68002B16D0174B11
S31520002FB01B689A68174B1B68DB689B68D31A002B23
S31520002FC00CDA1348FFF740FE034612491846FFF76E
S31520002FD029FE104B1B681846FFF7D8FEFB7F002BF7
S31520002FE001D0FFF7ECFBBB6918462037BD4680BDF4
S31520002FF0C0B6002000BD0020CCB6002008BD0020B1
S31520003000000C0040FCBC002000040240F8BC00205C
S31520003010C4B60020C8B6002080B588B000AFF860DE
S31520003020B9607A60EFF312833B613B691B09012B80
S3152000303014BF01230023DBB2FB76FFF7B1FBFB684D
S315200030401B68FB61FB69002B37D003E0FB691B691A
S315200030501B68FB61FB691B69002BF7D1304B1B6892
S31520003060FA699A4202D0FB7E002B07D1FB7E002B09
S3152000307001D0FFF7A4FB4FF0FF334DE0FB685B6800
S31520003080002B03D0FB685B6800221A61244B1A6868
S31520003090FB685A60224B1B68FA681A61F869FFF7C9
S315200030A075FE1F4B1B68DB68002B06D1FB7E002BB1
S315200030B001D0FFF784FB00232EE0194B1A68FB682A
S315200030C01A60FB7E002B05D0FB685B68012B01D0C4
S315200030D0FFF775FBBB687968F86898477861FFF752
S315200030E05FFBFB6800221A60FB685B68FB61FB697B
S315200030F0002B0BD0FB69012B08D0FB6800225A60FD
S31520003100FB6900221A61F869FFF740FEFB7E002B5F
S3152000311001D0FFF754FB7B6918462037BD4680BD9A
S31520003120CCB6002080B586B000AF7860EFF312836E
S31520003130FB60FB681B09012B14BF01230023DBB2B4
S31520003140FB74FFF72DFB1F497868FFF78FFD0346B9
S31520003150002B06D11C497868FFF788FD0346002B13
S3152000316004D01A497868FFF74BFD21E0184B1B68FD
S315200031707B611AE0174B1B687A699A4212D07B69E9
S31520003180DB687A689A420DD17B691A697B68DB68AD
S315200031909A4207D17B690022DA600C497868FFF7EA
S315200031A02FFD05E07B699B687B617B69002BE1D164
S315200031B0FB7C002B01D0FFF702FB00BF1837BD4672
S315200031C080BD00BFFCBC0020F8BC0020C0B600209B
S315200031D0C8B60020CCB6002080B485B000AF786099
S315200031E0EFF31283FB60FB681B09012B04D0074B0E
S315200031F01B68DB685B6801E0054B1B687A68136017
S3152000320000BF1437BD465DF8047B7047CCB600205E
S3152000321008BD002080B485B000AF7860EFF312833C
S31520003220FB60FB681B09012B04D0084B1B68DB687D
S315200032305B6801E0064B1B687A6812689B1A184681
S315200032401437BD465DF8047B704700BFCCB600201E
S3152000325008BD002080B584B000AFEFF312837B60F9
S315200032607B681B09012B14BF01230023DBB2FB73F0
S31520003270FFF796FA0C4803F03BF80346BB60FB7B4E
S31520003280002B01D0FFF79BFAFB7B002B04D0074BCA
S315200032901B68DB685B6801E0054B1B68BA68D31ABC
S315200032A018461037BD4680BD000C0040CCB6002025
S315200032B008BD002080B582B000AF00237B6012E0FD
S315200032C07B685A1C13465B001344DB00444A99185A
S315200032D043487A6813465B001344DB0003441960B5
S315200032E07B6801337B607B681C2BE9DD3C4B00222D
S315200032F0C3F8B82200237B6013E07B685A1C134670
S315200033009B0013449B00374A991836487A6813461F
S315200033109B0013449B000344083319607B680133E8
S315200033207B607B68022BE8DD2E4B00225A6400234B
S315200033307B6030E02B497A6813469B0013449B0040
S315200033400B4404337A681A607A6813469B00134448
S315200033509B00244A1A447B685B0323490B44194685
S315200033601046FFF75DFA7A6813469B0013449B00CC
S315200033701C4A13441D491846FFF786FA19497A68EC
S3152000338013469B0013449B000B44103300221A6003
S315200033907B6801337B607B68032BCBDD144B4FF0BE
S315200033A0FF325A60124B00229A60114B00221A619A
S315200033B00F4B0022DA600F48FFF754F90E48FFF74B
S315200033C051F90E48FFF74EF90A48FFF74BF909481D
S315200033D0FFF748F9FFF76AFA00BF0837BD4680BDF8
S315200033E098BD002028BD002070C00020C12D0020DF
S315200033F084BD0020C4AB0020C8AB0020D4AB002085
S3152000340080B586B000AFF860B9601346FB71FB79D2
S31520003410022B41D8EFF312833B613B691B09012B39
S3152000342014BF01230023DBB2FB75FFF7B9F9FB7943
S31520003430022B0ED0022B10DC002B02D0012B04D045
S315200034400BE0174B174A1A6014E0174B174A1A60FD
S3152000345010E0174B174A1A600CE01748FFF702F9DD
S3152000346000220221154805F06AFF1548FFF7FAF8F1
S3152000347030BFFDE7FB791349FA6841F82320FB7931
S315200034801149BA6841F82320FB6801225A60FB7D66
S31520003490002B01D0FFF793F900BF1837BD4680BD3A
S315200034A0D4C001207929002090C00120E1290020E4
S315200034B09CC00120492A0020A0AB00200004024025
S315200034C0ECAB002018BD002078BD002080B586B06A
S315200034D002AFF860B9607A60FFF762F9FFF7EAFE9B
S315200034E0BB68002B16D00F4802F002FF03461A468F
S315200034F00D4B1A600D4B01221A607B680093BB6846
S31520003500FA6800210020FFF7E9FC084B00221A6028
S31520003510FFF7B2FCFFF7A8FC002318461037BD467C
S3152000352080BD00BF000C004008BD002000BD00206B
S3152000353080B5A2B002AF786039603A6807F16C03B3
S315200035401068516803C31189927A19809A7097F886
S315200035506C30772B0ED097F86C3007F10800594A5B
S31520003560642106F0C5FC07F108031A465649574858
S31520003570FFF752FD7B685B690133052B00F29D80C6
S3152000358001A252F823F000BFA135002021360020E9
S315200035905336002089360020BB360020A93600206D
S315200035A097F86C307E2B21D07E2B7FDC7A2B02D0B5
S315200035B07B2B13D07AE0464B1A4643494348FFF704
S315200035C02BFD97F86D301A467B68DB689A4223D02C
S315200035D07B689B685A1C7B689A601DE07B68012289
S315200035E05A6197F86D301A467B681A61394B1A462C
S315200035F035493648FFF710FD07F16C0303331846AB
S3152000360006F03EFCB8677B689B68BA6F9A4205DD78
S315200036107B68BA6F9A6001E000BF47E000BF45E0D3
S3152000362097F86C307F2B43D17B684FF0FF325A617D
S31520003630294B1A4624492548FFF7EEFC4FF0FF3365
S315200036400093264B264A00210020FFF747FC00BFA7
S315200036502EE097F86C30772B2CD107F16C030333CF
S31520003660184606F00DFCF86707F10803FA6F1D49A6
S31520003670184606F08DFC07F108031A46124913482E
S31520003680FFF7CAFC00BF15E097F86C307F2B13D1EB
S3152000369097F86D301A467B68DB689A4202DD7B68B4
S315200036A000229A6100BF07E000BF06E000BF04E0E9
S315200036B000BF02E000BF00E000BF00BF8037BD466C
S315200036C080BD00BF0CAC00206B050020E8B70020B1
S315200036D020AC002058AC002090AC0020C54800202B
S315200036E0ECB60020A4AC002080B483B000AF786094
S315200036F039607B68DB6818460C37BD465DF8047B6D
S31520003700704780B483B000AF786039607B681B69EE
S3152000371018460C37BD465DF8047B704780B483B0ED
S3152000372000AF786039607B689B6818460C37BD46C9
S315200037305DF8047B704780B5A2B002AF786039602F
S315200037401E4B1A461E491F48FFF766FC7B689A687F
S315200037507B68DB6807F11000009313461A4A642140
S3152000376006F0C6FB07F110031A4615491548FFF760
S3152000377053FC7B68DB68DBB287F875307E2387F8DD
S3152000378074307B689B6883EAE372A2EBE37207F1ED
S315200037900C030E49184606F0FBFB012387F876300A
S315200037A03B7B87F8773007F174031A4608490948A6
S315200037B0FFF732FC00BF8037BD4680BDB4AC002089
S315200037C06B050020E8B70020F4AC002010AD0020E7
S315200037D01F4200201CBC002080B5A0B002AF78603C
S315200037E039601A4B1A461A491A48FFF715FC7B68A6
S315200037F099687B681B697A68D26807F1080001928C
S3152000380000930B46144A642106F072FB07F1080365
S315200038101A460F490F48FFF7FFFB7B68DB68DBB2D0
S3152000382087F86D307A2387F86C3007F16C031A46D7
S315200038300A490B48FFF7F0FB0A4B1A46044905488C
S31520003840FFF7EAFB00BF7837BD4680BD14AD0020E8
S315200038506B050020E8B7002058AD00201F4200204D
S315200038601CBC002080AD002080B586B000AF7860FB
S3152000387039600B4B1A460B490B48FFF7CDFB7B688B
S315200038801B69DBB27B737D233B7307F10C031A465E
S3152000389006490748FFF7C0FB00BF1837BD4680BD65
S315200038A094AD00206B050020E8B700201F420020C1
S315200038B01CBC002080B586B000AF786039600B4B09
S315200038C01A460B490B48FFF7A7FB7B68DB68DBB280
S315200038D07B737B233B7307F10C031A460649074883
S315200038E0FFF79AFB00BF1837BD4680BDD4AD002038
S315200038F06B050020E8B700201F4200201CBC0020DA
S3152000390080B586B000AF786039600D4B1A460D49F8
S315200039100D48FFF781FB7B68DB68DBB27B737F2377
S315200039203B7307F10C031A4608490948FFF774FB55
S315200039307B6802225A6100BF1837BD4680BD00BF92
S315200039401CAE00206B050020E8B700201F42002097
S315200039501CBC002080B483B000AF786039607B68DF
S3152000396002225A6100BF0C37BD465DF8047B7047C2
S3152000397080B584B002AF786039607B689B69002B84
S315200039801FD07B6800225A617B68DA687B681A61DF
S3152000399000230093104B7A6800210020FFF79EFA3F
S315200039A07B681A697B68DB689A420ED17B685B6903
S315200039B0002B0AD1094B1A4609490A48FFF72CFB66
S315200039C003E07B684FF0FF325A617B6801229A61DF
S315200039D000BF0837BD4680BDB538002060AE002048
S315200039E06B050020E8B7002080B584B002AF786070
S315200039F03960002300930C4B0C4A00210020FFF76E
S31520003A006DFA0B4B1A460B490B48FFF705FB0023B3
S31520003A1000930A4B054A00210948FFF75FFA00BFC9
S31520003A200837BD4680BD00BFD9370020D0B600205C
S31520003A3078AE00206B050020E8B70020373700203D
S31520003A40400D030080B59CB000AF786039607B687C
S31520003A509B6807F10C00074A642106F049FA07F132
S31520003A600C031A4604490548FFF7D6FA00BF7037FB
S31520003A70BD4680BD94AE00206B050020E8B700202F
S31520003A8080B483B000AF786039607B685B69184684
S31520003A900C37BD465DF8047B704780B584B002AF15
S31520003AA078603960002300930D4B0E4A00210020D8
S31520003AB0FFF714FA002300930B4B0A4A00214FF418
S31520003AC0FA70FFF70BFA00230093084B054A0021F2
S31520003AD04FF47A70FFF702FA00BF0837BD4680BD63
S31520003AE055390020D0B60020013900207139002038
S31520003AF080B483B000AF786039607B683A689A609A
S31520003B0000BF0C37BD465DF8047B704780B483B098
S31520003B1000AF786039607B683A681A6100BF0C375D
S31520003B20BD465DF8047B704780B584B002AF7860EF
S31520003B3039607B689B68012B07D100230093094BD2
S31520003B407A6800210020FFF7C9F900230093064B6D
S31520003B50064A002142F60410FFF7C0F900BF0837D5
S31520003B60BD4680BD9B3A0020054F0020C8B70020E7
S31520003B7080B584B002AF786039607B6801225A61D3
S31520003B80002300930D4B0E4A00210020FFF7A6F9D3
S31520003B90012300930B4B0C4A00210020FFF79EF9CE
S31520003BA000230093094B7A68002142F21070FFF738
S31520003BB095F900BF0837BD4680BD00BF190C00200F
S31520003BC07CB600206F4B0020ECB60020293B00205D
S31520003BD080B59EB002AF786039603B68012B16D164
S31520003BE07B6805225A61002300931F4B1F4A002140
S31520003BF00020FFF773F9002300931D4B1D4A002177
S31520003C000020FFF76BF97B6801229A6028E03B6869
S31520003C10022B1ED17B6806225A617B6800229A609D
S31520003C2000230093144B114A00210020FFF756F978
S31520003C30002300930E4B0F4A00210020FFF74EF978
S31520003C40002300930D4B7A6800210D48FFF746F9B3
S31520003C5006E007F10C030B4A6421184606F048F9E2
S31520003C6000BF7037BD4680BD8B0B00207CB6002080
S31520003C706F4B0020ECB60020D10B0020713B0020BA
S31520003C8060E31600A8AE002080B483B000AF786051
S31520003C9039607B685B69052B02D17B6801225A61FA
S31520003CA000BF0C37BD465DF8047B704780B59EB0DB
S31520003CB002AF786039603C4B1A463C493C48FFF7D6
S31520003CC0ABF97B6899687B68DB687A68126907F1CB
S31520003CD00C00019200930B46364A642106F008F93F
S31520003CE007F10C031A4631493148FFF795F9324B53
S31520003CF01A462E492E48FFF78FF97B685B690133F8
S31520003D00082B46D801A252F823F000BF4D3D0020D3
S31520003D10313D00203F3D00205B3D0020933D0020AB
S31520003D20933D0020693D0020773D0020853D002001
S31520003D30224B1A461D491E48FFF76EF92AE0204BF2
S31520003D401A461A491A48FFF767F923E01D4B1A4607
S31520003D5016491748FFF760F91CE01B4B1A46134912
S31520003D601348FFF759F915E0184B1A460F49104822
S31520003D70FFF752F90EE0164B1A460C490C48FFF78E
S31520003D804BF907E0134B1A4608490948FFF744F94F
S31520003D9000E000BF104B1A4604490548FFF73CF9DE
S31520003DA000BF7037BD4680BDC8AE00206B05002021
S31520003DB0E8B70020E4AE00200CAF002014AF0020AE
S31520003DC01CAF002024AF00202CAF002034AF0020F1
S31520003DD040AF00204CAF002058AF002080B483B005
S31520003DE000AF786039607B6805225A6100BF0C37C6
S31520003DF0BD465DF8047B704780B483B000AF786021
S31520003E0039607B6806225A6100BF0C37BD465DF8D3
S31520003E10047B704780B483B000AF786039607B68DC
S31520003E2007225A6100BF0C37BD465DF8047B7047F8
S31520003E3080B483B000AF786039607B6801225A6114
S31520003E4000BF0C37BD465DF8047B704780B483B055
S31520003E5000AF786039607B6801225A6100BF0C3759
S31520003E60BD465DF8047B704780B483B000AF7860B0
S31520003E7039607B6801225A6100BF0C37BD465DF868
S31520003E80047B704780B483B000AF0346FB71FB7997
S31520003E9003F01F03012202FA03F1064A97F90730BD
S31520003EA05B0942F8231000BF0C37BD465DF8047B42
S31520003EB0704700BF00E100E080B483B000AF034646
S31520003EC03960FB7197F90730002B0BDA3B68DAB2C1
S31520003ED00C49FB7903F00F03043B1201D2B20B44C9
S31520003EE01A7609E03B68DAB2074997F907301201DA
S31520003EF0D2B20B4483F8002300BF0C37BD465DF8D1
S31520003F00047B704700ED00E000E100E080B586B05C
S31520003F1000AF786039607B6800229A617B689A6975
S31520003F207B685A617B685A697B68DA6107F10C0302
S31520003F30184603F0F1FF0023BB740023FB74002313
S31520003F403B7501237B751C48FEF78CFB0023BB7554
S31520003F500023FB750023BB730023FB7302233B74F2
S31520003F6003237B740723BB8107F10C0319461348EF
S31520003F7003F03EFE0346002B02D11148FEF772FBEA
S31520003F8007F10C0319460F4803F032FE0346002BB7
S31520003F9002D10D48FEF766FB02211420FFF78CFFA5
S31520003FA01420FFF76FFF01220221044804F0F2FBE0
S31520003FB000BF1837BD4680BD5CAF002000640040BE
S31520003FC080AF00200068004098AF0020B0B58AB0CE
S31520003FD002AF786039607B689B685A49184604F0BE
S31520003FE0F7FB0346012B02D05748FEF73BFB7B68C5
S31520003FF0DB69072B00F39F807B689B6807F108022B
S315200040000021184604F0CCF9BB681B09DBB27A689C
S31520004010526903F07F03D8B2796813469B00134494
S315200040205B0013440B44203302461A70BB68DBB294
S315200040307A68526903F00F03D8B2796813469B0059
S3152000404013445B0013440B44213302461A70BB7C95
S315200040507A68526903F00F03D8B2796813469B0039
S3152000406013445B0013440B44223302461A70002388
S31520004070FB7716E0FB7F7A685269F97F07F120000B
S31520004080034413F80D4C786813469B0013445B00D9
S31520004090134403440B44233322461A70FB7F013317
S315200040A0FB777B685A69796813469B0013445B004B
S315200040B013440B4422331B78FA7F9A42DAD37B6867
S315200040C0DB68002B25D07B68DC687B681D697B68F4
S315200040D05A69796813469B0013445B0013440B44CA
S315200040E020331B7819017B685A69786813469B0030
S315200040F013445B001344034421331B780B44009381
S315200041002B46224600210020FEF7E8FE0F4B012217
S315200041101A607B685B6901335A4203F0070302F099
S31520004120070258BF53427A6853617B68DB695A1C81
S315200041307B68DA6102E00648FEF794FA00BF203772
S31520004140BD46B0BD03000012B0AF002004BD002064
S31520004150D8AF002090B484B000AF786039607B6817
S31520004160DB69002B55DD7B689A69796813469B00CD
S3152000417013445B0013440B4420331A783B681A70AF
S315200041807B689A69796813469B0013445B00134445
S315200041900B4421331A783B685A707B689A69796890
S315200041A013469B0013445B0013440B4422331A78B6
S315200041B03B689A700023FB7313E07B689A69F87B4F
S315200041C0F97B7C6813469B0013445B00134423440D
S315200041D0034423331A783B680B44DA70FB7B0133A4
S315200041E0FB733B689B78FA7B9A42E6D37B689B6994
S315200041F001335A4203F0070302F0070258BF534225
S315200042007A6893617B68DB695A1E7B68DA610023D2
S3152000421000E0012318461037BD4690BC704780B594
S315200042208AB000AF786039607B689B683B62002368
S31520004230FB773B681B781B013A6852781344BB60B6
S3152000424000237B7400233B743B689B78082B02D9A0
S315200042503B6808229A703B689B78BB74002387F8DA
S31520004260273010E097F8272097F8273039680A4436
S31520004270D27807F128010B4403F8152C97F827303C
S31520004280013387F827303B689B7897F827209A4296
S31520004290E8D307F108031946386A03F001FF0346FD
S315200042A0FB77FB7F042B04D10F48FEF7DBF90123B4
S315200042B016E000BFFB7F1946386A03F0C2FF0346AB
S315200042C0022BF7D0FB7F1946386A03F0BAFF034664
S315200042D0002B04D10548FEF7C5F9012300E0002391
S315200042E018462837BD4680BDF8AF00200CB0002008
S315200042F080B584B000AF7860396000220F4910483D
S31520004300FEF78AFEF8607B6888331846FEF782FF40
S31520004310B8607B68D3F89430BA68D31A094A9342B6
S3152000432008DDFB68002B05D1074B1A4607490848CC
S31520004330FEF772FE00BF1037BD4680BD351800203F
S3152000434008BC00209F86010080B100206B0500205C
S31520004350E8B70020B0B5BAB000AF78603960002366
S31520004360C7F8E4307B68DB6F022B0CDC7B68DA6FE6
S315200043707B681C32396843F822107B68DB6F5A1C35
S315200043807B68DA6715E07B683A681A670023C7F806
S31520004390E0307B681B6FC7F8E0307B685A6F7B681C
S315200043A01A677B689A6F7B685A677B68D7F8E02024
S315200043B09A677B68DB6F032B40F0A1807B681A6FBE
S315200043C07B685B6FD31A504A9342C0F298807B6811
S315200043D01A6F7B685B6FD31A42F20F72934200F317
S315200043E08E807B681A6F7B689B6FD31A464A9342EE
S315200043F0C0F285807B681A6F7B689B6FD31A42F266
S315200044000F7293427BDC7B689A6F7B685B6FD31A53
S315200044103D4A934273DB7B689A6F7B685B6FD31A46
S3152000442042F20F7293426ADC7B681A6F7B685B6F7D
S315200044301A447B689B6F1344344A82FB0312DB17B2
S31520004440D31AC7F8DC30D7F8DC30314A82FB0312A6
S315200044505213DB17D31A184605F0F0F904460D4619
S31520004460D7F8DC202A4B83FB02135913D317CB1A18
S31520004470284901FB03F3D31A274A82FB0312521160
S31520004480DB17D31A07EE903AF8EEE77A17EE900A82
S3152000449005F0E6F94FF00002204B05F063FB0246DB
S315200044A00B462046294605F07DF802460B46104667
S315200044B0194605F03FFC0346C7F8D830DFED186AE9
S315200044C097ED367AC6EE877AFDEEE77A17EE903AC2
S315200044D0C7F8D43007F10C00D7F8D430114AC821D8
S315200044E005F006FD07F10C031A460F490F48FEF7A3
S315200044F093FDD7F8D4200E490E48FEF78DFD00BF58
S31520004500E837BD46B0BD00BFF1D8FFFF565555551B
S3152000451089B5F814A08601001F85EB5100408F4015
S31520004520000070429CB100206B050020E8B70020F7
S31520004530E9520020C8B7002080B5C0B002AF78602D
S3152000454039607B68D3F89830002B2BD17B68883371
S315200045501846FEF75FFEC7F8D4007B68D3F8943080
S31520004560D7F8D420D31AC7F8D0307B68D7F8D02014
S31520004570C3F89C207B68D7F8D420C3F894207B68A6
S315200045800122C3F8982001228A498B48FEF744FD70
S3152000459000230093894B7A6841F288318848FEF7D8
S315200045A09DFC04E17B6888331846FEF733FEC7F886
S315200045B0F4007B68D3F89430D7F8F420D31AC7F8E0
S315200045C0F030D7F8F0307F4A934269DC7B68D3F825
S315200045D09C30C7F8F030D7F8F03042F20F72934291
S315200045E00FDC794B1A4679497948FEF715FD7B6829
S315200045F00022C3F8982000226E496F48FEF70CFD72
S31520004600D5E0D7F8F030734A82FB03125113DA173C
S315200046108A1A6B4901FB02F29A1A13469B0013442D
S315200046205B00C7F8E030D7F8F0206A4B83FB021313
S315200046305913D317CB1A624901FB03F3D31A664ADF
S3152000464082FB03125211DB17D31AC7F8DC30D7F8D6
S31520004650F030604A82FB03125213DB17D31AC7F8D5
S31520004660D83007F10800D7F8E0300193D7F8DC30CE
S315200046700093D7F8D830594AC82105F039FCD7F825
S31520004680F0300093564B7A6800210020FEF726FC76
S3152000469007F108031A464D494D48FEF7BDFC7DE05B
S315200046A0D7F8F0304B4A82FB03125113DA178A1AD5
S315200046B0434901FB02F29A1A13469B0013445B00FE
S315200046C0C7F8EC30D7F8F020424B83FB021359137E
S315200046D0D317CB1A3A4901FB03F3D31A3E4A82FB7E
S315200046E003125211DB17D31AC7F8E830D7F8F03087
S315200046F0384A82FB03125213DB17D31AC7F8E43069
S3152000470007F10800D7F8EC300193D7F8E83000938A
S31520004710D7F8E430334AC82105F0EAFB07F108034D
S315200047201A462A492A48FEF777FCD7F8F0302E4A4F
S31520004730934208DD002300932C4B7A680021002049
S31520004740FEF7CCFB2AE0D7F8F030294A934225DD44
S31520004750284B1A461D491E48FEF75EFC00222649B4
S315200047602648FEF759FC0346002B17D1244B1A4640
S3152000477016491748FEF750FC00230093214B7A6810
S3152000478000210020FEF7AAFB78221F491F48FEF7CA
S3152000479043FC00221E491D48FEF73EFC7B68002292
S315200047A0C3F89820002203490348FEF735FCF83762
S315200047B0BD4680BD9518002008BC0020F14200208F
S315200047C0A08601009F860100ACB100206B05002069
S315200047D0E8B7002089B5F8141F85EB51B8B1002041
S315200047E055430020F4B1002020A107000139002004
S315200047F0400D030020B20020813A0020D0B60020D0
S3152000480034B2002069380020E9520020C8B70020C1
S31520004810A552002080B483B000AF786039607B68F1
S315200048200122C3F8A0207B684FF0FF32C3F8802016
S315200048307B684FF0FF32C3F8A8207B680022C3F8BC
S31520004840A42000BF0C37BD465DF8047B704780B5B9
S3152000485086B002AF78603960002212491248FEF70E
S31520004860DBFBF860FB68002B18D17B68D3F8AC30F3
S31520004870002B13D07B68D3F88030012B0ED10B4B45
S315200048801A460B490B48FEF7C7FB002300930A4B39
S315200048900A4A00210A48FEF721FB00E000BF103734
S315200048A0BD4680BD554B0020A0B7002058B2002041
S315200048B06B050020E8B700204F480020ECB600200A
S315200048C040420F0080B483B000AF786039607B68C7
S315200048D03A68C3F8802000BF0C37BD465DF8047BDC
S315200048E0704780B5A2B002AF7860396007F16C03DB
S315200048F01A4667496748FEF78FFB97F86C30632B9B
S3152000490003D897F86C30132B1ED897F86C30772B7A
S315200049101AD0614B1A4661496148FEF77DFB614B0F
S315200049201A465E495E48FEF777FB97F86C3007F12A
S3152000493008005D4A642105F0DBFA07F108031A46F0
S3152000494056495748FEF768FB97F86C30642B08D910
S3152000495007F16C030093554B554A00210020FEF7C2
S31520004960BDFA97F86C30322B0CD997F86C30402B67
S3152000497008D807F16C0300934E4B4F4A00210020C4
S31520004980FEF7ACFA0023FB6700224C494848FEF7A5
S3152000499043FBB867BB6F012B72D197F86C30013B94
S315200049A0072B6FD801A252F823F000BFCD49002073
S315200049B0DF490020F1490020034A0020194A00203F
S315200049C0334A0020514A00206B4A002001230093DD
S315200049D03B4B3C4A00210020FEF780FA53E000239F
S315200049E00093374B374A00210020FEF777FA4AE03A
S315200049F000230093344B334A00210020FEF76EFA41
S31520004A0041E0002231492F48FEF706FB00223049BB
S31520004A103048FEF701FB36E007F16C0303331846F6
S31520004A2005F02EFAF867FA6F2B492A48FEF7F4FAB2
S31520004A3029E007F16C030333184605F021FAF867DD
S31520004A40FB6F5B421A4624492248FEF7E5FA1AE034
S31520004A5007F16C030333184605F012FAF867FA6F6C
S31520004A601E491C48FEF7D8FA0DE078221B49194842
S31520004A70FEF7D2FA002218491648FEF7CDFA02E0D0
S31520004A8000BF00E000BF00BF8037BD4680BD00BF2D
S31520004A90554100201CBC002068B200206B05002078
S31520004AA0E8B70020A0B20020B4B2002031350020A3
S31520004AB0D0B60020D10600207CB60020813A002006
S31520004AC0E14A0020A0B70020A94B00207F510020FA
S31520004AD00D520020C8B70020A5520020E952002020
S31520004AE080B483B000AF786039603B68012B09D170
S31520004AF07B681B69132B05DC7B681B695A1C7B684A
S31520004B001A610BE03B68002B08D17B681B69012BDF
S31520004B1004DD7B681B695A1E7B681A6100BF0C374F
S31520004B20BD465DF8047B704780B483B000AF7860E3
S31520004B3039607B689B69002B03D17B6801229A61CF
S31520004B4002E07B6800229A6100BF0C37BD465DF803
S31520004B50047B704780B483B000AF786039607B688F
S31520004B601B6918460C37BD465DF8047B704780B438
S31520004B7083B000AF786039603B68012B04D17B6835
S31520004B805A697B681A6109E03B68002B06D17B686D
S31520004B901A697B685A617B6800221A6100BF0C374C
S31520004BA0BD465DF8047B704780B584B002AF78605F
S31520004BB07B681B69002B09D17B685A697B681A615F
S31520004BC001220E490E48FEF727FA13E07B681A6980
S31520004BD07B685A617B6800221A6100230093094B87
S31520004BE0094A00210020FEF779F9002203490448EA
S31520004BF0FEF712FA00BF0837BD4680BD55180020C3
S31520004C0008BC00204F480020ECB6002080B483B0BA
S31520004C1000AF786039607B680122DA6100BF0C370B
S31520004C20BD465DF8047B704780B584B002AF7860DE
S31520004C3039607B68DB68002B0CBF01230023DBB2C5
S31520004C401A467B68DA607B68DB69002B03D17B68B8
S31520004C505B6A002B03D1224B00221A700CE07B6882
S31520004C60DB68002B05D07B681A691D4BD2B21A70FF
S31520004C7002E01B4B00221A707B689B68002B2AD00F
S31520004C807B689B69002B16D07B681B6A154A82FBC2
S31520004C9003129210DB17D01A7B681B6A114A82FB1B
S31520004CA003129210DB17D11A002300930E4B7A6859
S31520004CB0FEF714F910E07B681B6A0A4A82FB03128E
S31520004CC09210DB17D01A00230093074B7A68002135
S31520004CD0FEF704F900E000BF0837BD4680BD00BFDF
S31520004CE01C74004067666666294C002080B483B039
S31520004CF000AF786039607B683A681A6200BF0C376B
S31520004D00BD465DF8047B704780B483B000AF786001
S31520004D1039607B680022DA6100BF0C37BD465DF83A
S31520004D20047B704780B483B000AF786039607B68BD
S31520004D303A685A6200BF0C37BD465DF8047B70475F
S31520004D4080B483B000AF786039607B683A681A61B6
S31520004D5000BF0C37BD465DF8047B704780B483B036
S31520004D6000AF786039607B681B6918460C37BD46F2
S31520004D705DF8047B704780B586B002AF78603960F5
S31520004D807B689B68002B39D07B685B693A689A42BE
S31520004D9034D100221B491C48FEF73EF97B685B692B
S31520004DA007EE903AB8EEE77ADFED186AC6EE877A14
S31520004DB0C7ED037AD7ED037A9FED157A67EE877AEA
S31520004DC09FED147A67EE877AFDEEE76AD7ED037AD0
S31520004DD09FED117A67EE877A9FED0E7A67EE877AD6
S31520004DE0FDEEE77A7B685B6900930C4B7A6817EED9
S31520004DF0901A16EE900AFEF771F800E000BF103701
S31520004E00BD4680BD7718002008BC002000007042F7
S31520004E100000FA430000C84200007A43774D002084
S31520004E2080B586B000AF78603960002230493148BD
S31520004E30FEF7F2F8786100222F492E48FEF7ECF8AB
S31520004E40386100222D492B48FEF7E6F8F8607B688A
S31520004E5000225A627B69032B43D801A252F823F021
S31520004E60E34E0020714E0020794E0020C14E0020D6
S31520004E707B6801225A6234E03B6803F00103002B71
S31520004E800ED1FB68002B03D0FB68012B04D028E051
S31520004E907B6801225A6212E07B6800225A620EE089
S31520004EA0FB68002B03D0FB68012B04D019E07B683C
S31520004EB000225A6203E07B6801225A6200BF10E09A
S31520004EC039680F4B83FB0132CB17D21A13465B008E
S31520004ED01344CA1A3B69934202D17B6801225A6263
S31520004EE000BF7B685B6A18461837BD4680BD00BF89
S31520004EF01D370020D0B60020E9360020813A002058
S31520004F005655555580B5A4B002AF78603960002259
S31520004F107D497E48FEF780F8C7F884007B681B69C8
S31520004F201A467B497B48FEF777F8C7F880007B68EE
S31520004F309B68002B00F0E380D7F88430052B00F027
S31520004F40DE80D7F88430062B00F0D9800022724903
S31520004F507048FEF761F87B68DB680A33FB677B687D
S31520004F601B696E4A52F82320FB6F13446C4A9B0040
S31520004F701344D3ED007A9FED6B7A67EE877AFDEEC8
S31520004F80E77A17EE903ABB67BA6F67496148FEF732
S31520004F9043F87B681B69654A52F823307B677B6838
S31520004FA01A697B685B6907F10C00614904F0F0FF20
S31520004FB007F10C031A465F495F48FEF72DF87B6818
S31520004FC05B6907EE903AB8EEE77ADFED5C6AC6EEEB
S31520004FD0877AC7ED1C7A7B685B693A689A4230D03B
S31520004FE07B681B690F2B0BD07B681B69112B07D0A5
S31520004FF07B681B69152B03D07B681B69172B05D192
S3152000500001224F494F48FEF707F804E000224C4999
S315200050104C48FEF701F8D7ED1C7A9FED4B7A67EEE8
S31520005020877A9FED4A7A67EE877AFDEEE77A7B6884
S315200050305B690093464B474A002117EE900AFDF71D
S315200050404DFF7B6F4FF4FA7202FB03F307EE903AA3
S31520005050B8EEE77AD7ED1C7A67EE277A9FED3E7A8F
S3152000506077EEC77A9FED397A67EE877AFDEEE77A93
S3152000507000230093394B274A41F2883117EE900AD4
S31520005080FDF72CFF7B681B6901335A4203F01F038F
S3152000509002F01F0258BF53427A6813617B6F4FF4A8
S315200050A0FA7202FB03F307EE903AB8EEE77AD7EDF1
S315200050B01C7A67EE277A9FED257A67EE877AFDEED2
S315200050C0E76A7B6FFA2202FB03F307EE903AB8EE0B
S315200050D0E77AD7ED1C7A67EE277A9FED1C7A67EE82
S315200050E0877AFDEEE77A7B685B6900931C4B7A68CA
S315200050F017EE901A16EE900AFDF7F0FE00E000BFBC
S315200051008837BD4680BD00BF813A0020D0B600203A
S31520005110214E0020A0B70020094D00201CB0002001
S315200051209CB0002000247449ED4C002000B10020E2
S31520005130BCB200206B050020E8B7002000007042BA
S315200051405518002008BC00200000FA430000C84281
S31520005150774D0020C8B70020000048420D4C0020A3
S31520005160054F002080B483B000AF786039607B683B
S315200051705B6918460C37BD465DF8047B704780B5E1
S3152000518084B002AF786039607B689B68002B0CBFC7
S3152000519001230023DBB21A467B689A607B689B68F2
S315200051A0002B13D0114B1A4611491248FDF734FF34
S315200051B000230093104B114A00210020FDF78EFE9C
S315200051C001220F490F48FDF727FF0AE00E4B1A462A
S315200051D007490848FDF720FF002209490948FDF73D
S315200051E01BFF00BF0837BD4680BD00BFE4B20020CC
S315200051F06B050020E8B70020294C0020A0B700202E
S315200052005518002008BC0020F0B2002080B586B0DA
S3152000521002AF786039607B689B68002B0CBF012346
S315200052200023DBB21A467B689A607B685B69009331
S31520005230154B164A00210020FDF750FE002300934F
S31520005240134B124A00210020FDF748FE0022114987
S315200052501148FDF7E1FEF860FB68002B10D17B6852
S315200052601B6900930D4B0E4A00210020FDF736FEE8
S3152000527000230093064B054A00210020FDF72EFE51
S3152000528000BF1037BD4680BD774D0020C8B700202F
S31520005290054F0020813A0020D0B60020F15300208F
S315200052A0ECB6002080B582B000AF786039603B68EC
S315200052B013F1050F06DB3B68052B03DC7B683A6898
S315200052C0DA6006E0054B1A4605490648FDF7A4FEB6
S315200052D000BF00BF0837BD4680BD00BFFCB200201E
S315200052E06B050020E8B7002080B582B000AF78605B
S315200052F039603B681D2B07DD3B68B3F5967F03DCE1
S315200053007B683A685A6106E0054B1A460549064805
S31520005310FDF782FE00BF00BF0837BD4680BD00BF37
S315200053200CB300206B050020E8B7002080B586B0BE
S3152000533000AF786039603B68002B02DA06233B73A6
S3152000534001E005233B737B68D3F8A430DBB27B7383
S315200053503B6883EAE372A2EBE37207F1080309498B
S31520005360184604F015FE0123BB733B7AFB7307F145
S315200053700C031A4604490548FDF74EFE00BF1837B0
S31520005380BD4680BD1CB300201F4200201CBC00204F
S3152000539080B586B000AF7860396007F108033A68B7
S315200053A01049184604F0F4FD07233B737B68D3F8B5
S315200053B0A430DBB27B730323BB733B7AFB737B7A0C
S315200053C03B743B68632B01DDBB7A7B7407F10C03CE
S315200053D01A4605490548FDF71FFE00BF1837BD468A
S315200053E080BD00BF1CB300201F4200201CBC002033
S315200053F080B586B000AF7860396077233B737B68D1
S31520005400D3F8A430DBB27B730223BB7307F1080306
S315200054103A680C49184604F0BBFD3B68092B02DCB0
S315200054203B7AFB7303E03B7AFB737B7A3B7407F191
S315200054300C031A4604490548FDF7EEFD00BF183750
S31520005440BD4680BD1CB300201F4200201CBC00208E
S3152000545080B483B000AF786039607B683A68DA61DF
S3152000546000BF0C37BD465DF8047B704780B59EB003
S3152000547002AF786039607B68DB69002B17D07B68C8
S315200054805B6907F10C000C4A642104F031FD07F139
S315200054900C031A4609490A48FDF7BEFD002300936E
S315200054A0084B7A6800210848FDF718FD00E000BF88
S315200054B07037BD4680BD00BF20B300206B0500209D
S315200054C0E8B700206D54002040420F0080B483B01E
S315200054D000AF786039607B6800221A6100BF0C3704
S315200054E0BD465DF8047B704780B483B000AF78601A
S315200054F039607B681B695A1E7B681A617B681B6949
