S01600002E2F44656275672F5254532D4C61622E73313936
S3152000000000BFDFF814D000F0FCF905F0ABFF00F0DC
S315200000100ABAFEE700BF000000C00120314900E017
S315200000203149EFF3088020ED108A7246EFF31183F1
S3152000003020E9FC0F2D4FD7F80080C8F800001EE0FD
S31520000040084602F08BFB2A4802F088FB294802F07A
S3152000005085FBD8F8040002F0CDFB274802F07EFB92
S31520000060D8F8000002F097FB244802F077FBD8F876
S315200000700000006802F08FFB1D4802F06FFBDFF8DE
S315200000808080D8F80080C7F8008018E01D4802F06C
S3152000009065FBD8F8040002F0ADFB1B4802F05EFBBE
S315200000A0D8F8000002F077FB144802F057FBD8F886
S315200000B00000006802F06FFB0D4802F04FFB134A68
S315200000C0536843F00063536000BFD8F80000B0E8DF
S315200000D0FC0F83F311889646B0EC108A80F30888CB
S315200000E07047000010BB002021BB0020F8BB002079
S315200000F091BB002042BB00205ABB002062BB0020DF
S3152000010054C200206BBB002080BB002000ED00E025
S3152000011080B400AF00BFBD465DF8047B704780B554
S3152000012086B000AF454809F05FF9454807F07AFFE9
S31520000130444807F077FF01214FF0007002F0AEF837
S3152000014001214FF0806002F0A9F80121022002F07F
S3152000015045F809220921394809F068FB09220821B6
S31520000160364809F063FB07F11003184609F07DFABB
S315200001704FF400733B6102233B750023BB750023BC
S31520000180FB7502237B7507F1100319462B4809F0EE
S31520000190DDF94FF480733B6102233B750023BB7569
S315200001A00123FB7502237B7507F1100319462348AB
S315200001B009F0CCF909220621204809F037FB09224B
S315200001C005211E4809F032FB40233B6102233B7583
S315200001D00023BB750023FB7502237B7507F11003F3
S315200001E01946164809F0B2F920233B6102233B75D4
S315200001F00023BB750123FB7502237B7507F11003D2
S3152000020019460E4809F0A2F90023BB720023FB729F
S3152000021001233B7300233B8000237B800023BB808C
S315200002200023FB8000233B8101237B733B4618463A
S3152000023007F0EDFF00BF1837BD4680BD0004024021
S31520000240006400400068004080B586B000AF012100
S315200002504FF0005002F022F807F11003184609F07B
S3152000026004FA20233B6103233B750023FB7507F12A
S31520000270100319460F4809F069F905F09DFE3B4623
S31520000280184605F0DBFE00233B6000237B6000233D
S31520000290FB603B461946102005F09CFE01211020EC
S315200002A005F0E2FE0021082005F08CFF00BF18377C
S315200002B0BD4680BD0000024080B584B000AF01215C
S315200002C04FF4804002F00AF80721012009F026FBAE
S315200002D008F082FF3B46184609F00AF880233B6067
S315200002E000233B710C237B710123BB713B461846CF
S315200002F008F08CFF07F10803184609F0B6F9022327
S31520000300BB6001233B730123BB730023FB730123D3
S315200003107B7307F108031946184809F017F90123DA
S31520000320BB6001233B730123BB730023FB730123B3
S315200003307B7307F108031946104809F007F90122D3
S3152000034002210E4809F039FA012201210B4809F051
S3152000035034FA8023BB6000233B730023BB73002346
S31520000360FB7301237B7307F108031946034809F041
S31520000370EDF800BF1037BD4680BD00BF0004024027
S3152000038080B483B000AFEFF314833B603B6823F067
S3152000039003037B607B6883F3148800BF094B4FF40B
S315200003A004725A61074B5B69064A43F0080353619E
S315200003B0054B4FF000425A6000BF0C37BD465DF832
S315200003C0047B704700ED00E030EF00E080B500AF21
S315200003D00121082001F062FF0121082002F09EF889
S315200003E000BF80BD80B400AF124A02E0002342F86D
S315200003F0043B114B9A42F9D300BFBD465DF8047BFE
S31520000400704780B500AFFFF7EDFFFFF781FEFFF7DE
S3152000041086FEFFF719FFFFF74FFFFFF7B1FFFFF744
S31520000420D5FF00BF80BD80B400AF00BFBD465DF8DC
S31520000430047B704728C20020B045012080B483B0D9
S3152000044000AF0346FB71FB7903F01F03012202FA7A
S3152000045003F1064A97F907305B0942F8231000BFDB
S315200004600C37BD465DF8047B704700BF00E100E015
S3152000047080B483B000AF03463960FB7197F907302B
S31520000480002B0BDA3B68DAB20C49FB7903F00F0339
S31520000490043B1201D2B20B441A7609E03B68DAB269
S315200004A0074997F907301201D2B20B4483F800238B
S315200004B000BF0C37BD465DF8047B704700ED00E0B9
S315200004C000E100E080B582B000AF786039607B68DB
S315200004D000229A617B689A697B685A617B685A69AF
S315200004E07B68DA61012240F225510A4801F0D4F8EE
S315200004F0002240F22771074801F0CEF8022125207C
S31520000500FFF7B6FF2520FFF799FF00BF0837BD4646
S3152000051080BD00BF0010014080B483B000AF78607A
S315200005200B46FB707B68DB69B3F5806F17DA7B6857
S315200005305B697A681344FA7883F820207B685B69C4
S3152000054001335A42C3F30903C2F3090258BF534287
S315200005507A6853617B68DB695A1C7B68DA6100BF65
S315200005600C37BD465DF8047B704780B582B000AF7E
S31520000570786039607B68DB69002B18D17B689B68C3
S31520000580012240F22771184601F086F80FE03B68F9
S315200005901B780A2B03D10D217868FFF7BDFF3B6836
S315200005A05A1C3A601B7819467868FFF7B5FF3B68F6
S315200005B01B78002BEBD100BF00BF0837BD4680BD9E
S315200005C080B582B000AF786039607B68DB69002B2C
S315200005D007D17B689B68012240F22771184601F0FB
S315200005E05BF83B68DBB219467868FFF795FF00BFDA
S315200005F00837BD4680BD80B586B002AF78603960C9
S315200006007B689B682021184601F08EF80346012B53
S3152000061018D17B689B68184600F0A9FE0346FB604C
S315200006207B68DB68002B0DD07B68DA687B681969EC
S31520000630FB6800930B460021002002F0CBFC234BE5
S3152000064001221A607B689B688021184601F06CF8AD
S315200006500346012B35D17B68DB69002B29DD7B68BE
S3152000066098687B689B697A68134493F820309BB21C
S31520000670194600F06AFE7B689B6901335A42C3F330
S315200006800903C2F3090258BF53427A6893617B6813
S31520000690DB695A1E7B68DA617B68DB69002B10D127
S315200006A07B689B68002240F22771184600F0F4FF11
S315200006B007E07B689B68002240F22771184600F00D
S315200006C0EBFF002318461037BD4680BD34C20020FC
S315200006D080B5A6B002AF786039603A6807F170033A
S315200006E01068516803C31189927A19809A7097F815
S315200006F0703007F10C00654A642109F031FE97F845
S315200007007030772B06D007F10C031A4660496148F2
S3152000071002F0FEFC00226049604802F0F9FCC7F8AE
S315200007208C0000225E495D4802F0F2FCC7F8880082
S3152000073000225C49594802F0EBFCC7F884000022ED
S315200007405949564802F0E4FCC7F8800097F8703003
S315200007503B3B052B00F2968001A252F823F000BF06
S3152000076053080020FD070020D5070020AD070020F4
S315200007709B0700207907002097F871301A467B687E
S315200007800232002143F8221000230093474B7A6857
S315200007900021002002F01EFC74E097F871301A4602
S315200007A07B680232012143F822106BE0D7F88C30A7
S315200007B0072B06D17B68D7F884200232012143F823
S315200007C0221097F871301A467B680232062143F8C8
S315200007D0221057E0D7F88C30072B06D17B68D7F844
S315200007E084200232012143F8221097F871301A46EC
S315200007F07B680232052143F8221043E00023009350
S315200008002B4B7A680021002002F0E4FBD7F88030D9
S3152000081001330093274B214A0021002002F0DAFB06
S3152000082000230093244B7A680021002002F0D2FB9B
S31520000830012300931E4B7A680021204802F0CAFB50
S3152000084000230093194B7A6800211D4802F0C2FB51
S3152000085018E007F170030333184609F049FDF867DD
S31520000860FB6F0093134B0D4A0021002002F0B2FBD0
S3152000087097F871300093134B084A0021002002F0AC
S31520000880A9FBFFE700BF9037BD4680BD58AF0020CB
S315200008906B05002018BD00202D3E0020FCBB00204B
S315200008A0093A0020EF390020233A0020F10A0020DF
S315200008B0E30B00209D3E0020110D0020F049020090
S315200008C0400D0300B93E002080B59AB002AF786093
S315200008D03960002279497A4802F01AFC78640023AC
S315200008E0FB650023BB6500237B6500233B65002257
S315200008F07449734802F00CFC38640022724970482F
S3152000090002F006FCF8630023FB6438E07B68FA6C8F
S31520000910023253F8223013F1020F08D1FB6D013356
S31520000920FB657B68FA6C0232072143F822107B684C
S31520000930FA6C023253F82230002B05D1BB6D0133FD
S31520000940BB653B6D01333B657B68FA6C023253F81D
S315200009502230012B05D1BB6D0133BB657B6D013385
S315200009607B657B68FA6C023253F822207968FB6C2F
S3152000097004339B000B445A60FB6C0133FB64FB6C15
S31520000980022BC3DD7B683A6D1A637B687A6DDA6267
S31520000990BA6DFB6B9A4207DA002300934B4B4C4A05
S315200009A00021002002F016FBBB6D0093494B444A00
S315200009B00021002002F00EFB3B6D012B07DD0023FA
S315200009C00093454B3E4A0021002002F003FB3B6C7E
S315200009D0072B0AD1BB6D002B07DD002300933F4B6D
S315200009E0374A0021002002F0F5FA3B6D002B2FD16B
S315200009F0BB6D012B19D13B6C012B16D17B687A6C10
S31520000A00023253F82230052B06D07B687A6C0232EC
S31520000A1053F82230062B1AD1002300932E4B284A56
S31520000A200021002002F0D6FA11E03B6C052B0FD0F6
S31520000A303B6C062B0CD03B6C072B09D00023009374
S31520000A40254B1F4A0021002002F0C4FA00E000BF17
S31520000A5000230093224B7A680021224802F0BAFA3A
S31520000A600023BB6409E07B68BA6C02326FF0010197
S31520000A7043F82210BB6C0133BB64BB6C022BF2DD46
S31520000A80002219490E4802F043FB02467B680232D7
S31520000A90396C43F822103B6C052B02D03B6C062B9D
S31520000AA007D100230093114B7A680021002002F021
S31520000AB091FA00BF6037BD4680BD00BF093A0020CD
S31520000AC0FCBB00202D3E0020233A0020E1580020C8
S31520000AD0F8BC00209D3E0020473E0020A942002071
S31520000AE0C9080020A0860100EF390020F10A002065
S31520000AF080B58AB002AF7860396000222C492D4833
S31520000B0002F006FBF86100222B492A4802F000FB7E
S31520000B10B8617B68FA690232B96943F82210FB6929
S31520000B20DBB27B72BB69072B21D801A252F823F0D6
S31520000B30510B0020570B00206F0B00206F0B00205D
S31520000B406F0B0020690B0020630B00205D0B00203B
S31520000B5040233B720BE03F233B7208E03F233B726E
S31520000B6005E03E233B7202E03D233B7200BF07F1C6
S31520000B7008031A461149124802F0CAFA7B68203344
S31520000B80184602F0C3FB78617B687A695A62BB69B2
S31520000B90002B08D1002300930A4B7A6800214CF2DF
S31520000BA0503002F017FA00BF2037BD4680BD00BF87
S31520000BB0EF390020FCBB00202D3E002057460020A8
S31520000BC04CC10020F10A002080B483B000AF7860C9
S31520000BD039607B689B6A18460C37BD465DF8047BF6
S31520000BE0704780B483B000AF786039607B683A681C
S31520000BF09A6200BF0C37BD465DF8047B704780B40F
S31520000C0085B000AF786039600023FB600BE07B681D
S31520000C10FA68023253F82230002B01D1012306E074
S31520000C20FB680133FB60FB68022BF0DD00231846CE
S31520000C301437BD465DF8047B704780B586B000AF9B
S31520000C407860396000220A490A4802F061FA786120
S31520000C507B69DBB27B723E233B7207F108031A469F
S31520000C600549064802F054FA00BF1837BD4680BD34
S31520000C70EF390020FCBB0020574600204CC1002045
S31520000C8080B586B000AF7860396000220A490B48EB
S31520000C9002F03EFA78617B69DBB27B723D233B72C0
S31520000CA007F108031A460649064802F031FA00BF42
S31520000CB01837BD4680BD00BFEF390020FCBB0020A1
S31520000CC0574600204CC1002080B586B000AF786022
S31520000CD0396000220A490B4802F01AFA78617B69CA
S31520000CE0DBB27B723C233B7207F108031A460649A6
S31520000CF0064802F00DFA00BF1837BD4680BD00BF7A
S31520000D00EF390020FCBB0020574600204CC10020B4
S31520000D1080B58AB000AF786039600022184919483A
S31520000D2002F0F6F9786200221749164802F0F0F927
S31520000D3038627B6A002B20D13B6ADBB27B743B2373
S31520000D403B74002211490F4802F0E2F9F861FB6971
S31520000D5083EAE372A2EBE37207F10C030C4918460F
S31520000D6009F04EFB0123BB743B7BFB7407F1100398
S31520000D701A460849084802F0CBF92837BD4680BDF7
S31520000D802D3E0020FCBB0020EF390020233A002016
S31520000D906CAF0020574600204CC1002080B59EB085
S31520000DA002AF7860396007F10803494A6421184682
S31520000DB009F0D6FA07F108031A464649464802F0D2
S31520000DC0A7F90023FB6669E007F10800FB6E434A9A
S31520000DD0642109F0C5FA07F108031A463D493E4841
S31520000DE002F096F97A68FB6E04339B0013445B6825
S31520000DF00233092B4ED801A252F823F0870E002089
S31520000E00410E0020250E0020330E00204F0E00201C
S31520000E10950E0020950E00205D0E00206B0E002002
S31520000E20790E00202E4B1A462A492B4802F070F9DB
S31520000E3031E02C4B1A462749274802F069F92AE067
S31520000E40294B1A462349244802F062F923E0274B0E
S31520000E501A462049204802F05BF91CE0244B1A462A
S31520000E601C491D4802F054F915E0224B1A4619492F
S31520000E70194802F04DF90EE01F4B1A46154916483F
S31520000E8002F046F907E01D4B1A461249124802F0B5
S31520000E903FF900E000BFFB6E0133FB66FB6E022BC1
S31520000EA092DD7B681A6B7B68DB6A07F1080000938A
S31520000EB01346134A642109F053FA07F108031A4628
S31520000EC00449054802F024F900BF7037BD4680BDAD
S31520000ED070AF00206B05002018BD002088AF0020D1
S31520000EE098AF0020A0AF0020A8AF0020B0AF002010
S31520000EF0BCAF0020C8AF0020D4AF0020E0AF002058
S31520000F00ECAF002080B582B000AF78607B683B4AAA
S31520000F10934208D10121102001F080FA00211020EF
S31520000F2001F07CFA65E07B68354A93420AD10121BB
S31520000F304FF4003001F052FA00214FF4003001F056
S31520000F404DFA56E07B682F4A93420AD101214FF48D
S31520000F50802001F043FA00214FF4802001F03EFA70
S31520000F6047E07B68284A93420AD101214FF40020AA
S31520000F7001F034FA00214FF4002001F02FFA38E076
S31520000F807B68224A93420AD101214FF4801001F056
S31520000F9025FA00214FF4801001F020FA29E07B6821
S31520000FA01B4A934208D10121202001F037FA002163
S31520000FB0202001F033FA1CE07B68164A93420AD1BE
S31520000FC001214FF0804001F009FA00214FF08040C6
S31520000FD001F004FA0DE07B680F4A934209D1012102
S31520000FE04FF0004001F0FAF900214FF0004001F0E7
S31520000FF0F5F900BF0837BD4680BD00BF001001408F
S315200010000044004000480040004C00400050004092
S315200010100014014000780040007C004080B58AB072
S3152000102000AF7860396000237B6200233B62002397
S31520001030FB610023BB617B681B8A9BB27B627B6A58
S3152000104023F440537B623B68DB881A467B6A134352
S315200010507B627B6A9AB27B681A827B689B899BB289
S315200010607B627B6A23F4B05323F00C037B623B68DC
S315200010709A883B681B8913439AB23B685B89134362
S315200010809BB21A467B6A13437B627B6A9AB27B6861
S315200010909A817B689B8A9BB27B627B6A23F440732E
S315200010A07B623B689B891A467B6A13437B627B6A19
S315200010B09AB27B689A8207F10803184600F0D8FE98
S315200010C07B68304A934203D07B682F4A934202D1F1
S315200010D07B693B6201E03B693B627B689B899BB2F3
S315200010E01BB2002B0CDA3A6A13469B0013449A0073
S315200010F01A443B681B685B00B2FBF3F3FB610BE011
S315200011003A6A13469B0013449A001A443B681B68AC
S315200011109B00B2FBF3F3FB61FB691C4AA2FB032392
S315200011205B091B017B627B6A1B09642202FB03F3BA
S31520001130FA69D31ABB617B689B899BB21BB2002BD1
S315200011400CDABB69DB003233104AA2FB03235B09AE
S3152000115003F007037A6A13437B620BE0BB691B012A
S3152000116032330A4AA2FB03235B0903F00F037A6A90
S3152000117013437B627B6A9AB27B681A8100BF283749
S31520001180BD4680BD00100140001401401F85EB5173
S3152000119080B483B000AF78607B684FF416521A6033
S315200011A07B6800229A807B680022DA807B68002296
S315200011B01A817B680C225A817B6800229A8100BFA3
S315200011C00C37BD465DF8047B704780B485B000AF10
S315200011D0786039600023FB607B681B8A9BB2FB60CA
S315200011E0FB6823F47063FB603B681A883B685B8866
S315200011F013439AB23B689B8813439AB23B68DB88B9
S3152000120013439BB21A46FB681343FB60FB689AB2F2
S315200012107B681A8200BF1437BD465DF8047B704791
S3152000122080B483B000AF78607B6800221A807B6828
S3152000123000225A807B6800229A807B680022DA800E
S3152000124000BF0C37BD465DF8047B704780B483B081
S3152000125000AF78600B46FB70FB78002B08D07B68CC
S315200012609B899BB243F400539AB27B689A8107E02C
S315200012707B689B899BB223F400539AB27B689A8140
S3152000128000BF0C37BD465DF8047B704780B483B041
S3152000129000AF78600B46FB707B681B8B9BB223F0FC
S315200012A0FF039AB27B681A837B681B8B9AB2FB7802
S315200012B09BB213439AB27B681A8300BF0C37BD4694
S315200012C05DF8047B704780B483B000AF78600B462E
S315200012D0FB70FB78002B0AD07B689B899BB26FEA58
S315200012E043436FEA53439AB27B689A8107E07B684F
S315200012F09B899BB2C3F30E039AB27B689A8100BF87
S315200013000C37BD465DF8047B704780B483B000AFD0
S3152000131078600B46FB70FB78002B08D07B689B8A95
S315200013209BB243F400639AB27B689A8207E07B689B
S315200013309B8A9BB223F400639AB27B689A8200BF91
S315200013400C37BD465DF8047B704780B483B000AF90
S3152000135078600B467B807B88C3F308039AB27B6850
S315200013609A8000BF0C37BD465DF8047B704780B479
S3152000137083B000AF78607B689B889BB2C3F3080379
S315200013809BB218460C37BD465DF8047B704780B487
S3152000139083B000AF78600B46FB707B681B8A9BB2DC
S315200013A023F00F039AB27B681A827B681B8A9AB253
S315200013B0FB789BB213439AB27B681A8200BF0C3724
S315200013C0BD465DF8047B704780B483B000AF78607B
S315200013D00B46FB70FB78002B08D07B689B899BB261
S315200013E043F002039AB27B689A8107E07B689B8967
S315200013F09BB223F002039AB27B689A8100BF0C3716
S31520001400BD465DF8047B704780B483B000AF78603A
S315200014100B467B807B689B899BB223F400639AB240
S315200014207B689A817B689B899AB27B8813439AB2A0
S315200014307B689A8100BF0C37BD465DF8047B7047F8
S3152000144080B483B000AF78600B467B807B681B8AB4
S315200014509BB223F020039AB27B681A827B681B8A90
S315200014609AB27B8813439AB27B681A8200BF0C37E4
S31520001470BD465DF8047B704780B483B000AF7860CA
S315200014800B46FB70FB78002B08D07B681B8A9BB22F
S3152000149043F480439AB27B681A8207E07B681B8AF2
S315200014A09BB223F480439AB27B681A8200BF0C3722
S315200014B0BD465DF8047B704780B483B000AF78608A
S315200014C07B689B899BB243F001039AB27B689A8121
S315200014D000BF0C37BD465DF8047B704780B483B0EF
S315200014E000AF78600B46FB70FB78002B08D07B683A
S315200014F09B8A9BB243F008039AB27B689A8207E0E4
S315200015007B689B8A9BB223F008039AB27B689A82F7
S3152000151000BF0C37BD465DF8047B704780B483B0AE
S3152000152000AF78600B46FB707B681B8B9BB2DBB2EF
S315200015309AB27B681A837B681B8B9AB2FB789BB224
S315200015401B029BB213439AB27B681A8300BF0C37E7
S31520001550BD465DF8047B704780B483B000AF7860E9
S315200015600B46FB70FB78002B08D07B689B8A9BB2CE
S3152000157043F020039AB27B689A8207E07B689B8AB5
S315200015809BB223F020039AB27B689A8200BF0C3765
S31520001590BD465DF8047B704780B483B000AF7860A9
S315200015A00B46FB70FB78002B08D07B689B8A9BB28E
S315200015B043F010039AB27B689A8207E07B689B8A85
S315200015C09BB223F010039AB27B689A8200BF0C3735
S315200015D0BD465DF8047B704780B483B000AF786069
S315200015E00B467B807B689B8A9BB223F004039AB2CE
S315200015F07B689A827B689B8A9AB27B8813439AB2CD
S315200016007B689A8200BF0C37BD465DF8047B704725
S3152000161080B483B000AF78600B46FB70FB78002B5C
S3152000162008D07B689B8A9BB243F002039AB27B6800
S315200016309A8207E07B689B8A9BB223F002039AB2C8
S315200016407B689A8200BF0C37BD465DF8047B7047E5
S3152000165080B483B000AF78600B467B8013467B70E6
S315200016607B78002B08D07B689B8A9AB27B881343B1
S315200016709AB27B689A8209E07B689B8A9AB27B88B9
S31520001680DB439BB213409AB27B689A8200BF0C3729
S31520001690BD465DF8047B704780B487B000AF7860A4
S315200016A00B467B8013467B7000233B610023FB6047
S315200016B00023BB6000237B617B687B617B88DBB278
S315200016C05B09DBB23B617B8803F01F03FB600122D1
S315200016D0FB6802FA03F3BB603B69012B03D17B69EC
S315200016E00C337B6109E03B69022B03D17B69103304
S315200016F07B6102E07B6914337B617B78002B06D00B
S315200017007B6919687B69BA680A431A6006E07B69B7
S315200017101968BB68DA437B690A401A6000BF1C3728
S31520001720BD465DF8047B704780B485B000AF786015
S315200017300B467B800023FB737B681B889AB27B88D1
S3152000174013409BB2002B02D00123FB7301E0002340
S31520001750FB73FB7B18461437BD465DF8047B704748
S3152000176080B483B000AF78600B467B807B88DB43F8
S315200017709AB27B681A8000BF0C37BD465DF8047BA1
S31520001780704780B487B000AF78600B467B8000231B
S31520001790FB6000237B610023BB600023FB747B88F6
S315200017A0DBB25B09DBB2BB607B8803F01F037B6186
S315200017B001227B6902FA03F37B61BB68012B07D107
S315200017C07B689B899BB21A467B6913407B6111E03B
S315200017D0BB68022B07D17B681B8A9BB21A467B69A2
S315200017E013407B6106E07B689B8A9BB21A467B6925
S315200017F013407B617B881B0A9BB2FB600122FB683E
S3152000180002FA03F3FB607B681B889BB21A46FB68CF
S315200018101340FB607B69002B05D0FB68002B02D0B0
S315200018200123FB7401E00023FB74FB7C18461C3764
S31520001830BD465DF8047B704780B485B000AF786004
S315200018400B467B800023FB810023BB817B881B0A00
S31520001850FB81FB89012202FA03F3BB81BB89DB43AF
S315200018609AB27B681A8000BF1437BD465DF8047BA8
S31520001870704700BF80B483B000AF0346FB71FB798D
S3152000188003F01F03012202FA03F1064A97F90730F3
S315200018905B0942F8231000BF0C37BD465DF8047B78
S315200018A0704700BF00E100E080B483B000AF03467C
S315200018B03960FB7197F90730002B0BDA3B68DAB2F7
S315200018C00C49FB7903F00F03043B1201D2B20B44FF
S315200018D01A7609E03B68DAB2074997F90730120110
S315200018E0D2B20B4483F8002300BF0C37BD465DF807
S315200018F0047B704700ED00E000E100E080B582B097
S3152000190000AF7860396000220121074807F055FFB3
S3152000191002211720FFF7C8FF1720FFF7ABFF00BFF4
S315200019200837BD4680BD00BF0004024080B582B0A6
S3152000193000AF786039607B689B688021184607F085
S31520001940D0FE034618460837BD4680BD80B582B016
S3152000195000AF786039607B689B683A68D2B2012113
S31520001960184607F02AFF00BF0837BD4680BD80B560
S3152000197082B000AF786039607B689B680121184689
S3152000198007F042FF00BF0837BD4680BD80B584B052
S3152000199000AF7860396007F10803184607F0A8FC05
S315200019A08023BB6000233B733B68002B01D00823B8
S315200019B000E00C237B730123BB7307F10803184651
S315200019C007F024FC00BF1037BD4680BD80B584B02B
S315200019D002AF78603960802007F0DCFC0346012BDB
S315200019E014D1802007F0F0FC7B68DB68002B10D038
S315200019F07B68DA687B681B69002100910021002042
S31520001A0001F0E8FA054B01221A6002E0044800F0D2
S31520001A10A5FE002318460837BD4680BD34C20020E7
S31520001A200CB0002080B400AF164B1B68154A43F05B
S31520001A3001031360134B00229A60124B1B68114A54
S31520001A4023F0A85323F4102313600E4B0E4A5A603A
S31520001A500C4B0E4AC3F884200A4B0D4AC3F8882043
S31520001A60084B1B68074A23F480231360054B00228A
S31520001A70DA60044B0022C3F88C2000BFBD465DF817
S31520001A80047B7047003802401030002400300020CC
S31520001A900030002480B483B000AF0346FB71064BB0
S31520001AA000221A70044AFB79137000BF0C37BD461A
S31520001AB05DF8047B704700BF0238024080B582B0D3
S31520001AC000AF00233B600023FB710023BB71312054
S31520001AD000F08AFD0346BB713B6801333B603B68DF
S31520001AE0B3F5A04F02D0BB79002BF0D0312000F007
S31520001AF07BFD0346002B02D00123FB7101E000236E
S31520001B00FB71FB7918460837BD4680BD80B485B089
S31520001B1000AF0346FB710023FB600A4B1B68FB608A
S31520001B20FB6823F0F803FB60FB79DB00FA681343BC
S31520001B30FB60044AFB68136000BF1437BD465DF89E
S31520001B40047B70470038024080B483B000AF034660
S31520001B50FB71044AFB79136000BF0C37BD465DF864
S31520001B60047B70470000474280B483B000AF034631
S31520001B70FB710D4B00221A700B4B00221A70FB7959
S31520001B80012B02D0042B04D007E0074B01221A7048
S31520001B9003E0054B05221A7000BF00BF0C37BD4677
S31520001BA05DF8047B704700BF7038024080B483B074
S31520001BB000AF0346FB71044AFB79136000BF0C3764
S31520001BC0BD465DF8047B7047800E474280B485B0E1
S31520001BD000AFF860B9607A603B607B689A01BB68A9
S31520001BE01A433B685B08013B1B041A43FB681A43F4
S31520001BF0BB691B06044913434B6000BF1437BD461F
S31520001C005DF8047B704700BF0038024080B483B083
S31520001C1000AF0346FB71044AFB79136000BF0C3703
S31520001C20BD465DF8047B70476000474280B483B0B0
S31520001C3000AF786039607B689A013B681B070549CD
S31520001C401343C1F8843000BF0C37BD465DF8047BD2
S31520001C50704700BF0038024080B483B000AF03460F
S31520001C60FB71044AFB79136000BF0C37BD465DF853
S31520001C70047B70476800474280B485B000AFF860A7
S31520001C80B9607A60FB689A01BB681B061A437B68B9
S31520001C901B0705491343C1F8883000BF1437BD46DA
S31520001CA05DF8047B704700BF0038024080B483B0E3
S31520001CB000AF0346FB71044AFB79136000BF0C3763
S31520001CC0BD465DF8047B70477000474280B483B000
S31520001CD000AF0346FB71044AFB79136000BF0C3743
S31520001CE0BD465DF8047B70474C00474280B485B002
S31520001CF000AF786039600023FB600B4B9B68FB606C
S31520001D00FB6823F0EC63FB607A683B681343FA6850
S31520001D101343FB60044AFB68936000BF1437BD463B
S31520001D205DF8047B704700BF0038024080B485B060
S31520001D3000AF786039600023FB600B4B9B68FB602B
S31520001D40FB6823F07843FB607A683B681343FA68A4
S31520001D501343FB60044AFB68936000BF1437BD46FB
S31520001D605DF8047B704700BF0038024080B485B020
S31520001D7000AF78600023FB60094B9B68FB60FB6823
S31520001D8023F00303FB60FA687B681343FB60044A75
S31520001D90FB68936000BF1437BD465DF8047B70472F
S31520001DA00038024080B400AF054B9B68DBB203F0DD
S31520001DB00C03DBB21846BD465DF8047B704700BFB6
S31520001DC00038024080B485B000AF78600023FB6005
S31520001DD0094B9B68FB60FB6823F0F003FB60FA6805
S31520001DE07B681343FB60044AFB68936000BF14378B
S31520001DF0BD465DF8047B70470038024080B485B04C
S31520001E0000AF78600023FB60094B9B68FB60FB6892
S31520001E1023F4E053FB60FA687B681343FB60044AB3
S31520001E20FB68936000BF1437BD465DF8047B70479E
S31520001E300038024080B485B000AF78600023FB6094
S31520001E400A4B9B68FB60FB6823F46043FB607B685E
S31520001E50DB00FA681343FB60044AFB68936000BF0B
S31520001E601437BD465DF8047B704700BF003802403A
S31520001E7080B489B000AF78600023BB6100237B610A
S31520001E800023FB6102233B610023FB600223BB602E
S31520001E904A4B9B6803F00C03BB61BB69082B11D02E
S31520001EA0BB69082B44D8BB69002B03D0BB69042B24
S31520001EB004D03DE07B68424A1A603DE07B68414A97
S31520001EC01A6039E03D4B5B689B0D03F00103FB6014
S31520001ED03A4B5B6803F03F03BB60FB68002B0CD0DA
S31520001EE0384ABB68B2FBF3F3344A52689209C2F30C
S31520001EF0080202FB03F3FB610BE0314ABB68B2FB2D
S31520001F00F3F32E4A52689209C2F3080202FB03F346
S31520001F10FB612A4B5B681B0C03F0030301335B0058
S31520001F203B61FA693B69B2FBF3F27B681A6003E016
S31520001F307B68234A1A6000BF204B9B6803F0F0039E
S31520001F40BB61BB691B09BB611F4ABB6913441B7874
S31520001F50DBB27B617B681A687B69DA407B685A60F2
S31520001F60164B9B6803F4E053BB61BB699B0ABB61BC
S31520001F70154ABB6913441B78DBB27B617B685A68C0
S31520001F807B69DA407B689A600C4B9B6803F460435C
S31520001F90BB61BB695B0BBB610B4ABB6913441B78F6
S31520001FA0DBB27B617B685A687B69DA407B68DA60E2
S31520001FB000BF2437BD465DF8047B704700380240D9
S31520001FC00024F40000127A00C8BB002080B485B03B
S31520001FD000AF78600023FB607B6803F44073B3F5A1
S31520001FE0407F11D10F4B9B68FB60FB6823F4F813ED
S31520001FF0FB607B6823F0704323F44073FA68134335
S31520002000FB60084AFB689360064B1A6F7B68C3F334
S315200020100B03044913430B6700BF1437BD465DF815
S31520002020047B70470038024080B483B000AF03467B
S31520002030FB71044AFB79136000BF0C37BD465DF87F
S31520002040047B70473C0E474280B483B000AF034602
S31520002050FB71044AFB79136000BF0C37BD465DF85F
S31520002060047B7047400E474280B483B000AF78604F
S31520002070044A7B68136000BF0C37BD465DF8047BBD
S31520002080704700BF5C01474280B485B000AF7860DE
S315200020900023FB600B4BD3F88C30FB60FB6823F0EE
S315200020A01F03FB607B68013BFA681343FB60054A0C
S315200020B0FB68C2F88C3000BF1437BD465DF8047B40
S315200020C0704700BF0038024080B485B000AF78600A
S315200020D00023FB600B4BD3F88C30FB60FB6823F4AA
S315200020E0F853FB607B68013B1B02FA681343FB60D5
S315200020F0044AFB68C2F88C3000BF1437BD465DF831
S31520002100047B70470038024080B485B000AF786009
S315200021100023FB600A4BD3F88C30FB60FB6823F46A
S315200021204013FB60FA687B681343FB60044AFB6834
S31520002130C2F88C3000BF1437BD465DF8047B70476B
S315200021400038024080B485B000AF78600023FB6081
S315200021500A4BD3F88C30FB60FB6823F44003FB600A
S31520002160FA687B681343FB60044AFB68C2F88C302C
S3152000217000BF1437BD465DF8047B70470038024027
S3152000218080B485B000AF78600023FB600A4BD3F89B
S315200021908C30FB60FB6823F44033FB60FA687B6875
S315200021A01343FB60044AFB68C2F88C3000BF143727
S315200021B0BD465DF8047B70470038024080B483B08A
S315200021C000AF7860044A7B68136000BF0C37BD46B9
S315200021D05DF8047B704700BFE011474280B483B0AE
S315200021E000AF78600B46FB70FB78002B06D00A4BBD
S315200021F01A6B09497B6813430B6306E0064B1A6B7F
S315200022007B68DB43044913400B6300BF0C37BD4694
S315200022105DF8047B704700BF0038024080B483B06D
S3152000222000AF78600B46FB70FB78002B06D00A4B7C
S315200022305A6B09497B6813434B6306E0064B5A6B7E
S315200022407B68DB43044913404B6300BF0C37BD4614
S315200022505DF8047B704700BF0038024080B483B02D
S3152000226000AF78600B46FB70FB78002B06D00A4B3C
S315200022709A6B09497B6813438B6306E0064B9A6B7E
S315200022807B68DB43044913408B6300BF0C37BD4694
S315200022905DF8047B704700BF0038024080B483B0ED
S315200022A000AF78600B46FB70FB78002B06D00A4BFC
S315200022B01A6C09497B6813430B6406E0064B1A6CBB
S315200022C07B68DB43044913400B6400BF0C37BD46D3
S315200022D05DF8047B704700BF0038024080B483B0AD
S315200022E000AF78600B46FB70FB78002B06D00A4BBC
S315200022F05A6C09497B6813434B6406E0064B5A6CBB
S315200023007B68DB43044913404B6400BF0C37BD4652
S315200023105DF8047B704700BF0038024080B483B06C
S3152000232000AF78600B46FB70FB78002B06D00A4B7B
S315200023301A6909497B6813430B6106E0064B1A6943
S315200023407B68DB43044913400B6100BF0C37BD4655
S315200023505DF8047B704700BF0038024080B483B02C
S3152000236000AF78600B46FB70FB78002B06D00A4B3B
S315200023705A6909497B6813434B6106E0064B5A6943
S315200023807B68DB43044913404B6100BF0C37BD46D5
S315200023905DF8047B704700BF0038024080B483B0EC
S315200023A000AF78600B46FB70FB78002B06D00A4BFB
S315200023B09A6909497B6813438B6106E0064B9A6943
S315200023C07B68DB43044913408B6100BF0C37BD4655
S315200023D05DF8047B704700BF0038024080B483B0AC
S315200023E000AF78600B46FB70FB78002B06D00A4BBB
S315200023F01A6A09497B6813430B6206E0064B1A6A80
S315200024007B68DB43044913400B6200BF0C37BD4693
S315200024105DF8047B704700BF0038024080B483B06B
S3152000242000AF78600B46FB70FB78002B06D00A4B7A
S315200024305A6A09497B6813434B6206E0064B5A6A7F
S315200024407B68DB43044913404B6200BF0C37BD4613
S315200024505DF8047B704700BF0038024080B483B02B
S3152000246000AF78600B46FB70FB78002B06D00A4B3A
S315200024701A6D09497B6813430B6506E0064B1A6DF6
S315200024807B68DB43044913400B6500BF0C37BD4610
S315200024905DF8047B704700BF0038024080B483B0EB
S315200024A000AF78600B46FB70FB78002B06D00A4BFA
S315200024B05A6D09497B6813434B6506E0064B5A6DF6
S315200024C07B68DB43044913404B6500BF0C37BD4690
S315200024D05DF8047B704700BF0038024080B483B0AB
S315200024E000AF78600B46FB70FB78002B06D00A4BBA
S315200024F09A6D09497B6813438B6506E0064B9A6DF6
S315200025007B68DB43044913408B6500BF0C37BD460F
S315200025105DF8047B704700BF0038024080B483B06A
S3152000252000AF78600B46FB70FB78002B06D00A4B79
S315200025301A6E09497B6813430B6606E0064B1A6E32
S315200025407B68DB43044913400B6600BF0C37BD464E
S315200025505DF8047B704700BF0038024080B483B02A
S3152000256000AF78600B46FB70FB78002B06D00A4B39
S315200025705A6E09497B6813434B6606E0064B5A6E32
S315200025807B68DB43044913404B6600BF0C37BD46CE
S315200025905DF8047B704700BF0038024080B483B0EA
S315200025A000AF03460A46FB711346BB71BB79002B6D
S315200025B008D00C4B1B78DAB20A49FB791343DBB2FD
S315200025C00B7009E0074B1B78DAB2FB79DB43DBB2F1
S315200025D004491340DBB20B7000BF0C37BD465DF8D3
S315200025E0047B70470D38024080B487B000AF0346A5
S315200025F0FB710023FB6000237B610023FB74FB79C6
S315200026005B09DBB2FB60FB68012B03D1124B1B6815
S315200026107B6109E0FB68022B03D10F4B1B6F7B61AB
S3152000262002E00D4B5B6F7B61FB7903F01F03FB60C0
S315200026307A69FB6822FA03F303F00103002B02D028
S315200026400123FB7401E00023FB74FB7C18461C3736
S31520002650BD465DF8047B70470038024080B400AF69
S31520002660054B5B6F044A43F08073536700BFBD463A
S315200026705DF8047B704700BF0038024080B485B007
S3152000268000AF0346FB710023FB73094BDA68FB7925
S315200026901340002B02D00123FB7301E00023FB73C0
S315200026A0FB7B18461437BD465DF8047B704700BF98
S315200026B00038024080B483B000AF0346FB71044A61
S315200026C0FB79137000BF0C37BD465DF8047B70475D
S315200026D00E38024080B483B000AF0346FB71FB790D
S315200026E003F01F03012202FA03F1064A97F9073085
S315200026F05B0942F8231000BF0C37BD465DF8047B0A
S31520002700704700BF00E100E080B483B000AF03460D
S315200027103960FB7197F90730002B0BDA3B68DAB288
S315200027200C49FB7903F00F03043B1201D2B20B4490
S315200027301A7609E03B68DAB2074997F907301201A1
S31520002740D2B20B4483F8002300BF0C37BD465DF898
S31520002750047B704700ED00E000E100E080B582B028
S3152000276000AF78600EE07B681B780D2B07D07B6866
S315200027705A1C7A601B78184600F060F902E07B68E4
S3152000278001337B607B681B78002BECD100BF00BF38
S315200027900837BD4680BD80B586B000AF786000237F
S315200027A07B617B6803F00F027B69591C79611049B4
S315200027B08A5C07F118010B4403F80C2C7B681B0973
S315200027C07B607B68002BECD10AE07B69013B7B6157
S315200027D007F10C027B6913441B78184600F02EF98A
S315200027E07B69002BF1D100BF00BF1837BD4680BDE5
S315200027F0D8BB002080B59EB000AF78607B68002BE8
S3152000280002DA4FF0FF3300E001233B677B683A6F23
S3152000281002FB03F37B6000237B6779681C4B83FBF9
S3152000282001239A10CB17D21A13469B0013445B0040
S31520002830CA1A7B6F591C796716498A5C07F1780199
S315200028400B4403F86C2C7B68114A82FB031292100E
S31520002850DB17D31A7B607B68002BDED13B6F002B06
S315200028600EDA2D2000F0EAF80AE07B6F013B7B6749
S3152000287007F10C027B6F13441B78184600F0DEF834
S315200028807B6F002BF1D100BF00BF7837BD4680BDDE
S3152000289067666666D8BB002080B483B000AF10237D
S315200028A07B607B6883F3118800BF00BF0C37BD4671
S315200028B05DF8047B704780B483B000AF30237B6023
S315200028C07B6883F3118800BF00BF0C37BD465DF8D7
S315200028D0047B704780B584B000AF78600B48FFF763
S315200028E03DFF0B4B1B68002B02D1094B094A1A608E
S315200028F0074B1B68FB60064B1A687B681344044A27
S315200029001360FB6818461037BD4680BD30B00020E6
S3152000291098C50020B045012080B485B000AF78600E
S3152000292039603B6803F5F95310337A6813607B6886
S315200029301B68BB600023FB600AE0FB689B001A460D
S31520002940BB6813441A4600231360FB680133FB60FF
S31520002950FB68332BF1DDBB686FF016021A60BB688B
S3152000296004331A4603231360BB6884331A464FF098
S315200029708073136000BF1437BD465DF8047B704733
S3152000298080B485B000AF786039607B681B6880337F
S31520002990FB60FB683A681A6000BF1437BD465DF8D5
S315200029A0047B704780B584B000AF1D4803F02CFD32
S315200029B03B1D184603F074FE40F24733BB803B1D97
S315200029C01946174803F000FE164B174A1A600221D3
S315200029D06FF00100FFF798FE144B154A1A6000218C
S315200029E06FF00400FFF790FE124B134A1A60022183
S315200029F03220FFF789FE3220FFF76CFE00210848BF
S31520002A0003F098FE0121064803F061FF012202210E
S31520002A10034804F030FF00BF1037BD4680BD00BF1D
S31520002A20000C004038C00120210000202CC00120CD
S31520002A301D00002008C10120C32D002080B582B0D2
S31520002A4000AF0346FB71FB799BB219460748FEF798
S31520002A507CFC00BF80210548FEF766FE0346002B5E
S31520002A60F8D000BF00BF0837BD4680BD001001402A
S31520002A7080B500AF124803F079FE03461A46114B83
S31520002A801A60114B01221A60104B00221A60104B5B
S31520002A901B68002B06D00E4B1B680E4A12680021BD
S31520002AA010469847084B00221A60084B1B68002BDB
S31520002AB001D000F05DFA054B00221A6000BF80BDF0
S31520002AC0000C004038C2002030C2002034C2002052
S31520002AD0A8C2002048C2002080B500AF124803F0EB
S31520002AE045FE03461A46114B1A60114B01221A6005
S31520002AF0104B00221A60104B5B68002B06D00E4B41
S31520002B005B680E4A5268012110469847084B0022FE
S31520002B101A60084B1B68002B01D000F029FA054BE0
S31520002B2000221A6000BF80BD000C004038C2002081
S31520002B3030C2002034C20020A8C2002048C2002093
S31520002B4080B500AF124803F011FE03461A46114B1A
S31520002B501A60114B01221A60104B00221A60104B8A
S31520002B609B68002B06D00E4B9B680E4A926802216A
S31520002B7010469847084B00221A60084B1B68002B0A
S31520002B8001D000F0F5F9054B00221A6000BF80BD88
S31520002B90000C004038C2002030C2002034C2002081
S31520002BA0A8C2002048C2002080B485B000AF78605B
S31520002BB039600023FB603B681B68BB6004E0BB6890
S31520002BC0FB60BB681B68BB60BB68002B05D0BB687D
S31520002BD09A687B689B689A42F1DD7B68BA681A60BE
S31520002BE0FB68002B03D13B687A681A6002E0FB6819
S31520002BF07A681A6000BF1437BD465DF8047B7047BB
S31520002C0080B485B000AF786039600023FB603B68F4
S31520002C101B68BB6004E0BB68FB60BB681B68BB60CD
S31520002C20BB68002B05D0BB685A687B685B689A42F4
S31520002C30F1DD7B68BA681A60FB68002B03D13B681C
S31520002C407A681A6002E0FB687A681A6000BF143757
S31520002C50BD465DF8047B704780B584B000AF7860D0
S31520002C607B681B68FB60FB68002B04D0FB681A6836
S31520002C707B681A600CE00948FFF770FD00220221EC
S31520002C80074806F09AFD0748FFF768FD30BFFDE7C5
S31520002C90FB6818461037BD4680BD00BF48B00020EF
S31520002CA00004024054B0002080B584B000AF7860A4
S31520002CB07B681B68FB60FB68002B04D0FB681A68E6
S31520002CC07B681A600CE00948FFF748FD00220221C4
S31520002CD0074806F072FD0748FFF740FD30BFFDE7C5
S31520002CE0FB6818461037BD4680BD00BF48B000209F
S31520002CF00004024060B0002080B483B000AF78604A
S31520002D0039603B681A687B681A603B687A681A6083
S31520002D1000BF0C37BD465DF8047B704780B483B096
S31520002D2000AF786039603B681A687B689A603B68B8
S31520002D307A681A6000BF0C37BD465DF8047B704781
S31520002D4080B485B000AF78607B681B68FB60FB6849
S31520002D509A687B681A60FB6818461437BD465DF88A
S31520002D60047B704780B485B000AF7860396000235B
S31520002D70FB603B681B68BB6004E0BB68FB60BB680C
S31520002D801B68BB60BB68002B03D0BA687B689A427D
S31520002D90F3D1BB68002B0DD0FB68002B04D0BB6899
S31520002DA01A68FB681A6003E0BB681A683B681A60F9
S31520002DB0012300E0002318461437BD465DF8047B46
S31520002DC0704780B582B000AF02211E4804F0DDFDB9
S31520002DD01C4803F0CBFC03467B6007E01A48FFF74C
S31520002DE03BFF034619491846FFF7DEFE164B1B68C4
S31520002DF0002B06D0144B1B685A687B68D31A002B0D
S31520002E00ECDD114B1B68002B16D00E4803F0AEFCF0
S31520002E1003463B600C4B1B685B683A689A4204DDAC
S31520002E20002202210A4806F0C8FC074B1B685B6893
S31520002E301946044803F0D9FF00F09AF800BF083776
S31520002E40BD4680BD000C00402CC2002028C20020B8
S31520002E50000402400346024A136010DFF74600BF13
S31520002E6054C200200346054A1360054B5B68044A9A
S31520002E7043F080535360F74600BF00BF54C2002082
S31520002E8000ED00E080B582B000AF7860094B5B684A
S31520002E90C3F30803002B03D17868FFF7DBFF02E0BA
S31520002EA07868FFF7DFFFFFF706FD00BF0837BD464E
S31520002EB080BD00BF00ED00E090B585B000AF234B8C
S31520002EC01C682348FFF7C8FE0346E360E368BB603F
S31520002ED0FFF7F1FCBB68D868BB681969BB685B69FA
S31520002EE01A4600F015F9FFF7D7FC1A49B868FFF71C
S31520002EF003FF194B1B689B68DB687B60144B1B68C0
S31520002F00002B0AD07B68002BD9D0114B1B689A68FE
S31520002F107B689B68D31A002BD1DD0F48FFF710FF83
S31520002F2003460E491846FFF7F9FE0B4B1B68FB605C
S31520002F3003E0FB681B691B68FB60FB681B69002BB1
S31520002F40F7D1F868FFF79EFFB9E700BFF8BB00206E
S31520002F5028C20020ECBB0020F4BB0020F0BB0020E0
S31520002F6080B500AF00F004F8FFF7A5FC30BFFBE703
S31520002F7080B582B000AF144B1B68DB687B60134BB7
S31520002F801B68002B1BD0124B1B68002B17D07B68AD
S31520002F90002B07D00D4B1B689A687B689B68D31A59
S31520002FA0002B0CDA0A48FFF7CBFE034606491846E3
S31520002FB0FFF7B4FE044B1B681846FFF763FF00BFFC
S31520002FC00837BD4680BD00BFF4BB002028C20020C4
S31520002FD0F0BB002080B588B000AFF860B9607A6099
S31520002FE03B60EFF312833B613B691B09012B14BF46
S31520002FF001230023DBB2FB77FFF74EFC3A48FFF7AD
S3152000300053FEB861BB697A68DA60BB693A681A61AF
S31520003010BB69BA6A5A61354B1B68002B04D1344B05
S315200030201B68DB685B6801E0324B1B68FA681A4450
S31520003030BB695A60BB695A68BB68002B01DDBB6857
S3152000304001E06FF000431A44BB699A602A4803F0F6
S315200030508DFB03467B61BB695A687B69D31A002BBB
S3152000306016DD2649B869FFF7CBFD244B1B685B6844
S315200030707A699A4204DD00220221214806F09DFB4E
S315200030801E4B1B685B6819461B4803F0AEFE21E009
S315200030901C49B869FFF788FDFB7F002B1AD01A4B15
S315200030A01B68002B16D0174B1B689A68174B1B689A
S315200030B0DB689B68D31A002B0CDA1348FFF740FE17
S315200030C0034612491846FFF729FE104B1B6818467F
S315200030D0FFF7D8FEFB7F002B01D0FFF7ECFBBB6987
S315200030E018462037BD4680BDECBB002030C20020EC
S315200030F0F8BB002038C20020000C00402CC2002063
S315200031000004024028C20020F0BB0020F4BB0020AF
S3152000311080B588B000AFF860B9607A60EFF31283AB
S315200031203B613B691B09012B14BF01230023DBB242
S31520003130FB76FFF7B1FBFB681B68FB61FB69002B85
S3152000314037D003E0FB691B691B68FB61FB691B69C0
S31520003150002BF7D1304B1B68FA699A4202D0FB7ECE
S31520003160002B07D1FB7E002B01D0FFF7A4FB4FF0ED
S31520003170FF334DE0FB685B68002B03D0FB685B6880
S3152000318000221A61244B1A68FB685A60224B1B687E
S31520003190FA681A61F869FFF775FE1F4B1B68DB6832
S315200031A0002B06D1FB7E002B01D0FFF784FB0023EA
S315200031B02EE0194B1A68FB681A60FB7E002B05D09F
S315200031C0FB685B68012B01D0FFF775FBBB6879684C
S315200031D0F86898477861FFF75FFBFB6800221A6062
S315200031E0FB685B68FB61FB69002B0BD0FB69012B3D
S315200031F008D0FB6800225A60FB6900221A61F86930
S31520003200FFF740FEFB7E002B01D0FFF754FB7B69C6
S3152000321018462037BD4680BDF8BB002080B586B055
S3152000322000AF7860EFF31283FB60FB681B09012B6C
S3152000323014BF01230023DBB2FB74FFF72DFB1F49CC
S315200032407868FFF78FFD0346002B06D11C49786866
S31520003250FFF788FD0346002B04D01A497868FFF74C
S315200032604BFD21E0184B1B687B611AE0174B1B684E
S315200032707A699A4212D07B69DB687A689A420DD1C4
S315200032807B691A697B68DB689A4207D17B690022D1
S31520003290DA600C497868FFF72FFD05E07B699B68AB
S315200032A07B617B69002BE1D1FB7C002B01D0FFF7F2
S315200032B002FB00BF1837BD4680BD00BF2CC20020D0
S315200032C028C20020ECBB0020F4BB0020F8BB002065
S315200032D080B485B000AF7860EFF31283FB60FB68A3
S315200032E01B09012B04D0074B1B68DB685B6801E0D8
S315200032F0054B1B687A68136000BF1437BD465DF81E
S31520003300047B7047F8BB002038C2002080B485B00B
S3152000331000AF7860EFF31283FB60FB681B09012B7B
S3152000332004D0084B1B68DB685B6801E0064B1B6812
S315200033307A6812689B1A18461437BD465DF8047BD6
S31520003340704700BFF8BB002038C2002080B584B08B
S3152000335000AFEFF312837B607B681B09012B14BF40
S3152000336001230023DBB2FB73FFF796FA0C4803F028
S31520003370FDF90346BB60FB7B002B01D0FFF79BFAD0
S31520003380FB7B002B04D0074B1B68DB685B6801E0E6
S31520003390054B1B68BA68D31A18461037BD4680BD40
S315200033A0000C0040F8BB002038C2002080B582B057
S315200033B000AF00237B6012E07B685A1C13465B003B
S315200033C01344DB00444A991843487A6813465B0045
S315200033D01344DB00034419607B6801337B607B6800
S315200033E01C2BE9DD3C4B0022C3F8B82200237B606E
S315200033F013E07B685A1C13469B0013449B00374AF4
S31520003400991836487A6813469B0013449B00034458
S31520003410083319607B6801337B607B68022BE8DD0B
S315200034202E4B00225A6400237B6030E02B497A68B9
S3152000343013469B0013449B000B4404337A681A609E
S315200034407A6813469B0013449B00244A1A447B68DF
S315200034505B0323490B4419461046FFF75DFA7A6849
S3152000346013469B0013449B001C4A13441D491846CF
S31520003470FFF786FA19497A6813469B0013449B0086
S315200034800B44103300221A607B6801337B607B6813
S31520003490032BCBDD144B4FF0FF325A60124B002228
S315200034A09A60114B00221A610F4B0022DA600F48F6
S315200034B0FFF754F90E48FFF751F90E48FFF74EF97A
S315200034C00A48FFF74BF90948FFF748F9FFF76AFA68
S315200034D000BF0837BD4680BDC8C2002058C20020A4
S315200034E0A0C50020B92E0020B4C200206CB0002058
S315200034F070B000207CB0002080B586B000AFF860A8
S31520003500B9601346FB71FB79022B41D8EFF3128386
S315200035103B613B691B09012B14BF01230023DBB24E
S31520003520FB75FFF7B9F9FB79022B0ED0022B10DCC5
S31520003530002B02D0012B04D00BE0174B174A1A6040
S3152000354014E0174B174A1A6010E0174B174A1A60F7
S315200035500CE01748FFF702F900220221154806F071
S315200035602CF91548FFF7FAF830BFFDE7FB79134928
S31520003570FA6841F82320FB791149BA6841F82320DB
S31520003580FB6801225A60FB7D002B01D0FFF793F9DF
S3152000359000BF1837BD4680BDD4C00120712A002047
S315200035A090C00120D92A00209CC00120412B002058
S315200035B048B000200004024094B0002048C20020F9
S315200035C0A8C2002080B586B002AFF860B9607A60E4
S315200035D0FFF762F9FFF7EAFEBB68002B16D00F480B
S315200035E003F0C4F803461A460D4B1A600D4B012210
S315200035F01A607B680093BB68FA6800210020FFF7F9
S31520003600E9FC084B00221A60FFF7B2FCFFF7A8FC82
S31520003610002318461037BD4680BD00BF000C004071
S3152000362038C2002030C2002080B5ACB002AF78602E
S3152000363039603A6807F170031068516803C311892D
S31520003640927A19809A7097F87030772B0ED097F867
S31520003650703007F10C00C34A642106F081FE07F1A1
S315200036600C031A46C049C148FFF752FD7B685B69C7
S315200036700133052B00F2B78101A252F823F000BFD7
S3152000368099360020413700206B3700204139002031
S31520003690E73900206139002097F870307E2B39D029
S315200036A07E2B00F399817A2B02D07B2B13D093E1CA
S315200036B0AF4B1A46AC49AD48FFF72AFD97F8713053
S315200036C01A467B68DB689A4236D07B689B685A1C10
S315200036D07B689A6030E07B6801225A6197F87130E6
S315200036E01A467B681A617B68DB69002B12D17B68DE
S315200036F0DB695A1C7B68DA61002300939D4B9E4A46
S3152000370000219E48FFF766FC9D4B1A46964997482E
S31520003710FFF7FEFC9B4B1A4693499448FFF7F8FCAB
S3152000372097F87330FB677B689B68FA6F9A4205DDD2
S315200037307B68FA6F9A6001E000BF4DE100BF4BE164
S3152000374097F870307B2B40F049817B6801225A61C3
S3152000375097F871301A467B681A618B4B1A46824954
S315200037608248FFF7D5FC00BF38E197F87030772BF9
S3152000377040F0368197F87330C7F8A03007F10C0374
S31520003780D7F8A0208149184606F03AFE07F10C0327
S315200037901A4675497548FFF7BBFC0023C7F8A430C5
S315200037A07B689B68C7F89C307B68DB68C7F89830D5
S315200037B0D7F8A030002B03F00103B8BF5B42012BE2
S315200037C003D1D7F89C30022B12D0D7F89C30032B8C
S315200037D01AD1D7F8A0106E4B83FB0132CB17D21A21
S315200037E013465B001344CA1AD7F8983093420BD17C
S315200037F00123C7F8A43001230093664B664A0021B3
S315200038000020FFF7E7FB0AE00023C7F8A4300023D7
S315200038100093604B604A00210020FFF7DBFB00226B
S315200038205E495F48FFF774FCC7F89400D7F89430D8
S315200038300A33C7F890305B4AD7F8A03052F82320D5
S31520003840D7F890301344584A9B001344D3ED007A9E
S315200038509FED567A67EE877AFDEEE77A17EE903A75
S31520003860C7F88C30D7F88C2051494B48FFF750FCCD
S31520003870D7F8A430012B61D14E4AD7F8A03052F8A0
S315200038802330C7F8883000224B494548FFF740FCD3
S31520003890C7F88400D7F8843007EE903AB8EEE77A76
S315200038A0DFED466AC6EE877AC7ED207A00230093BD
S315200038B0434B394A00210020FFF78CFB002300935D
S315200038C0404B354A00210020FFF784FB07F10C000E
S315200038D0D7F8A4300193D7F888300093D7F88C30E6
S315200038E0D7F8A020384906F08BFD07F10C031A46BD
S315200038F01D491E48FFF70CFCD7F888304FF4FA72A2
S3152000390002FB03F307EE903AB8EEE77AD7ED207A7A
S3152000391067EE277A9FED2D7A77EEC77A9FED2C7A80
S3152000392067EE877AFDEEE77A00230093294B1A4A41
S3152000393041F2883117EE900AFFF74CFB00BF4FE0AB
S3152000394097F870307F2B4DD197F871301A467B68E7
S31520003950DB689A4202DD7B6800229A6100BF41E063
S3152000396000BF40E0B4B000206B05002018BD002049
S31520003970C8B00020C908002094BB0020A086010002
S3152000398000B1002014B100204CB1002060B100200D
S31520003990565555556D510020D0BC0020EF550020BE
S315200039A0F8BC00204CB50020CCB50020002474497A
S315200039B03551002030B60020D55500200000704239
S315200039C051510020FF4F002070B1002000004842D6
S315200039D00000C842C94F002000BF04E000BF02E03B
S315200039E000BF00E000BF00BFA837BD4680BD80B441
S315200039F083B000AF786039607B68DB6818460C3787
S31520003A00BD465DF8047B704780B483B000AF786014
S31520003A1039607B681B6918460C37BD465DF8047B08
S31520003A20704780B483B000AF786039607B689B684C
S31520003A3018460C37BD465DF8047B704780B5A0B0AC
S31520003A4002AF786039601A4B1A461A491A48FFF7AE
S31520003A505FFB7B689A687B68DB6807F10800009348
S31520003A601346164A642106F07BFC07F108031A4622
S31520003A7010491148FFF74CFB7B68DB68DBB287F8FF
S31520003A806D307E2387F86C30022387F86E307B6892
S31520003A909B68DBB287F86F3007F16C031A4608493A
S31520003AA00848FFF735FB00BF7837BD4680BD00BF0D
S31520003AB0A4B100206B05002018BD0020E4B1002031
S31520003AC0574600204CC1002080B5A0B002AF7860D8
S31520003AD039601A4B1A461A491A48FFF719FB7B68B0
S31520003AE099687B681B697A68D26807F10800019299
S31520003AF000930B46144A642106F032FC07F10803B2
S31520003B001A460F490F48FFF703FB7B68DB68DBB2D9
S31520003B1087F86D307A2387F86C3007F16C031A46E4
S31520003B200A490B48FFF7F4FA0A4B1A460449054896
S31520003B30FFF7EEFA00BF7837BD4680BD00B2002001
S31520003B406B05002018BD002044B2002057460020F7
S31520003B504CC100206CB2002080B586B000AF7860E2
S31520003B6039600B4B1A460B490B48FFF7D1FA7B6895
S31520003B701B69DBB27B737D233B7307F10C031A466B
S31520003B8006490748FFF7C4FA00BF1837BD4680BD6F
S31520003B9080B200206B05002018BD0020574600206B
S31520003BA04CC1002080B586B000AF786039600B4BE1
S31520003BB01A460B490B48FFF7ABFA7B68DB68DBB28A
S31520003BC07B737B233B7307F10C031A460649074890
S31520003BD0FFF79EFA00BF1837BD4680BDC0B2002051
S31520003BE06B05002018BD0020574600204CC1002040
S31520003BF080B586B000AF786039600B4B1A460B490A
S31520003C000B48FFF785FA7B68DB68DBB27B737F2383
S31520003C103B7307F10C031A4606490748FFF778FA63
S31520003C2000BF1837BD4680BD08B300206B050020B5
S31520003C3018BD0020574600204CC1002080B483B018
S31520003C4000AF786039607B6802225A6100BF0C376A
S31520003C50BD465DF8047B704780B584B002AF7860BE
S31520003C6039607B6800225A617B68DA687B681A6152
S31520003C7000230093244B7A6800210020FFF7AAF93D
S31520003C80002222492248FFF743FA03460093214B9C
S31520003C901F4A00210020FFF79DF91F4B1A461F4996
S31520003CA01F48FFF735FA002218491948FFF730FA5E
S31520003CB0034600931B4B164A00210020FFF78AF982
S31520003CC000230093184B194A00210020FFF782F9A0
S31520003CD07B68DB69002B12D17B68DB695A1C7B6809
S31520003CE0DA6100230093124B104A00211148FFF796
S31520003CF071F9114B1A4609490948FFF709FA00BF1D
S31520003D000837BD4680BD00BFA53B0020D555002005
S31520003D10F8BC00205D5300204CB300206B0500202A
S31520003D2018BD0020BF510020F10A002094BB0020BE
S31520003D30C9080020A086010000B1002080B584B00B
S31520003D4002AF786039607B689B69002B0ED00D4BE3
S31520003D501A460D490D48FFF7DBF9002300930C4B5B
S31520003D607A6800210020FFF735F903E07B684FF0E1
S31520003D70FF325A617B6801229A6100BF0837BD462F
S31520003D8080BD00BF64B300206B05002018BD002055
S31520003D90593C002080B584B002AF7860396000239A
S31520003DA000930C4B0C4A00210020FFF713F90B4B14
S31520003DB01A460B490B48FFF7ABF9002300930A4B31
S31520003DC0054A00210948FFF705F900BF0837BD4617
S31520003DD080BD00BFC93A0020FCBB00207CB3002078
S31520003DE06B05002018BD00203D3A0020400D030041
S31520003DF080B59CB000AF786039607B689B6807F11E
S31520003E000C00074A642106F0ABFA07F10C031A46A8
S31520003E1004490548FFF77CF900BF7037BD4680BDD1
S31520003E2098B300206B05002018BD002080B483B015
S31520003E3000AF786039607B685B6918460C37BD46F1
S31520003E405DF8047B704780B584B002AF7860396036
S31520003E50002300930D4B0E4A00210020FFF7BAF8ED
S31520003E60002300930B4B0A4A00214FF4FA70FFF708
S31520003E70B1F800230093084B054A00214FF47A70CD
S31520003E80FFF7A8F800BF0837BD4680BD3D3C00209F
S31520003E90FCBB0020F13B00203D3D002080B483B0D8
S31520003EA000AF786039607B683A689A6000BF0C374B
S31520003EB0BD465DF8047B704780B483B000AF786060
S31520003EC039607B683A681A6100BF0C37BD465DF8D9
S31520003ED0047B704780B582B000AF786039600022DD
S31520003EE00D490E48FFF714F90346002B0FD10C4B52
S31520003EF01A460C490C48FFF70BF900220B49786843
S31520003F00FFF706F900220A490A48FFF701F900BF20
S31520003F100837BD4680BD00BFFF0B002094BB0020A4
S31520003F20ACB300206B05002018BD0020473E0020C2
S31520003F30C5580020F8BC002080B584B002AF786058
S31520003F403960154B1A4615491548FFF7E1F87B6885
S31520003F5001225A617B689B685A1C7B689A60002301
S31520003F600093104B104A00210020FFF733F801235D
S31520003F7000930E4B0E4A00210020FFF72BF800235A
S31520003F8000930C4B7A68002142F21070FFF722F85A
S31520003F9000BF0837BD4680BDC4B300206B05002096
S31520003FA018BD0020C90C002094BB00202B4F0020F8
S31520003FB01CBC0020D53E002080B59EB002AF7860A4
S31520003FC03960234B1A4623492348FFF7A1F87B681B
S31520003FD05B69002B05D1214B1A461E491E48FFF767
S31520003FE097F83B68012B0ED17B6805225A61002386
S31520003FF000931B4B1B4A00210020FEF7EBFF7B683A
S3152000400001229A6020E03B68022B16D17B680622AB
S315200040105A617B6800229A6000230093104B114A54
S3152000402000210020FEF7D6FF002300930E4B7A686E
S3152000403000210E48FEF7CEFF06E007F10C030C4ADE
S315200040406421184606F08CF900BF7037BD4680BD46
S31520004050DCB300206B05002018BD0020ECB3002047
S315200040602B4F00201CBC0020393F002060E31600A7
S315200040700CB4002080B483B000AF786039607B68D0
S315200040805B69052B02D17B6801225A6100BF0C3780
S31520004090BD465DF8047B704780B59EB002AF786060
S315200040A039603C4B1A463C493C48FFF731F87B685F
S315200040B099687B68DB687A68126907F10C000192BF
S315200040C000930B46364A642106F04AF907F10C03A1
S315200040D01A4631493148FFF71BF8324B1A462E490A
S315200040E02E48FFF715F87B685B690133082B46D805
S315200040F001A252F823F000BF394100201D410020C3
S315200041002B410020474100207F4100207F41002095
S31520004110554100206341002071410020224B1A4660
S315200041201D491E48FEF7F4FF2AE0204B1A461A497D
S315200041301A48FEF7EDFF23E01D4B1A46164917488D
S31520004140FEF7E6FF1CE01B4B1A4613491348FEF701
S31520004150DFFF15E0184B1A460F491048FEF7D8FF27
S315200041600EE0164B1A460C490C48FEF7D1FF07E025
S31520004170134B1A4608490948FEF7CAFF00E000BF5C
S31520004180104B1A4604490548FEF7C2FF00BF703798
S31520004190BD4680BD2CB400206B05002018BD002034
S315200041A048B4002070B4002078B4002080B40020E9
S315200041B088B4002090B4002098B40020A4B4002035
S315200041C0B0B40020BCB4002080B582B000AF7860C7
S315200041D039607B685B69002B05D1064B1A46064978
S315200041E00648FEF795FF7B6805225A6100BF08370F
S315200041F0BD4680BDECB300206B05002018BD002015
S3152000420080B582B000AF786039607B685B69002B2F
S3152000421005D1064B1A4606490648FEF779FF7B6804
S3152000422006225A6100BF0837BD4680BDECB3002088
S315200042306B05002018BD002080B582B000AF7860E5
S3152000424039607B685B69002B05D1064B1A46064907
S315200042500648FEF75DFF7B6807225A6100BF0837D4
S31520004260BD4680BDECB300206B05002018BD0020A4
S3152000427080B483B000AF786039607B6801225A61D0
S3152000428000BF0C37BD465DF8047B704780B483B011
S3152000429000AF786039607B6801225A6100BF0C3715
S315200042A0BD465DF8047B704780B483B000AF78606C
S315200042B039607B6801225A6100BF0C37BD465DF824
S315200042C0047B704780B483B000AF0346FB71FB7953
S315200042D003F01F03012202FA03F1064A97F9073079
S315200042E05B0942F8231000BF0C37BD465DF8047BFE
S315200042F0704700BF00E100E080B483B000AF034602
S315200043003960FB7197F90730002B0BDA3B68DAB27C
S315200043100C49FB7903F00F03043B1201D2B20B4484
S315200043201A7609E03B68DAB2074997F90730120195
S31520004330D2B20B4483F8002300BF0C37BD465DF88C
S31520004340047B704700ED00E000E100E080B586B018
S3152000435000AF786039607B6800229A617B689A6931
S315200043607B685A617B685A697B68DA6107F10C03BE
S31520004370184604F00FF80023BB740023FB740023B7
S315200043803B7500237B750023BB750023FB7500233B
S31520004390BB730023FB7302233B7403237B74072325
S315200043A0BB8107F10C031946124803F05FFE034652
S315200043B0002B02D11048FEF7D1F907F10C0319465C
S315200043C00E4803F053FE0346002B02D10C48FEF79D
S315200043D0C5F902211420FFF78FFF1420FFF772FF83
S315200043E001220221034804F013FC00BF1837BD4602
S315200043F080BD00BF00640040C0B4002000680040BB
S31520004400D8B40020B0B58AB002AF786039607B6836
S315200044109B685A49184604F019FC0346012B02D022
S315200044205748FEF79BF97B68DB69072B00F39F80D3
S315200044307B689B6807F108020021184604F0EEF914
S31520004440BB681B09DBB27A68526903F07F03D8B2D6
S31520004450796813469B0013445B0013440B442033B6
S3152000446002461A70BB68DBB27A68526903F00F0302
S31520004470D8B2796813469B0013445B0013440B445F
S31520004480213302461A70BB7C7A68526903F00F0307
S31520004490D8B2796813469B0013445B0013440B443F
S315200044A0223302461A700023FB7716E0FB7F7A68D8
S315200044B05269F97F07F12000034413F80D4C786800
S315200044C013469B0013445B00134403440B442333DD
S315200044D022461A70FB7F0133FB777B685A6979681D
S315200044E013469B0013445B0013440B4422331B7872
S315200044F0FA7F9A42DAD37B68DB68002B25D07B686B
S31520004500DC687B681D697B685A69796813469B005D
S3152000451013445B0013440B4420331B7819017B683A
S315200045205A69786813469B0013445B00134403447E
S3152000453021331B780B4400932B4622460021002072
S31520004540FEF748FD0F4B01221A607B685B69013339
S315200045505A4203F0070302F0070258BF53427A6813
S3152000456053617B68DB695A1C7B68DA6102E0064886
S31520004570FEF7F4F800BF2037BD46B0BD0300001299
S31520004580F0B4002034C2002018B5002090B484B0C6
S3152000459000AF786039607B68DB69002B55DD7B686E
S315200045A09A69796813469B0013445B0013440B44B5
S315200045B020331A783B681A707B689A6979681346A3
S315200045C09B0013445B0013440B4421331A783B6849
S315200045D05A707B689A69796813469B0013445B007E
S315200045E013440B4422331A783B689A700023FB73DA
S315200045F013E07B689A69F87BF97B7C6813469B00FD
S3152000460013445B0013442344034423331A783B6842
S315200046100B44DA70FB7B0133FB733B689B78FA7B98
S315200046209A42E6D37B689B6901335A4203F007031B
S3152000463002F0070258BF53427A6893617B68DB69B0
S315200046405A1E7B68DA61002300E0012318461037E2
S31520004650BD4690BC704780B58AB000AF786039609F
S315200046607B689B683B620023FB773B681B781B01BA
S315200046703A6852781344BB6000237B7400233B7452
S315200046803B689B78082B02D93B6808229A703B68C6
S315200046909B78BB74002387F8273010E097F82720F3
S315200046A097F8273039680A44D27807F128010B4455
S315200046B003F8152C97F82730013387F827303B6805
S315200046C09B7897F827209A42E8D307F108031946E2
S315200046D0386A03F023FF0346FB77FB7F042B04D1C4
S315200046E00448FEF73BF8012300E00023184628374C
S315200046F0BD4680BD38B5002080B584B000AF786057
S31520004700396000220F491048FEF702FDF8607B68E9
S3152000471088331846FEF7FAFDB8607B68D3F89430E4
S31520004720BA68D31A094A934208DDFB68002B05D1E3
S31520004730074B1A4607490848FEF7EAFC00BF103720
S31520004740BD4680BD2D19002038C100209F8601005E
S31520004750B0B600206B05002018BD0020B0B5BAB059
S3152000476000AF786039600023C7F8E4307B68DB6FE0
S31520004770022B0CDC7B68DA6F7B681C32396843F8C5
S3152000478022107B68DB6F5A1C7B68DA6715E07B6832
S315200047903A681A670023C7F8E0307B681B6FC7F8B2
S315200047A0E0307B685A6F7B681A677B689A6F7B68F4
S315200047B05A677B68D7F8E0209A677B68DB6F032B04
S315200047C040F0A1807B681A6F7B685B6FD31A504AD2
S315200047D09342C0F298807B681A6F7B685B6FD31A0E
S315200047E042F20F72934200F38E807B681A6F7B68C9
S315200047F09B6FD31A464A9342C0F285807B681A6F14
S315200048007B689B6FD31A42F20F7293427BDC7B68E4
S315200048109A6F7B685B6FD31A3D4A934273DB7B6842
S315200048209A6F7B685B6FD31A42F20F7293426ADCEF
S315200048307B681A6F7B685B6F1A447B689B6F134497
S31520004840344A82FB0312DB17D31AC7F8DC30D7F8B9
S31520004850DC30314A82FB03125213DB17D31A184677
S3152000486005F02AFA04460D46D7F8DC202A4B83FBAE
S3152000487002135913D317CB1A284901FB03F3D31A72
S31520004880274A82FB03125211DB17D31A07EE903AFE
S31520004890F8EEE77A17EE900A05F020FA4FF00002BC
S315200048A0204B05F09DFB02460B462046294605F087
S315200048B0B7F802460B461046194605F079FC034622
S315200048C0C7F8D830DFED186A97ED367AC6EE877AC4
S315200048D0FDEEE77A17EE903AC7F8D43007F10C00D0
S315200048E0D7F8D430114AC82105F03AFD07F10C0358
S315200048F01A460F490F48FEF70BFCD7F8D4200E496D
S315200049000E48FEF705FC00BFE837BD46B0BD00BF28
S31520004910F1D8FFFF5655555589B5F814A0860100E4
S315200049201F85EB5100408F4000007042CCB600201E
S315200049306B05002018BD00201D570020F8BC002064
S3152000494080B5C0B002AF786039607B68D3F8983004
S31520004950002B2BD17B6888331846FEF7D7FCC7F887
S31520004960D4007B68D3F89430D7F8D420D31AC7F86C
S31520004970D0307B68D7F8D020C3F89C207B68D7F846
S31520004980D420C3F894207B680122C3F89820012202
S315200049908A498B48FEF7BCFB00230093894B7A6833
S315200049A041F288318848FEF715FB04E17B6888339D
S315200049B01846FEF7ABFCC7F8F4007B68D3F89430B2
S315200049C0D7F8F420D31AC7F8F030D7F8F0307F4A5A
S315200049D0934269DC7B68D3F89C30C7F8F030D7F86F
S315200049E0F03042F20F7293420FDC794B1A46794926
S315200049F07948FEF78DFB7B680022C3F898200022B9
S31520004A006E496F48FEF784FBD5E0D7F8F030734A3D
S31520004A1082FB03125113DA178A1A6B4901FB02F241
S31520004A209A1A13469B0013445B00C7F8E030D7F868
S31520004A30F0206A4B83FB02135913D317CB1A624912
S31520004A4001FB03F3D31A664A82FB03125211DB17CA
S31520004A50D31AC7F8DC30D7F8F030604A82FB03124D
S31520004A605213DB17D31AC7F8D83007F10800D7F846
S31520004A70E0300193D7F8DC300093D7F8D830594A84
S31520004A80C82105F06DFCD7F8F0300093564B7A68B4
S31520004A9000210020FEF79EFA07F108031A464D4929
S31520004AA04D48FEF735FB7DE0D7F8F0304B4A82FBC8
S31520004AB003125113DA178A1A434901FB02F29A1A92
S31520004AC013469B0013445B00C7F8EC30D7F8F02060
S31520004AD0424B83FB02135913D317CB1A3A4901FBD6
S31520004AE003F3D31A3E4A82FB03125211DB17D31A61
S31520004AF0C7F8E830D7F8F030384A82FB0312521351
S31520004B00DB17D31AC7F8E43007F10800D7F8EC30E2
S31520004B100193D7F8E8300093D7F8E430334AC82118
S31520004B2005F01EFC07F108031A462A492A48FEF713
S31520004B30EFFAD7F8F0302E4A934208DD002300938F
S31520004B402C4B7A6800210020FEF744FA2AE0D7F899
S31520004B50F030294A934225DD284B1A461D491E4826
S31520004B60FEF7D6FA002226492648FEF7D1FA034652
S31520004B70002B17D1244B1A4616491748FEF7C8FAB8
S31520004B8000230093214B7A6800210020FEF722FAA9
S31520004B9078221F491F48FEF7BBFA00221E491D48EE
S31520004BA0FEF7B6FA7B680022C3F898200022034954
S31520004BB00348FEF7ADFAF837BD4680BD8D190020B3
S31520004BC038C10020F9460020A08601009F860100FA
S31520004BD0DCB600206B05002018BD002089B5F8142E
S31520004BE01F85EB51E8B600205D47002024B7002042
S31520004BF020A10700F13B0020400D030050B7002004
S31520004C002D3E0020FCBB002064B70020593B00202D
S31520004C101D570020F8BC0020D956002080B483B050
S31520004C2000AF786039607B680122C3F8A0207B68DA
S31520004C304FF0FF32C3F880207B684FF0FF32C3F875
S31520004C40A8207B680022C3F8A42000BF0C37BD46ED
S31520004C505DF8047B704780B586B002AF7860396016
S31520004C60002212491248FEF753FAF860FB68002B1F
S31520004C7018D17B68D3F8AC30002B13D07B68D3F8DF
S31520004C808030012B0ED10B4B1A460B490B48FEF7F1
S31520004C903FFA002300930A4B0A4A00210A48FEF7EE
S31520004CA099F900E000BF1037BD4680BD114F0020A6
S31520004CB0D0BC002088B700206B05002018BD00203E
S31520004CC0574C00201CBC002040420F0080B483B00B
S31520004CD000AF786039607B683A68C3F8802000BFEF
S31520004CE00C37BD465DF8047B704780B5A2B002AF95
S31520004CF07860396007F108031A4656495648FEF788
S31520004D0007FA3B7A632B02D83B7A132B1CD83B7AC3
S31520004D10772B19D0514B1A4651495248FEF7F8F9CC
S31520004D20514B1A464E494F48FEF7F2F93B7A07F1A6
S31520004D3014004E4A642105F013FB07F114031A46AA
S31520004D4047494848FEF7E4F93B7A642B08D907F12E
S31520004D5008030093464B474A00210020FEF73AF904
S31520004D603B7A322B0BD93B7A402B08D807F1080324
S31520004D700093414B414A00210020FEF72BF90023E6
S31520004D80FB6700223E493B48FEF7C2F9B867BB6F76
S31520004D90012B57D13B7A013B072B55D801A252F85C
S31520004DA023F000BFC54D0020D74D0020E94D00203F
S31520004DB0494E0020FB4D00200B4E00201F4E0020A8
S31520004DC02F4E0020012300932E4B2F4A0021002036
S31520004DD0FEF700F939E0002300932A4B2A4A0021E6
S31520004DE00020FEF7F7F830E000230093274B264AF1
S31520004DF000210020FEF7EEF827E0FB7AFB67FA6F2A
S31520004E0023492448FEF784F91FE0FB7AFB67FB6FF2
S31520004E105B421A461E491F48FEF77AF915E0FB7ACF
S31520004E20FB67FA6F1C491B48FEF772F90DE07822E2
S31520004E3019491848FEF76CF9002215491548FEF75E
S31520004E4067F902E000BF00E000BF00BF8037BD4623
S31520004E5080BD00BF8D4500204CC1002098B70020A2
S31520004E606B05002018BD0020D0B70020E4B7002035
S31520004E7029360020FCBB0020D106002094BB002050
S31520004E802D3E00209D4E0020D0BC0020654F0020E6
S31520004E90D9560020F8BC00201D57002080B483B0CE
S31520004EA000AF786039603B68012B09D17B681B69AC
S31520004EB0132B05DC7B681B695A1C7B681A610BE087
S31520004EC03B68002B08D17B681B69012B04DD7B68BE
S31520004ED01B695A1E7B681A6100BF0C37BD465DF8F8
S31520004EE0047B704780B483B000AF786039607B68FC
S31520004EF09B69002B03D17B6801229A6102E07B68C3
S31520004F0000229A6100BF0C37BD465DF8047B7047CE
S31520004F1080B483B000AF786039607B681B6918461F
S31520004F200C37BD465DF8047B704780B483B000AF74
S31520004F30786039603B68012B04D17B685A697B68AD
S31520004F401A6109E03B68002B06D17B681A697B68E9
S31520004F505A617B6800221A6100BF0C37BD465DF896
S31520004F60047B704780B584B002AF78607B681B698C
S31520004F70002B09D17B685A697B681A6100220E4989
S31520004F800E48FEF7C5F813E07B681A697B685A61FC
S31520004F907B6800221A6100230093094B094A0021ED
S31520004FA00020FEF717F8012203490448FEF7B0F85F
S31520004FB000BF0837BD4680BD4D19002038C10020EE
S31520004FC0574C00201CBC002080B483B000AF786012
S31520004FD039607B680122DA6100BF0C37BD465DF877
S31520004FE0047B704780B483B000AF786039607B68FB
S31520004FF05B6A18460C37BD465DF8047B704780B562
S315200050009EB002AF786039607B681B6AFB66154BE1
S315200050101B78DBB21A467B681B699A4203D1114B77
S3152000502000221A7004E07B681A690E4BD2B21A70FD
S315200050307B68DB69002B11D17B685B6A012B0DD164
S31520005040FB6E094A82FB03129210DB17D01A3B68CB
S315200050500093064B7A680021FDF7BCFF7037BD46EA
S3152000506080BD00BF1C74004067666666FF4F002047
S3152000507080B584B002AF786039607B68DB68002B2E
S315200050800CBF01230023DBB21A467B68DA607B68FB
S31520005090DB69002B03D17B685B6A002B03D1224B93
S315200050A000221A700CE07B68DB68002B05D07B6839
S315200050B01A691D4BD2B21A7002E01B4B00221A70DD
S315200050C07B689B68002B2AD07B689B69002B16D0B7
S315200050D07B681B6A154A82FB03129210DB17D01AD3
S315200050E07B681B6A114A82FB03129210DB17D11AC6
S315200050F0002300930E4B7A68FDF76CFF10E07B6867
S315200051001B6A0A4A82FB03129210DB17D01A00236D
S315200051100093074B7A680021FDF75CFF00E000BF93
S315200051200837BD4680BD00BF1C74004067666666B2
S315200051307150002080B483B000AF786039607B68FE
S315200051403A681A6200BF0C37BD465DF8047B70478B
S3152000515080B483B000AF786039607B680022DA6162
S3152000516000BF0C37BD465DF8047B704780B483B022
S3152000517000AF786039607B683A685A6200BF0C37A6
S31520005180BD465DF8047B704780B483B000AF78607D
S3152000519039607B683A681A6100BF0C37BD465DF8F6
S315200051A0047B704780B483B000AF786039607B6839
S315200051B01B6918460C37BD465DF8047B704780B5E1
S315200051C086B002AF786039607B685B693A689A423C
S315200051D03CD100221F492048FDF79AFF7B685B6976
S315200051E007EE903AB8EEE77ADFED1C6AC6EE877ACC
S315200051F0C7ED037A00221A491A48FDF789FF0346AC
S31520005200002B24D1D7ED037A9FED177A67EE877AA4
S315200052109FED167A67EE877AFDEEE76AD7ED037A79
S315200052209FED137A67EE877A9FED107A67EE877A7D
S31520005230FDEEE77A7B685B6900930E4B7A6817EE82
S31520005240901A16EE900AFDF7C5FE00E000BF103753
S31520005250BD4680BD6F19002038C100200000704275
S315200052602D3E0020FCBB00200000FA430000C8426F
S3152000527000007A43BF51002080B586B000AF786029
S315200052803960002230493148FDF742FF786100221B
S315200052902F492E48FDF73CFF386100222D492B4827
S315200052A0FDF736FFF8607B6800225A627B69032B84
S315200052B043D801A252F823F03B530020C9520020C4
S315200052C0D1520020195300207B6801225A6234E013
S315200052D03B6803F00103002B0ED1FB68002B03D0A3
S315200052E0FB68012B04D028E07B6801225A6212E079
S315200052F07B6800225A620EE0FB68002B03D0FB6815
S31520005300012B04D019E07B6800225A6203E07B68F7
S3152000531001225A6200BF10E039680F4B83FB01322D
S31520005320CB17D21A13465B001344CA1A3B69934221
S3152000533002D17B6801225A6200BF7B685B6A1846ED
S315200053401837BD4680BD00BF233A0020FCBB002095
S31520005350EF3900202D3E00205655555580B5A4B076
S3152000536002AF78603960002283498448FDF7D0FE79
S31520005370C7F88400D7F88430002B08D17B681B69D6
S3152000538000937F4B7F4A00210020FDF723FE7B6898
S315200053901B691A467C497D48FDF7BAFEC7F880008E
S315200053A0D7F88430052B00F0E080D7F88430062B20
S315200053B000F0DB807B68DB680A33FB677B681B6950
S315200053C0734A52F82320FB6F1344724A9B001344FE
S315200053D0D3ED007A9FED707A67EE877AFDEEE77A55
S315200053E017EE903ABB67BB6F00936C4B674A002160
S315200053F00020FDF7EFFD7B681B69694A52F82330D0
S315200054007B677B685B6907EE903AB8EEE77ADFED5B
S31520005410656AC6EE877AC7ED1C7A7B685B693A684F
S315200054209A4230D07B681B690F2B0BD07B681B6997
S31520005430112B07D07B681B69152B03D07B681B6952
S31520005440172B05D1012258495848FDF761FE04E083
S31520005450002255495548FDF75BFED7ED1C7A9FED96
S31520005460547A67EE877A9FED537A67EE877AFDEE58
S31520005470E77A7B685B6900934F4B504A002117EE11
S31520005480900AFDF7A7FD002300934D4B3F4A0021CC
S315200054900020FDF79FFD002300934A4B3B4A002145
S315200054A00020FDF797FD7B6F4FF4FA7202FB03F3A2
S315200054B007EE903AB8EEE77AD7ED1C7A67EE277AB0
S315200054C09FED417A77EEC77A9FED3A7A67EE877A33
S315200054D0FDEEE77A002300933C4B2C4A41F28831BB
S315200054E017EE900AFDF776FDD7F88430002B3ED1D3
S315200054F07B681B6901335A4203F01F0302F01F0227
