S01600002E2F44656275672F5254532D4C61622E73313936
S3152000000000BFDFF814D007F048FE02F007FA07F029
S3152000001056BEFEE700BF000000C0012080B500AF3D
S3152000002001214FF4804000F077FE00214FF48040FC
S3152000003000F072FE00BF80BD80B483B000AF0346DF
S31520000040FB71044AFB79136000BF0C37BD465DF88F
S31520000050047B70470038014080B483B000AF03466C
S31520000060FB71044AFB79136000BF0C37BD465DF86F
S31520000070047B70472000274280B485B000AF03463A
S315200000800A46FB711346BB710023FB60BB7903F064
S3152000009003039B000F2202FA03F3FB60164ABB7987
S315200000A09B08DBB2023352F82320FB68DB4312485D
S315200000B0B9798908C9B21A408B1C40F823200E4A08
S315200000C0BB799B08DBB2023352F82320F979BB793E
S315200000D003F003039B0001FA03F30748B979890863
S315200000E0C9B21A438B1C40F8232000BF1437BD46E3
S315200000F05DF8047B704700BF0038014080B483B0B0
S3152000010000AF7860044A7B68136000BF0C37BD4699
S315200001105DF8047B704700BFDC00274280B483B0C3
S3152000012000AF0346FB71044AFB79136000BF0C370E
S31520000130BD465DF8047B70470004274280B483B037
S3152000014000AF0023FB71094B1B6A03F48073002B5D
S3152000015002D00123FB7101E00023FB71FB791846D5
S315200001600C37BD465DF8047B704700BF0038014060
S3152000017080B483B000AF0346FB71FB7903F01F0305
S31520000180012202FA03F1064A97F907305B0942F881
S31520000190231000BF0C37BD465DF8047B704700BFB7
S315200001A000E100E080B483B000AF03463960FB7104
S315200001B097F90730002B0BDA3B68DAB20C49FB794A
S315200001C003F00F03043B1201D2B20B441A7609E066
S315200001D03B68DAB2074997F907301201D2B20B44CD
S315200001E083F8002300BF0C37BD465DF8047B7047BB
S315200001F000ED00E000E100E080B582B000AF78605D
S31520000200396000220121074802F01BFB022117203A
S31520000210FFF7C8FF1720FFF7ABFF00BF0837BD4623
S3152000022080BD00BF0004024080B582B000AF786078
S3152000023039607B689B688021184602F096FA03464F
S3152000024018460837BD4680BD80B582B000AF7860BD
S3152000025039607B689B683A68D2B20121184602F061
S31520000260F0FA00BF0837BD4680BD80B582B000AF2A
S31520000270786039607B689B680121184602F008FB8C
S3152000028000BF0837BD4680BD80B584B000AF78601A
S31520000290396007F10803184607F00AFB8023BB6084
S315200002A000233B733B68002B01D0082300E00C237E
S315200002B07B730123BB7307F10803184607F086FA00
S315200002C000BF1037BD4680BD80B584B002AF7860D0
S315200002D03960802007F03EFB0346012B14D1802095
S315200002E007F052FB7B68DB68002B10D07B68DA684E
S315200002F07B681B69002100910021002006F022FF67
S31520000300054B01221A6002E0044806F0DFFA0023BA
S3152000031018460837BD4680BD649E002018920020EE
S3152000032080B400AF164B1B68154A43F001031360D7
S31520000330134B00229A60124B1B68114A23F0A853D4
S3152000034023F4102313600E4B0E4A5A600C4B0E4AB0
S31520000350C3F884200A4B0D4AC3F88820084B1B6833
S31520000360074A23F480231360054B0022DA60044BEE
S315200003700022C3F88C2000BFBD465DF8047B704781
S3152000038000380240103000240030002000300024C5
S3152000039080B483B000AF0346FB71064B00221A706F
S315200003A0044AFB79137000BF0C37BD465DF8047B09
S315200003B0704700BF0238024080B582B000AF0023EC
S315200003C03B600023FB710023BB71312000F08AFDC6
S315200003D00346BB713B6801333B603B68B3F5A04FD6
S315200003E002D0BB79002BF0D0312000F07BFD0346F4
S315200003F0002B02D00123FB7101E00023FB71FB7966
S3152000040018460837BD4680BD80B485B000AF034688
S31520000410FB710023FB600A4B1B68FB60FB6823F023
S31520000420F803FB60FB79DB00FA681343FB60044AA0
S31520000430FB68136000BF1437BD465DF8047B704728
S315200004400038024080B483B000AF0346FB71044AF3
S31520000450FB79136000BF0C37BD465DF8047B7047FF
S315200004600000474280B483B000AF0346FB710D4BBA
S3152000047000221A700B4B00221A70FB79012B02D036
S31520000480042B04D007E0074B01221A7003E0054B2A
S3152000049005221A7000BF00BF0C37BD465DF8047BED
S315200004A0704700BF7038024080B483B000AF034667
S315200004B0FB71044AFB79136000BF0C37BD465DF81B
S315200004C0047B7047800E474280B485B000AFF86049
S315200004D0B9607A603B607B689A01BB681A433B68C7
S315200004E05B08013B1B041A43FB681A43BB691B06C6
S315200004F0044913434B6000BF1437BD465DF8047BA7
S31520000500704700BF0038024080B483B000AF034676
S31520000510FB71044AFB79136000BF0C37BD465DF8BA
S31520000520047B70476000474280B483B000AF786098
S3152000053039607B689A013B681B0705491343C1F85C
S31520000540843000BF0C37BD465DF8047B704700BF82
S315200005500038024080B483B000AF0346FB71044AE2
S31520000560FB79136000BF0C37BD465DF8047B7047EE
S315200005706800474280B485B000AFF860B9607A6001
S31520000580FB689A01BB681B061A437B681B07054953
S315200005901343C1F8883000BF1437BD465DF8047B8D
S315200005A0704700BF0038024080B483B000AF0346D6
S315200005B0FB71044AFB79136000BF0C37BD465DF81A
S315200005C0047B70477000474280B483B000AF034677
S315200005D0FB71044AFB79136000BF0C37BD465DF8FA
S315200005E0047B70474C00474280B485B000AF7860EA
S315200005F039600023FB600B4B9B68FB60FB6823F094
S31520000600EC63FB607A683B681343FA681343FB602C
S31520000610044AFB68936000BF1437BD465DF8047B2F
S31520000620704700BF0038024080B485B000AF7860C4
S3152000063039600023FB600B4B9B68FB60FB6823F053
S315200006407843FB607A683B681343FA681343FB6080
S31520000650044AFB68936000BF1437BD465DF8047BEF
S31520000660704700BF0038024080B485B000AF786084
S315200006700023FB60094B9B68FB60FB6823F00303A8
S31520000680FB60FA687B681343FB60044AFB6893604F
S3152000069000BF1437BD465DF8047B70470038024022
S315200006A080B400AF054B9B68DBB203F00C03DBB2D2
S315200006B01846BD465DF8047B704700BF00380240EF
S315200006C080B485B000AF78600023FB60094B9B683F
S315200006D0FB60FB6823F0F003FB60FA687B6813433A
S315200006E0FB60044AFB68936000BF1437BD465DF883
S315200006F0047B70470038024080B485B000AF786034
S315200007000023FB60094B9B68FB60FB6823F4E053E6
S31520000710FB60FA687B681343FB60044AFB689360BE
S3152000072000BF1437BD465DF8047B70470038024091
S3152000073080B485B000AF78600023FB600A4B9B68CD
S31520000740FB60FB6823F46043FB607B68DB00FA6890
S315200007501343FB60044AFB68936000BF1437BD4611
S315200007605DF8047B704700BF0038024080B489B032
S3152000077000AF78600023BB6100237B610023FB610F
S3152000078002233B610023FB600223BB604A4B9B682C
S3152000079003F00C03BB61BB69082B11D0BB69082B86
S315200007A044D8BB69002B03D0BB69042B04D03DE0A1
S315200007B07B68424A1A603DE07B68414A1A6039E00C
S315200007C03D4B5B689B0D03F00103FB603A4B5B6876
S315200007D003F03F03BB60FB68002B0CD0384ABB6894
S315200007E0B2FBF3F3344A52689209C2F3080202FBC1
S315200007F003F3FB610BE0314ABB68B2FBF3F32E4AED
S3152000080052689209C2F3080202FB03F3FB612A4BEA
S315200008105B681B0C03F0030301335B003B61FA6941
S315200008203B69B2FBF3F27B681A6003E07B68234ADC
S315200008301A6000BF204B9B6803F0F003BB61BB69C5
S315200008401B09BB611F4ABB6913441B78DBB27B6162
S315200008507B681A687B69DA407B685A60164B9B680E
S3152000086003F4E053BB61BB699B0ABB61154ABB69B4
S3152000087013441B78DBB27B617B685A687B69DA405C
S315200008807B689A600C4B9B6803F46043BB61BB6931
S315200008905B0BBB610B4ABB6913441B78DBB27B61E4
S315200008A07B685A687B69DA407B68DA6000BF243748
S315200008B0BD465DF8047B7047003802400024F400F2
S315200008C000127A003097002080B485B000AF78609F
S315200008D00023FB607B6803F44073B3F5407F11D19E
S315200008E00F4B9B68FB60FB6823F4F813FB607B6867
S315200008F023F0704323F44073FA681343FB60084ADD
S31520000900FB689360064B1A6F7B68C3F30B0304499D
S3152000091013430B6700BF1437BD465DF8047B704751
S315200009200038024080B483B000AF0346FB71044A0E
S31520000930FB79136000BF0C37BD465DF8047B70471A
S315200009403C0E474280B483B000AF0346FB71044A95
S31520000950FB79136000BF0C37BD465DF8047B7047FA
S31520000960400E474280B483B000AF7860044A7B686B
S31520000970136000BF0C37BD465DF8047B704700BF8F
S315200009805C01474280B485B000AF78600023FB60ED
S315200009900B4BD3F88C30FB60FB6823F01F03FB6006
S315200009A07B68013BFA681343FB60054AFB68C2F883
S315200009B08C3000BF1437BD465DF8047B704700BFFE
S315200009C00038024080B485B000AF78600023FB6019
S315200009D00B4BD3F88C30FB60FB6823F4F853FB6099
S315200009E07B68013B1B02FA681343FB60044AFB68E1
S315200009F0C2F88C3000BF1437BD465DF8047B7047C3
S31520000A000038024080B485B000AF78600023FB60D8
S31520000A100A4BD3F88C30FB60FB6823F44013FB6051
S31520000A20FA687B681343FB60044AFB68C2F88C3083
S31520000A3000BF1437BD465DF8047B7047003802407E
S31520000A4080B485B000AF78600023FB600A4BD3F8F2
S31520000A508C30FB60FB6823F44003FB60FA687B68FC
S31520000A601343FB60044AFB68C2F88C3000BF14377E
S31520000A70BD465DF8047B70470038024080B485B0DF
S31520000A8000AF78600023FB600A4BD3F88C30FB6004
S31520000A90FB6823F44033FB60FA687B681343FB60F2
S31520000AA0044AFB68C2F88C3000BF1437BD465DF897
S31520000AB0047B70470038024080B483B000AF786072
S31520000AC0044A7B68136000BF0C37BD465DF8047B83
S31520000AD0704700BFE011474280B483B000AF786012
S31520000AE00B46FB70FB78002B06D00A4B1A6B094984
S31520000AF07B6813430B6306E0064B1A6B7B68DB436C
S31520000B00044913400B6300BF0C37BD465DF8047BD8
S31520000B10704700BF0038024080B483B000AF7860D1
S31520000B200B46FB70FB78002B06D00A4B5A6B094903
S31520000B307B6813434B6306E0064B5A6B7B68DB43AB
S31520000B40044913404B6300BF0C37BD465DF8047B58
S31520000B50704700BF0038024080B483B000AF786091
S31520000B600B46FB70FB78002B06D00A4B9A6B094983
S31520000B707B6813438B6306E0064B9A6B7B68DB43EB
S31520000B80044913408B6300BF0C37BD465DF8047BD8
S31520000B90704700BF0038024080B483B000AF786051
S31520000BA00B46FB70FB78002B06D00A4B1A6C0949C2
S31520000BB07B6813430B6406E0064B1A6C7B68DB43A9
S31520000BC0044913400B6400BF0C37BD465DF8047B17
S31520000BD0704700BF0038024080B483B000AF786011
S31520000BE00B46FB70FB78002B06D00A4B5A6C094942
S31520000BF07B6813434B6406E0064B5A6C7B68DB43E9
S31520000C00044913404B6400BF0C37BD465DF8047B96
S31520000C10704700BF0038024080B483B000AF7860D0
S31520000C200B46FB70FB78002B06D00A4B1A69094944
S31520000C307B6813430B6106E0064B1A697B68DB432E
S31520000C40044913400B6100BF0C37BD465DF8047B99
S31520000C50704700BF0038024080B483B000AF786090
S31520000C600B46FB70FB78002B06D00A4B5A690949C4
S31520000C707B6813434B6106E0064B5A697B68DB436E
S31520000C80044913404B6100BF0C37BD465DF8047B19
S31520000C90704700BF0038024080B483B000AF786050
S31520000CA00B46FB70FB78002B06D00A4B9A69094944
S31520000CB07B6813438B6106E0064B9A697B68DB43AE
S31520000CC0044913408B6100BF0C37BD465DF8047B99
S31520000CD0704700BF0038024080B483B000AF786010
S31520000CE00B46FB70FB78002B06D00A4B1A6A094983
S31520000CF07B6813430B6206E0064B1A6A7B68DB436C
S31520000D00044913400B6200BF0C37BD465DF8047BD7
S31520000D10704700BF0038024080B483B000AF7860CF
S31520000D200B46FB70FB78002B06D00A4B5A6A094902
S31520000D307B6813434B6206E0064B5A6A7B68DB43AB
S31520000D40044913404B6200BF0C37BD465DF8047B57
S31520000D50704700BF0038024080B483B000AF78608F
S31520000D600B46FB70FB78002B06D00A4B1A6D0949FF
S31520000D707B6813430B6506E0064B1A6D7B68DB43E5
S31520000D80044913400B6500BF0C37BD465DF8047B54
S31520000D90704700BF0038024080B483B000AF78604F
S31520000DA00B46FB70FB78002B06D00A4B5A6D09497F
S31520000DB07B6813434B6506E0064B5A6D7B68DB4325
S31520000DC0044913404B6500BF0C37BD465DF8047BD4
S31520000DD0704700BF0038024080B483B000AF78600F
S31520000DE00B46FB70FB78002B06D00A4B9A6D0949FF
S31520000DF07B6813438B6506E0064B9A6D7B68DB4365
S31520000E00044913408B6500BF0C37BD465DF8047B53
S31520000E10704700BF0038024080B483B000AF7860CE
S31520000E200B46FB70FB78002B06D00A4B1A6E09493D
S31520000E307B6813430B6606E0064B1A6E7B68DB4322
S31520000E40044913400B6600BF0C37BD465DF8047B92
S31520000E50704700BF0038024080B483B000AF78608E
S31520000E600B46FB70FB78002B06D00A4B5A6E0949BD
S31520000E707B6813434B6606E0064B5A6E7B68DB4362
S31520000E80044913404B6600BF0C37BD465DF8047B12
S31520000E90704700BF0038024080B483B000AF0346DD
S31520000EA00A46FB711346BB71BB79002B08D00C4B4D
S31520000EB01B78DAB20A49FB791343DBB20B7009E0DF
S31520000EC0074B1B78DAB2FB79DB43DBB204491340CC
S31520000ED0DBB20B7000BF0C37BD465DF8047B704754
S31520000EE00D38024080B487B000AF0346FB71002363
S31520000EF0FB6000237B610023FB74FB795B09DBB27B
S31520000F00FB60FB68012B03D1124B1B687B6109E058
S31520000F10FB68022B03D10F4B1B6F7B6102E00D4B4D
S31520000F205B6F7B61FB7903F01F03FB607A69FB68CB
S31520000F3022FA03F303F00103002B02D00123FB74F2
S31520000F4001E00023FB74FB7C18461C37BD465DF888
S31520000F50047B70470038024080B400AF054B5B6FBE
S31520000F60044A43F08073536700BFBD465DF8047B97
S31520000F70704700BF0038024080B485B000AF0346FA
S31520000F80FB710023FB73094BDA68FB791340002BB6
S31520000F9002D00123FB7301E00023FB73FB7B184681
S31520000FA01437BD465DF8047B704700BF0038024009
S31520000FB080B483B000AF0346FB71044AFB791370FB
S31520000FC000BF0C37BD465DF8047B70470E380240E3
S31520000FD080B500AF01214FF00050FFF77DFE0021C4
S31520000FE04FF00050FFF778FE00BF80BD80B485B07B
S31520000FF000AF786039600023FB600023BB60144B90
S315200010001B68FB6040F6FE727B6802FA03F3DB4343
S31520001010FA681340FB603B681A683B685B681A43B2
S315200010203B689B681A433B68DB681343BB60BA681E
S315200010307B6802FA03F3FA681343FB60044AFB68F1
S31520001040136000BF1437BD465DF8047B704700BFB0
S315200010500074004080B483B000AF78607B680022C3
S315200010601A607B6800225A607B6800229A607B683F
S315200010700022DA6000BF0C37BD465DF8047B70475E
S3152000108080B483B000AF78600B46FB70FB78002BF2
S3152000109009D00D4B1A6801217B6801FA03F30A492E
S315200010A013430B6009E0084B1A6801217B6801FA9B
S315200010B003F3DB43044913400B6000BF0C37BD46E6
S315200010C05DF8047B704700BF0074004080B483B095
S315200010D000AF78600B46FB70FB78002B0AD00E4BD6
S315200010E05A687B681B09012101FA03F30A49134355
S315200010F04B600AE0084B5A687B681B09012101FAFC
S3152000110003F3DB43044913404B6000BF0C37BD4655
S315200011105DF8047B704700BF0074004080B483B044
S3152000112000AF0346FB71FB79002B06D0094B5B68A9
S31520001130084A43F00303536005E0064B5B68054A03
S3152000114023F00303536000BF0C37BD465DF8047BD4
S31520001150704700BF0074004080B485B000AFF860CF
S31520001160B9601346FB71FB79002B09D00C4B1A682A
S31520001170B968FB6801FA03F3094913430B6009E0D8
S31520001180074B1A68B968FB6801FA03F3DB43044985
S3152000119013400B6000BF1437BD465DF8047B7047D3
S315200011A00074004080B485B000AF78600B467B8029
S315200011B00023FB60084BFB60FA687B681344083306
S315200011C0FB60FB681A467B88136000BF1437BD4658
S315200011D05DF8047B704700BF0074004080B485B082
S315200011E000AF78600B467B800023FB60084BFB60DA
S315200011F0FA687B6813441433FB60FB681A467B88C5
S31520001200136000BF1437BD465DF8047B704700BFEE
S315200012100074004080B485B000AF78600B467B80B8
S3152000122013463B800023FB600023BB607B68082BB2
S3152000123005D17B881A023B881343FB6004E07B8838
S315200012401A043B881343FB60074BBB607A68BB6874
S3152000125013442033BB60BB68FA681A6000BF14379A
S31520001260BD465DF8047B70470074004080B485B0AD
S3152000127000AF78600023FB60084BFB607B689A0810
S31520001280FB6813442C33FB60FB681B689BB2184633
S315200012901437BD465DF8047B704700BF00740040DC
S315200012A080B483B000AF78600B46FB70FB78002BD0
S315200012B00AD00E4B1A684FF480517B6801FA03F36B
S315200012C00A4913430B600AE0084B1A684FF4805111
S315200012D07B6801FA03F3DB43044913400B6000BF2C
S315200012E00C37BD465DF8047B704700BF0074004094
S315200012F080B485B000AFF860B9601346FB71FB7906
S31520001300002B09D00C4B1A68B968FB6801FA03F365
S31520001310094913430B6009E0074B1A68B968FB6853
S3152000132001FA03F3DB43044913400B6000BF143773
S31520001330BD465DF8047B70470074004080B485B0DC
S3152000134000AF786039600023FB730A4B5A6B39680B
S315200013507B6801FA03F31340002B02D00123FB73B1
S3152000136001E00023FB73FB7B18461437BD465DF86E
S31520001370047B70470074004080B483B000AF78606F
S31520001380396006493A687B6802FA03F34B6300BF6B
S315200013900C37BD465DF8047B704700BF00740040E3
S315200013A080B485B000AF786039600023FB730023DA
S315200013B0BB60104B1A6839687B6801FA03F3134047
S315200013C0BB600C4B5A6B39687B6801FA03F31340F8
S315200013D0002B05D0BB68002B02D00123FB7301E054
S315200013E00023FB73FB7B18461437BD465DF8047B50
S315200013F0704700BF0074004080B483B000AF7860AF
S31520001400396006493A687B6802FA03F34B6300BFEA
S315200014100C37BD465DF8047B704700BF0074004062
S3152000142080B584B000AF7860396000220F4910483B
S3152000143005F026FFF8607B688833184606F01EF80C
S31520001440B8607B68D3F89430BA68D31A094A9342B5
S3152000145008DDFB68002B05D1074B1A4607490848CB
S3152000146005F00EFF00BF1037BD4680BD29020020C3
S31520001470C09C00209F860100A0930020B761002019
S31520001480A0980020B0B5BAB000AF786039600023CC
S31520001490C7F8E4307B68DB6F022B0CDC7B68DA6FE5
S315200014A07B681C32396843F822107B68DB6F5A1C34
S315200014B07B68DA6715E07B683A681A670023C7F805
S315200014C0E0307B681B6FC7F8E0307B685A6F7B681B
S315200014D01A677B689A6F7B685A677B68D7F8E02023
S315200014E09A677B68DB6F032B40F0A1807B681A6FBD
S315200014F07B685B6FD31A504A9342C0F298807B6810
S315200015001A6F7B685B6FD31A42F20F72934200F315
S315200015108E807B681A6F7B689B6FD31A464A9342EC
S31520001520C0F285807B681A6F7B689B6FD31A42F264
S315200015300F7293427BDC7B689A6F7B685B6FD31A52
S315200015403D4A934273DB7B689A6F7B685B6FD31A45
S3152000155042F20F7293426ADC7B681A6F7B685B6F7C
S315200015601A447B689B6F1344344A82FB0312DB17B1
S31520001570D31AC7F8DC30D7F8DC30314A82FB0312A5
S315200015805213DB17D31A184606F0F6FC04460D460E
S31520001590D7F8DC202A4B83FB02135913D317CB1A17
S315200015A0284901FB03F3D31A274A82FB031252115F
S315200015B0DB17D31A07EE903AF8EEE77A17EE900A81
S315200015C006F0ECFC4FF00002204B06F069FE0246C6
S315200015D00B462046294606F083FB02460B4610465C
S315200015E0194606F045FF0346C7F8D830DFED186ADE
S315200015F097ED367AC6EE877AFDEEE77A17EE903AC1
S31520001600C7F8D43007F10C00D7F8D430114AC821D6
S3152000161007F006F807F10C031A460F490F4805F0A4
S315200016202FFED7F8D4200E490E4805F029FE00BF1C
S31520001630E837BD46B0BD00BFF1D8FFFF565555551A
S3152000164089B5F814A08601001F85EB5100408F4014
S3152000165000007042BC930020B7610020A0980020B3
S31520001660811F00208498002080B5C2B002AF786028
S315200016703B4619607B68D3F89830002B2BD17B68CA
S315200016808833184605F0FAFEC7F8D8007B68D3F8E9
S315200016909430D7F8D820D31AC7F8D4307B68D7F837
S315200016A0D420C3F89C207B68D7F8D820C3F8942090
S315200016B07B680122C3F8982001227949794805F0F0
S315200016C0DFFD00230093784B7A6841F28831774812
S315200016D005F038FDDFE07B688833184605F0CEFE3E
S315200016E0C7F8FC007B68D3F89430D7F8FC20D31ACF
S315200016F0C7F8F830D7F8F8306D4A934269DC7B6832
S31520001700D3F89C30C7F8F830D7F8F83042F20F7289
S3152000171093420FDC674B1A466749684805F0B0FDCF
S315200017207B680022C3F8982000225D495D4805F0B9
S31520001730A7FDB0E0D7F8F830614A82FB03125113B7
S31520001740DA178A1A594901FB02F29A1A13469B00A4
S3152000175013445B00C7F8E430D7F8F820584B83FBD6
S3152000176002135913D317CB1A504901FB03F3D31A8B
S31520001770544A82FB03125211DB17D31AC7F8E03002
S31520001780D7F8F8304E4A82FB03125213DB17D31ACE
S31520001790C7F8DC3007F10C00D7F8E4300193D7F80E
S315200017A0E0300093D7F8DC30474AC82106F038FFEE
S315200017B0D7F8F8300093454B7A680021002005F0D1
S315200017C0C1FC07F10C031A463B493C4805F058FD7D
S315200017D058E0D7F8F8303A4A82FB03125113DA1749
S315200017E08A1A324901FB02F29A1A13469B001344C5
S315200017F05B00C7F8F430D7F8F820314B83FB02138F
S315200018005913D317CB1A294901FB03F3D31A2D4AAF
S3152000181082FB03125211DB17D31AC7F8F030D7F820
S31520001820F830274A82FB03125213DB17D31AC7F864
S31520001830EC3007F10C00D7F8F4300193D7F8F030EC
S315200018400093D7F8EC30224AC82106F0E9FE07F1CA
S315200018500C031A461849194805F012FDD7F8F83036
S315200018601C4A93420EDD1C4B1A461349134805F0B9
S3152000187007FD7823C7F8E830D7F8E8201749184835
S3152000188005F0FEFC7B680022C3F89820002204495C
S31520001890044805F0F5FC07F58077BD4680BD00BFFE
S315200018A089020020C09C002021140020A08601006F
S315200018B09F860100CC930020B7610020A0980020CD
S315200018C089B5F8141F85EB51D89300208514002084
S315200018D014940020400D030040940020811F002016
S315200018E08498002080B588B002AF7860396007F10F
S315200018F008031A463E493F4805F0C2FC3E4B1A46AD
S315200019003E493F4805F0BCFC07F1080303331A465D
S315200019103A493B4805F0B4FC3A4B1A463749384811
S3152000192005F0AEFC00237B617B68D3F88030002B6A
S3152000193058D03B7A013B052B55D801A252F823F00B
S31520001940591900206B1900207D1900208F190020BD
S31520001950A5190020CB190020012300932A4B2B4ADE
S315200019600021002005F0EEFB3DE000230093264BEE
S31520001970264A0021002005F0E5FB34E000230093F1
S31520001980234B224A0021002005F0DCFB2BE000221D
S3152000199020491E4805F074FC00221F491F4805F007
S315200019A06FFC20E007F108030333184606F000FE1B
S315200019B078617B7A012B02D17B695B427B617A69F4
S315200019C01749164805F05CFC0DE007F108030333C0
S315200019D0184606F0EDFD78617A6912490F4805F040
S315200019E04FFC00E000BF00BF1837BD4680BD00BFDA
S315200019F0E5650020D49C002054940020B761002087
S31520001A00A098002068940020291A002060980020C1
S31520001A109D1A0020591E0020E51E002084980020D3
S31520001A203D1F0020811F002080B483B000AF786066
S31520001A3039603B68012B09D17B681B69132B05DCB8
S31520001A407B681B695A1C7B681A610BE03B68002B7C
S31520001A5008D17B681B69012B04DD7B681B695A1E34
S31520001A607B681A6100BF0C37BD465DF8047B704762
S31520001A7080B483B000AF786039607B689B69002BA7
S31520001A8003D17B6801229A6102E07B6800229A6179
S31520001A9000BF0C37BD465DF8047B704780B483B029
S31520001AA000AF78607B681B69002B04D17B685A697C
S31520001AB07B681A6106E07B681A697B685A617B68D5
S31520001AC000221A6100BF0C37BD465DF8047B7047C3
S31520001AD080B483B000AF786039607B680122DA6118
S31520001AE000BF0C37BD465DF8047B704780B584B0D7
S31520001AF002AF786039607B68DB68002B0CBF01235E
S31520001B000023DBB21A467B68DA607B68DB69002B30
S31520001B1003D0224B00221A700CE07B68DB68002B76
S31520001B2005D07B681A691D4BD2B21A7002E01B4B96
S31520001B3000221A707B689B68002B2AD07B689B69E1
S31520001B40002B16D07B681B6A154A82FB0312921063
S31520001B50DB17D01A7B681B6A114A82FB031292108C
S31520001B60DB17D11A002300930E4B7A6805F0EAFAA8
S31520001B7010E07B681B6A0A4A82FB03129210DB176D
S31520001B80D01A00230093074B7A68002105F0DAFA71
S31520001B9000E000BF0837BD4680BD00BF1C74004072
S31520001BA067666666ED1A002080B483B000AF786061
S31520001BB039607B683A681A6200BF0C37BD465DF80B
S31520001BC0047B704780B483B000AF786039607B684F
S31520001BD00022DA6100BF0C37BD465DF8047B7047F2
S31520001BE080B586B002AF786039607B689B68002B31
S31520001BF039D07B685B693A689A4234D100221C4905
S31520001C001C4805F03DFB7B685B6907EE903AB8EE11
S31520001C10E77ADFED196AC6EE877AC7ED037AD7ED44
S31520001C20037A9FED167A67EE877A9FED157A67EE2F
S31520001C30877AFDEEE76AD7ED037A9FED127A67EE93
S31520001C40877A9FED0F7A67EE877AFDEEE77A7B68D3
S31520001C505B6900930C4B7A6817EE901A16EE900A81
S31520001C6005F070FA00E000BF1037BD4680BD00BF0A
S31520001C706B020020C09C0020000070420000FA4346
S31520001C800000C84200007A43E11B002080B588B0DE
S31520001C9002AF786039607B689B68002B00F0B680C5
S31520001CA000225C495C4805F0EBFA7B68DB680A3366
S31520001CB07B617B681B69594A52F823207B69134450
S31520001CC0574A9B001344D3ED007A9FED567A67EE70
S31520001CD0877AFDEEE77A17EE903A3B613A695249E8
S31520001CE04D4805F0CDFA7B681B69504A52F82330DF
S31520001CF0FB607B685B6907EE903AB8EEE77ADFED2A
S31520001D004C6AC6EE877AC7ED027A7B685B693A68C9
S31520001D109A4230D07B681B690F2B0BD07B681B69DE
S31520001D20112B07D07B681B69152B03D07B681B6999
S31520001D30172B05D101223F493F4805F0A1FA04E0BF
S31520001D4000223C493C4805F09BFAD7ED027A9FEDEC
S31520001D503B7A67EE877A9FED3A7A67EE877AFDEED1
S31520001D60E77A7B685B690093364B374A002117EE8A
S31520001D70900A05F0E7F97B681B6901335A4203F0A4
S31520001D801F0302F01F0258BF53427A681361FB6893
S31520001D904FF4FA7202FB03F307EE903AB8EEE77AB5
S31520001DA0D7ED027A67EE277A9FED287A77EEC77A03
S31520001DB09FED237A67EE877AFDEEE77A002300937C
S31520001DC0234B154A41F2883117EE900A05F0BAF9ED
S31520001DD0FB684FF4FA7202FB03F307EE903AB8EE73
S31520001DE0E77AD7ED027A67EE277A9FED157A67EEC6
S31520001DF0877AFDEEE77A7B685B690093154B7A68F4
S31520001E00002117EE900A05F09DF900E000BF183773
S31520001E10BD4680BDC51B0020609800203C92002056
S31520001E20BC92002000247449A91B00202093002086
S31520001E300000704249020020C09C00200000FA43A6
S31520001E400000C842E11B0020849800200000484280
S31520001E50D11A00208D1C002080B584B002AF786096
S31520001E6039607B689B68002B0CBF01230023DBB203
S31520001E701A467B689A607B689B68002B13D0114BAF
S31520001E801A461149114805F0FBF900230093104B1F
S31520001E90104A0021002005F055F901220E490F486D
S31520001EA005F0EEF90AE00E4B1A460749074805F0F9
S31520001EB0E7F900220849094805F0E2F900BF08378A
S31520001EC0BD4680BD6C940020B7610020A0980020FC
S31520001ED0ED1A00206098002049020020C09C0020B6
S31520001EE07894002080B584B002AF786039607B6832
S31520001EF09B68002B0CBF01230023DBB21A467B68AC
S31520001F009A607B685B690093094B0A4A002100208E
S31520001F1005F018F97B685B690093074B054A002199
S31520001F20002005F00FF900BF0837BD4680BD00BF71
S31520001F30E11B0020849800208D1C002080B582B0F3
S31520001F4000AF786039603B6813F1050F06DB3B680C
S31520001F50052B03DC7B683A68DA6006E0054B1A46F7
S31520001F600549064805F08CF900BF00BF0837BD4675
S31520001F7080BD00BF84940020B7610020A098002077
S31520001F8080B582B000AF786039603B681D2B07DDD5
S31520001F903B68B3F5967F03DC7B683A685A6106E0B6
S31520001FA0054B1A460549064805F06AF900BF00BFE9
S31520001FB00837BD4680BD00BF94940020B76100203D
S31520001FC0A098002080B586B000AF786039600523E0
S31520001FD03B733B68002B02DA01237B7301E002236B
S31520001FE07B733B6883EAE372A2EBE37207F1080393
S31520001FF00949184606F064FB0123BB733B7AFB7341
S3152000200007F10C031A460549054805F039F900BFC2
S315200020101837BD4680BD00BFA4940020AF660020BF
S31520002020D49C002080B586B000AF7860396007F177
S3152000203008033A680E49184606F042FB06233B730E
S3152000204001237B730323BB733B7AFB737B7A3B743D
S315200020503B68632B01DDBB7A7B7407F10C031A46C0
S315200020600449054805F00CF900BF1837BD4680BD68
S31520002070A4940020AF660020D49C002080B588B0B0
S3152000208002AF786039609A4B1A469A499A4805F009
S31520002090F7F83A689949984805F0F2F8984B1A46A5
S315200020A09449954805F0ECF83B686F2B1DD17B6869
S315200020B0D3F88030002B0CBF01230023DBB21A4655
S315200020C07B68C3F880207B68D3F88030002B06D04D
S315200020D08C4B1A468749884805F0D2F805E08A4B8A
S315200020E01A468449844805F0CBF83B68613B102B9F
S315200020F000F2E18001A252F823F000BFFF21002068
S3152000210085210020B72200206B220020B722002044
S31520002110B7220020B7220020B7220020B7220020B5
S31520002120B722002041210020B7220020352200209E
S31520002130B7220020B72200207D220020C9210020BE
S315200021407B689B687A68134400221A737B680C3379
S31520002150184606F02DFA78617B6800229A607B6823
S31520002160D3F88030002B04D17A696849684805F095
S3152000217087F87B690093674B7A680021002004F07A
S31520002180E1FF98E07B689B687A68134400221A7303
S315200021907B680C33184606F00BFA78617B680022C0
S315200021A09A607B68D3F88030002B04D17A695A492B
S315200021B0574805F065F87B690093584B7A680021EB
S315200021C0002004F0BFFF76E07B68D3F88030002B38
S315200021D007D101230093524B524A0021002004F0DC
S315200021E0B1FF01233B7200237B720023BB7207F1F0
S315200021F008031A464C494D4805F042F85BE07B68D7
S31520002200D3F88030002B07D100230093444B454A56
S315200022100021002004F096FF02233B7200237B72EC
S315200022200023BB7207F108031A463F493F4805F0D1
S3152000223027F840E07B68D3F88030002B07D10023B5
S3152000224000933B4B374A0021002004F07BFF0323F9
S315200022503B7200237B720023BB7207F108031A46E8
S315200022603149324805F00CF825E000230093314B24
S315200022702C4A0021002004F065FF1CE07B68D3F87F
S315200022808030002B09D100222B49264804F0F8FF84
S3152000229000222A491E4804F0F3FF04233B72002340
S315200022A07B720023BB7207F108031A461E491F489A
S315200022B004F0E6FF00BF3B682F2B02DD3B68392B7D
S315200022C006DD7B689B68002B0DD13B682D2B0AD140
S315200022D07B689B68591C7A6891603A68D1B27A68A3
S315200022E013440A461A7300BF1837BD4680BD00BF87
S315200022F0A8940020B7610020A09800200D6200203D
S31520002300B0940020B4940020C49400203D1F0020E7
S3152000231084980020C51F0020811F00202520002032
S31520002320291A002060980020AF660020D49C002047
S315200023309D1A0020711A0020591E0020E51E00203B
S3152000234080B588B002AF78603960002225492648DA
S3152000235004F096FF00222549254804F091FF00222B
S315200023602449254804F08CFF7B688833184605F0FD
S3152000237067F800222149204804F082FF204B1A46A4
S3152000238020491B4804F07CFF01233B7301237B7308
S315200023900623BB734823FB7365233B746C237B7432
S315200023A06C23BB746F23FB7400233B7507F10C036E
S315200023B01A4615490C4804F063FF00230093134B7B
S315200023C0134A0021002004F0BDFE00230093114B88
S315200023D0114A0021002004F0B5FE00BF1837BD4683
S315200023E080BD00BFA5630020D49C00201161002081
S315200023F0A0980020F9010020C09C0020490200205E
S31520002400D4940020B7610020AF6600208D1C0020E8
S3152000241084980020ED1A00206098002080B500AF37
S3152000242000220B490B4805F01FF901220A490B48E7
S3152000243005F01AF902220A490A4805F015F9002280
S3152000244009490A4805F076F90023184680BD00BFE1
S3152000245043620020A09800205D640020D49C0020C8
S31520002460C9020020C09C002041230020C0970020E4
S3152000247080B582B000AF78607B684B4A934208D122
S3152000248001210120FEF7C8FB00210120FEF7C4FB35
S3152000249086E07B68454A934208D101210220FEF757
S315200024A0BBFB00210220FEF7B7FB79E07B68404AA0
S315200024B0934208D101210420FEF7AEFB002104201F
S315200024C0FEF7AAFB6CE07B683A4A934208D10121C9
S315200024D00820FEF7A1FB00210820FEF79DFB5FE008
S315200024E07B68354A934208D101211020FEF794FBE0
S315200024F000211020FEF790FB52E07B682F4A934282
S3152000250008D101212020FEF787FB00212020FEF79D
S3152000251083FB45E07B682A4A934208D1012140206B
S31520002520FEF77AFB00214020FEF776FB38E07B6839
S31520002530244A934208D101218020FEF76DFB002119
S315200025408020FEF769FB2BE07B681F4A93420AD165
S3152000255001214FF48070FEF75FFB00214FF480705D
S31520002560FEF75AFB1CE07B68184A93420AD10121E8
S315200025704FF40070FEF750FB00214FF40070FEF779
S315200025804BFB0DE07B68124A934209D101214FF49F
S315200025908060FEF741FB00214FF48060FEF73CFB94
S315200025A000BF0837BD4680BD00000240000402403F
S315200025B000080240000C02400010024000140240B5
S315200025C000180240001C0240002002400024024065
S315200025D00028024080B487B000AF786039600023BD
S315200025E07B6100233B610023FB6000237B6176E057
S315200025F001227B6902FA03F33B613B681B683A6957
S315200026001340FB60FA683B699A4265D17B681A6879
S315200026107B695B00032101FA03F3DB431A407B68E5
S315200026201A607B681A683B681B7919467B695B00D0
S3152000263001FA03F31A437B681A603B681B79012B66
S3152000264003D03B681B79022B2ED17B689A687B6965
S315200026505B00032101FA03F3DB431A407B689A608F
S315200026607B689A683B685B7919467B695B0001FA4F
S3152000267003F31A437B689A607B685A687B699BB22E
S31520002680194601238B40DB431A407B685A607B68DE
S315200026905B683A68927911467A6992B201FA02F237
S315200026A092B21A437B685A607B68DA687B699BB270
S315200026B05B00032101FA03F3DB431A407B68DA60EF
S315200026C07B68DA683B68DB7919467B695B0001FA2F
S315200026D003F31A437B68DA607B6901337B617B698C
S315200026E00F2B85D900BF00BF1C37BD465DF8047B84
S315200026F0704780B483B000AF78607B684FF6FF7276
S315200027001A607B6800221A717B6800225A717B68E6
S3152000271000229A717B680022DA7100BF0C37BD4611
S315200027205DF8047B704780B485B000AF78600B46B7
S315200027307B804FF48033FB607A88FB681343FB6011
S31520002740FA687B68DA617A887B68DA61FA687B687E
S31520002750DA617B68DB69FB607B68DB69FB6000BF55
S315200027601437BD465DF8047B704780B485B000AF52
S3152000277078600B467B800023FB737B681A697B8815
S315200027801340002B02D00123FB7301E00023FB73CF
S31520002790FB7B18461437BD465DF8047B704780B432
S315200027A083B000AF78607B681B699BB218460C37F4
S315200027B0BD465DF8047B704780B485B000AF786075
S315200027C00B467B800023FB737B685A697B8813400A
S315200027D0002B02D00123FB7301E00023FB73FB7B5C
S315200027E018461437BD465DF8047B704780B483B025
S315200027F000AF78607B685B699BB218460C37BD4694
S315200028005DF8047B704780B483B000AF78600B46D8
S315200028107B807B687A881A8300BF0C37BD465DF8BB
S31520002820047B704780B483B000AF78600B467B8012
S315200028307B687A885A8300BF0C37BD465DF8047BD7
S31520002840704780B483B000AF78600B467B80134618
S315200028507B707B78002B03D07B687A881A8302E012
S315200028607B687A885A8300BF0C37BD465DF8047BA7
S31520002870704780B483B000AF78600B467B807A883F
S315200028807B685A6100BF0C37BD465DF8047B7047F4
S3152000289080B483B000AF78600B467B807B685A6932
S315200028A07B885A407B685A6100BF0C37BD465DF86D
S315200028B0047B704780B485B000AF78600B467B8080
S315200028C013467B700023FB600023BB607A787B88ED
S315200028D003F007039B0002FA03F3FB607B88DB0807
S315200028E09BB21A467B68083253F822207B8803F075
S315200028F007039B000F2101FA03F3DB437988C908FC
S3152000290089B2084602EA03017B6800F1080243F80F
S3152000291022107B88DB089BB21A467B68083253F864
S315200029202230FA681343BB607B88DB089BB21A46C9
S315200029307B680832B96843F8221000BF1437BD46B9
S315200029405DF8047B704700BF80B582B000AF786029
S315200029507B680E4A93420AD101214FF00070FEF7A0
S31520002960BBF900214FF00070FEF7B6F909E001210E
S315200029704FF08060FEF7B0F900214FF08060FEF73F
S31520002980ABF900BF0837BD4680BD00BF00640040DC
S3152000299080B485B000AF786039600023FB730023D4
S315200029A0BB607B681B6823F002027B681A607B6829
S315200029B01B6843F001027B681A6002E0BB680133A2
S315200029C0BB607B685B6803F00103012B04D0BB6806
S315200029D04FF6FF729342F1D17B685B6803F00103E7
S315200029E0012B02D00023FB739CE03B689B79012BD3
S315200029F006D17B681B6843F080027B681A6005E07D
S31520002A007B681B6823F080027B681A603B68DB7951
S31520002A10012B06D17B681B6843F040027B681A6055
S31520002A2005E07B681B6823F040027B681A603B68E0
S31520002A301B7A012B06D17B681B6843F020027B683A
S31520002A401A6005E07B681B6823F020027B681A6009
S31520002A503B685B7A012B06D17B681B6843F010022A
S31520002A607B681A6005E07B681B6823F010027B6890
S31520002A701A603B689B7A012B06D17B681B6843F062
S31520002A8008027B681A6005E07B681B6823F0080251
S31520002A907B681A603B68DB7A012B06D17B681B6852
S31520002AA043F004027B681A6005E07B681B6823F00C
S31520002AB004027B681A603B689B789A073B68DB7840
S31520002AC01B061A433B681B791B041A433B685B7938
S31520002AD01B051A433B681B88013B1A437B68DA6156
S31520002AE07B681B6823F001027B681A600023BB60A9
S31520002AF002E0BB680133BB607B685B6803F00103BF
S31520002B00012B04D1BB684FF6FF729342F1D17B684B
S31520002B105B6803F00103012B02D10023FB7301E064
S31520002B200123FB73FB7B18461437BD465DF8047BF7
S31520002B30704790B484B000AF78600023FB607B6858
S31520002B409B7A1A4601239340FB605A4BD3F80032F6
S31520002B50584A43F00103C2F80032564BD3F81C22E0
S31520002B60FB68DB4353491340C1F81C327B681B7B4F
S31520002B70002B29D14F4BD3F80C22FB68DB434D4960
S31520002B801340C1F80C327B68DB881B047A685288B4
S31520002B90144648497A68927A104643EA040200F1BC
S31520002BA0480341F833207B689B881B047A68128887
S31520002BB0144640497A68927A104643EA040200F1A4
S31520002BC04803DB000B445A607B681B7B012B28D112
S31520002BD0384BD3F80C223749FB681343C1F80C3223
S31520002BE07B681B881B047A685288144631497A68A8
S31520002BF0927A104643EA040200F1480341F8332052
S31520002C007B689B881B047A68D288144629497A688F
S31520002C10927A104643EA040200F14803DB000B4493
S31520002C205A607B68DB7A002B09D1224BD3F8042229
S31520002C30FB68DB431F491340C1F8043207E01D4BF4
S31520002C40D3F804221B49FB681343C1F804327B687E
S31520002C501B89002B08D1174BD3F81422FB68DB43C2
S31520002C6014491340C1F814327B681B89012B07D104
S31520002C70104BD3F814220F49FB681343C1F81432C2
S31520002C807B685B7B012B07D10A4BD3F81C220949B1
S31520002C90FB681343C1F81C32064BD3F80032054AB1
S31520002CA023F00103C2F8003200BF1037BD4690BCA6
S31520002CB0704700BF0064004080B483B000AF7860E6
S31520002CC07B6800229A717B680022DA717B68002279
S31520002CD01A727B6800225A727B6800229A727B687D
S31520002CE00022DA727B6800229A707B680022DA70F2
S31520002CF07B6803221A717B6802225A717B68012243
S31520002D001A8000BF0C37BD465DF8047B704780B43F
S31520002D1083B000AF0346FB71144BD3F80032134A3D
S31520002D2043F00103C2F80032104BD3F800320F4AA9
S31520002D3023F47C5323F00E03C2F800320B4BD3F856
S31520002D400022FB791B0209491343C1F80032074BC5
S31520002D50D3F80032054A23F00103C2F8003200BF3F
S31520002D600C37BD465DF8047B704700BF0064004009
S31520002D7080B483B000AF78600B46FB70FB78002BE5
S31520002D8006D07B681B6843F480327B681A6005E0B6
S31520002D907B681B6823F480327B681A6000BF0C377F
S31520002DA0BD465DF8047B704780B483B000AF786081
S31520002DB00B46FB70FB78002B1ED07B681B6843F00C
S31520002DC080027B681A607B68D3F8843143F4807272
S31520002DD07B68C3F884217B68D3F8943143F48072EE
S31520002DE07B68C3F894217B68D3F8A43143F48072BE
S31520002DF07B68C3F8A4211DE07B681B6823F0800252
S31520002E007B681A607B68D3F8843123F480727B68F0
S31520002E10C3F884217B68D3F8943123F480727B68CD
S31520002E20C3F894217B68D3F8A43123F480727B689D
S31520002E30C3F8A42100BF0C37BD465DF8047B70475C
S31520002E4080B485B000AF786039600023FB737B685F
S31520002E509B6803F08063B3F1806F02D10023FB737C
S31520002E6015E07B689B6803F00063B3F1006F02D125
S31520002E700123FB730BE07B689B6803F08053B3F15F
S31520002E80805F02D10223FB7301E00423FB73FB7BEB
S31520002E90042B00F09F80FB7B7A6818331B011344B8
S31520002EA01A68FB7B02F00102796818331B010B4478
S31520002EB01A603B681B7A002B13D1FB7B7A68183388
S31520002EC01B01134419683B681B685B053A68527AF4
S31520002ED01A43FB7B0A43796818331B010B441A609B
S31520002EE015E0FB7B7A6818331B01134419683B688D
S31520002EF05B68DB003A68127A13433A68527A1A43BF
S31520002F00FB7B0A43796818331B010B441A603B6824
S31520002F109B7A03F00F03DAB23B689A72FB7B7A68DE
S31520002F2018331B01134404331A68FB7B22F00F026B
S31520002F30796818331B010B4404331A60FB7B7A68CB
S31520002F4018331B01134404331A683B689B7A1946CD
S31520002F50FB7B0A43796818331B010B4404331A6040
S31520002F603B689B7B1A063B685B7B1B041A433B68CA
S31520002F701B7B1B021A433B68DB7A1946FB7B0A4301
S31520002F8079681B010B4403F5C4731A603B689B7C6C
S31520002F901A063B685B7C1B041A433B681B7C1B029E
S31520002FA01A433B68DB7B1946FB7B0A4379681B0186
S31520002FB00B4403F5C6731A60FB7B7A6818331B0132
S31520002FC013441A68FB7B42F00102796818331B010F
S31520002FD00B441A60FB7B18461437BD465DF8047B0C
S31520002FE0704780B485B000AF78600B46FB70002335
S31520002FF0FB60FB78022B12D0022B16DC002B02D0B2
S31520003000012B06D011E07B689A68314B1340FB6098
S315200030100EE07B689A682F4B1340FB6008E07B68C4
S315200030209A682D4B1340FB6002E00023FB6000BF33
S31520003030FB68294A93423DD0FB68274A93423CD8F5
S31520003040FB68264A93422CD0FB68244A934234D804
S31520003050FB68204A93422AD0FB681E4A93422CD80A
S31520003060FB681F4A934219D0FB681D4A934224D815
S31520003070FB68174A934217D0FB68154A93421CD81F
S31520003080FB68002B04D0FB68164A934203D014E059
S315200030900223FB6014E00023FB6011E00023FB60A9
S315200030A00EE00023FB600BE00123FB6008E0012318
S315200030B0FB6005E00123FB6002E00023FB6000BF0C
S315200030C0FB68DBB218461437BD465DF8047B7047B3
S315200030D00300000400030008000003100000011094
S315200030E0000100080100000480B483B000AF7860BE
S315200030F00B46FB70FB78022B14D0022B19DC002B1D
S3152000310002D0012B07D014E07B689B6843F0800235
S315200031107B689A600EE07B689B6843F400427B687C
S315200031209A6007E07B689B6843F400027B689A609C
S3152000313000E000BF00BF0C37BD465DF8047B70473A
S3152000314080B485B000AFF8600B467A60FB72FB7ADC
S31520003150FA681B331B0113441B68DBB203F004031C
S31520003160DAB27B681A727B681B7A002B0BD1FB7A4A
S31520003170FA681B331B0113441B685B0DC3F30A0259
S315200031807B681A600AE0FB7AFA681B331B0113443A
S315200031901B68DB0823F060427B685A60FB7AFA687A
S315200031A01B331B0113441B68DBB203F00203DAB2A4
S315200031B07B685A72FB7AFA681B331B01134404336B
S315200031C01B68DBB203F00F03DAB27B689A72FB7AD4
S315200031D0FA681B331B01134404331B681B0ADAB23B
S315200031E07B68DA74FB7AFA681B01134403F5DC73F7
S315200031F01B68DAB27B68DA72FB7AFA681B01134421
S3152000320003F5DC731B681B0ADAB27B681A73FB7A38
S31520003210FA681B01134403F5DC731B681B0CDAB236
S315200032207B685A73FB7AFA681B01134403F5DC7337
S315200032301B681B0EDAB27B689A73FB7AFA681B014D
S31520003240134403F5DE731B68DAB27B68DA73FB7A04
S31520003250FA681B01134403F5DE731B681B0ADAB2F6
S315200032607B681A74FB7AFA681B01134403F5DE7334
S315200032701B681B0CDAB27B685A74FB7AFA681B014E
S31520003280134403F5DE731B681B0EDAB27B689A744F
S31520003290FB7A002B06D1FB68DB6843F02002FB6833
S315200032A0DA6005E0FB681B6943F02002FB681A61BF
S315200032B000BF1437BD465DF8047B704780B483B0E9
S315200032C000AF78600B46FB70FB78002B06D17B683D
S315200032D0DB6843F020027B68DA6005E07B681B69C7
S315200032E043F020027B681A6100BF0C37BD465DF8AB
S315200032F0047B704780B485B000AF78600B46FB70C6
S315200033000023FB73FB78002B06D17B68DB68DBB2DE
S3152000331003F00303FB730BE0FB78012B06D17B68DC
S315200033201B69DBB203F00303FB7301E00023FB738D
S31520003330FB7B18461437BD465DF8047B704780B486
S3152000334085B000AF78600B46FB700023FB734FF609
S31520003350FF73BB60FB78002B20D17B681B6823F0B2
S31520003360030343F001027B681A6002E0BB68013B5D
S31520003370BB607B685B6803F00303012B02D0BB684C
S31520003380002BF3D17B685B6803F00303012B02D08B
S315200033900023FB734AE00123FB7347E0FB78012BF4
S315200033A01ED17B681B6823F003027B681A6002E04B
S315200033B0BB68013BBB607B685B6803F00303002BA3
S315200033C002D0BB68002BF3D17B685B6803F0030354
S315200033D0002B02D00023FB7328E00123FB7325E09A
S315200033E0FB78022B20D17B681B6823F0030343F074
S315200033F002027B681A6002E0BB68013BBB607B6807
S315200034005B6803F00303022B02D0BB68002BF3D1C9
S315200034107B685B6803F00303022B02D00023FB7357
S3152000342004E00123FB7301E00023FB73FB7B1846BA
S315200034301437BD465DF8047B704780B485B000AF75
S3152000344078600023FB737B681B6823F0030343F03B
S3152000345002027B681A607B685B6803F00303022B19
S3152000346001D10123FB73FB7B18461437BD465DF85B
S31520003470047B704780B485B000AF78604FF6FF7349
S31520003480FB600023FB727B681B6823F002027B68CB
S315200034901A6002E0FB68013BFB607B685B6803F017
S315200034A00203022B02D1FB68002BF3D17B685B68F9
S315200034B003F00203022B01D00123FB72FB7A18468C
S315200034C01437BD465DF8047B704780B485B000AFE5
S315200034D078600023FB737B689B69DBB203F0700383
S315200034E0FB73FB7B18461437BD465DF8047B70479B
S315200034F080B485B000AF78600023FB737B689B693E
S315200035001B0EFB73FB7B18461437BD465DF8047B08
S31520003510704780B485B000AF78600023FB737B686A
S315200035209B691B0CFB73FB7B18461437BD465DF865
S31520003530047B704780B485B000AFF860B96013464D
S31520003540FB71FB79002B06D0FB685A69BB681A43CE
S31520003550FB685A6106E0FB685A69BB68DB431A4080
S31520003560FB685A6100BF1437BD465DF8047B70477F
S3152000357080B485B000AF786039600023FB733B6868
S3152000358003F47003002B0DD07B689A693B681340C7
S31520003590C3F31303002B02D00123FB7348E000235F
S315200035A0FB7345E03B6803F08073002B0DD07B68EE
S315200035B05A683B681340C3F31303002B02D0012340
S315200035C0FB7335E00023FB7332E03B6803F00063B6
S315200035D0002B0DD07B689A683B681340C3F3130316
S315200035E0002B02D00123FB7322E00023FB731FE094
S315200035F03B6803F00073002B0DD07B68DA683B68CC
S315200036001340C3F31303002B02D00123FB730FE0F7
S315200036100023FB730CE07B681A693B681340C3F3F5
S315200036201303002B02D00123FB7301E00023FB735D
S31520003630FB7B18461437BD465DF8047B704780B483
S3152000364085B000AF786039600023FB603B68174A7D
S31520003650934203D17B6800229A6121E03B68C3F341
S315200036601303FB603B6803F00073002B03D07B68D9
S31520003670FA68DA6014E03B6803F08063002B03D01D
S315200036807B68FA681A610BE03B6803F00063002B45
S3152000369003D07B68FA689A6002E07B68FA685A6011
S315200036A000BF1437BD465DF8047B70477000F030CC
S315200036B080B584B000AF786039600023FB737B68E7
S315200036C05A693B681340002B00F01B813B68B3F519
S315200036D0003F00F0DD803B68B3F5003F00F20E812D
S315200036E03B68B3F5803F00F0CA803B68B3F5803F66
S315200036F000F204813B68B3F5004F00F0F6803B688A
S31520003700B3F5004F00F2FA803B68B3F5006F00F086
S31520003710E3803B68B3F5006F00F2F0803B68B3F5B9
S31520003720806F00F0D0803B68B3F5806F00F2E680B2
S315200037303B68B3F5007F00F0BD803B68B3F5007FA2
S3152000374000F2DC803B68B3F5807F00F0AA803B68FE
S31520003750B3F5807F00F2D2803B68202B4CD83B68A3
S31520003760002B00F0CB803B68013B1F2B00F2C6806C
S3152000377001A252F823F000BF0138002013380020A0
S31520003780FD38002025380020FD380020FD38002097
S31520003790FD38002037380020FD380020FD38002075
S315200037A0FD380020FD380020FD380020FD3800209F
S315200037B0FD38002049380020FD380020FD38002043
S315200037C0FD380020FD380020FD380020FD3800207F
S315200037D0FD380020FD380020FD380020FD3800206F
S315200037E0FD380020FD380020FD380020FD3800205F
S315200037F0FD3800205B3800203B68402B36D07DE02A
S315200038007B689B684249184600F060F90346FB73C3
S3152000381079E07B68DB680321184600F057F90346F8
S31520003820FB7370E07B68DB680821184600F04EF9D0
S315200038300346FB7367E07B68DB681021184600F0BF
S3152000384045F90346FB735EE07B681B690321184636
S3152000385000F03CF90346FB7355E07B681B690821A1
S31520003860184600F033F90346FB734CE07B681B696E
S315200038701021184600F02AF90346FB7343E07B68C3
S315200038805B680821184600F021F90346FB733AE0ED
S315200038907B685B681021184600F018F90346FB7315
S315200038A031E07B689B690121184600F00FF9034639
S315200038B0FB7328E07B689B690221184600F006F915
S315200038C00346FB731FE07B689B690421184600F0C2
S315200038D0FDF80346FB7316E07B689B69702118464A
S315200038E000F0F4F80346FB730DE07B685B68042167
S315200038F0184600F0EBF80346FB7304E00023FB7345
S3152000390001E00023FB73FB7B18461037BD4680BDC4
S315200039100101010080B483B000AF786039603B6854
S31520003920B3F5003F00F0AA803B68B3F5003F00F2F4
S31520003930C3803B68B3F5803F00F09C803B68B3F5BD
S31520003940803F00F2B9803B68B3F5004F00F0AD80B0
S315200039503B68B3F5004F00F2AF803B68B3F5006FCC
S3152000396000F09C803B68B3F5006F00F2A5803B68B1
S31520003970B3F5806F00F08E803B68B3F5806F00F260
S315200039809B803B68B3F5007F00F080803B68B3F5F1
S31520003990007F00F291803B68B3F5807F72D03B6850
S315200039A0B3F5807F00F288803B68202B4AD83B689D
S315200039B0002B00F081803B68013B1F2B7CD801A2A5
S315200039C052F823F04D3A0020B93A0020B93A0020A7
S315200039D0553A0020B93A0020B93A0020B93A0020D9
S315200039E05D3A0020B93A0020B93A0020B93A0020C1
S315200039F0B93A0020B93A0020B93A0020B93A002055
S31520003A00B93A0020B93A0020B93A0020B93A002044
S31520003A10B93A0020B93A0020B93A0020B93A002034
S31520003A20B93A0020B93A0020B93A0020B93A002024
S31520003A30B93A0020B93A0020B93A0020B93A002014
S31520003A40653A00203B68402B10D035E07B681E4A43
S31520003A509A6032E07B680822DA602EE07B681022CA
S31520003A60DA602AE07B6808221A6126E07B68102249
S31520003A701A6122E07B6808225A601EE07B681022C9
S31520003A805A601AE07B6804225A6016E07B6804229A
S31520003A905A6012E07B6804225A600EE07B6800229E
S31520003AA09A617B6804225A6007E07B6800229A614B
S31520003AB07B6804225A6000E000BF00BF0C37BD4679
S31520003AC05DF8047B704700BF0101010080B485B01A
S31520003AD000AF786039600023FB737A683B68134037
S31520003AE0002B02D00123FB7301E00023FB73FB7B39
S31520003AF018461437BD465DF8047B704780B582B002
S31520003B0000AF78607B68604A934208D1012101208A
S31520003B10FDF702F900210120FDF7FEF8AFE07B68F2
S31520003B20B3F1804F08D101210120FDF7D5F80021FE
S31520003B300120FDF7D1F8A2E07B68544A934208D1D0
S31520003B4001210220FDF7C8F800210220FDF7C4F864
S31520003B5095E07B684E4A934208D101210420FDF767
S31520003B60BBF800210420FDF7B7F888E07B68494AB6
S31520003B70934208D101210820FDF7AEF80021082044
S31520003B80FDF7AAF87BE07B68434A934208D10121DE
S31520003B901020FDF7A1F800211020FDF79DF86EE01A
S31520003BA07B683E4A934208D101212020FDF794F8F4
S31520003BB000212020FDF790F861E07B68384A934287
S31520003BC008D101210220FDF7A7F800210220FDF7E8
S31520003BD0A3F854E07B68334A93420AD101214FF47B
S31520003BE08030FDF799F800214FF48030FDF794F8E6
S31520003BF045E07B682C4A93420AD101214FF40030DC
S31520003C00FDF78AF800214FF40030FDF785F836E0FD
S31520003C107B68264A93420AD101214FF48020FDF782
S31520003C207BF800214FF48020FDF776F827E07B68AB
S31520003C301F4A934208D101214020FDF74DF800216B
S31520003C404020FDF749F81AE07B681A4A934208D1CA
S31520003C5001218020FDF740F800218020FDF73CF867
S31520003C600DE07B68144A934209D101214FF48070FC
S31520003C70FDF732F800214FF48070FDF72DF800BFD4
S31520003C800837BD4680BD00BF00000140000400404B
S31520003C9000080040000C00400010004000140040C6
S31520003CA0000401400040014000440140004801401A
S31520003CB000180040001C00400020004080B485B061
S31520003CC000AF786039600023FB817B681B88FB810D
S31520003CD07B68294A934213D07B68284A93420FD0A7
S31520003CE07B68B3F1804F0BD07B68254A934207D07F
S31520003CF07B68244A934203D07B68234A934208D1A7
S31520003D00FB8923F07003FB813B685A88FB891343A8
S31520003D10FB817B681D4A93420CD07B681C4A9342E8
S31520003D2008D0FB8923F44073FB813B681A89FB8901
S31520003D301343FB817B68FA891A803B685A687B6843
S31520003D40DA623B681A887B681A857B680A4A93423E
S31520003D5003D07B68094A934204D13B689B7A9AB286
S31520003D607B681A867B6801229A8200BF1437BD467B
S31520003D705DF8047B704700BF00000140000401404D
S31520003D800004004000080040000C004000100040E5
S31520003D900014004080B483B000AF78607B684FF099
S31520003DA0FF325A607B6800221A807B6800221A81C3
S31520003DB07B6800225A807B6800229A7200BF0C37EB
S31520003DC0BD465DF8047B704780B483B000AF786051
S31520003DD00B467B8013463B807B687A881A857B68F6
S31520003DE03A889A8200BF0C37BD465DF8047B70473F
S31520003DF080B485B000AF78600B467B800023FB81C2
S31520003E007B681B88FB81FB8923F07003FB81FA8981
S31520003E107B881343FB817B68FA891A8000BF14379D
S31520003E20BD465DF8047B704780B483B000AF7860F0
S31520003E3039607B683A685A6200BF0C37BD465DF828
S31520003E40047B704780B483B000AF786039607B68AC
S31520003E503A68DA6200BF0C37BD465DF8047B7047CE
S31520003E6080B483B000AF78607B685B6A18460C37F5
S31520003E70BD465DF8047B704780B483B000AF7860A0
S31520003E807B681B8D9BB218460C37BD465DF8047BBC
S31520003E90704780B483B000AF78600B46FB70FB7828
S31520003EA0002B08D07B681B889BB243F002039AB292
S31520003EB07B681A8007E07B681B889BB223F002038D
S31520003EC09AB27B681A8000BF0C37BD465DF8047B2A
S31520003ED0704780B483B000AF78600B467B807B88C8
S31520003EE0002B08D07B681B889BB243F004039AB250
S31520003EF07B681A8007E07B681B889BB223F004034B
S31520003F009AB27B681A8000BF0C37BD465DF8047BE9
S31520003F10704780B483B000AF78600B46FB70FB78A7
S31520003F20002B08D07B681B889BB243F080039AB293
S31520003F307B681A8007E07B681B889BB223F080038E
S31520003F409AB27B681A8000BF0C37BD465DF8047BA9
S31520003F50704780B483B000AF78600B467B807B6867
S31520003F601B889BB223F008039AB27B681A807B6871
S31520003F701B889AB27B8813439AB27B681A8000BF4B
S31520003F800C37BD465DF8047B704780B483B000AF24
S31520003F9078600B467B807B681B889BB223F440733A
S31520003FA09AB27B681A807B681B889AB27B881343F7
S31520003FB09AB27B681A8000BF0C37BD465DF8047B39
S31520003FC0704780B483B000AF78600B46FB70FB78F7
S31520003FD0002B08D07B681B889BB243F001039AB262
S31520003FE07B681A8007E07B681B889BB223F001035D
S31520003FF09AB27B681A8000BF0C37BD465DF8047BF9
S31520004000704780B485B000AF7860396000237B812B
S315200040100023FB810023BB817B681B8C9BB223F092
S3152000402001039AB27B681A847B681B8CFB817B68B0
S315200040309B88BB817B681B8B7B817B8923F07003EC
S315200040407B817B8923F003037B813B681A887B89EC
S3152000405013437B81FB8923F00203FB813B689A890A
S31520004060FB891343FB813B685A88FB891343FB81F9
S315200040707B681F4A934203D07B681E4A934223D112
S31520004080FB8923F00803FB813B68DA89FB8913430C
S31520004090FB81FB8923F00403FB813B689A88FB891B
S315200040A01343FB81BB8923F48073BB81BB8923F433
S315200040B00073BB813B681A8ABB891343BB813B686B
S315200040C05A8ABB891343BB817B68BA899A807B68ED
S315200040D07A891A833B689A687B685A637B68FA896F
S315200040E01A8400BF1437BD465DF8047B704700BFB5
S315200040F0000001400004014080B485B000AF786024
S31520004100396000237B810023FB810023BB817B68F0
S315200041101B8C9BB223F010039AB27B681A847B68AF
S315200041201B8CFB817B689B88BB817B681B8B7B817F
S315200041307B8923F4E0437B817B8923F440737B8155
S315200041403B681B881B029AB27B8913437B81FB89C0
S3152000415023F02003FB813B689B891B019AB2FB89D4
S315200041601343FB813B685B881B019AB2FB8913438F
S31520004170FB817B68224A934203D07B68214A934283
S315200041802BD1FB8923F08003FB813B68DB891B0154
S315200041909AB2FB891343FB81FB8923F04003FB8101
S315200041A03B689B881B019AB2FB891343FB81BB8921
S315200041B023F48063BB81BB8923F40063BB813B6806
S315200041C01B8A9B009AB2BB891343BB813B685B8ADF
S315200041D09B009AB2BB891343BB817B68BA899A80BC
S315200041E07B687A891A833B689A687B689A637B68BE
S315200041F0FA891A8400BF1437BD465DF8047B7047E0
S31520004200000001400004014080B485B000AF786012
S31520004210396000237B810023FB810023BB817B68DF
S315200042201B8C9BB223F480739AB27B681A847B68BA
S315200042301B8CFB817B689B88BB817B689B8B7B81EE
S315200042407B8923F070037B817B8923F003037B81A9
S315200042503B681A887B8913437B81FB8923F400738F
S31520004260FB813B689B891B029AB2FB891343FB8126
S315200042703B685B881B029AB2FB891343FB817B68F0
S31520004280224A934203D07B68214A93422BD1FB8951
S3152000429023F40063FB813B68DB891B029AB2FB890E
S315200042A01343FB81FB8923F48063FB813B689B8856
S315200042B01B029AB2FB891343FB81BB8923F48053EB
S315200042C0BB81BB8923F40053BB813B681B8A1B013E
S315200042D09AB2BB891343BB813B685B8A1B019AB2A6
S315200042E0BB891343BB817B68BA899A807B687A89AC
S315200042F09A833B689A687B68DA637B68FA891A84B2
S3152000430000BF1437BD465DF8047B704700000140AE
S315200043100004014080B485B000AF78603960002386
S31520004320BB8100237B810023FB817B681B8C9BB296
S3152000433023F480539AB27B681A847B681B8C7B811A
S315200043407B689B88FB817B689B8BBB81BB8923F425
S31520004350E043BB81BB8923F44073BB813B681B8848
S315200043601B029AB2BB891343BB817B8923F400537A
S315200043707B813B689B891B039AB27B8913437B8194
S315200043803B685B881B039AB27B8913437B817B68DE
S31520004390124A934203D07B68114A93420AD1FB8981
S315200043A023F48043FB813B681B8A9B019AB2FB89DD
S315200043B01343FB817B68FA899A807B68BA899A8342
S315200043C03B689A687B681A647B687A891A8400BF7E
S315200043D01437BD465DF8047B704700BF00000140DE
S315200043E00004014080B483B000AF78607B6800226F
S315200043F01A807B6800225A807B6800229A807B681C
S3152000440000229A607B6800229A817B680022DA81EA
S315200044107B6800221A827B6800225A8200BF0C37F2
S31520004420BD465DF8047B704780B485B000AF7860E8
S315200044300B467B8013463B800023FB6000237B8159
S315200044407B68FB60FB681833FB607B88012202FADD
S3152000445003F37B817B681B8C9AB27B89DB439BB2FF
S3152000446013409AB27B681A847B88002B02D07B8803
S31520004470082B14D17B885B089BB21A46FB68134431
S31520004480FB60FB681968FA684FF68F730B40136060
S31520004490FB6819683A88FB680A431A6019E07B882A
S315200044A0043B9BB25B089BB21A46FB681344FB6035
S315200044B0FB681968FA6848F6FF730B401360FB68BF
S315200044C01A683B881B029BB21946FB680A431A608E
S315200044D000BF00BF1437BD465DF8047B704780B42B
S315200044E083B000AF786039607B683A685A6300BF52
S315200044F00C37BD465DF8047B704780B483B000AFAF
S31520004500786039607B683A689A6300BF0C37BD468D
S315200045105DF8047B704780B483B000AF7860396063
S315200045207B683A68DA6300BF0C37BD465DF8047BCA
S31520004530704780B483B000AF786039607B683A6892
S315200045401A6400BF0C37BD465DF8047B704780B403
S3152000455085B000AF78600B467B800023FB817B68AB
S315200045601B8BFB81FB8923F07003FB81FA897B88F7
S315200045701343FB817B68FA891A8300BF1437BD4633
S315200045805DF8047B704780B485B000AF78600B4639
S315200045907B800023FB817B681B8BFB81FB8923F4BB
S315200045A0E043FB817B881B029AB2FB891343FB8184
S315200045B07B68FA891A8300BF1437BD465DF8047BF1
S315200045C0704780B485B000AF78600B467B800023AF
S315200045D0FB817B689B8BFB81FB8923F07003FB812E
S315200045E0FA897B881343FB817B68FA899A8300BF0B
S315200045F01437BD465DF8047B704780B485B000AFA4
S3152000460078600B467B800023FB817B689B8BFB813C
S31520004610FB8923F4E043FB817B881B029AB2FB894A
S315200046201343FB817B68FA899A8300BF1437BD4602
S315200046305DF8047B704780B485B000AF78600B4688
S315200046407B800023FB817B681B8BFB81FB8923F00E
S315200046500803FB81FA897B881343FB817B68FA89EF
S315200046601A8300BF1437BD465DF8047B704780B4BB
S3152000467085B000AF78600B467B800023FB817B688A
S315200046801B8BFB81FB8923F40063FB817B881B0248
S315200046909AB2FB891343FB817B68FA891A8300BF90
S315200046A01437BD465DF8047B704780B485B000AFF3
S315200046B078600B467B800023FB817B689B8BFB818C
S315200046C0FB8923F00803FB81FA897B881343FB814E
S315200046D07B68FA899A8300BF1437BD465DF8047B50
S315200046E0704780B485B000AF78600B467B8000238E
S315200046F0FB817B689B8BFB81FB8923F40063FB8119
S315200047007B881B029AB2FB891343FB817B68FA895B
S315200047109A8300BF1437BD465DF8047B704780B48A
S3152000472085B000AF78600B467B800023FB817B68D9
S315200047301B8BFB81FB8923F00403FB81FA897B8891
S315200047401343FB817B68FA891A8300BF1437BD4661
S315200047505DF8047B704780B485B000AF78600B4667
S315200047607B800023FB817B681B8BFB81FB8923F4E9
S315200047708063FB817B881B029AB2FB891343FB81F2
S315200047807B68FA891A8300BF1437BD465DF8047B1F
S31520004790704780B485B000AF78600B467B800023DD
S315200047A0FB817B689B8BFB81FB8923F00403FB81C8
S315200047B0FA897B881343FB817B68FA899A8300BF39
S315200047C01437BD465DF8047B704780B485B000AFD2
S315200047D078600B467B800023FB817B689B8BFB816B
S315200047E0FB8923F48063FB817B881B029AB2FB89B9
S315200047F01343FB817B68FA899A8300BF1437BD4631
S315200048005DF8047B704780B485B000AF78600B46B6
S315200048107B800023FB817B681B8BFB81FB8923F03C
S315200048208003FB81FA897B881343FB817B68FA89A5
S315200048301A8300BF1437BD465DF8047B704780B4E9
S3152000484085B000AF78600B467B800023FB817B68B8
S315200048501B8BFB81FB89C3F30E03FB817B881B0229
S315200048609AB2FB891343FB817B68FA891A8300BFBE
S315200048701437BD465DF8047B704780B485B000AF21
S3152000488078600B467B800023FB817B689B8BFB81BA
S31520004890FB8923F08003FB81FA897B881343FB8104
S315200048A07B68FA899A8300BF1437BD465DF8047B7E
S315200048B0704780B485B000AF78600B467B800023BC
S315200048C0FB817B689B8BFB81FB89C3F30E03FB81FA
S315200048D07B881B029AB2FB891343FB817B68FA898A
S315200048E09A8300BF1437BD465DF8047B704780B4B9
S315200048F085B000AF78600B467B800023FB817B6808
S315200049001B8CFB81FB8923F00203FB81FA897B88C0
S315200049101343FB817B68FA891A8400BF1437BD468E
S315200049205DF8047B704780B485B000AF78600B4695
S315200049307B800023FB817B681B8CFB81FB8923F01A
S315200049400803FB81FA897B881343FB817B68FA89FC
S315200049501A8400BF1437BD465DF8047B704780B4C7
S3152000496085B000AF78600B467B800023FB817B6897
S315200049701B8CFB81FB8923F02003FB817B881B0199
S315200049809AB2FB891343FB817B68FA891A8400BF9C
S315200049901437BD465DF8047B704780B485B000AF00
S315200049A078600B467B800023FB817B681B8CFB8118
S315200049B0FB8923F08003FB817B881B019AB2FB894C
S315200049C01343FB817B68FA891A8400BF1437BD46DE
S315200049D05DF8047B704780B485B000AF78600B46E5
S315200049E07B800023FB817B681B8CFB81FB8923F466
S315200049F00073FB817B881B029AB2FB891343FB81E0
S31520004A007B68FA891A8400BF1437BD465DF8047B9B
S31520004A10704780B485B000AF78600B467B8000235A
S31520004A20FB817B681B8CFB81FB8923F40063FB8164
S31520004A307B881B029AB2FB891343FB817B68FA8928
S31520004A401A8400BF1437BD465DF8047B704780B4D6
S31520004A5085B000AF78600B467B800023FB817B68A6
S31520004A601B8CFB81FB8923F40053FB817B881B0372
S31520004A709AB2FB891343FB817B68FA891A8400BFAB
S31520004A801437BD465DF8047B704780B485B000AF0F
S31520004A9078600B467B8013463B800023FB817B8816
S31520004AA0012202FA03F3FB817B681B8C9AB2FB89F5
S31520004AB0DB439BB213409AB27B681A847B681B8CBB
S31520004AC09AB239887B8801FA03F39BB213439AB2D0
S31520004AD07B681A8400BF1437BD465DF8047B704797
S31520004AE080B485B000AF78600B467B8013463B8050
S31520004AF00023FB817B88042202FA03F3FB817B6877
S31520004B001B8C9AB2FB89DB439BB213409AB27B681B
S31520004B101A847B681B8C9AB239887B8801FA03F346
S31520004B209BB213439AB27B681A8400BF1437BD46E2
S31520004B305DF8047B704780B582B000AF786039603D
S31520004B403B681B88002B0FD13B6859883B689A88A5
S31520004B503B681B89786800F0B7FC3B68DB88194600
S31520004B60786800F0E1F836E03B681B88042B0FD10B
S31520004B703B6859883B689A883B681B89786800F0AF
S31520004B80E6FC3B68DB881946786800F0E9F822E005
S31520004B903B681B88082B0FD13B6859883B689A884D
S31520004BA03B681B89786800F01FFD3B68DB88194647
S31520004BB0786800F0F3F80EE03B6859883B689A88DD
S31520004BC03B681B89786800F057FD3B68DB881946EF
S31520004BD0786800F0FFF800BF0837BD4680BD80B476
S31520004BE083B000AF78607B6800221A807B68002241
S31520004BF05A807B6801229A807B680022DA807B6853
S31520004C0000221A8100BF0C37BD465DF8047B704731
S31520004C1080B584B000AF786039600023FB81012322
S31520004C20BB813B685B88002B02D10223FB8101E01C
S31520004C300023FB813B689B88012B02D10223BB8189
S31520004C4001E00123BB813B681B88002B1CD13B68FC
S31520004C5059883B689A883B681B89786800F034FC41
S31520004C603B68DB881946786800F05EF83B681B894C
S31520004C70BA89F989786800F06AFC3B68DB881946AE
S31520004C80786800F06DF81BE03B6859883B689A8885
S31520004C903B681B89786800F05AFC3B68DB8819461C
S31520004CA0786800F05DF83B681B89BA89F9897868CD
S31520004CB000F00AFC3B68DB881946786800F034F877
S31520004CC000BF1037BD4680BD80B483B000AF78608A
S31520004CD07B685B6B18460C37BD465DF8047B7047D6
S31520004CE080B483B000AF78607B689B6B18460C3726
S31520004CF0BD465DF8047B704780B483B000AF786012
S31520004D007B68DB6B18460C37BD465DF8047B704725
S31520004D1080B483B000AF78607B681B6C18460C3774
S31520004D20BD465DF8047B704780B483B000AF7860E1
S31520004D300B467B807B681B8B9BB223F00C039AB2BD
S31520004D407B681A837B681B8B9AB27B8813439AB243
S31520004D507B681A8300BF0C37BD465DF8047B70471D
S31520004D6080B483B000AF78600B467B807B681B8B5A
S31520004D709BB223F440639AB27B681A837B681B8BB1
S31520004D809AB27B881B029BB213439AB27B681A8322
S31520004D9000BF0C37BD465DF8047B704780B483B0F6
S31520004DA000AF78600B467B807B689B8B9BB223F0A1
S31520004DB00C039AB27B689A837B689B8B9AB27B881A
S31520004DC013439AB27B689A8300BF0C37BD465DF8C1
S31520004DD0047B704780B483B000AF78600B467B803D
S31520004DE07B689B8B9BB223F440639AB27B689A8341
S31520004DF07B689B8B9AB27B881B029BB213439AB229
S31520004E007B689A8300BF0C37BD465DF8047B7047EC
S31520004E1080B483B000AF786039603B681A883B68FD
S31520004E205B8813439AB23B689B8813439AB23B68CC
S31520004E30DB8813439AB23B681B8913439AB23B68BB
S31520004E405B8913439AB23B689B8913439AB27B686A
S31520004E50A3F8442000BF0C37BD465DF8047B70479D
S31520004E6080B483B000AF78607B6800221A807B68AC
S31520004E7000225A807B6800229A807B680022DA8092
S31520004E807B6800221A817B6800225A817B68002277
S31520004E909A8100BF0C37BD465DF8047B704780B40D
S31520004EA083B000AF78600B46FB70FB78002B0CD0EC
S31520004EB07B68B3F844309BB26FEA43436FEA5343AF
S31520004EC09AB27B68A3F8442009E07B68B3F84430A3
S31520004ED09BB2C3F30E039AB27B68A3F8442000BFAB
S31520004EE00C37BD465DF8047B704780B483B000AFB5
S31520004EF078600B46FB70FB78002B08D07B689B887C
S31520004F009BB243F004039AB27B689A8007E07B68E1
S31520004F109B889BB223F004039AB27B689A8000BFD9
S31520004F200C37BD465DF8047B704780B483B000AF74
S31520004F3078600B46FB70FB78002B08D07B689B883B
S31520004F409BB243F001039AB27B689A8007E07B68A4
S31520004F509B889BB223F001039AB27B689A8000BF9C
S31520004F600C37BD465DF8047B704780B483B000AF34
S31520004F7078600B467B8013467B707B78002B08D0AD
S31520004F807B689B899AB27B8813439AB27B689A8105
S31520004F9009E07B689B899AB27B88DB439BB21340EE
S31520004FA09AB27B689A8100BF0C37BD465DF8047BB8
S31520004FB0704780B483B000AF78600B467B807B68F7
S31520004FC07A889A8200BF0C37BD465DF8047B70470D
S31520004FD080B485B000AF78600B467B800023FB73DE
S31520004FE07B681B8A9AB27B8813409BB2002B02D027
S31520004FF00123FB7301E00023FB73FB7B1846143768
S31520005000BD465DF8047B704780B483B000AF7860FE
S315200050100B467B807B88DB439AB27B681A8200BF73
S315200050200C37BD465DF8047B704780B485B000AF71
S3152000503078600B467B800023FB730023BB81002313
S315200050407B817B681B8A9AB27B881340BB817B68F5
S315200050509B899AB27B8813407B81BB89002B05D024
S315200050607B89002B02D00123FB7301E00023FB7315
S31520005070FB7B18461437BD465DF8047B704780B429
S3152000508083B000AF78600B467B807B88DB439AB287
S315200050907B681A8200BF0C37BD465DF8047B7047DB
S315200050A080B483B000AF78600B467B8013463B808C
S315200050B07A883B8813439AB27B68A3F8482000BFBE
S315200050C00C37BD465DF8047B704780B483B000AFD3
S315200050D078600B467B8013467B707B78002B08D04C
S315200050E07B689B899AB27B8813439AB27B689A81A4
S315200050F009E07B689B899AB27B88DB439BB213408D
S315200051009AB27B689A8100BF0C37BD465DF8047B56
S31520005110704780B483B000AF78600B46FB70FB7895
S31520005120002B08D07B689B889BB243F008039AB279
S315200051307B689A8007E07B689B889BB223F00803F4
S315200051409AB27B689A8000BF0C37BD465DF8047B17
S31520005150704780B483B000AF78607B681B899BB2B0
S3152000516023F007039AB27B681A8100BF0C37BD462D
S315200051705DF8047B704780B582B000AF78600B463F
S315200051807B807B881946786800F088F87B681B89C5
S315200051909BB243F007039AB27B681A8100BF083797
S315200051A0BD4680BD80B584B000AFF8600846114684
S315200051B01A4603467B810B463B811346FB807B893F
S315200051C0602B06D1FB8839890122F86800F0BFF9E7
S315200051D005E0FB8839890122F86800F075F97B899A
S315200051E01946F86800F05AF8FB681B899BB243F011
S315200051F007039AB2FB681A8100BF1037BD4680BDEF
S3152000520080B586B000AFF860084611461A460346B8
S315200052107B810B463B811346FB800023FB82FB8868
S315200052203A897989F86800F0A9F8FB681B89FB821E
S31520005230FB8A23F00703FB82FB8A43F00703FB82EA
S31520005240FB8A23F07003FB82FB8A43F07003FB8208
S31520005250FB68FA8A1A8100BF1837BD4680BD80B523
S3152000526084B000AFF860084611461A4603467B8193
S315200052700B463B811346FB80FB883A897989F8687F
S3152000528000F07CF8FB681B899BB243F480439AB2FA
S31520005290FB681A8100BF1037BD4680BD80B485B03B
S315200052A000AF78600B467B800023FB817B681B89DF
S315200052B0FB81FB8923F07003FB81FA897B881343EA
S315200052C0FB817B68FA891A8100BF1437BD465DF8D9
S315200052D0047B704780B483B000AF78600B467B8038
S315200052E07B689B889BB223F070039AB27B689A8076
S315200052F07B689B889AB27B8813439AB27B689A8094
S3152000530000BF0C37BD465DF8047B704780B483B080
S3152000531000AF78600B467B807B681B899BB223F0AD
S3152000532007039AB27B681A817B681B899AB27B88AD
S3152000533013439AB27B681A8100BF0C37BD465DF8CD
S31520005340047B704780B483B000AF78600B467B80C7
S315200053507B681B899BB223F080039AB27B681A81F3
S315200053607B681B899AB27B8813439AB27B681A8121
S3152000537000BF0C37BD465DF8047B704780B487B00C
S3152000538000AFF860084611461A4603467B810B4655
S315200053903B811346FB800023FB82FB681B89FB8233
S315200053A0FB8ADBB2FB82FB881B029AB23B89134342
S315200053B09AB27B8913439AB2FB8A1343FB82FB681A
S315200053C0FA8A1A8100BF1C37BD465DF8047B7047F8
S315200053D080B487B000AFF860084611461A460346E7
S315200053E07B810B463B811346FB800023FB820023F7
S315200053F0BB8200237B82FB681B89FB82FB681B8B9D
S31520005400BB82FB681B8C7B82FB8A23F00703FB8213
S31520005410FA8A7B891343FB82BB8A23F4407323F0E9
S315200054200303BB82BB8A43F4807343F00103BB8230
S315200054307B8A23F022037B82FB881B019AB23B895D
S3152000544013439AB27B8A13437B82FB68FA8A1A81BA
S31520005450FB68BA8A1A83FB687A8A1A8400BF1C37CB
S31520005460BD465DF8047B704780B483B000AF78609A
S315200054700B46FB70FB78002B08D07B689B889BB281
S3152000548043F080039AB27B689A8007E07B689B880A
S315200054909BB223F080039AB27B689A8000BF0C37B8
S315200054A0BD465DF8047B704780B483B000AF78605A
S315200054B00B467B807B687A88A3F8502000BF0C3788
S315200054C0BD465DF8047B704780B487B000AFF860B6
S315200054D0084611461A4603467B810B463B811346F6
S315200054E0FB800023FB820023BB82FB681B8C9BB2C4
S315200054F023F001039AB2FB681A84FB681B8BFB829C
