S01600002E2F44656275672F5254532D4C61622E73313936
S3152000000000BFDFF814D000F0FCF905F057FE00F031
S315200000100ABAFEE700BF000000C00120314900E017
S315200000203149EFF3088020ED108A7246EFF31183F1
S3152000003020E9FC0F2D4FD7F80080C8F800001EE0FD
S31520000040084602F00FFB2A4802F00CFB294802F072
S3152000005009FBD8F8040002F051FB274802F002FB06
S31520000060D8F8000002F01BFB244802F0FBFAD8F86F
S315200000700000006802F013FB1D4802F0F3FADFF8D7
S315200000808080D8F80080C7F8008018E01D4802F06C
S31520000090E9FAD8F8040002F031FB1B4802F0E2FA34
S315200000A0D8F8000002F0FBFA144802F0DBFAD8F880
S315200000B00000006802F0F3FA0D4802F0D3FA134A62
S315200000C0536843F00063536000BFD8F80000B0E8DF
S315200000D0FC0F83F311889646B0EC108A80F30888CB
S315200000E07047000000B8002011B80020D4B80020C6
S315200000F081B8002032B800204AB8002052B800202B
S315200001002CBF00205BB8002070B8002000ED00E076
S3152000011080B400AF00BFBD465DF8047B704780B554
S3152000012086B000AF454809F00BF8454807F026FE93
S31520000130444807F023FE01214FF0007002F032F808
S3152000014001214FF0806002F02DF80121022001F0FC
S31520000150C9FF09220921394809F014FA0922082180
S31520000160364809F00FFA07F11003184609F029F965
S315200001704FF400733B6102233B750023BB750023BC
S31520000180FB7502237B7507F1100319462B4809F0EE
S3152000019089F84FF480733B6102233B750023BB75BE
S315200001A00123FB7502237B7507F1100319462348AB
S315200001B009F078F809220621204809F0E3F90922F6
S315200001C005211E4809F0DEF940233B6102233B75D9
S315200001D00023BB750023FB7502237B7507F11003F3
S315200001E01946164809F05EF820233B6102233B7529
S315200001F00023BB750123FB7502237B7507F11003D2
S3152000020019460E4809F04EF80023BB720023FB72F4
S3152000021001233B7300233B8000237B800023BB808C
S315200002200023FB8000233B8101237B733B4618463A
S3152000023007F099FE00BF1837BD4680BD0004024076
S31520000240006400400068004080B586B000AF012100
S315200002504FF0005001F0A6FF07F11003184609F0F1
S31520000260B0F820233B6103233B750023FB7507F180
S31520000270100319460F4809F015F805F049FD3B46CD
S31520000280184605F087FD00233B6000237B60002392
S31520000290FB603B461946102005F048FD0121102041
S315200002A005F08EFD0021082005F038FE00BF183726
S315200002B0BD4680BD0000024080B584B000AF01215C
S315200002C04FF4804001F08EFF0721012009F0D2F97A
S315200002D008F02EFE3B46184608F0B6FE80233B600B
S315200002E000233B710C237B710123BB713B461846CF
S315200002F008F038FE07F10803184609F062F80223D1
S31520000300BB6001233B730123BB730023FB730123D3
S315200003107B7307F108031946184808F0C3FF012329
S31520000320BB6001233B730123BB730023FB730123B3
S315200003307B7307F108031946104808F0B3FF012222
S3152000034002210E4809F0E5F8012201210B4809F0A7
S31520000350E0F88023BB6000233B730023BB7300239C
S31520000360FB7301237B7307F108031946034808F042
S3152000037099FF00BF1037BD4680BD00BF0004024074
S3152000038080B483B000AFEFF314833B603B6823F067
S3152000039003037B607B6883F3148800BF094B4FF40B
S315200003A004725A61074B5B69064A43F0080353619E
S315200003B0054B4FF000425A6000BF0C37BD465DF832
S315200003C0047B704700ED00E030EF00E080B500AF21
S315200003D00121082001F0E6FE0121082002F022F882
S315200003E000BF80BD80B400AF124A02E0002342F86D
S315200003F0043B114B9A42F9D300BFBD465DF8047BFE
S31520000400704780B500AFFFF7EDFFFFF781FEFFF7DE
S3152000041086FEFFF719FFFFF74FFFFFF7B1FFFFF744
S31520000420D5FF00BF80BD80B400AF00BFBD465DF8DC
S31520000430047B704700BF00208842012080B483B02F
S3152000044000AF0346FB71FB7903F01F03012202FA7A
S3152000045003F1064A97F907305B0942F8231000BFDB
S315200004600C37BD465DF8047B704700BF00E100E015
S3152000047080B483B000AF03463960FB7197F907302B
S31520000480002B0BDA3B68DAB20C49FB7903F00F0339
S31520000490043B1201D2B20B441A7609E03B68DAB269
S315200004A0074997F907301201D2B20B4483F800238B
S315200004B000BF0C37BD465DF8047B704700ED00E0B9
S315200004C000E100E080B582B000AF786039607B68DB
S315200004D000229A617B689A697B685A617B685A69AF
S315200004E07B68DA61012240F225510A4801F058F86A
S315200004F0002240F22771074801F052F802212520F8
S31520000500FFF7B6FF2520FFF799FF00BF0837BD4646
S3152000051080BD00BF0010014080B483B000AF78607A
S315200005200B46FB707B68DB69B3F5806F17DA7B6857
S315200005305B697A681344FA7883F820207B685B69C4
S3152000054001335A42C3F30903C2F3090258BF534287
S315200005507A6853617B68DB695A1C7B68DA6100BF65
S315200005600C37BD465DF8047B704780B582B000AF7E
S31520000570786039607B68DB69002B18D17B689B68C3
S31520000580012240F22771184601F00AF80FE03B6875
S315200005901B780A2B03D10D217868FFF7BDFF3B6836
S315200005A05A1C3A601B7819467868FFF7B5FF3B68F6
S315200005B01B78002BEBD100BF00BF0837BD4680BD9E
S315200005C080B582B000AF786039607B68DB69002B2C
S315200005D007D17B689B68012240F22771184600F0FC
S315200005E0DFFF3B68DBB219467868FFF795FF00BF4F
S315200005F00837BD4680BD80B586B002AF78603960C9
S315200006007B689B682021184601F012F80346012BCF
S3152000061018D17B689B68184600F02DFE0346FB60C8
S315200006207B68DB68002B0DD07B68DA687B681969EC
S31520000630FB6800930B460021002002F04FFC234B61
S3152000064001221A607B689B688021184600F0F0FF23
S315200006500346012B35D17B68DB69002B29DD7B68BE
S3152000066098687B689B697A68134493F820309BB21C
S31520000670194600F0EEFD7B689B6901335A42C3F3AD
S315200006800903C2F3090258BF53427A6893617B6813
S31520000690DB695A1E7B68DA617B68DB69002B10D127
S315200006A07B689B68002240F22771184600F078FF8D
S315200006B007E07B689B68002240F22771184600F00D
S315200006C06FFF002318461037BD4680BD0CBF0020A3
S315200006D080B5A6B002AF786039603A6807F170033A
S315200006E01068516803C31189927A19809A7097F815
S315200006F0703007F10C00674A642109F0E1FC07F12C
S315200007000C031A466449654802F086FC00226449B7
S31520000710644802F081FCC7F88C00002262496148D7
S3152000072002F07AFCC7F88800002260495D4802F092
S3152000073073FCC7F8840000225D495A4802F06CFC1D
S31520000740C7F8800097F870303B3B052B00F29E805F
S3152000075001A252F823F000BF5B0800200508002004
S31520000760CD07002095070020830700207107002071
S3152000077097F871301A467B680232002143F822101E
S3152000078084E097F871301A467B680232012143F8DB
S3152000079022107BE0D7F88C30072B06D17B68D7F860
S315200007A084200232012143F8221097F871301A462C
S315200007B07B680232062143F82210002300933D4B2A
S315200007C03D4A0021002002F089FB5FE0D7F88C30FB
S315200007D0072B06D17B68D7F884200232012143F803
S315200007E0221097F871301A467B680232052143F8A9
S315200007F02210002300932F4B2F4A0021002002F0C5
S315200008006DFB43E0002300932C4B7A6800210020E7
S3152000081002F064FBD7F8803001330093284B214A3D
S315200008200021002002F05AFB00230093254B7A6812
S315200008300021002002F052FB012300931F4B7A680F
S315200008400021214802F04AFB002300931F4B7A68BF
S3152000085000211F4802F042FB18E007F17003033322
S31520000860184609F0F5FBF867FB6F0093144B0D4A09
S315200008700021002002F032FB97F871300093154BCF
S31520000880084A0021002002F029FBFFE700BF90372D
S31520000890BD4680BDB8AC00206B050020F0B9002015
S315200008A0513C0020D8B80020D3380020B938002089
S315200008B0ED380020BD560020D0B90020330B002093
S315200008C0C13C0020610C0020F0490200250A0020CE
S315200008D0400D0300DD3C002080B58CB002AF78606F
S315200008E0396000224549464802F096FB786100238C
S315200008F07B6200233B620023FB6100224149404882
S3152000090002F08AFB386100223F493D4802F084FB11
S31520000910F8600023BB612AE07B68BA69023253F88B
S31520000920223013F1020F08D17B6A01337B627B6888
S31520000930BA690232072143F822107B68BA6902326B
S3152000094053F82230002B05D13B6A01333B62FB6909
S315200009500133FB617B68BA69023253F82230012BDE
S3152000096002D13B6A01333B62BB690133BB61BB6980
S31520000970022BD1DD3A6AFB689A4207DA00230093FC
S31520000980224B234A0021002002F0A8FA3B6A00935A
S31520000990204B1B4A0021002002F0A0FAFB69012B04
S315200009A007DD002300931C4B154A0021002002F08E
S315200009B095FA3B69072B0AD13B6A002B07DD0023FA
S315200009C00093164B0E4A0021002002F087FAFB699D
S315200009D0002B07D1002300930F4B094A002100204A
S315200009E002F07CFA002300930D4B7A680021002048
S315200009F002F074FA00BF2837BD4680BDD3380020E8
S31520000A00D8B80020513C0020ED380020BD560020EB
S31520000A10D0B90020C13C00206B3C0020394000208A
S31520000A20250A002080B58CB002AF7860396000239B
S31520000A307B6209E07B687A6A02326FF0010143F833
S31520000A4022107B6A01337B627B6A022BF2DD002255
S31520000A502A492B4802F0E0FA386200222949284820
S31520000A6002F0DAFAF8617B683A6A0232F96943F8E9
S31520000A7022103B6ADBB27B73FB69072B21D801A2CC
S31520000A8052F823F0A50A0020AB0A0020C30A002052
S31520000A90C30A0020C30A0020BD0A0020B70A00208E
S31520000AA0B10A002040233B730BE03F233B7308E051
S31520000AB03F233B7305E03E233B7302E03D233B731C
S31520000AC000BF07F10C031A460F49104802F0A4FA9A
S31520000AD07B681433184602F09DFBB8617B68BA69BF
S31520000AE09A61002300930A4B7A680021094802F094
S31520000AF0F5F900BF2837BD4680BD00BFB9380020B4
S31520000B00D8B80020513C0020EF43002024BE00200E
S31520000B10D9080020A086010080B483B000AF786099
S31520000B2039607B68DB6918460C37BD465DF8047B67
S31520000B30704780B483B000AF786039607B683A68CC
S31520000B40DA6100BF0C37BD465DF8047B704780B480
S31520000B5085B000AF786039600023FB600BE07B68CE
S31520000B60FA68023253F82230002B01D1012306E025
S31520000B70FB680133FB60FB68022BF0DD002318467F
S31520000B801437BD465DF8047B704780B586B000AF4C
S31520000B907860396000220A490A4802F03DFA7861F5
S31520000BA07B69DBB27B723E233B7207F108031A4650
S31520000BB00549064802F030FA00BF1837BD4680BD09
S31520000BC0B9380020D8B80020EF43002024BE0020EA
S31520000BD080B586B000AF7860396000220A490B489C
S31520000BE002F01AFA78617B69DBB27B723D233B7295
S31520000BF007F108031A460649064802F00DFA00BF17
S31520000C001837BD4680BD00BFB9380020D8B80020AF
S31520000C10EF43002024BE002080B586B000AF786068
S31520000C20396000220A490B4802F0F6F978617B699F
S31520000C30DBB27B723C233B7207F108031A46064956
S31520000C40064802F0E9F900BF1837BD4680BD00BF4F
S31520000C50B9380020D8B80020EF43002024BE002059
S31520000C6080B58AB000AF78603960002218491948EB
S31520000C7002F0D2F9786200221749164802F0CCF920
S31520000C8038627B6A002B20D13B6ADBB27B743B2324
S31520000C903B74002211490F4802F0BEF9F861FB6946
S31520000CA083EAE372A2EBE37207F10C030C491846C0
S31520000CB009F056FA0123BB743B7BFB7407F1100342
S31520000CC01A460849084802F0A7F92837BD4680BDCC
S31520000CD0513C0020D8B80020B9380020ED3800203B
S31520000CE0CCAC0020EF43002024BE002080B59CB071
S31520000CF000AF786039600023FB6669E007F10800E1
S31520000D00FB6E374A642109F0DBF907F108031A461E
S31520000D103449354802F080F97B68FA6E023253F87E
S31520000D2022300233092B4FD801A252F823F000BFFC
S31520000D30BB0D0020750D0020590D0020670D0020E9
S31520000D40830D0020C90D0020C90D0020910D002023
S31520000D509F0D0020AD0D0020244B1A462149224824
S31520000D6002F05AF931E0224B1A461E491E4802F07B
S31520000D7053F92AE01F4B1A461A491B4802F04CF930
S31520000D8023E01D4B1A461749174802F045F91CE087
S31520000D901A4B1A461349144802F03EF915E0184B2F
S31520000DA01A461049104802F037F90EE0154B1A463C
S31520000DB00C490D4802F030F907E0134B1A46094951
S31520000DC0094802F029F900E000BFFB6E0133FB66FB
S31520000DD0FB6E022B92DD00BF00BF7037BD4680BD83
S31520000DE0D0AC00206B050020F0B90020E0AC00203C
S31520000DF0E8AC0020F0AC0020F8AC002004AD0020C8
S31520000E0010AD00201CAD002028AD002080B582B09A
S31520000E1000AF78607B683B4A934208D101211020BD
S31520000E2001F080FA0021102001F07CFA65E07B6851
S31520000E30354A93420AD101214FF4003001F052FA8B
S31520000E4000214FF4003001F04DFA56E07B682F4A1E
S31520000E5093420AD101214FF4802001F043FA002168
S31520000E604FF4802001F03EFA47E07B68284A9342FF
S31520000E700AD101214FF4002001F034FA00214FF469
S31520000E80002001F02FFA38E07B68224A93420AD1EB
S31520000E9001214FF4801001F025FA00214FF4801033
S31520000EA001F020FA29E07B681B4A934208D10121F0
S31520000EB0202001F037FA0021202001F033FA1CE02F
S31520000EC07B68164A93420AD101214FF0804001F0F7
S31520000ED009FA00214FF0804001F004FA0DE07B680A
S31520000EE00F4A934209D101214FF0004001F0FAF94F
S31520000EF000214FF0004001F0F5F900BF0837BD464C
S31520000F0080BD00BF00100140004400400048004062
S31520000F10004C004000500040001401400078004082
S31520000F20007C004080B58AB000AF7860396000232D
S31520000F307B6200233B620023FB610023BB617B684D
S31520000F401B8A9BB27B627B6A23F440537B623B689D
S31520000F50DB881A467B6A13437B627B6A9AB27B687C
S31520000F601A827B689B899BB27B627B6A23F4B0538F
S31520000F7023F00C037B623B689A883B681B891343EA
S31520000F809AB23B685B8913439BB21A467B6A13432A
S31520000F907B627B6A9AB27B689A817B689B8A9BB2CA
S31520000FA07B627B6A23F440737B623B689B891A468B
S31520000FB07B6A13437B627B6A9AB27B689A8207F1CB
S31520000FC00803184600F0D8FE7B68304A934203D0C7
S31520000FD07B682F4A934202D17B693B6201E03B69E1
S31520000FE03B627B689B899BB21BB2002B0CDA3A6A68
S31520000FF013469B0013449A001A443B681B685B0007
S31520001000B2FBF3F3FB610BE03A6A13469B001344F1
S315200010109A001A443B681B689B00B2FBF3F3FB6102
S31520001020FB691C4AA2FB03235B091B017B627B6ACB
S315200010301B09642202FB03F3FA69D31ABB617B689E
S315200010409B899BB21BB2002B0CDABB69DB003233C7
S31520001050104AA2FB03235B0903F007037A6A1343B2
S315200010607B620BE0BB691B0132330A4AA2FB0323D6
S315200010705B0903F00F037A6A13437B627B6A9AB299
S315200010807B681A8100BF2837BD4680BD001001400D
S31520001090001401401F85EB5180B483B000AF786007
S315200010A07B684FF416521A607B6800229A807B6810
S315200010B00022DA807B6800221A817B680C225A8102
S315200010C07B6800229A8100BF0C37BD465DF8047B01
S315200010D0704780B485B000AF786039600023FB602C
S315200010E07B681B8A9BB2FB60FB6823F47063FB6002
S315200010F03B681A883B685B8813439AB23B689B8897
S3152000110013439AB23B68DB8813439BB21A46FB68AB
S315200011101343FB60FB689AB27B681A8200BF1437C0
S31520001120BD465DF8047B704780B483B000AF78601D
S315200011307B6800221A807B6800225A807B68002206
S315200011409A807B680022DA8000BF0C37BD465DF8A6
S31520001150047B704780B483B000AF78600B46FB7089
S31520001160FB78002B08D07B689B899BB243F4005305
S315200011709AB27B689A8107E07B689B899BB223F4AD
S3152000118000539AB27B689A8100BF0C37BD465DF842
S31520001190047B704780B483B000AF78600B46FB7049
S315200011A07B681B8B9BB223F0FF039AB27B681A8362
S315200011B07B681B8B9AB2FB789BB213439AB27B68EF
S315200011C01A8300BF0C37BD465DF8047B704780B498
S315200011D083B000AF78600B46FB70FB78002B0AD0FB
S315200011E07B689B899BB26FEA43436FEA53439AB26B
S315200011F07B689A8107E07B689B899BB2C3F30E03C9
S315200012009AB27B689A8100BF0C37BD465DF8047B95
S31520001210704780B483B000AF78600B46FB70FB78D4
S31520001220002B08D07B689B8A9BB243F400639AB25A
S315200012307B689A8207E07B689B8A9BB223F40063D3
S315200012409AB27B689A8200BF0C37BD465DF8047B54
S31520001250704780B483B000AF78600B467B807B8874
S31520001260C3F308039AB27B689A8000BF0C37BD4649
S315200012705DF8047B704780B483B000AF78607B68EC
S315200012809B889BB2C3F308039BB218460C37BD4616
S315200012905DF8047B704780B483B000AF78600B465E
S315200012A0FB707B681B8A9BB223F00F039AB27B6884
S315200012B01A827B681B8A9AB2FB789BB213439AB236
S315200012C07B681A8200BF0C37BD465DF8047B7047E9
S315200012D080B483B000AF78600B46FB70FB78002BA0
S315200012E008D07B689B899BB243F002039AB27B6845
S315200012F09A8107E07B689B899BB223F002039AB20E
S315200013007B689A8100BF0C37BD465DF8047B704729
S3152000131080B483B000AF78600B467B807B689B8966
S315200013209BB223F400639AB27B689A817B689B897F
S315200013309AB27B8813439AB27B689A8100BF0C3796
S31520001340BD465DF8047B704780B483B000AF7860FB
S315200013500B467B807B681B8A9BB223F020039AB2C4
S315200013607B681A827B681B8A9AB27B8813439AB25F
S315200013707B681A8200BF0C37BD465DF8047B704738
S3152000138080B483B000AF78600B46FB70FB78002BEF
S3152000139008D07B681B8A9BB243F480439AB27B6851
S315200013A01A8207E07B681B8A9BB223F480439AB299
S315200013B07B681A8200BF0C37BD465DF8047B7047F8
S315200013C080B483B000AF78607B689B899BB243F082
S315200013D001039AB27B689A8100BF0C37BD465DF83F
S315200013E0047B704780B483B000AF78600B46FB70F7
S315200013F0FB78002B08D07B689B8A9BB243F00803BE
S315200014009AB27B689A8207E07B689B8A9BB223F01C
S3152000141008039AB27B689A8200BF0C37BD465DF8F6
S31520001420047B704780B483B000AF78600B46FB70B6
S315200014307B681B8B9BB2DBB29AB27B681A837B6874
S315200014401B8B9AB2FB789BB21B029BB213439AB2B8
S315200014507B681A8300BF0C37BD465DF8047B704756
S3152000146080B483B000AF78600B46FB70FB78002B0E
S3152000147008D07B689B8A9BB243F020039AB27B6894
S315200014809A8207E07B689B8A9BB223F020039AB25C
S315200014907B689A8200BF0C37BD465DF8047B704797
S315200014A080B483B000AF78600B46FB70FB78002BCE
S315200014B008D07B689B8A9BB243F010039AB27B6864
S315200014C09A8207E07B689B8A9BB223F010039AB22C
S315200014D07B689A8200BF0C37BD465DF8047B704757
S315200014E080B483B000AF78600B467B807B689B8A94
S315200014F09BB223F004039AB27B689A827B689B8A0C
S315200015009AB27B8813439AB27B689A8200BF0C37C3
S31520001510BD465DF8047B704780B483B000AF786029
S315200015200B46FB70FB78002B08D07B689B8A9BB20E
S3152000153043F002039AB27B689A8207E07B689B8A13
S315200015409BB223F002039AB27B689A8200BF0C37C3
S31520001550BD465DF8047B704780B483B000AF7860E9
S315200015600B467B8013467B707B78002B08D07B68EC
S315200015709B8A9AB27B8813439AB27B689A8209E047
S315200015807B689B8A9AB27B88DB439BB213409AB2D4
S315200015907B689A8200BF0C37BD465DF8047B704796
S315200015A080B487B000AF78600B467B8013467B7093
S315200015B000233B610023FB600023BB6000237B618B
S315200015C07B687B617B88DBB25B09DBB23B617B8816
S315200015D003F01F03FB600122FB6802FA03F3BB60E2
S315200015E03B69012B03D17B690C337B6109E03B69A5
S315200015F0022B03D17B6910337B6102E07B691433B4
S315200016007B617B78002B06D07B6919687B69BA6879
S315200016100A431A6006E07B691968BB68DA437B696E
S315200016200A401A6000BF1C37BD465DF8047B704730
S3152000163080B485B000AF78600B467B800023FB73B7
S315200016407B681B889AB27B8813409BB2002B02D002
S315200016500123FB7301E00023FB73FB7B1846143741
S31520001660BD465DF8047B704780B483B000AF7860D8
S315200016700B467B807B88DB439AB27B681A8000BF4F
S315200016800C37BD465DF8047B704780B487B000AF49
S3152000169078600B467B800023FB6000237B61002360
S315200016A0BB600023FB747B88DBB25B09DBB2BB60CB
S315200016B07B8803F01F037B6101227B6902FA03F317
S315200016C07B61BB68012B07D17B689B899BB21A463D
S315200016D07B6913407B6111E0BB68022B07D17B68D5
S315200016E01B8A9BB21A467B6913407B6106E07B68A6
S315200016F09B8A9BB21A467B6913407B617B881B0AB7
S315200017009BB2FB600122FB6802FA03F3FB607B6855
S315200017101B889BB21A46FB681340FB607B69002B33
S3152000172005D0FB68002B02D00123FB7401E00023C7
S31520001730FB74FB7C18461C37BD465DF8047B70475E
S3152000174080B485B000AF78600B467B800023FB8198
S315200017500023BB817B881B0AFB81FB89012202FABD
S3152000176003F3BB81BB89DB439AB27B681A8000BF37
S315200017701437BD465DF8047B704700BF80B483B044
S3152000178000AF0346FB71FB7903F01F03012202FA27
S3152000179003F1064A97F907305B0942F8231000BF88
S315200017A00C37BD465DF8047B704700BF00E100E0C2
S315200017B080B483B000AF03463960FB7197F90730D8
S315200017C0002B0BDA3B68DAB20C49FB7903F00F03E6
S315200017D0043B1201D2B20B441A7609E03B68DAB216
S315200017E0074997F907301201D2B20B4483F8002338
S315200017F000BF0C37BD465DF8047B704700ED00E066
S3152000180000E100E080B582B000AF78603960002248
S315200018100121074807F07DFE02211720FFF7C8FFA8
S315200018201720FFF7ABFF00BF0837BD4680BD00BFBE
S315200018300004024080B582B000AF786039607B68D2
S315200018409B688021184607F0F8FD0346184608379E
S31520001850BD4680BD80B582B000AF786039607B68B8
S315200018609B683A68D2B20121184607F052FE00BFA3
S315200018700837BD4680BD80B582B000AF786039603C
S315200018807B689B680121184607F06AFE00BF08376F
S31520001890BD4680BD80B584B000AF7860396007F161
S315200018A00803184607F0D0FB8023BB6000233B7358
S315200018B03B68002B01D0082300E00C237B73012317
S315200018C0BB7307F10803184607F04CFB00BF10371F
S315200018D0BD4680BD80B584B002AF78603960802077
S315200018E007F004FC0346012B14D1802007F018FCD6
S315200018F07B68DB68002B10D07B68DA687B681B6905
S31520001900002100910021002001F0E8FA054B012278
S315200019101A6002E0044800F0A5FE002318460837A6
S31520001920BD4680BD0CBF002034AD002080B400AF82
S31520001930164B1B68154A43F001031360134B002214
S315200019409A60124B1B68114A23F0A85323F41023E4
S3152000195013600E4B0E4A5A600C4B0E4AC3F8842075
S315200019600A4B0D4AC3F88820084B1B68074A23F404
S3152000197080231360054B0022DA60044B0022C3F853
S315200019808C2000BFBD465DF8047B704700380240BE
S3152000199010300024003000200030002480B483B0B2
S315200019A000AF0346FB71064B00221A70044AFB79EE
S315200019B0137000BF0C37BD465DF8047B704700BF2F
S315200019C00238024080B582B000AF00233B6000237E
S315200019D0FB710023BB71312000F08AFD0346BB71E9
S315200019E03B6801333B603B68B3F5A04F02D0BB791F
S315200019F0002BF0D0312000F07BFD0346002B02D0D7
S31520001A000123FB7101E00023FB71FB79184608379F
S31520001A10BD4680BD80B485B000AF0346FB71002370
S31520001A20FB600A4B1B68FB60FB6823F0F803FB6036
S31520001A30FB79DB00FA681343FB60044AFB681360FA
S31520001A4000BF1437BD465DF8047B7047003802405E
S31520001A5080B483B000AF0346FB71044AFB79136060
S31520001A6000BF0C37BD465DF8047B70470000474237
S31520001A7080B483B000AF0346FB710D4B00221A7071
S31520001A800B4B00221A70FB79012B02D0042B04D0B9
S31520001A9007E0074B01221A7003E0054B05221A7056
S31520001AA000BF00BF0C37BD465DF8047B704700BF02
S31520001AB07038024080B483B000AF0346FB71044AFD
S31520001AC0FB79136000BF0C37BD465DF8047B704779
S31520001AD0800E474280B485B000AFF860B9607A6066
S31520001AE03B607B689A01BB681A433B685B08013BF5
S31520001AF01B041A43FB681A43BB691B06044913439C
S31520001B004B6000BF1437BD465DF8047B704700BFAD
S31520001B100038024080B483B000AF0346FB71044A0C
S31520001B20FB79136000BF0C37BD465DF8047B704718
S31520001B306000474280B483B000AF786039607B682C
S31520001B409A013B681B0705491343C1F8843000BF3F
S31520001B500C37BD465DF8047B704700BF0038024055
S31520001B6080B483B000AF0346FB71044AFB7913604F
S31520001B7000BF0C37BD465DF8047B704768004742BE
S31520001B8080B485B000AFF860B9607A60FB689A01CE
S31520001B90BB681B061A437B681B0705491343C1F81C
S31520001BA0883000BF1437BD465DF8047B704700BF00
S31520001BB00038024080B483B000AF0346FB71044A6C
S31520001BC0FB79136000BF0C37BD465DF8047B704778
S31520001BD07000474280B483B000AF0346FB71044ACD
S31520001BE0FB79136000BF0C37BD465DF8047B704758
S31520001BF04C00474280B485B000AF7860396000233E
S31520001C00FB600B4B9B68FB60FB6823F0EC63FB607F
S31520001C107A683B681343FA681343FB60044AFB68FF
S31520001C20936000BF1437BD465DF8047B704700BF44
S31520001C300038024080B485B000AF78603960002358
S31520001C40FB600B4B9B68FB60FB6823F07843FB60D3
S31520001C507A683B681343FA681343FB60044AFB68BF
S31520001C60936000BF1437BD465DF8047B704700BF04
S31520001C700038024080B485B000AF78600023FB6056
S31520001C80094B9B68FB60FB6823F00303FB60FA6843
S31520001C907B681343FB60044AFB68936000BF1437DC
S31520001CA0BD465DF8047B70470038024080B400AF23
S31520001CB0054B9B68DBB203F00C03DBB21846BD462E
S31520001CC05DF8047B704700BF0038024080B485B0C1
S31520001CD000AF78600023FB60094B9B68FB60FB68C4
S31520001CE023F0F003FB60FA687B681343FB60044A29
S31520001CF0FB68936000BF1437BD465DF8047B7047D0
S31520001D000038024080B485B000AF78600023FB60C5
S31520001D10094B9B68FB60FB6823F4E053FB60FA6881
S31520001D207B681343FB60044AFB68936000BF14374B
S31520001D30BD465DF8047B70470038024080B485B00C
S31520001D4000AF78600023FB600A4B9B68FB60FB6852
S31520001D5023F46043FB607B68DB00FA681343FB6077
S31520001D60044AFB68936000BF1437BD465DF8047BC8
S31520001D70704700BF0038024080B489B000AF786059
S31520001D800023BB6100237B610023FB6102233B61AF
S31520001D900023FB600223BB604A4B9B6803F00C03C5
S31520001DA0BB61BB69082B11D0BB69082B44D8BB6922
S31520001DB0002B03D0BB69042B04D03DE07B68424A4C
S31520001DC01A603DE07B68414A1A6039E03D4B5B680A
S31520001DD09B0D03F00103FB603A4B5B6803F03F0366
S31520001DE0BB60FB68002B0CD0384ABB68B2FBF3F310
S31520001DF0344A52689209C2F3080202FB03F3FB61DC
S31520001E000BE0314ABB68B2FBF3F32E4A52689209C3
S31520001E10C2F3080202FB03F3FB612A4B5B681B0C2F
S31520001E2003F0030301335B003B61FA693B69B2FBB4
S31520001E30F3F27B681A6003E07B68234A1A6000BFCE
S31520001E40204B9B6803F0F003BB61BB691B09BB6198
S31520001E501F4ABB6913441B78DBB27B617B681A6817
S31520001E607B69DA407B685A60164B9B6803F4E05323
S31520001E70BB61BB699B0ABB61154ABB6913441B78CE
S31520001E80DBB27B617B685A687B69DA407B689A6043
S31520001E900C4B9B6803F46043BB61BB695B0BBB6166
S31520001EA00B4ABB6913441B78DBB27B617B685A689B
S31520001EB07B69DA407B68DA6000BF2437BD465DF86F
S31520001EC0047B7047003802400024F40000127A0098
S31520001ED0A4B8002080B485B000AF78600023FB60F2
S31520001EE07B6803F44073B3F5407F11D10F4B9B6899
S31520001EF0FB60FB6823F4F813FB607B6823F07043D8
S31520001F0023F44073FA681343FB60084AFB68936026
S31520001F10064B1A6F7B68C3F30B03044913430B6705
S31520001F2000BF1437BD465DF8047B70470038024079
S31520001F3080B483B000AF0346FB71044AFB7913607B
S31520001F4000BF0C37BD465DF8047B70473C0E474208
S31520001F5080B483B000AF0346FB71044AFB7913605B
S31520001F6000BF0C37BD465DF8047B7047400E4742E4
S31520001F7080B483B000AF7860044A7B68136000BFEA
S31520001F800C37BD465DF8047B704700BF5C014742B5
S31520001F9080B485B000AF78600023FB600B4BD3F88C
S31520001FA08C30FB60FB6823F01F03FB607B68013BE2
S31520001FB0FA681343FB60054AFB68C2F88C3000BF01
S31520001FC01437BD465DF8047B704700BF00380240D9
S31520001FD080B485B000AF78600023FB600B4BD3F84C
S31520001FE08C30FB60FB6823F4F853FB607B68013B75
S31520001FF01B02FA681343FB60044AFB68C2F88C3064
S3152000200000BF1437BD465DF8047B70470038024098
S3152000201080B485B000AF78600023FB600A4BD3F80C
S315200020208C30FB60FB6823F44013FB60FA687B6806
S315200020301343FB60044AFB68C2F88C3000BF143798
S31520002040BD465DF8047B70470038024080B485B0F9
S3152000205000AF78600023FB600A4BD3F88C30FB601E
S31520002060FB6823F44003FB60FA687B681343FB603C
S31520002070044AFB68C2F88C3000BF1437BD465DF8B1
S31520002080047B70470038024080B485B000AF78608A
S315200020900023FB600A4BD3F88C30FB60FB6823F4EB
S315200020A04033FB60FA687B681343FB60044AFB6895
S315200020B0C2F88C3000BF1437BD465DF8047B7047EC
S315200020C00038024080B483B000AF7860044A7B6851
S315200020D0136000BF0C37BD465DF8047B704700BF18
S315200020E0E011474280B483B000AF78600B46FB70A6
S315200020F0FB78002B06D00A4B1A6B09497B681343E1
S315200021000B6306E0064B1A6B7B68DB4304491340DE
S315200021100B6300BF0C37BD465DF8047B704700BFDC
S315200021200038024080B483B000AF78600B46FB7065
S31520002130FB78002B06D00A4B5A6B09497B68134360
S315200021404B6306E0064B5A6B7B68DB43044913401E
S315200021504B6300BF0C37BD465DF8047B704700BF5C
S315200021600038024080B483B000AF78600B46FB7025
S31520002170FB78002B06D00A4B9A6B09497B681343E0
S315200021808B6306E0064B9A6B7B68DB43044913405E
S315200021908B6300BF0C37BD465DF8047B704700BFDC
S315200021A00038024080B483B000AF78600B46FB70E5
S315200021B0FB78002B06D00A4B1A6C09497B6813431F
S315200021C00B6406E0064B1A6C7B68DB43044913401C
S315200021D00B6400BF0C37BD465DF8047B704700BF1B
S315200021E00038024080B483B000AF78600B46FB70A5
S315200021F0FB78002B06D00A4B5A6C09497B6813439F
S315200022004B6406E0064B5A6C7B68DB43044913405B
S315200022104B6400BF0C37BD465DF8047B704700BF9A
S315200022200038024080B483B000AF78600B46FB7064
S31520002230FB78002B06D00A4B1A6909497B681343A1
S315200022400B6106E0064B1A697B68DB4304491340A1
S315200022500B6100BF0C37BD465DF8047B704700BF9D
S315200022600038024080B483B000AF78600B46FB7024
S31520002270FB78002B06D00A4B5A6909497B68134321
S315200022804B6106E0064B5A697B68DB4304491340E1
S315200022904B6100BF0C37BD465DF8047B704700BF1D
S315200022A00038024080B483B000AF78600B46FB70E4
S315200022B0FB78002B06D00A4B9A6909497B681343A1
S315200022C08B6106E0064B9A697B68DB430449134021
S315200022D08B6100BF0C37BD465DF8047B704700BF9D
S315200022E00038024080B483B000AF78600B46FB70A4
S315200022F0FB78002B06D00A4B1A6A09497B681343E0
S315200023000B6206E0064B1A6A7B68DB4304491340DE
S315200023100B6200BF0C37BD465DF8047B704700BFDB
S315200023200038024080B483B000AF78600B46FB7063
S31520002330FB78002B06D00A4B5A6A09497B6813435F
S315200023404B6206E0064B5A6A7B68DB43044913401E
S315200023504B6200BF0C37BD465DF8047B704700BF5B
S315200023600038024080B483B000AF78600B46FB7023
S31520002370FB78002B06D00A4B1A6D09497B6813435C
S315200023800B6506E0064B1A6D7B68DB430449134058
S315200023900B6500BF0C37BD465DF8047B704700BF58
S315200023A00038024080B483B000AF78600B46FB70E3
S315200023B0FB78002B06D00A4B5A6D09497B681343DC
S315200023C04B6506E0064B5A6D7B68DB430449134098
S315200023D04B6500BF0C37BD465DF8047B704700BFD8
S315200023E00038024080B483B000AF78600B46FB70A3
S315200023F0FB78002B06D00A4B9A6D09497B6813435C
S315200024008B6506E0064B9A6D7B68DB4304491340D7
S315200024108B6500BF0C37BD465DF8047B704700BF57
S315200024200038024080B483B000AF78600B46FB7062
S31520002430FB78002B06D00A4B1A6E09497B6813439A
S315200024400B6606E0064B1A6E7B68DB430449134095
S315200024500B6600BF0C37BD465DF8047B704700BF96
S315200024600038024080B483B000AF78600B46FB7022
S31520002470FB78002B06D00A4B5A6E09497B6813431A
S315200024804B6606E0064B5A6E7B68DB4304491340D5
S315200024904B6600BF0C37BD465DF8047B704700BF16
S315200024A00038024080B483B000AF03460A46FB7171
S315200024B01346BB71BB79002B08D00C4B1B78DAB2C4
S315200024C00A49FB791343DBB20B7009E0074B1B78F3
S315200024D0DAB2FB79DB43DBB204491340DBB20B7083
S315200024E000BF0C37BD465DF8047B70470D380240AF
S315200024F080B487B000AF0346FB710023FB60002346
S315200025007B610023FB74FB795B09DBB2FB60FB6814
S31520002510012B03D1124B1B687B6109E0FB68022B60
S3152000252003D10F4B1B6F7B6102E00D4B5B6F7B6111
S31520002530FB7903F01F03FB607A69FB6822FA03F339
S3152000254003F00103002B02D00123FB7401E00023DA
S31520002550FB74FB7C18461C37BD465DF8047B704730
S315200025600038024080B400AF054B5B6F044A43F04D
S315200025708073536700BFBD465DF8047B704700BF7C
S315200025800038024080B485B000AF0346FB710023BB
S31520002590FB73094BDA68FB791340002B02D0012329
S315200025A0FB7301E00023FB73FB7B18461437BD4603
S315200025B05DF8047B704700BF0038024080B483B0CA
S315200025C000AF0346FB71044AFB79137000BF0C373A
S315200025D0BD465DF8047B70470E38024080B483B058
S315200025E000AF0346FB71FB7903F01F03012202FAB9
S315200025F003F1064A97F907305B0942F8231000BF1A
S315200026000C37BD465DF8047B704700BF00E100E053
S3152000261080B483B000AF03463960FB7197F9073069
S31520002620002B0BDA3B68DAB20C49FB7903F00F0377
S31520002630043B1201D2B20B441A7609E03B68DAB2A7
S31520002640074997F907301201D2B20B4483F80023C9
S3152000265000BF0C37BD465DF8047B704700ED00E0F7
S3152000266000E100E080B582B000AF78600EE07B68C4
S315200026701B780D2B07D07B685A1C7A601B7818466E
S3152000268000F060F902E07B6801337B607B681B7891
S31520002690002BECD100BF00BF0837BD4680BD80B5FA
S315200026A086B000AF786000237B617B6803F00F0261
S315200026B07B69591C796110498A5C07F118010B4422
S315200026C003F80C2C7B681B097B607B68002BECD104
S315200026D00AE07B69013B7B6107F10C027B691344AD
S315200026E01B78184600F02EF97B69002BF1D100BF2C
S315200026F000BF1837BD4680BDB4B8002080B59EB057
S3152000270000AF78607B68002B02DA4FF0FF3300E0E1
S3152000271001233B677B683A6F02FB03F37B60002350
S315200027207B6779681C4B83FB01239A10CB17D21A3F
S3152000273013469B0013445B00CA1A7B6F591C7967AA
S3152000274016498A5C07F178010B4403F86C2C7B68E8
S31520002750114A82FB03129210DB17D31A7B607B6827
S31520002760002BDED13B6F002B0EDA2D2000F0EAF88D
S315200027700AE07B6F013B7B6707F10C027B6F1344FA
S315200027801B78184600F0DEF87B6F002BF1D100BFD6
S3152000279000BF7837BD4680BD67666666B4B8002040
S315200027A080B483B000AF10237B607B6883F31188ED
S315200027B000BF00BF0C37BD465DF8047B704780B470
S315200027C083B000AF30237B607B6883F3118800BF22
S315200027D000BF0C37BD465DF8047B704780B584B0DA
S315200027E000AF78600B48FFF73DFF0B4B1B68002BB3
S315200027F002D1094B094A1A60074B1B68FB60064B3E
S315200028001A687B681344044A1360FB68184610371D
S31520002810BD4680BD58AD002070C2002088420120F0
S3152000282080B485B000AF786039603B6803F5F95312
S3152000283010337A6813607B681B68BB600023FB60DB
S315200028400AE0FB689B001A46BB6813441A4600231D
S315200028501360FB680133FB60FB68332BF1DDBB683B
S315200028606FF016021A60BB6804331A4603231360FE
S31520002870BB6884331A464FF08073136000BF143749
S31520002880BD465DF8047B704780B485B000AF7860A4
S3152000289039607B681B688033FB60FB683A681A6086
S315200028A000BF1437BD465DF8047B704780B584B001
S315200028B000AF1D4803F054FC3B1D184603F09CFD59
S315200028C040F24733BB803B1D1946174803F028FDCD
S315200028D0164B174A1A6002216FF00100FFF798FE87
S315200028E0144B154A1A6000216FF00400FFF790FE82
S315200028F0124B134A1A6002213220FFF789FE32203A
S31520002900FFF76CFE0021084803F0C0FD01210648B0
S3152000291003F089FE01220221034804F058FE00BF7D
S315200029201037BD4680BD00BF000C004038C00120D6
S31520002930210000202CC001201D00002008C10120FC
S31520002940CB2C002080B582B000AF0346FB71FB790B
S315200029509BB219460748FEF77CFC00BF802105483C
S31520002960FEF766FE0346002BF8D000BF00BF0837EF
S31520002970BD4680BD0010014080B500AF124803F06F
S31520002980A1FD03461A46114B1A60114B01221A600B
S31520002990104B00221A60104B1B68002B06D00E4BE2
S315200029A01B680E4A1268002110469847084B0022E1
S315200029B01A60084B1B68002B01D000F05DFA054B0E
S315200029C000221A6000BF80BD000C004010BF00200E
S315200029D008BF00200CBF002080BF002020BF0020A1
S315200029E080B500AF124803F06DFD03461A46114B21
S315200029F01A60114B01221A60104B00221A60104BEC
S31520002A005B68002B06D00E4B5B680E4A526801218C
S31520002A1010469847084B00221A60084B1B68002B6B
S31520002A2001D000F029FA054B00221A6000BF80BDB4
S31520002A30000C004010BF002008BF00200CBF002063
S31520002A4080BF002020BF002080B500AF124803F0D1
S31520002A5039FD03461A46114B1A60114B01221A60A2
S31520002A60104B00221A60104B9B68002B06D00E4B91
S31520002A709B680E4A9268022110469847084B00220E
S31520002A801A60084B1B68002B01D000F0F5F9054BA6
S31520002A9000221A6000BF80BD000C004010BF00203D
S31520002AA008BF00200CBF002080BF002020BF0020D0
S31520002AB080B485B000AF786039600023FB603B6846
S31520002AC01B68BB6004E0BB68FB60BB681B68BB601F
S31520002AD0BB68002B05D0BB689A687B689B689A42C6
S31520002AE0F1DD7B68BA681A60FB68002B03D13B686E
S31520002AF07A681A6002E0FB687A681A6000BF1437A9
S31520002B00BD465DF8047B704780B485B000AF786021
S31520002B1039600023FB603B681B68BB6004E0BB6830
S31520002B20FB60BB681B68BB60BB68002B05D0BB681D
S31520002B305A687B685B689A42F1DD7B68BA681A60DE
S31520002B40FB68002B03D13B687A681A6002E0FB68B9
S31520002B507A681A6000BF1437BD465DF8047B70475B
S31520002B6080B584B000AF78607B681B68FB60FB682B
S31520002B70002B04D0FB681A687B681A600CE00948B1
S31520002B80FFF770FD00220221074806F0C2FC074825
S31520002B90FFF768FD30BFFDE7FB6818461037BD46D6
S31520002BA080BD00BF70AD0020000402407CAD002037
S31520002BB080B584B000AF78607B681B68FB60FB68DB
S31520002BC0002B04D0FB681A687B681A600CE0094861
S31520002BD0FFF748FD00220221074806F09AFC074825
S31520002BE0FFF740FD30BFFDE7FB6818461037BD46AE
S31520002BF080BD00BF70AD00200004024088AD0020DB
S31520002C0080B483B000AF786039603B681A687B680F
S31520002C101A603B687A681A6000BF0C37BD465DF8BB
S31520002C20047B704780B483B000AF786039603B681E
S31520002C301A687B689A603B687A681A6000BF0C370E
S31520002C40BD465DF8047B704780B485B000AF7860E0
S31520002C507B681B68FB60FB689A687B681A60FB6868
S31520002C6018461437BD465DF8047B704780B485B09E
S31520002C7000AF786039600023FB603B681B68BB604F
S31520002C8004E0BB68FB60BB681B68BB60BB68002BAD
S31520002C9003D0BA687B689A42F3D1BB68002B0DD06B
S31520002CA0FB68002B04D0BB681A68FB681A6003E037
S31520002CB0BB681A683B681A60012300E000231846A7
S31520002CC01437BD465DF8047B704780B582B000AFEF
S31520002CD002211E4804F005FD1C4803F0F3FB0346C1
S31520002CE07B6007E01A48FFF73BFF03461949184661
S31520002CF0FFF7DEFE164B1B68002B06D0144B1B6815
S31520002D005A687B68D31A002BECDD114B1B68002B0D
S31520002D1016D00E4803F0D6FB03463B600C4B1B68CF
S31520002D205B683A689A4204DD002202210A4806F0CE
S31520002D30F0FB074B1B685B681946044803F001FF4C
S31520002D4000F09AF800BF0837BD4680BD000C004051
S31520002D5004BF002000BF0020000402400346024AB0
S31520002D60136010DFF74600BF2CBF00200346054A3C
S31520002D701360054B5B68044A43F080535360F74663
S31520002D8000BF00BF2CBF002000ED00E080B582B060
S31520002D9000AF7860094B5B68C3F30803002B03D1AF
S31520002DA07868FFF7DBFF02E07868FFF7DFFFFFF7C1
S31520002DB006FD00BF0837BD4680BD00BF00ED00E020
S31520002DC090B585B000AF234B1C682348FFF7C8FE9B
S31520002DD00346E360E368BB60FFF7F1FCBB68D86895
S31520002DE0BB681969BB685B691A4600F015F9FFF7DD
S31520002DF0D7FC1A49B868FFF703FF194B1B689B6875
S31520002E00DB687B60144B1B68002B0AD07B68002B89
S31520002E10D9D0114B1B689A687B689B68D31A002B04
S31520002E20D1DD0F48FFF710FF03460E491846FFF77E
S31520002E30F9FE0B4B1B68FB6003E0FB681B691B68F4
S31520002E40FB60FB681B69002BF7D1F868FFF79EFF34
S31520002E50B9E700BFD4B8002000BF0020C8B80020C2
S31520002E60D0B80020CCB8002080B500AF00F004F820
S31520002E70FFF7A5FC30BFFBE780B582B000AF144B4F
S31520002E801B68DB687B60134B1B68002B1BD0124B27
S31520002E901B68002B17D07B68002B07D00D4B1B68B7
S31520002EA09A687B689B68D31A002B0CDA0A48FFF7CE
S31520002EB0CBFE034606491846FFF7B4FE044B1B68B3
S31520002EC01846FFF763FF00BF0837BD4680BD00BF29
S31520002ED0D0B8002000BF0020CCB8002080B588B034
S31520002EE000AFF860B9607A603B60EFF312833B6114
S31520002EF03B691B09012B14BF01230023DBB2FB779F
S31520002F00FFF74EFC3A48FFF753FEB861BB697A6873
S31520002F10DA60BB693A681A61BB69BA6A5A61354B8D
S31520002F201B68002B04D1344B1B68DB685B6801E00F
S31520002F30324B1B68FA681A44BB695A60BB695A68E7
S31520002F40BB68002B01DDBB6801E06FF000431A442B
S31520002F50BB699A602A4803F0B5FA03467B61BB69D0
S31520002F605A687B69D31A002B16DD2649B869FFF704
S31520002F70CBFD244B1B685B687A699A4204DD0022EC
S31520002F800221214806F0C5FA1E4B1B685B681946CC
S31520002F901B4803F0D6FD21E01C49B869FFF788FDE0
S31520002FA0FB7F002B1AD01A4B1B68002B16D0174B11
S31520002FB01B689A68174B1B68DB689B68D31A002B23
S31520002FC00CDA1348FFF740FE034612491846FFF76E
S31520002FD029FE104B1B681846FFF7D8FEFB7F002BF7
S31520002FE001D0FFF7ECFBBB6918462037BD4680BDF4
S31520002FF0C8B8002008BF0020D4B8002010BF002089
S31520003000000C004004BF00200004024000BF002046
S31520003010CCB80020D0B8002080B588B000AFF860CA
S31520003020B9607A60EFF312833B613B691B09012B80
S3152000303014BF01230023DBB2FB76FFF7B1FBFB684D
S315200030401B68FB61FB69002B37D003E0FB691B691A
S315200030501B68FB61FB691B69002BF7D1304B1B6892
S31520003060FA699A4202D0FB7E002B07D1FB7E002B09
S3152000307001D0FFF7A4FB4FF0FF334DE0FB685B6800
S31520003080002B03D0FB685B6800221A61244B1A6868
S31520003090FB685A60224B1B68FA681A61F869FFF7C9
S315200030A075FE1F4B1B68DB68002B06D1FB7E002BB1
S315200030B001D0FFF784FB00232EE0194B1A68FB682A
S315200030C01A60FB7E002B05D0FB685B68012B01D0C4
S315200030D0FFF775FBBB687968F86898477861FFF752
S315200030E05FFBFB6800221A60FB685B68FB61FB697B
S315200030F0002B0BD0FB69012B08D0FB6800225A60FD
S31520003100FB6900221A61F869FFF740FEFB7E002B5F
S3152000311001D0FFF754FB7B6918462037BD4680BD9A
S31520003120D4B8002080B586B000AF7860EFF3128364
S31520003130FB60FB681B09012B14BF01230023DBB2B4
S31520003140FB74FFF72DFB1F497868FFF78FFD0346B9
S31520003150002B06D11C497868FFF788FD0346002B13
S3152000316004D01A497868FFF74BFD21E0184B1B68FD
S315200031707B611AE0174B1B687A699A4212D07B69E9
S31520003180DB687A689A420DD17B691A697B68DB68AD
S315200031909A4207D17B690022DA600C497868FFF7EA
S315200031A02FFD05E07B699B687B617B69002BE1D164
S315200031B0FB7C002B01D0FFF702FB00BF1837BD4672
S315200031C080BD00BF04BF002000BF0020C8B800207B
S315200031D0D0B80020D4B8002080B485B000AF786085
S315200031E0EFF31283FB60FB681B09012B04D0074B0E
S315200031F01B68DB685B6801E0054B1B687A68136017
S3152000320000BF1437BD465DF8047B7047D4B8002054
S3152000321010BF002080B485B000AF7860EFF3128332
S31520003220FB60FB681B09012B04D0084B1B68DB687D
S315200032305B6801E0064B1B687A6812689B1A184681
S315200032401437BD465DF8047B704700BFD4B8002014
S3152000325010BF002080B584B000AFEFF312837B60EF
S315200032607B681B09012B14BF01230023DBB2FB73F0
S31520003270FFF796FA0C4803F025F90346BB60FB7B63
S31520003280002B01D0FFF79BFAFB7B002B04D0074BCA
S315200032901B68DB685B6801E0054B1B68BA68D31ABC
S315200032A018461037BD4680BD000C0040D4B800201B
S315200032B010BF002080B582B000AF00237B6012E0F3
S315200032C07B685A1C13465B001344DB00444A99185A
S315200032D043487A6813465B001344DB0003441960B5
S315200032E07B6801337B607B681C2BE9DD3C4B00222D
S315200032F0C3F8B82200237B6013E07B685A1C134670
S315200033009B0013449B00374A991836487A6813461F
S315200033109B0013449B000344083319607B680133E8
S315200033207B607B68022BE8DD2E4B00225A6400234B
S315200033307B6030E02B497A6813469B0013449B0040
S315200033400B4404337A681A607A6813469B00134448
S315200033509B00244A1A447B685B0323490B44194685
S315200033601046FFF75DFA7A6813469B0013449B00CC
S315200033701C4A13441D491846FFF786FA19497A68EC
S3152000338013469B0013449B000B44103300221A6003
S315200033907B6801337B607B68032BCBDD144B4FF0BE
S315200033A0FF325A60124B00229A60114B00221A619A
S315200033B00F4B0022DA600F48FFF754F90E48FFF74B
S315200033C051F90E48FFF74EF90A48FFF74BF909481D
S315200033D0FFF748F9FFF76AFA00BF0837BD4680BDF8
S315200033E0A0BF002030BF002078C20020C12D0020C1
S315200033F08CBF002094AD002098AD0020A4AD002005
S3152000340080B586B000AFF860B9601346FB71FB79D2
S31520003410022B41D8EFF312833B613B691B09012B39
S3152000342014BF01230023DBB2FB75FFF7B9F9FB7943
S31520003430022B0ED0022B10DC002B02D0012B04D045
S315200034400BE0174B174A1A6014E0174B174A1A60FD
S3152000345010E0174B174A1A600CE01748FFF702F9DD
S3152000346000220221154806F054F81548FFF7FAF80D
S3152000347030BFFDE7FB791349FA6841F82320FB7931
S315200034801149BA6841F82320FB6801225A60FB7D66
S31520003490002B01D0FFF793F900BF1837BD4680BD3A
S315200034A0D4C001207929002090C00120E1290020E4
S315200034B09CC00120492A002070AD00200004024053
S315200034C0BCAD002020BF002080BF002080B586B084
S315200034D002AFF860B9607A60FFF762F9FFF7EAFE9B
S315200034E0BB68002B16D00F4802F0ECFF03461A46A5
S315200034F00D4B1A600D4B01221A607B680093BB6846
S31520003500FA6800210020FFF7E9FC084B00221A6028
S31520003510FFF7B2FCFFF7A8FC002318461037BD467C
S3152000352080BD00BF000C004010BF002008BF002057
S3152000353080B5C4B002AF3B1D18603B4619603B46C0
S315200035401A6807F1D4031068516803C31189927A67
S3152000355019809A7097F8D430772B0ED097F8D430FC
S3152000356007F17000B74A642106F0AAFD07F170033F
S315200035701A46B549B548FFF74FFD3B1D1B685B69E9
S315200035800133052B00F2598101A252F823F000BF26
S31520003590A93500204F36002085360020053800202A
S315200035A03B3800202938002097F8D4307E2B2FD0A6
S315200035B07E2B00F33B817A2B02D07B2B16D035E174
S315200035C0A34B1A46A049A148FFF726FD97F8D53008
S315200035D01A463B1D1B68DB689A4234D03B1D1B688C
S315200035E09B685A1C3B1D1B689A602CE03B1D1B6880
S315200035F001225A6101230093964B974A002100200D
S31520003600FFF76CFC97F8D5301A463B1D1B681A61EC
S31520003610924B1A468C498D48FFF7FEFC07F1D403DE
S315200036200333184606F014FDC7F8E0003B1D1B685F
S315200036309B68D7F8E0209A4207DD3B1D1B68D7F828
S31520003640E0209A6001E000BFF0E000BFEEE097F8CE
S31520003650D4307F2B40F0EC803B1D1B684FF0FF32AF
S315200036605A617F4B1A4678497848FFF7D5FC4FF0C8
S31520003670FF3300937B4B7C4A00210020FFF72EFC72
S3152000368000BFD5E097F8D430772B40F0D38007F1F0
S31520003690D4030333184606F0DBFCC7F8000107F114
S315200036A07003D7F800217149184606F059FD07F135
S315200036B070031A4664496548FFF7AEFC00226C4940
S315200036C06C48FFF7A9FCC7F8FC0000226A49694844
S315200036D0FFF7A2FCC7F8F800D7F80031002B03F05B
S315200036E00103B8BF5B42012B03D10123C7F8043184
S315200036F002E00023C7F80431D7F80431012B05D1A5
S3152000370001225E495448FFF787FC04E000225B490A
S315200037105148FFF781FC002259494F48FFF77CFCAE
S315200037200A23C7F8F430574AD7F8003152F8232035
S31520003730D7F8F4301344544A52F82330534A02FB44
S3152000374003F3C7F8F030D7F8F02051494248FFF785
S3152000375063FC002300934F4B3F4A00210020FFF7D4
S31520003760BDFB00224C494D48FFF756FCC7F8EC003C
S315200037704B4AD7F8003152F82330C7F8E83007F122
S315200037800C00D7F804310093D7F8EC30D7F8002195
S31520003790444906F0E5FC07F10C031A462A492B4852
S315200037A0FFF73AFCD7F8EC3007EE903AB8EEE77A16
S315200037B0DFED3D6AC6EE877AC7ED397AD7F8E8306D
S315200037C04FF4FA7202FB03F307EE903AB8EEE77A6B
S315200037D0D7ED397A67EE277A9FED347A77EEC77A76
S315200037E09FED337A67EE877AFDEEE77A0023009322
S315200037F0304B194A41F2883117EE900AFFF76EFBDB
S3152000380000BF17E097F8D4307F2B15D197F8D53025
S315200038101A463B1D1B68DB689A4203DD3B1D1B686D
S3152000382000229A6100BF07E000BF06E000BF04E067
S3152000383000BF02E000BF00E000BF00BF07F58477AD
S31520003840BD4680BDDCAD00206B050020F0B9002010
S31520003850F0AD00202F530020A8B9002028AE00206C
S3152000386060AE0020954A0020F4B8002074AE0020F7
S31520003870ED380020D8B80020B9380020D54E0020D9
S31520003880B94E002018B2002098B2002040420F0006
S315200038909D4E0020D14D002015530020D0B9002088
S315200038A0FCB2002084AE0020000070420000484296
S315200038B00000C842B54D002080B483B000AF7860C8
S315200038C039607B68DB6818460C37BD465DF8047B9B
S315200038D0704780B483B000AF786039607B681B691D
S315200038E018460C37BD465DF8047B704780B483B01C
S315200038F000AF786039607B689B6818460C37BD46F8
S315200039005DF8047B704780B5A2B002AF786039605D
S315200039101E4B1A461E491F48FFF77EFB7B689A6896
S315200039207B68DB6807F11000009313461A4A64216E
S3152000393006F0C6FB07F110031A4615491548FFF78E
S315200039406BFB7B68DB68DBB287F875307E2387F8F4
S3152000395074307B689B6883EAE372A2EBE37207F11B
S315200039600C030E49184606F0FBFB012387F8763038
S315200039703B7B87F8773007F174031A4608490948D4
S31520003980FFF74AFB00BF8037BD4680BDB0AE0020A2
S315200039906B050020F0B90020F0AE00200CAF00200F
S315200039A0EF43002024BE002080B5A0B002AF78608F
S315200039B039601A4B1A461A491A48FFF72DFB7B68BD
S315200039C099687B681B697A68D26807F108000192BA
S315200039D000930B46144A642106F072FB07F1080394
S315200039E01A460F490F48FFF717FB7B68DB68DBB2E7
S315200039F087F86D307A2387F86C3007F16C031A4606
S31520003A000A490B48FFF708FB0A4B1A4604490548A2
S31520003A10FFF702FB00BF7837BD4680BD10AF002000
S31520003A206B050020F0B9002054AF0020EF430020A2
S31520003A3024BE00207CAF002080B586B000AF786021
S31520003A4039600B4B1A460B490B48FFF7E5FA7B68A2
S31520003A501B69DBB27B737D233B7307F10C031A468C
S31520003A6006490748FFF7D8FA00BF1837BD4680BD7C
S31520003A7090AF00206B050020F0B90020EF43002016
S31520003A8024BE002080B586B000AF786039600B4B2D
S31520003A901A460B490B48FFF7BFFA7B68DB68DBB297
S31520003AA07B737B233B7307F10C031A4606490748B1
S31520003AB0FFF7B2FA00BF1837BD4680BDD0AF002051
S31520003AC06B050020F0B90020EF43002024BE002023
S31520003AD080B586B000AF786039600D4B1A460D4927
S31520003AE00D48FFF799FA7B68DB68DBB27B737F238F
S31520003AF03B7307F10C031A4608490948FFF78CFA6D
S31520003B007B6802225A6100BF1837BD4680BD00BFC0
S31520003B1018B000206B050020F0B90020EF430020EC
S31520003B2024BE002080B483B000AF786039607B6803
S31520003B3002225A6100BF0C37BD465DF8047B7047F0
S31520003B4080B584B002AF786039607B689B69002BB2
S31520003B501FD07B6800225A617B68DA687B681A610D
S31520003B6000230093104B7A6800210020FFF7B6F956
S31520003B707B681A697B68DB689A420ED17B685B6931
S31520003B80002B0AD1094B1A4609490A48FFF744FA7D
S31520003B9003E07B684FF0FF325A617B6801229A610D
S31520003BA000BF0837BD4680BD853A00205CB00020A6
S31520003BB06B050020F0B9002080B584B002AF786094
S31520003BC03960002300930C4B0C4A00210020FFF79C
S31520003BD085F90B4B1A460B490B48FFF71DFA0023B4
S31520003BE000930A4B054A00210948FFF777F900BFE1
S31520003BF00837BD4680BD00BFA9390020D8B80020AF
S31520003C0074B000206B050020F0B900200739002091
S31520003C10400D030080B59CB000AF786039607B68AA
S31520003C209B6807F10C00074A642106F049FA07F160
S31520003C300C031A4604490548FFF7EEF900BF703712
S31520003C40BD4680BD90B000206B050020F0B9002055
S31520003C5080B483B000AF786039607B685B691846B2
S31520003C600C37BD465DF8047B704780B584B002AF43
S31520003C7078603960002300930D4B0E4A0021002006
S31520003C80FFF72CF9002300930B4B0A4A00214FF42F
S31520003C90FA70FFF723F900230093084B054A002109
S31520003CA04FF47A70FFF71AF900BF0837BD4680BD7A
S31520003CB0253B0020D8B80020D13A0020413B0020E7
S31520003CC080B483B000AF786039607B683A689A60C8
S31520003CD000BF0C37BD465DF8047B704780B483B0C7
S31520003CE000AF786039607B683A681A6100BF0C378C
S31520003CF0BD465DF8047B704780B584B002AF78601E
S31520003D0039607B689B68012B07D100230093094B00
S31520003D107A6800210020FFF7E1F800230093064B84
S31520003D20064A002142F60410FFF7D8F800BF0837EC
S31520003D30BD4680BD6B3C0020B5500020D0B9002088
S31520003D4080B584B002AF786039607B6801225A6101
S31520003D50002300930D4B0E4A00210020FFF7BEF8EA
S31520003D60012300930B4B0C4A00210020FFF7B6F8E5
S31520003D7000230093094B7A68002142F21070FFF766
S31520003D80ADF800BF0837BD4680BD00BF190C002026
S31520003D9084B80020174D0020F4B80020F93C0020FC
S31520003DA080B59EB002AF786039603B68012B16D192
S31520003DB07B6805225A61002300931F4B1F4A00216E
S31520003DC00020FFF78BF8002300931D4B1D4A00218E
S31520003DD00020FFF783F87B6801229A6028E03B6881
S31520003DE0022B1ED17B6806225A617B6800229A60CC
S31520003DF000230093144B114A00210020FFF76EF890
S31520003E00002300930E4B0F4A00210020FFF766F88F
S31520003E10002300930D4B7A6800210D48FFF75EF8CA
S31520003E2006E007F10C030B4A6421184606F048F910
S31520003E3000BF7037BD4680BD8B0B002084B80020A4
S31520003E40174D0020F4B80020D10B0020413D002062
S31520003E5060E31600A4B0002080B483B000AF786081
S31520003E6039607B685B69052B02D17B6801225A6128
S31520003E7000BF0C37BD465DF8047B704780B59EB009
S31520003E8002AF786039603C4B1A463C493C48FFF704
S31520003E90C3F87B6899687B68DB687A68126907F1E2
S31520003EA00C00019200930B46364A642106F008F96D
S31520003EB007F10C031A4631493148FFF7ADF8324B6A
S31520003EC01A462E492E48FFF7A7F87B685B6901330F
S31520003ED0082B46D801A252F823F000BF1D3F002030
S31520003EE0013F00200F3F00202B3F0020633F002092
S31520003EF0633F0020393F0020473F0020553F0020E8
S31520003F00224B1A461D491E48FFF786F82AE0204B09
S31520003F101A461A491A48FFF77FF823E01D4B1A461E
S31520003F2016491748FFF778F81CE01B4B1A46134929
S31520003F301348FFF771F815E0184B1A460F49104839
S31520003F40FFF76AF80EE0164B1A460C490C48FFF7A5
S31520003F5063F807E0134B1A4608490948FFF75CF84F
S31520003F6000E000BF104B1A4604490548FFF754F8F5
S31520003F7000BF7037BD4680BDC4B000206B05002051
S31520003F80F0B90020E0B0002008B1002010B10020D8
S31520003F9018B1002020B1002028B1002030B1002027
S31520003FA03CB1002048B1002054B1002080B483B039
S31520003FB000AF786039607B6805225A6100BF0C37F4
S31520003FC0BD465DF8047B704780B483B000AF78604F
S31520003FD039607B6806225A6100BF0C37BD465DF802
S31520003FE0047B704780B483B000AF786039607B680B
S31520003FF007225A6100BF0C37BD465DF8047B704727
S3152000400080B483B000AF786039607B6801225A6142
S3152000401000BF0C37BD465DF8047B704780B483B083
S3152000402000AF786039607B6801225A6100BF0C3787
S31520004030BD465DF8047B704780B483B000AF7860DE
S3152000404039607B6801225A6100BF0C37BD465DF896
S31520004050047B704780B483B000AF0346FB71FB79C5
S3152000406003F01F03012202FA03F1064A97F90730EB
S315200040705B0942F8231000BF0C37BD465DF8047B70
S31520004080704700BF00E100E080B483B000AF034674
S315200040903960FB7197F90730002B0BDA3B68DAB2EF
S315200040A00C49FB7903F00F03043B1201D2B20B44F7
S315200040B01A7609E03B68DAB2074997F90730120108
S315200040C0D2B20B4483F8002300BF0C37BD465DF8FF
S315200040D0047B704700ED00E000E100E080B586B08B
S315200040E000AF786039607B6800229A617B689A69A4
S315200040F07B685A617B685A697B68DA6107F10C0331
S31520004100184603F0F3FF0023BB740023FB7400233F
S315200041103B7501237B751C48FEF7A4FA0023BB756B
S315200041200023FB750023BB730023FB7302233B7420
S3152000413003237B740723BB8107F10C03194613481D
S3152000414003F040FE0346002B02D11148FEF78AFAFF
S3152000415007F10C0319460F4803F034FE0346002BE3
S3152000416002D10D48FEF77EFA02211420FFF78CFFBC
S315200041701420FFF76FFF01220221044804F0F4FB0C
S3152000418000BF1837BD4680BD58B1002000640040EE
S315200041907CB100200068004094B10020B0B58AB000
S315200041A002AF786039607B689B685A49184604F0EC
S315200041B0F9FB0346012B02D05748FEF753FA7B68DA
S315200041C0DB69072B00F39F807B689B6807F1080259
S315200041D00021184604F0CEF9BB681B09DBB27A68C9
S315200041E0526903F07F03D8B2796813469B001344C3
S315200041F05B0013440B44203302461A70BB68DBB2C3
S315200042007A68526903F00F03D8B2796813469B0087
S3152000421013445B0013440B44213302461A70BB7CC3
S315200042207A68526903F00F03D8B2796813469B0067
S3152000423013445B0013440B44223302461A700023B6
S31520004240FB7716E0FB7F7A685269F97F07F1200039
S31520004250034413F80D4C786813469B0013445B0007
S31520004260134403440B44233322461A70FB7F013345
S31520004270FB777B685A69796813469B0013445B0079
S3152000428013440B4422331B78FA7F9A42DAD37B6895
S31520004290DB68002B25D07B68DC687B681D697B6822
S315200042A05A69796813469B0013445B0013440B44F8
S315200042B020331B7819017B685A69786813469B005E
S315200042C013445B001344034421331B780B440093AF
S315200042D02B46224600210020FEF700FE0F4B01222E
S315200042E01A607B685B6901335A4203F0070302F0C8
S315200042F0070258BF53427A6853617B68DB695A1CB0
S315200043007B68DA6102E00648FEF7ACF900BF203789
S31520004310BD46B0BD03000012ACB100200CBF00208A
S31520004320D4B1002090B484B000AF786039607B6847
S31520004330DB69002B55DD7B689A69796813469B00FB
S3152000434013445B0013440B4420331A783B681A70DD
S315200043507B689A69796813469B0013445B00134473
S315200043600B4421331A783B685A707B689A697968BE
S3152000437013469B0013445B0013440B4422331A78E4
S315200043803B689A700023FB7313E07B689A69F87B7D
S31520004390F97B7C6813469B0013445B00134423443B
S315200043A0034423331A783B680B44DA70FB7B0133D2
S315200043B0FB733B689B78FA7B9A42E6D37B689B69C2
S315200043C001335A4203F0070302F0070258BF534253
S315200043D07A6893617B68DB695A1E7B68DA61002301
S315200043E000E0012318461037BD4690BC704780B5C3
S315200043F08AB000AF786039607B689B683B62002397
S31520004400FB773B681B781B013A6852781344BB60E4
S3152000441000237B7400233B743B689B78082B02D9CE
S315200044203B6808229A703B689B78BB74002387F808
S31520004430273010E097F8272097F8273039680A4464
S31520004440D27807F128010B4403F8152C97F827306A
S31520004450013387F827303B689B7897F827209A42C4
S31520004460E8D307F108031946386A03F003FF034629
S31520004470FB77FB7F042B04D10F48FEF7F3F80123CB
S3152000448016E000BFFB7F1946386A03F0C4FF0346D7
S31520004490022BF7D0FB7F1946386A03F0BCFF034690
S315200044A0002B04D10548FEF7DDF8012300E00023A8
S315200044B018462837BD4680BDF4B1002008B200203A
S315200044C080B584B000AF7860396000220F4910486B
S315200044D0FEF7A2FDF8607B6888331846FEF79AFE41
S315200044E0B8607B68D3F89430BA68D31A094A9342E5
S315200044F008DDFB68002B05D1074B1A4607490848FB
S31520004500FEF78AFD00BF1037BD4680BD3518002056
S3152000451010BE00209F8601007CB300206B05002082
S31520004520F0B90020B0B5BAB000AF7860396000238A
S31520004530C7F8E4307B68DB6F022B0CDC7B68DA6F14
S315200045407B681C32396843F822107B68DB6F5A1C63
S315200045507B68DA6715E07B683A681A670023C7F834
S31520004560E0307B681B6FC7F8E0307B685A6F7B684A
S315200045701A677B689A6F7B685A677B68D7F8E02052
S315200045809A677B68DB6F032B40F0A1807B681A6FEC
S315200045907B685B6FD31A504A9342C0F298807B683F
S315200045A01A6F7B685B6FD31A42F20F72934200F345
S315200045B08E807B681A6F7B689B6FD31A464A93421C
S315200045C0C0F285807B681A6F7B689B6FD31A42F294
S315200045D00F7293427BDC7B689A6F7B685B6FD31A82
S315200045E03D4A934273DB7B689A6F7B685B6FD31A75
S315200045F042F20F7293426ADC7B681A6F7B685B6FAC
S315200046001A447B689B6F1344344A82FB0312DB17E0
S31520004610D31AC7F8DC30D7F8DC30314A82FB0312D4
S315200046205213DB17D31A184605F0F2F904460D4645
S31520004630D7F8DC202A4B83FB02135913D317CB1A46
S31520004640284901FB03F3D31A274A82FB031252118E
S31520004650DB17D31A07EE903AF8EEE77A17EE900AB0
S3152000466005F0E8F94FF00002204B05F065FB024605
S315200046700B462046294605F07FF802460B46104693
S31520004680194605F041FC0346C7F8D830DFED186A15
S3152000469097ED367AC6EE877AFDEEE77A17EE903AF0
S315200046A0C7F8D43007F10C00D7F8D430114AC82106
S315200046B005F006FD07F10C031A460F490F48FEF7D1
S315200046C0ABFCD7F8D4200E490E48FEF7A5FC00BF58
S315200046D0E837BD46B0BD00BFF1D8FFFF565555554A
S315200046E089B5F814A08601001F85EB5100408F4044
S315200046F00000704298B300206B050020F0B900201E
S31520004700A5540020D0B9002080B5C0B002AF786093
S3152000471039607B68D3F89830002B2BD17B6888339F
S315200047201846FEF777FDC7F8D4007B68D3F8943097
S31520004730D7F8D420D31AC7F8D0307B68D7F8D02042
S31520004740C3F89C207B68D7F8D420C3F894207B68D4
S315200047500122C3F8982001228A498B48FEF75CFC87
S3152000476000230093894B7A6841F288318848FEF706
S31520004770B5FB04E17B6888331846FEF74BFDC7F886
S31520004780F4007B68D3F89430D7F8F420D31AC7F80E
S31520004790F030D7F8F0307F4A934269DC7B68D3F853
S315200047A09C30C7F8F030D7F8F03042F20F729342BF
S315200047B00FDC794B1A4679497948FEF72DFC7B6840
S315200047C00022C3F8982000226E496F48FEF724FC89
S315200047D0D5E0D7F8F030734A82FB03125113DA176B
S315200047E08A1A6B4901FB02F29A1A13469B0013445C
S315200047F05B00C7F8E030D7F8F0206A4B83FB021342
S315200048005913D317CB1A624901FB03F3D31A664A0D
S3152000481082FB03125211DB17D31AC7F8DC30D7F804
S31520004820F030604A82FB03125213DB17D31AC7F803
S31520004830D83007F10800D7F8E0300193D7F8DC30FC
S315200048400093D7F8D830594AC82105F039FCD7F853
S31520004850F0300093564B7A6800210020FEF73EFB8D
S3152000486007F108031A464D494D48FEF7D5FB7DE072
S31520004870D7F8F0304B4A82FB03125113DA178A1A03
S31520004880434901FB02F29A1A13469B0013445B002C
S31520004890C7F8EC30D7F8F020424B83FB02135913AC
S315200048A0D317CB1A3A4901FB03F3D31A3E4A82FBAC
S315200048B003125211DB17D31AC7F8E830D7F8F030B5
S315200048C0384A82FB03125213DB17D31AC7F8E43097
S315200048D007F10800D7F8EC300193D7F8E8300093B9
S315200048E0D7F8E430334AC82105F0EAFB07F108037C
S315200048F01A462A492A48FEF78FFBD7F8F0302E4A67
S31520004900934208DD002300932C4B7A680021002077
S31520004910FEF7E4FA2AE0D7F8F030294A934225DD5B
S31520004920284B1A461D491E48FEF776FB00222649CB
S315200049302648FEF771FB0346002B17D1244B1A4657
S3152000494016491748FEF768FB00230093214B7A6827
S3152000495000210020FEF7C2FA78221F491F48FEF7E1
S315200049605BFB00221E491D48FEF756FB7B68002292
S31520004970C3F89820002203490348FEF74DFBF83779
S31520004980BD4680BD9518002010BE0020C1440020E1
S31520004990A08601009F860100A8B300206B05002099
S315200049A0F0B9002089B5F8141F85EB51B4B3002067
S315200049B025450020F0B3002020A10700D13A002091
S315200049C0400D03001CB40020513C0020D8B8002024
S315200049D030B40020393A0020A5540020D0B9002058
S315200049E06154002080B483B000AF786039607B6862
S315200049F00122C3F8A0207B684FF0FF32C3F8802045
S31520004A007B684FF0FF32C3F8A8207B680022C3F8EA
S31520004A10A42000BF0C37BD465DF8047B704780B5E7
S31520004A2086B002AF78603960002212491248FEF73C
S31520004A30F3FAF860FB68002B18D17B68D3F8AC300A
S31520004A40002B13D07B68D3F88030012B0ED10B4B73
S31520004A501A460B490B48FEF7DFFA002300930A4B50
S31520004A600A4A00210A48FEF739FA00E000BF10374B
S31520004A70BD4680BDFD4C0020A8B9002054B40020BE
S31520004A806B050020F0B900201F4A0020F4B8002052
S31520004A9040420F0080B483B000AF786039607B68F5
S31520004AA03A68C3F8802000BF0C37BD465DF8047B0A
S31520004AB0704780B5A2B002AF7860396007F16C0309
S31520004AC01A465F495F48FEF7A7FA97F86C30632BC2
S31520004AD003D897F86C30132B1AD85B4B1A465B49D0
S31520004AE05B48FEF799FA5B4B1A4658495848FEF739
S31520004AF093FA97F86C3007F10800574A642105F0BD
S31520004B00DFFA07F108031A4650495148FEF784FA9E
S31520004B1097F86C30642B08D907F16C0300934F4B40
S31520004B204F4A00210020FEF7D9F997F86C30322B36
S31520004B300CD997F86C30402B08D807F16C030093FA
S31520004B40484B494A00210020FEF7C8F90023FB679D
S31520004B50002246494248FEF75FFAB867BB6F012B31
S31520004B6067D197F86C30013B072B64D801A252F825
S31520004B7023F000BF954B0020A74B0020B94B002007
S31520004B80374C0020CB4B0020E54B0020034C002067
S31520004B901D4C002001230093354B364A002100206E
S31520004BA0FEF79CF948E000230093314B314A00215F
S31520004BB00020FEF793F93FE0002300932E4B2D4A69
S31520004BC000210020FEF78AF936E007F16C03033353
S31520004BD0184605F03DFAF867FA6F28492848FEF787
S31520004BE01BFA29E007F16C030333184605F030FA67
S31520004BF0F867FB6F5B421A4620492148FEF70CFAFC
S31520004C001AE007F16C030333184605F021FAF8671A
S31520004C10FA6F1C491A48FEF7FFF90DE07822194968
S31520004C201748FEF7F9F9002214491548FEF7F4F95A
S31520004C3002E000BF00E000BF00BF8037BD4680BD58
S31520004C402543002024BE002064B400206B050020EC
S31520004C50F0B900209CB40020B0B4002031350020EB
S31520004C60D8B80020D106002084B80020513C00206E
S31520004C70894C0020A8B90020514D00206154002005
S31520004C80D0B90020A554002080B483B000AF78604E
S31520004C9039603B68012B09D17B681B69132B05DC26
S31520004CA07B681B695A1C7B681A610BE03B68002BEA
S31520004CB008D17B681B69012B04DD7B681B695A1EA2
S31520004CC07B681A6100BF0C37BD465DF8047B7047D0
S31520004CD080B483B000AF786039607B689B69002B15
S31520004CE003D17B6801229A6102E07B6800229A61E7
S31520004CF000BF0C37BD465DF8047B704780B483B097
S31520004D0000AF786039607B681B6918460C37BD4652
S31520004D105DF8047B704780B483B000AF786039605B
S31520004D203B68012B04D17B685A697B681A6109E0CC
S31520004D303B68002B06D17B681A697B685A617B68C1
S31520004D4000221A6100BF0C37BD465DF8047B704710
S31520004D5080B584B002AF78607B681B69002B09D1CF
S31520004D607B685A697B681A6101220E490E48FEF754
S31520004D7053F913E07B681A697B685A617B680022C5
S31520004D801A6100230093094B094A00210020FEF7EF
S31520004D90A5F8002203490448FEF73EF900BF08376C
S31520004DA0BD4680BD5518002010BE00201F4A002099
S31520004DB0F4B8002080B483B000AF786039607B6897
S31520004DC00122DA6100BF0C37BD465DF8047B7047CF
S31520004DD080B59EB002AF786039607B68DB68002BB7
S31520004DE00CBF01230023DBB21A467B68DA607B689E
S31520004DF0DB69002B03D0264B00221A7044E07B6827
S31520004E005B6A002B0CD07B68DB68002B05D07B68A7
S31520004E101A691F4BD2B21A7002E01D4B00221A707B
S31520004E207B689B68002B2ED07B685B6A002B2AD080
S31520004E307B689B69002B16D07B681B6A154A82FB10
S31520004E4003129210DB17D01A7B681B6A114A82FB69
S31520004E5003129210DB17D11A002300930E4B7A68A7
S31520004E60FEF73CF810E07B681B6A0A4A82FB0312B5
S31520004E709210DB17D01A00230093074B7A68002183
S31520004E80FEF72CF800E000BF7037BD4680BD00BF9E
S31520004E901C74004067666666D14D002080B483B0DE
S31520004EA000AF786039607B683A681A6200BF0C37B9
S31520004EB0BD465DF8047B704780B483B000AF786050
S31520004EC039607B680022DA6100BF0C37BD465DF889
S31520004ED0047B704780B483B000AF786039607B680C
S31520004EE03A685A6200BF0C37BD465DF8047B7047AE
S31520004EF080B483B000AF786039607B683A681A6105
S31520004F0000BF0C37BD465DF8047B704780B483B084
S31520004F1000AF786039607B681B6918460C37BD4640
S31520004F205DF8047B704780B586B002AF7860396043
S31520004F307B689B68002B39D07B685B693A689A420C
S31520004F4034D100221B491C48FEF766F87B685B6952
S31520004F5007EE903AB8EEE77ADFED186AC6EE877A62
S31520004F60C7ED037AD7ED037A9FED157A67EE877A38
S31520004F709FED147A67EE877AFDEEE76AD7ED037A1E
S31520004F809FED117A67EE877A9FED0E7A67EE877A24
S31520004F90FDEEE77A7B685B6900930C4B7A6817EE27
S31520004FA0901A16EE900AFDF799FF00E000BF103721
S31520004FB0BD4680BD7718002010BE0020000070423C
S31520004FC00000FA430000C84200007A43274F002021
S31520004FD080B586B000AF786039600022304931480C
S31520004FE0FEF71AF8786100222F492E48FEF714F8AA
S31520004FF0386100222D492B48FEF70EF8F8607B68B1
S3152000500000225A627B69032B43D801A252F823F06F
S31520005010935000202150002029500020715000205C
S315200050207B6801225A6234E03B6803F00103002BBF
S315200050300ED1FB68002B03D0FB68012B04D028E09F
S315200050407B6801225A6212E07B6800225A620EE0D7
S31520005050FB68002B03D0FB68012B04D019E07B688A
S3152000506000225A6203E07B6801225A6200BF10E0E8
S3152000507039680F4B83FB0132CB17D21A13465B00DC
S315200050801344CA1A3B69934202D17B6801225A62B1
S3152000509000BF7B685B6A18461837BD4680BD00BFD7
S315200050A0ED380020D8B80020B9380020513C002027
S315200050B05655555580B5A4B002AF786039600022A8
S315200050C07D497E48FDF7A8FFC7F884007B681B69E9
S315200050D01A467B497B48FDF79FFFC7F880007B680F
S315200050E09B68002B00F0E380D7F88430052B00F076
S315200050F0DE80D7F88430062B00F0D9800022724952
S315200051007048FDF789FF7B68DB680A33FB677B689D
S315200051101B696E4A52F82320FB6F13446C4A9B008E
S315200051201344D3ED007A9FED6B7A67EE877AFDEE16
S31520005130E77A17EE903ABB67BA6F67496148FDF781
S315200051406BFF7B681B69654A52F823307B677B6857
S315200051501A697B685B6907F10C00614905F000F864
S3152000516007F10C031A465F495F48FDF755FF7B6838
S315200051705B6907EE903AB8EEE77ADFED5C6AC6EE39
S31520005180877AC7ED1C7A7B685B693A689A4230D089
S315200051907B681B690F2B0BD07B681B69112B07D0F3
S315200051A07B681B69152B03D07B681B69172B05D1E0
S315200051B001224F494F48FDF72FFF04E000224C49BA
S315200051C04C48FDF729FFD7ED1C7A9FED4B7A67EE09
S315200051D0877A9FED4A7A67EE877AFDEEE77A7B68D3
S315200051E05B690093464B474A002117EE900AFDF76C
S315200051F075FE7B6F4FF4FA7202FB03F307EE903ACB
S31520005200B8EEE77AD7ED1C7A67EE277A9FED3E7ADD
S3152000521077EEC77A9FED397A67EE877AFDEEE77AE1
S3152000522000230093394B274A41F2883117EE900A22
S31520005230FDF754FE7B681B6901335A4203F01F03B6
S3152000524002F01F0258BF53427A6813617B6F4FF4F6
S31520005250FA7202FB03F307EE903AB8EEE77AD7ED3F
S315200052601C7A67EE277A9FED257A67EE877AFDEE20
S31520005270E76A7B6FFA2202FB03F307EE903AB8EE59
S31520005280E77AD7ED1C7A67EE277A9FED1C7A67EED0
S31520005290877AFDEEE77A7B685B6900931C4B7A6818
S315200052A017EE901A16EE900AFDF718FE00E000BFE2
S315200052B08837BD4680BD00BF513C0020D8B80020AD
S315200052C0D14F0020A8B90020B94E002018B20020E6
S315200052D098B20020002474499D4E0020FCB2002084
S315200052E0B8B400206B050020F0B900200000704201
S315200052F05518002010BE00200000FA430000C842C6
S31520005300274F0020D0B9002000004842B54D00208C
S31520005310B550002080B483B000AF786039607B68D8
S315200053205B6918460C37BD465DF8047B704780B430
S3152000533083B000AF786039607B683A689A6000BFB6
S315200053400C37BD465DF8047B704780B584B002AF4C
S31520005350786039607B689B68002B0CBF0123002393
S31520005360DBB21A467B689A607B689B68002B13D059
S31520005370114B1A4611491248FDF74EFE00230093A1
S31520005380104B114A00210020FDF7A8FD01220F49EC
S315200053900F48FDF741FE0AE00E4B1A46074908481A
S315200053A0FDF73AFE002209490948FDF735FE00BF00
S315200053B00837BD4680BD00BFE0B400206B05002045
S315200053C0F0B90020D14D0020A8B9002055180020A2
S315200053D010BE0020ECB4002080B586B002AF786005
S315200053E039607B689B68002B0CBF01230023DBB24E
S315200053F01A467B689A607B685B690093114B124A58
S3152000540000210020FDF76AFD002210491048FDF713
S3152000541003FEF860FB68002B10D1002300930D4B90
S31520005420094A00210020FDF759FD7B681B6900937E
S31520005430094B0A4A00210020FDF750FD00BF103716
S31520005440BD4680BD274F0020D0B90020513C00200A
S31520005450D8B80020B5500020AD550020F4B8002063
S3152000546080B582B000AF786039603B6813F1050FD4
S3152000547006DB3B68052B03DC7B683A68DA6006E0CE
S31520005480054B1A4605490648FDF7C6FD00BF00BF75
S315200054900837BD4680BD00BFF8B400206B0500204C
S315200054A0F0B9002080B582B000AF786039603B68E3
S315200054B01D2B07DD3B68B3F5967F03DC7B683A68D6
S315200054C05A6106E0054B1A4605490648FDF7A4FD34
S315200054D000BF00BF0837BD4680BD00BF08B500200D
S315200054E06B050020F0B9002080B586B000AF78604B
S315200054F039603B68002B02DA06233B7301E0052363
