S01600002E2F44656275672F5254532D4C61622E73313936
S3152000000000BFDFF814D000F0FCF905F0CBFD00F0BE
S315200000100ABAFEE700BF000000C00120314900E017
S315200000203149EFF3088020ED108A7246EFF31183F1
S3152000003020E9FC0F2D4FD7F80080C8F800001EE0FD
S31520000040084602F047FB2A4802F044FB294802F002
S3152000005041FBD8F8040002F089FB274802F03AFB5E
S31520000060D8F8000002F053FB244802F033FBD8F8FE
S315200000700000006802F04BFB1D4802F02BFBDFF866
S315200000808080D8F80080C7F8008018E01D4802F06C
S3152000009021FBD8F8040002F069FB1B4802F01AFB8A
S315200000A0D8F8000002F033FB144802F013FBD8F80E
S315200000B00000006802F02BFB0D4802F00BFB134AF0
S315200000C0536843F00063536000BFD8F80000B0E8DF
S315200000D0FC0F83F311889646B0EC108A80F30888CB
S315200000E07047000070B6002081B6002044B700207B
S315200000F0F1B60020A2B60020BAB60020C2B6002073
S315200001009CBD0020CBB60020E0B6002000ED00E02C
S3152000011080B400AF00BFBD465DF8047B704780B554
S3152000012086B000AF454808F07FFF454807F09AFDA6
S31520000130444807F097FD01214FF0007002F06AF85D
S3152000014001214FF0806002F065F80121022002F0C3
S3152000015001F809220921394809F088F909220821DC
S31520000160364809F083F907F11003184609F09DF87F
S315200001704FF400733B6102233B750023BB750023BC
S31520000180FB7502237B7507F1100319462B4808F0EF
S31520000190FDFF4FF480733B6102233B750023BB7543
S315200001A00123FB7502237B7507F1100319462348AB
S315200001B008F0ECFF09220621204809F057F9092208
S315200001C005211E4809F052F940233B6102233B7565
S315200001D00023BB750023FB7502237B7507F11003F3
S315200001E01946164808F0D2FF20233B6102233B75AF
S315200001F00023BB750123FB7502237B7507F11003D2
S3152000020019460E4808F0C2FF0023BB720023FB727A
S3152000021001233B7300233B8000237B800023BB808C
S315200002200023FB8000233B8101237B733B4618463A
S3152000023007F00DFE00BF1837BD4680BD0004024002
S31520000240006400400068004080B586B000AF012100
S315200002504FF0005001F0DEFF07F11003184609F0B9
S3152000026024F820233B6103233B750023FB7507F10C
S31520000270100319460F4808F089FF05F0BDFC3B46E0
S31520000280184605F0FBFC00233B6000237B6000231F
S31520000290FB603B461946102005F0BCFC01211020CE
S315200002A005F002FD0021082005F0ACFD00BF18373F
S315200002B0BD4680BD0000024080B584B000AF01215C
S315200002C04FF4804001F0C6FF0721012009F046F9CE
S315200002D008F0A2FD3B46184608F02AFE80233B6024
S315200002E000233B710C237B710123BB713B461846CF
S315200002F008F0ACFD07F10803184608F0D6FF0223E4
S31520000300BB6001233B730123BB730023FB730123D3
S315200003107B7307F108031946184808F037FF0123B5
S31520000320BB6001233B730123BB730023FB730123B3
S315200003307B7307F108031946104808F027FF0122AE
S3152000034002210E4809F059F8012201210B4809F033
S3152000035054F88023BB6000233B730023BB73002328
S31520000360FB7301237B7307F108031946034808F042
S315200003700DFF00BF1037BD4680BD00BF0004024000
S3152000038080B483B000AFEFF314833B603B6823F067
S3152000039003037B607B6883F3148800BF094B4FF40B
S315200003A004725A61074B5B69064A43F0080353619E
S315200003B0054B4FF000425A6000BF0C37BD465DF832
S315200003C0047B704700ED00E030EF00E080B500AF21
S315200003D00121082001F01EFF0121082002F05AF811
S315200003E000BF80BD80B400AF124A02E0002342F86D
S315200003F0043B114B9A42F9D300BFBD465DF8047BFE
S31520000400704780B500AFFFF7EDFFFFF781FEFFF7DE
S3152000041086FEFFF719FFFFF74FFFFFF7B1FFFFF744
S31520000420D5FF00BF80BD80B400AF00BFBD465DF8DC
S31520000430047B704770BD0020F840012080B483B053
S3152000044000AF0346FB71FB7903F01F03012202FA7A
S3152000045003F1064A97F907305B0942F8231000BFDB
S315200004600C37BD465DF8047B704700BF00E100E015
S3152000047080B483B000AF03463960FB7197F907302B
S31520000480002B0BDA3B68DAB20C49FB7903F00F0339
S31520000490043B1201D2B20B441A7609E03B68DAB269
S315200004A0074997F907301201D2B20B4483F800238B
S315200004B000BF0C37BD465DF8047B704700ED00E0B9
S315200004C000E100E080B582B000AF786039607B68DB
S315200004D000229A617B689A697B685A617B685A69AF
S315200004E07B68DA61012240F225510A4801F090F832
S315200004F0002240F22771074801F08AF802212520C0
S31520000500FFF7B6FF2520FFF799FF00BF0837BD4646
S3152000051080BD00BF0010014080B483B000AF78607A
S315200005200B46FB707B68DB69B3F5806F17DA7B6857
S315200005305B697A681344FA7883F820207B685B69C4
S3152000054001335A42C3F30903C2F3090258BF534287
S315200005507A6853617B68DB695A1C7B68DA6100BF65
S315200005600C37BD465DF8047B704780B582B000AF7E
S31520000570786039607B68DB69002B18D17B689B68C3
S31520000580012240F22771184601F042F80FE03B683D
S315200005901B780A2B03D10D217868FFF7BDFF3B6836
S315200005A05A1C3A601B7819467868FFF7B5FF3B68F6
S315200005B01B78002BEBD100BF00BF0837BD4680BD9E
S315200005C080B582B000AF786039607B68DB69002B2C
S315200005D007D17B689B68012240F22771184601F0FB
S315200005E017F83B68DBB219467868FFF795FF00BF1E
S315200005F00837BD4680BD80B586B002AF78603960C9
S315200006007B689B682021184601F04AF80346012B97
S3152000061018D17B689B68184600F065FE0346FB6090
S315200006207B68DB68002B0DD07B68DA687B681969EC
S31520000630FB6800930B460021002002F087FC234B29
S3152000064001221A607B689B688021184601F028F8F1
S315200006500346012B35D17B68DB69002B29DD7B68BE
S3152000066098687B689B697A68134493F820309BB21C
S31520000670194600F026FE7B689B6901335A42C3F374
S315200006800903C2F3090258BF53427A6893617B6813
S31520000690DB695A1E7B68DA617B68DB69002B10D127
S315200006A07B689B68002240F22771184600F0B0FF55
S315200006B007E07B689B68002240F22771184600F00D
S315200006C0A7FF002318461037BD4680BD7CBD0020FD
S315200006D080B5A6B002AF786039603A6807F16C033E
S315200006E01068516803C31189927A19809A7097F815
S315200006F06C3007F10800844A642109F051FC00227D
S315200007008249834802F0C0FCC7F88C000022814948
S315200007107F4802F0B9FCC7F8880000227E497C4851
S3152000072002F0B2FCC7F8840000227C49784802F027
S31520000730ABFCC7F8800097F86C303B3B052B00F2EA
S31520000740DF8001A252F823F0C10800206B080020A8
S3152000075017080020C107002091070020610700200C
S315200007607B681433184602F08DFDF8677B689B6919
S31520000770FA6FD31A4CF24F32934200F3BA8097F8AD
S315200007806D301A467B680232002143F82210B0E011
S315200007907B681433184602F075FDF8677B689B6901
S315200007A0FA6FD31A4CF24F32934200F3A48097F893
S315200007B06D301A467B680232012143F822109AE0F6
S315200007C07B681433184602F05DFDF8677B689B69E9
S315200007D0FA6FD31A4CF24F32934200F38E8097F879
S315200007E06D301A467B680232062143F82210002318
S315200007F000934B4B4B4A0021002002F0A7FBD7F871
S315200008008C30072B79D17B68D7F8842002320121DE
S3152000081043F8221071E07B681433184602F032FD4B
S31520000820F8677B689B69FA6FD31A4CF24F32934272
S3152000083065DC97F86D301A467B680232052143F84D
S31520000840221000230093364B364A0021002002F066
S315200008507DFBD7F88C30072B51D17B68D7F88420C5
S315200008600232012143F8221049E0002300932E4B47
S315200008707A680021002002F069FBD7F88030013326
S3152000088000932A4B224A0021002002F05FFB00231E
S315200008900093274B7A680021002002F057FB0123A2
S315200008A00093214B7A680021224802F04FFB002357
S315200008B00093214B7A680021204802F047FB1FE075
S315200008C007F16C030333184609F032FBB867BB6F98
S315200008D00093164B0E4A0021002002F037FB97F8B2
S315200008E06D300093164B0A4A0021002002F02EFBA1
S315200008F006E000BF04E000BF02E000BF00E000BF4A
S3152000090000BF9037BD4680BD98AB0020BD3B002080
S3152000091048B7002023380020093800203D38002021
S31520000920A555002040B80020A30B00202D3C002018
S31520000930D10C0020F8240100990A0020A08601008D
S31520000940493C002080B58CB002AF78603960002227
S315200009504749484802F098FB786100237B620023D0
S315200009603B620023FB6100224349424802F08CFB94
S315200009703861002241493F4802F086FBF860002397
S31520000980BB612AE07B68BA69023253F8223013F140
S31520000990020F08D17B6A01337B627B68BA69023217
S315200009A0072143F822107B68BA69023253F82230B5
S315200009B0002B05D13B6A01333B62FB690133FB61A6
S315200009C07B68BA69023253F82230012B02D13B6A86
S315200009D001333B62BB690133BB61BB69022BD1DDAD
S315200009E03A6AFB689A4207DA00230093244B254A89
S315200009F00021002002F0AAFA3B6A0093224B1D4AEE
S31520000A000021002002F0A2FAFB69012B07DD00235A
S31520000A1000931E4B174A0021002002F097FA3B69EB
S31520000A20072B0AD13B6A002B07DD00230093184BC6
S31520000A30104A0021002002F089FAFB69002B07D119
S31520000A4000230093114B0B4A0021002002F07EFA6E
S31520000A507B68DB69002B07D0002300930D4B7A6857
S31520000A600021002002F072FA00BF2837BD4680BD63
S31520000A702338002048B70020BD3B00203D38002009
S31520000A80A555002040B800202D3C0020D73B002053
S31520000A90A53F0020990A002080B58CB002AF78606F
S31520000AA0396000237B6209E07B687A6A02326FF044
S31520000AB0010143F822107B6A01337B627B6A022B99
S31520000AC0F2DD00222A492B4802F0DEFA38620022A3
S31520000AD02949284802F0D8FAF8617B683A6A023236
S31520000AE0F96943F822103B6ADBB27B73FB69072B5B
S31520000AF021D801A252F823F0190B00201F0B002049
S31520000B00370B0020370B0020370B0020310B00203D
S31520000B102B0B0020250B002040233B730BE03F23AB
S31520000B203B7308E03F233B7305E03E233B7302E023
S31520000B303D233B7300BF07F10C031A460F491048AB
S31520000B4002F0A2FA7B681433184602F09BFBB861C8
S31520000B507B68BA699A61002300930A4B7A68002160
S31520000B604CF2503002F0F2F900BF2837BD4680BD66
S31520000B700938002048B70020BD3B00205B430020F9
S31520000B8094BC00204509002080B483B000AF786073
S31520000B9039607B68DB6918460C37BD465DF8047BF7
S31520000BA0704780B483B000AF786039607B683A685C
S31520000BB0DA6100BF0C37BD465DF8047B704780B410
S31520000BC085B000AF786039600023FB600BE07B685E
S31520000BD0FA68023253F82230002B01D1012306E0B5
S31520000BE0FB680133FB60FB68022BF0DD002318460F
S31520000BF01437BD465DF8047B704780B586B000AFDC
S31520000C007860396000220A490A4802F03DFA786184
S31520000C107B69DBB27B723E233B7207F108031A46DF
S31520000C200549064802F030FA00BF1837BD4680BD98
S31520000C300938002048B700205B43002094BC0020E0
S31520000C4080B586B000AF7860396000220A490B482B
S31520000C5002F01AFA78617B69DBB27B723D233B7224
S31520000C6007F108031A460649064802F00DFA00BFA6
S31520000C701837BD4680BD00BF0938002048B7002080
S31520000C805B43002094BC002080B586B000AF78601E
S31520000C90396000220A490B4802F0F6F978617B692F
S31520000CA0DBB27B723C233B7207F108031A460649E6
S31520000CB0064802F0E9F900BF1837BD4680BD00BFDF
S31520000CC00938002048B700205B43002094BC002050
S31520000CD080B58AB000AF786039600022184919487B
S31520000CE002F0D2F9786200221749164802F0CCF9B0
S31520000CF038627B6A002B20D13B6ADBB27B743B23B4
S31520000D003B74002211490F4802F0BEF9F861FB69D5
S31520000D1083EAE372A2EBE37207F10C030C4918464F
S31520000D2009F08EF90123BB743B7BFB7407F110039A
S31520000D301A460849084802F0A7F92837BD4680BD5B
S31520000D40BD3B002048B70020093800203D38002050
S31520000D50ACAB00205B43002094BC002080B59CB047
S31520000D6000AF786039600023FB6669E007F1080070
S31520000D70FB6E374A642109F013F907F108031A4676
S31520000D803449354802F080F97B68FA6E023253F80E
S31520000D9022300233092B4FD801A252F823F000BF8C
S31520000DA02B0E0020E50D0020C90D0020D70D0020B8
S31520000DB0F30D0020390E0020390E0020010E0020F0
S31520000DC00F0E00201D0E0020244B1A4621492248D2
S31520000DD002F05AF931E0224B1A461E491E4802F00B
S31520000DE053F92AE01F4B1A461A491B4802F04CF9C0
S31520000DF023E01D4B1A461749174802F045F91CE017
S31520000E001A4B1A461349144802F03EF915E0184BBE
S31520000E101A461049104802F037F90EE0154B1A46CB
S31520000E200C490D4802F030F907E0134B1A460949E0
S31520000E30094802F029F900E000BFFB6E0133FB668A
S31520000E40FB6E022B92DD00BF00BF7037BD4680BD12
S31520000E50B0AB00206B05002060B80020C0AB00209E
S31520000E60C8AB0020D0AB0020D8AB0020E4AB0020DC
S31520000E70F0AB0020FCAB002008AC002080B582B08F
S31520000E8000AF78607B683B4A934208D1012110204D
S31520000E9001F080FA0021102001F07CFA65E07B68E1
S31520000EA0354A93420AD101214FF4003001F052FA1B
S31520000EB000214FF4003001F04DFA56E07B682F4AAE
S31520000EC093420AD101214FF4802001F043FA0021F8
S31520000ED04FF4802001F03EFA47E07B68284A93428F
S31520000EE00AD101214FF4002001F034FA00214FF4F9
S31520000EF0002001F02FFA38E07B68224A93420AD17B
S31520000F0001214FF4801001F025FA00214FF48010C2
S31520000F1001F020FA29E07B681B4A934208D101217F
S31520000F20202001F037FA0021202001F033FA1CE0BE
S31520000F307B68164A93420AD101214FF0804001F086
S31520000F4009FA00214FF0804001F004FA0DE07B6899
S31520000F500F4A934209D101214FF0004001F0FAF9DE
S31520000F6000214FF0004001F0F5F900BF0837BD46DB
S31520000F7080BD00BF001001400044004000480040F2
S31520000F80004C004000500040001401400078004012
S31520000F90007C004080B58AB000AF786039600023BD
S31520000FA07B6200233B620023FB610023BB617B68DD
S31520000FB01B8A9BB27B627B6A23F440537B623B682D
S31520000FC0DB881A467B6A13437B627B6A9AB27B680C
S31520000FD01A827B689B899BB27B627B6A23F4B0531F
S31520000FE023F00C037B623B689A883B681B8913437A
S31520000FF09AB23B685B8913439BB21A467B6A1343BA
S315200010007B627B6A9AB27B689A817B689B8A9BB259
S315200010107B627B6A23F440737B623B689B891A461A
S315200010207B6A13437B627B6A9AB27B689A8207F15A
S315200010300803184600F0D8FE7B68304A934203D056
S315200010407B682F4A934202D17B693B6201E03B6970
S315200010503B627B689B899BB21BB2002B0CDA3A6AF7
S3152000106013469B0013449A001A443B681B685B0096
S31520001070B2FBF3F3FB610BE03A6A13469B00134481
S315200010809A001A443B681B689B00B2FBF3F3FB6192
S31520001090FB691C4AA2FB03235B091B017B627B6A5B
S315200010A01B09642202FB03F3FA69D31ABB617B682E
S315200010B09B899BB21BB2002B0CDABB69DB00323357
S315200010C0104AA2FB03235B0903F007037A6A134342
S315200010D07B620BE0BB691B0132330A4AA2FB032366
S315200010E05B0903F00F037A6A13437B627B6A9AB229
S315200010F07B681A8100BF2837BD4680BD001001409D
S31520001100001401401F85EB5180B483B000AF786096
S315200011107B684FF416521A607B6800229A807B689F
S315200011200022DA807B6800221A817B680C225A8191
S315200011307B6800229A8100BF0C37BD465DF8047B90
S31520001140704780B485B000AF786039600023FB60BB
S315200011507B681B8A9BB2FB60FB6823F47063FB6091
S315200011603B681A883B685B8813439AB23B689B8826
S3152000117013439AB23B68DB8813439BB21A46FB683B
S315200011801343FB60FB689AB27B681A8200BF143750
S31520001190BD465DF8047B704780B483B000AF7860AD
S315200011A07B6800221A807B6800225A807B68002296
S315200011B09A807B680022DA8000BF0C37BD465DF836
S315200011C0047B704780B483B000AF78600B46FB7019
S315200011D0FB78002B08D07B689B899BB243F4005395
S315200011E09AB27B689A8107E07B689B899BB223F43D
S315200011F000539AB27B689A8100BF0C37BD465DF8D2
S31520001200047B704780B483B000AF78600B46FB70D8
S315200012107B681B8B9BB223F0FF039AB27B681A83F1
S315200012207B681B8B9AB2FB789BB213439AB27B687E
S315200012301A8300BF0C37BD465DF8047B704780B427
S3152000124083B000AF78600B46FB70FB78002B0AD08A
S315200012507B689B899BB26FEA43436FEA53439AB2FA
S315200012607B689A8107E07B689B899BB2C3F30E0358
S315200012709AB27B689A8100BF0C37BD465DF8047B25
S31520001280704780B483B000AF78600B46FB70FB7864
S31520001290002B08D07B689B8A9BB243F400639AB2EA
S315200012A07B689A8207E07B689B8A9BB223F4006363
S315200012B09AB27B689A8200BF0C37BD465DF8047BE4
S315200012C0704780B483B000AF78600B467B807B8804
S315200012D0C3F308039AB27B689A8000BF0C37BD46D9
S315200012E05DF8047B704780B483B000AF78607B687C
S315200012F09B889BB2C3F308039BB218460C37BD46A6
S315200013005DF8047B704780B483B000AF78600B46ED
S31520001310FB707B681B8A9BB223F00F039AB27B6813
S315200013201A827B681B8A9AB2FB789BB213439AB2C5
S315200013307B681A8200BF0C37BD465DF8047B704778
S3152000134080B483B000AF78600B46FB70FB78002B2F
S3152000135008D07B689B899BB243F002039AB27B68D4
S315200013609A8107E07B689B899BB223F002039AB29D
S315200013707B689A8100BF0C37BD465DF8047B7047B9
S3152000138080B483B000AF78600B467B807B689B89F6
S315200013909BB223F400639AB27B689A817B689B890F
S315200013A09AB27B8813439AB27B689A8100BF0C3726
S315200013B0BD465DF8047B704780B483B000AF78608B
S315200013C00B467B807B681B8A9BB223F020039AB254
S315200013D07B681A827B681B8A9AB27B8813439AB2EF
S315200013E07B681A8200BF0C37BD465DF8047B7047C8
S315200013F080B483B000AF78600B46FB70FB78002B7F
S3152000140008D07B681B8A9BB243F480439AB27B68E0
S315200014101A8207E07B681B8A9BB223F480439AB228
S315200014207B681A8200BF0C37BD465DF8047B704787
S3152000143080B483B000AF78607B689B899BB243F011
S3152000144001039AB27B689A8100BF0C37BD465DF8CE
S31520001450047B704780B483B000AF78600B46FB7086
S31520001460FB78002B08D07B689B8A9BB243F008034D
S315200014709AB27B689A8207E07B689B8A9BB223F0AC
S3152000148008039AB27B689A8200BF0C37BD465DF886
S31520001490047B704780B483B000AF78600B46FB7046
S315200014A07B681B8B9BB2DBB29AB27B681A837B6804
S315200014B01B8B9AB2FB789BB21B029BB213439AB248
S315200014C07B681A8300BF0C37BD465DF8047B7047E6
S315200014D080B483B000AF78600B46FB70FB78002B9E
S315200014E008D07B689B8A9BB243F020039AB27B6824
S315200014F09A8207E07B689B8A9BB223F020039AB2EC
S315200015007B689A8200BF0C37BD465DF8047B704726
S3152000151080B483B000AF78600B46FB70FB78002B5D
S3152000152008D07B689B8A9BB243F010039AB27B68F3
S315200015309A8207E07B689B8A9BB223F010039AB2BB
S315200015407B689A8200BF0C37BD465DF8047B7047E6
S3152000155080B483B000AF78600B467B807B689B8A23
S315200015609BB223F004039AB27B689A827B689B8A9B
S315200015709AB27B8813439AB27B689A8200BF0C3753
S31520001580BD465DF8047B704780B483B000AF7860B9
S315200015900B46FB70FB78002B08D07B689B8A9BB29E
S315200015A043F002039AB27B689A8207E07B689B8AA3
S315200015B09BB223F002039AB27B689A8200BF0C3753
S315200015C0BD465DF8047B704780B483B000AF786079
S315200015D00B467B8013467B707B78002B08D07B687C
S315200015E09B8A9AB27B8813439AB27B689A8209E0D7
S315200015F07B689B8A9AB27B88DB439BB213409AB264
S315200016007B689A8200BF0C37BD465DF8047B704725
S3152000161080B487B000AF78600B467B8013467B7022
S3152000162000233B610023FB600023BB6000237B611A
S315200016307B687B617B88DBB25B09DBB23B617B88A5
S3152000164003F01F03FB600122FB6802FA03F3BB6071
S315200016503B69012B03D17B690C337B6109E03B6934
S31520001660022B03D17B6910337B6102E07B69143343
S315200016707B617B78002B06D07B6919687B69BA6809
S315200016800A431A6006E07B691968BB68DA437B69FE
S315200016900A401A6000BF1C37BD465DF8047B7047C0
S315200016A080B485B000AF78600B467B800023FB7347
S315200016B07B681B889AB27B8813409BB2002B02D092
S315200016C00123FB7301E00023FB73FB7B18461437D1
S315200016D0BD465DF8047B704780B483B000AF786068
S315200016E00B467B807B88DB439AB27B681A8000BFDF
S315200016F00C37BD465DF8047B704780B487B000AFD9
S3152000170078600B467B800023FB6000237B610023EF
S31520001710BB600023FB747B88DBB25B09DBB2BB605A
S315200017207B8803F01F037B6101227B6902FA03F3A6
S315200017307B61BB68012B07D17B689B899BB21A46CC
S315200017407B6913407B6111E0BB68022B07D17B6864
S315200017501B8A9BB21A467B6913407B6106E07B6835
S315200017609B8A9BB21A467B6913407B617B881B0A46
S315200017709BB2FB600122FB6802FA03F3FB607B68E5
S315200017801B889BB21A46FB681340FB607B69002BC3
S3152000179005D0FB68002B02D00123FB7401E0002357
S315200017A0FB74FB7C18461C37BD465DF8047B7047EE
S315200017B080B485B000AF78600B467B800023FB8128
S315200017C00023BB817B881B0AFB81FB89012202FA4D
S315200017D003F3BB81BB89DB439AB27B681A8000BFC7
S315200017E01437BD465DF8047B704700BF80B483B0D4
S315200017F000AF0346FB71FB7903F01F03012202FAB7
S3152000180003F1064A97F907305B0942F8231000BF17
S315200018100C37BD465DF8047B704700BF00E100E051
S3152000182080B483B000AF03463960FB7197F9073067
S31520001830002B0BDA3B68DAB20C49FB7903F00F0375
S31520001840043B1201D2B20B441A7609E03B68DAB2A5
S31520001850074997F907301201D2B20B4483F80023C7
S3152000186000BF0C37BD465DF8047B704700ED00E0F5
S3152000187000E100E080B582B000AF786039600022D8
S315200018800121074807F0B9FD02211720FFF7C8FFFD
S315200018901720FFF7ABFF00BF0837BD4680BD00BF4E
S315200018A00004024080B582B000AF786039607B6862
S315200018B09B688021184607F034FD034618460837F2
S315200018C0BD4680BD80B582B000AF786039607B6848
S315200018D09B683A68D2B20121184607F08EFD00BFF8
S315200018E00837BD4680BD80B582B000AF78603960CC
S315200018F07B689B680121184607F0A6FD00BF0837C4
S31520001900BD4680BD80B584B000AF7860396007F1F0
S315200019100803184607F00CFB8023BB6000233B73AB
S315200019203B68002B01D0082300E00C237B730123A6
S31520001930BB7307F10803184607F088FA00BF103773
S31520001940BD4680BD80B584B002AF78603960802006
S3152000195007F040FB0346012B14D1802007F054FBEF
S315200019607B68DB68002B10D07B68DA687B681B6994
S31520001970002100910021002001F0E8FA054B012208
S315200019801A6002E0044800F0A5FE00231846083736
S31520001990BD4680BD7CBD002014AC002080B400AFC5
S315200019A0164B1B68154A43F001031360134B0022A4
S315200019B09A60124B1B68114A23F0A85323F4102374
S315200019C013600E4B0E4A5A600C4B0E4AC3F8842005
S315200019D00A4B0D4AC3F88820084B1B68074A23F494
S315200019E080231360054B0022DA60044B0022C3F8E3
S315200019F08C2000BFBD465DF8047B7047003802404E
S31520001A0010300024003000200030002480B483B041
S31520001A1000AF0346FB71064B00221A70044AFB797D
S31520001A20137000BF0C37BD465DF8047B704700BFBE
S31520001A300238024080B582B000AF00233B6000230D
S31520001A40FB710023BB71312000F08AFD0346BB7178
S31520001A503B6801333B603B68B3F5A04F02D0BB79AE
S31520001A60002BF0D0312000F07BFD0346002B02D066
S31520001A700123FB7101E00023FB71FB79184608372F
S31520001A80BD4680BD80B485B000AF0346FB71002300
S31520001A90FB600A4B1B68FB60FB6823F0F803FB60C6
S31520001AA0FB79DB00FA681343FB60044AFB6813608A
S31520001AB000BF1437BD465DF8047B704700380240EE
S31520001AC080B483B000AF0346FB71044AFB791360F0
S31520001AD000BF0C37BD465DF8047B704700004742C7
S31520001AE080B483B000AF0346FB710D4B00221A7001
S31520001AF00B4B00221A70FB79012B02D0042B04D049
S31520001B0007E0074B01221A7003E0054B05221A70E5
S31520001B1000BF00BF0C37BD465DF8047B704700BF91
S31520001B207038024080B483B000AF0346FB71044A8C
S31520001B30FB79136000BF0C37BD465DF8047B704708
S31520001B40800E474280B485B000AFF860B9607A60F5
S31520001B503B607B689A01BB681A433B685B08013B84
S31520001B601B041A43FB681A43BB691B06044913432B
S31520001B704B6000BF1437BD465DF8047B704700BF3D
S31520001B800038024080B483B000AF0346FB71044A9C
S31520001B90FB79136000BF0C37BD465DF8047B7047A8
S31520001BA06000474280B483B000AF786039607B68BC
S31520001BB09A013B681B0705491343C1F8843000BFCF
S31520001BC00C37BD465DF8047B704700BF00380240E5
S31520001BD080B483B000AF0346FB71044AFB791360DF
S31520001BE000BF0C37BD465DF8047B7047680047424E
S31520001BF080B485B000AFF860B9607A60FB689A015E
S31520001C00BB681B061A437B681B0705491343C1F8AB
S31520001C10883000BF1437BD465DF8047B704700BF8F
S31520001C200038024080B483B000AF0346FB71044AFB
S31520001C30FB79136000BF0C37BD465DF8047B704707
S31520001C407000474280B483B000AF0346FB71044A5C
S31520001C50FB79136000BF0C37BD465DF8047B7047E7
S31520001C604C00474280B485B000AF786039600023CD
S31520001C70FB600B4B9B68FB60FB6823F0EC63FB600F
S31520001C807A683B681343FA681343FB60044AFB688F
S31520001C90936000BF1437BD465DF8047B704700BFD4
S31520001CA00038024080B485B000AF786039600023E8
S31520001CB0FB600B4B9B68FB60FB6823F07843FB6063
S31520001CC07A683B681343FA681343FB60044AFB684F
S31520001CD0936000BF1437BD465DF8047B704700BF94
S31520001CE00038024080B485B000AF78600023FB60E6
S31520001CF0094B9B68FB60FB6823F00303FB60FA68D3
S31520001D007B681343FB60044AFB68936000BF14376B
S31520001D10BD465DF8047B70470038024080B400AFB2
S31520001D20054B9B68DBB203F00C03DBB21846BD46BD
S31520001D305DF8047B704700BF0038024080B485B050
S31520001D4000AF78600023FB60094B9B68FB60FB6853
S31520001D5023F0F003FB60FA687B681343FB60044AB8
S31520001D60FB68936000BF1437BD465DF8047B70475F
S31520001D700038024080B485B000AF78600023FB6055
S31520001D80094B9B68FB60FB6823F4E053FB60FA6811
S31520001D907B681343FB60044AFB68936000BF1437DB
S31520001DA0BD465DF8047B70470038024080B485B09C
S31520001DB000AF78600023FB600A4B9B68FB60FB68E2
S31520001DC023F46043FB607B68DB00FA681343FB6007
S31520001DD0044AFB68936000BF1437BD465DF8047B58
S31520001DE0704700BF0038024080B489B000AF7860E9
S31520001DF00023BB6100237B610023FB6102233B613F
S31520001E000023FB600223BB604A4B9B6803F00C0354
S31520001E10BB61BB69082B11D0BB69082B44D8BB69B1
S31520001E20002B03D0BB69042B04D03DE07B68424ADB
S31520001E301A603DE07B68414A1A6039E03D4B5B6899
S31520001E409B0D03F00103FB603A4B5B6803F03F03F5
S31520001E50BB60FB68002B0CD0384ABB68B2FBF3F39F
S31520001E60344A52689209C2F3080202FB03F3FB616B
S31520001E700BE0314ABB68B2FBF3F32E4A5268920953
S31520001E80C2F3080202FB03F3FB612A4B5B681B0CBF
S31520001E9003F0030301335B003B61FA693B69B2FB44
S31520001EA0F3F27B681A6003E07B68234A1A6000BF5E
S31520001EB0204B9B6803F0F003BB61BB691B09BB6128
S31520001EC01F4ABB6913441B78DBB27B617B681A68A7
S31520001ED07B69DA407B685A60164B9B6803F4E053B3
S31520001EE0BB61BB699B0ABB61154ABB6913441B785E
S31520001EF0DBB27B617B685A687B69DA407B689A60D3
S31520001F000C4B9B6803F46043BB61BB695B0BBB61F5
S31520001F100B4ABB6913441B78DBB27B617B685A682A
S31520001F207B69DA407B68DA6000BF2437BD465DF8FE
S31520001F30047B7047003802400024F40000127A0027
S31520001F4014B7002080B485B000AF78600023FB6012
S31520001F507B6803F44073B3F5407F11D10F4B9B6828
S31520001F60FB60FB6823F4F813FB607B6823F0704367
S31520001F7023F44073FA681343FB60084AFB689360B6
S31520001F80064B1A6F7B68C3F30B03044913430B6795
S31520001F9000BF1437BD465DF8047B70470038024009
S31520001FA080B483B000AF0346FB71044AFB7913600B
S31520001FB000BF0C37BD465DF8047B70473C0E474298
S31520001FC080B483B000AF0346FB71044AFB791360EB
S31520001FD000BF0C37BD465DF8047B7047400E474274
S31520001FE080B483B000AF7860044A7B68136000BF7A
S31520001FF00C37BD465DF8047B704700BF5C01474245
S3152000200080B485B000AF78600023FB600B4BD3F81B
S315200020108C30FB60FB6823F01F03FB607B68013B71
S31520002020FA681343FB60054AFB68C2F88C3000BF90
S315200020301437BD465DF8047B704700BF0038024068
S3152000204080B485B000AF78600023FB600B4BD3F8DB
S315200020508C30FB60FB6823F4F853FB607B68013B04
S315200020601B02FA681343FB60044AFB68C2F88C30F3
S3152000207000BF1437BD465DF8047B70470038024028
S3152000208080B485B000AF78600023FB600A4BD3F89C
S315200020908C30FB60FB6823F44013FB60FA687B6896
S315200020A01343FB60044AFB68C2F88C3000BF143728
S315200020B0BD465DF8047B70470038024080B485B089
S315200020C000AF78600023FB600A4BD3F88C30FB60AE
S315200020D0FB6823F44003FB60FA687B681343FB60CC
S315200020E0044AFB68C2F88C3000BF1437BD465DF841
S315200020F0047B70470038024080B485B000AF78601A
S315200021000023FB600A4BD3F88C30FB60FB6823F47A
S315200021104033FB60FA687B681343FB60044AFB6824
S31520002120C2F88C3000BF1437BD465DF8047B70477B
S315200021300038024080B483B000AF7860044A7B68E0
S31520002140136000BF0C37BD465DF8047B704700BFA7
S31520002150E011474280B483B000AF78600B46FB7035
S31520002160FB78002B06D00A4B1A6B09497B68134370
S315200021700B6306E0064B1A6B7B68DB43044913406E
S315200021800B6300BF0C37BD465DF8047B704700BF6C
S315200021900038024080B483B000AF78600B46FB70F5
S315200021A0FB78002B06D00A4B5A6B09497B681343F0
S315200021B04B6306E0064B5A6B7B68DB4304491340AE
S315200021C04B6300BF0C37BD465DF8047B704700BFEC
S315200021D00038024080B483B000AF78600B46FB70B5
S315200021E0FB78002B06D00A4B9A6B09497B68134370
S315200021F08B6306E0064B9A6B7B68DB4304491340EE
S315200022008B6300BF0C37BD465DF8047B704700BF6B
S315200022100038024080B483B000AF78600B46FB7074
S31520002220FB78002B06D00A4B1A6C09497B681343AE
S315200022300B6406E0064B1A6C7B68DB4304491340AB
S315200022400B6400BF0C37BD465DF8047B704700BFAA
S315200022500038024080B483B000AF78600B46FB7034
S31520002260FB78002B06D00A4B5A6C09497B6813432E
S315200022704B6406E0064B5A6C7B68DB4304491340EB
S315200022804B6400BF0C37BD465DF8047B704700BF2A
S315200022900038024080B483B000AF78600B46FB70F4
S315200022A0FB78002B06D00A4B1A6909497B68134331
S315200022B00B6106E0064B1A697B68DB430449134031
S315200022C00B6100BF0C37BD465DF8047B704700BF2D
S315200022D00038024080B483B000AF78600B46FB70B4
S315200022E0FB78002B06D00A4B5A6909497B681343B1
S315200022F04B6106E0064B5A697B68DB430449134071
S315200023004B6100BF0C37BD465DF8047B704700BFAC
S315200023100038024080B483B000AF78600B46FB7073
S31520002320FB78002B06D00A4B9A6909497B68134330
S315200023308B6106E0064B9A697B68DB4304491340B0
S315200023408B6100BF0C37BD465DF8047B704700BF2C
S315200023500038024080B483B000AF78600B46FB7033
S31520002360FB78002B06D00A4B1A6A09497B6813436F
S315200023700B6206E0064B1A6A7B68DB43044913406E
S315200023800B6200BF0C37BD465DF8047B704700BF6B
S315200023900038024080B483B000AF78600B46FB70F3
S315200023A0FB78002B06D00A4B5A6A09497B681343EF
S315200023B04B6206E0064B5A6A7B68DB4304491340AE
S315200023C04B6200BF0C37BD465DF8047B704700BFEB
S315200023D00038024080B483B000AF78600B46FB70B3
S315200023E0FB78002B06D00A4B1A6D09497B681343EC
S315200023F00B6506E0064B1A6D7B68DB4304491340E8
S315200024000B6500BF0C37BD465DF8047B704700BFE7
S315200024100038024080B483B000AF78600B46FB7072
S31520002420FB78002B06D00A4B5A6D09497B6813436B
S315200024304B6506E0064B5A6D7B68DB430449134027
S315200024404B6500BF0C37BD465DF8047B704700BF67
S315200024500038024080B483B000AF78600B46FB7032
S31520002460FB78002B06D00A4B9A6D09497B681343EB
S315200024708B6506E0064B9A6D7B68DB430449134067
S315200024808B6500BF0C37BD465DF8047B704700BFE7
S315200024900038024080B483B000AF78600B46FB70F2
S315200024A0FB78002B06D00A4B1A6E09497B6813432A
S315200024B00B6606E0064B1A6E7B68DB430449134025
S315200024C00B6600BF0C37BD465DF8047B704700BF26
S315200024D00038024080B483B000AF78600B46FB70B2
S315200024E0FB78002B06D00A4B5A6E09497B681343AA
S315200024F04B6606E0064B5A6E7B68DB430449134065
S315200025004B6600BF0C37BD465DF8047B704700BFA5
S315200025100038024080B483B000AF03460A46FB7100
S315200025201346BB71BB79002B08D00C4B1B78DAB253
S315200025300A49FB791343DBB20B7009E0074B1B7882
S31520002540DAB2FB79DB43DBB204491340DBB20B7012
S3152000255000BF0C37BD465DF8047B70470D3802403E
S3152000256080B487B000AF0346FB710023FB600023D5
S315200025707B610023FB74FB795B09DBB2FB60FB68A4
S31520002580012B03D1124B1B687B6109E0FB68022BF0
S3152000259003D10F4B1B6F7B6102E00D4B5B6F7B61A1
S315200025A0FB7903F01F03FB607A69FB6822FA03F3C9
S315200025B003F00103002B02D00123FB7401E000236A
S315200025C0FB74FB7C18461C37BD465DF8047B7047C0
S315200025D00038024080B400AF054B5B6F044A43F0DD
S315200025E08073536700BFBD465DF8047B704700BF0C
S315200025F00038024080B485B000AF0346FB7100234B
S31520002600FB73094BDA68FB791340002B02D00123B8
S31520002610FB7301E00023FB73FB7B18461437BD4692
S315200026205DF8047B704700BF0038024080B483B059
S3152000263000AF0346FB71044AFB79137000BF0C37C9
S31520002640BD465DF8047B70470E38024080B483B0E7
S3152000265000AF0346FB71FB7903F01F03012202FA48
S3152000266003F1064A97F907305B0942F8231000BFA9
S315200026700C37BD465DF8047B704700BF00E100E0E3
S3152000268080B483B000AF03463960FB7197F90730F9
S31520002690002B0BDA3B68DAB20C49FB7903F00F0307
S315200026A0043B1201D2B20B441A7609E03B68DAB237
S315200026B0074997F907301201D2B20B4483F8002359
S315200026C000BF0C37BD465DF8047B704700ED00E087
S315200026D000E100E080B582B000AF78600EE07B6854
S315200026E01B780D2B07D07B685A1C7A601B781846FE
S315200026F000F060F902E07B6801337B607B681B7821
S31520002700002BECD100BF00BF0837BD4680BD80B589
S3152000271086B000AF786000237B617B6803F00F02F0
S315200027207B69591C796110498A5C07F118010B44B1
S3152000273003F80C2C7B681B097B607B68002BECD193
S315200027400AE07B69013B7B6107F10C027B6913443C
S315200027501B78184600F02EF97B69002BF1D100BFBB
S3152000276000BF1837BD4680BD24B7002080B59EB077
S3152000277000AF78607B68002B02DA4FF0FF3300E071
S3152000278001233B677B683A6F02FB03F37B600023E0
S315200027907B6779681C4B83FB01239A10CB17D21ACF
S315200027A013469B0013445B00CA1A7B6F591C79673A
S315200027B016498A5C07F178010B4403F86C2C7B6878
S315200027C0114A82FB03129210DB17D31A7B607B68B7
S315200027D0002BDED13B6F002B0EDA2D2000F0EAF81D
S315200027E00AE07B6F013B7B6707F10C027B6F13448A
S315200027F01B78184600F0DEF87B6F002BF1D100BF66
S3152000280000BF7837BD4680BD6766666624B7002060
S3152000281080B483B000AF10237B607B6883F311887C
S3152000282000BF00BF0C37BD465DF8047B704780B4FF
S3152000283083B000AF30237B607B6883F3118800BFB1
S3152000284000BF0C37BD465DF8047B704780B584B069
S3152000285000AF78600B48FFF73DFF0B4B1B68002B42
S3152000286002D1094B094A1A60074B1B68FB60064BCD
S315200028701A687B681344044A1360FB6818461037AD
S31520002880BD4680BD38AC0020E0C00020F8400120C5
S3152000289080B485B000AF786039603B6803F5F953A2
S315200028A010337A6813607B681B68BB600023FB606B
S315200028B00AE0FB689B001A46BB6813441A460023AD
S315200028C01360FB680133FB60FB68332BF1DDBB68CB
S315200028D06FF016021A60BB6804331A46032313608E
S315200028E0BB6884331A464FF08073136000BF1437D9
S315200028F0BD465DF8047B704780B485B000AF786034
S3152000290039607B681B688033FB60FB683A681A6015
S3152000291000BF1437BD465DF8047B704780B584B090
S3152000292000AF1D4803F090FB3B1D184603F0D8FC72
S3152000293040F24733BB803B1D1946174803F064FC21
S31520002940164B174A1A6002216FF00100FFF798FE16
S31520002950144B154A1A6000216FF00400FFF790FE11
S31520002960124B134A1A6002213220FFF789FE3220C9
S31520002970FFF76CFE0021084803F0FCFC0121064805
S3152000298003F0C5FD01220221034804F094FD00BF97
S315200029901037BD4680BD00BF000C004038C0012066
S315200029A0210000202CC001201D00002008C101208C
S315200029B03B2D002080B582B000AF0346FB71FB792A
S315200029C09BB219460748FEF77CFC00BF80210548CC
S315200029D0FEF766FE0346002BF8D000BF00BF08377F
S315200029E0BD4680BD0010014080B500AF124803F0FF
S315200029F0DDFC03461A46114B1A60114B01221A6060
S31520002A00104B00221A60104B1B68002B06D00E4B71
S31520002A101B680E4A1268002110469847084B002270
S31520002A201A60084B1B68002B01D000F05DFA054B9D
S31520002A3000221A6000BF80BD000C004080BD00202F
S31520002A4078BD00207CBD0020F0BD002090BD002078
S31520002A5080B500AF124803F0A9FC03461A46114B75
S31520002A601A60114B01221A60104B00221A60104B7B
S31520002A705B68002B06D00E4B5B680E4A526801211C
S31520002A8010469847084B00221A60084B1B68002BFB
S31520002A9001D000F029FA054B00221A6000BF80BD44
S31520002AA0000C004080BD002078BD00207CBD0020A9
S31520002AB0F0BD002090BD002080B500AF124803F085
S31520002AC075FC03461A46114B1A60114B01221A60F7
S31520002AD0104B00221A60104B9B68002B06D00E4B21
S31520002AE09B680E4A9268022110469847084B00229E
S31520002AF01A60084B1B68002B01D000F0F5F9054B36
S31520002B0000221A6000BF80BD000C004080BD00205E
S31520002B1078BD00207CBD0020F0BD002090BD0020A7
S31520002B2080B485B000AF786039600023FB603B68D5
S31520002B301B68BB6004E0BB68FB60BB681B68BB60AE
S31520002B40BB68002B05D0BB689A687B689B689A4255
S31520002B50F1DD7B68BA681A60FB68002B03D13B68FD
S31520002B607A681A6002E0FB687A681A6000BF143738
S31520002B70BD465DF8047B704780B485B000AF7860B1
S31520002B8039600023FB603B681B68BB6004E0BB68C0
S31520002B90FB60BB681B68BB60BB68002B05D0BB68AD
S31520002BA05A687B685B689A42F1DD7B68BA681A606E
S31520002BB0FB68002B03D13B687A681A6002E0FB6849
S31520002BC07A681A6000BF1437BD465DF8047B7047EB
S31520002BD080B584B000AF78607B681B68FB60FB68BB
S31520002BE0002B04D0FB681A687B681A600CE0094841
S31520002BF0FFF770FD00220221074806F0FEFB07487A
S31520002C00FFF768FD30BFFDE7FB6818461037BD4665
S31520002C1080BD00BF50AC0020000402405CAC002008
S31520002C2080B584B000AF78607B681B68FB60FB686A
S31520002C30002B04D0FB681A687B681A600CE00948F0
S31520002C40FFF748FD00220221074806F0D6FB074879
S31520002C50FFF740FD30BFFDE7FB6818461037BD463D
S31520002C6080BD00BF50AC00200004024068AC0020AC
S31520002C7080B483B000AF786039603B681A687B689F
S31520002C801A603B687A681A6000BF0C37BD465DF84B
S31520002C90047B704780B483B000AF786039603B68AE
S31520002CA01A687B689A603B687A681A6000BF0C379E
S31520002CB0BD465DF8047B704780B485B000AF786070
S31520002CC07B681B68FB60FB689A687B681A60FB68F8
S31520002CD018461437BD465DF8047B704780B485B02E
S31520002CE000AF786039600023FB603B681B68BB60DF
S31520002CF004E0BB68FB60BB681B68BB60BB68002B3D
S31520002D0003D0BA687B689A42F3D1BB68002B0DD0FA
S31520002D10FB68002B04D0BB681A68FB681A6003E0C6
S31520002D20BB681A683B681A60012300E00023184636
S31520002D301437BD465DF8047B704780B582B000AF7E
S31520002D4002211E4804F041FC1C4803F02FFB0346D9
S31520002D507B6007E01A48FFF73BFF034619491846F0
S31520002D60FFF7DEFE164B1B68002B06D0144B1B68A4
S31520002D705A687B68D31A002BECDD114B1B68002B9D
S31520002D8016D00E4803F012FB03463B600C4B1B6823
S31520002D905B683A689A4204DD002202210A4806F05E
S31520002DA02CFB074B1B685B681946044803F03DFE65
S31520002DB000F09AF800BF0837BD4680BD000C0040E1
S31520002DC074BD002070BD0020000402400346024A64
S31520002DD0136010DFF74600BF9CBD00200346054A5E
S31520002DE01360054B5B68044A43F080535360F746F3
S31520002DF000BF00BF9CBD002000ED00E080B582B082
S31520002E0000AF7860094B5B68C3F30803002B03D13E
S31520002E107868FFF7DBFF02E07868FFF7DFFFFFF750
S31520002E2006FD00BF0837BD4680BD00BF00ED00E0AF
S31520002E3090B585B000AF234B1C682348FFF7C8FE2A
S31520002E400346E360E368BB60FFF7F1FCBB68D86824
S31520002E50BB681969BB685B691A4600F015F9FFF76C
S31520002E60D7FC1A49B868FFF703FF194B1B689B6804
S31520002E70DB687B60144B1B68002B0AD07B68002B19
S31520002E80D9D0114B1B689A687B689B68D31A002B94
S31520002E90D1DD0F48FFF710FF03460E491846FFF70E
S31520002EA0F9FE0B4B1B68FB6003E0FB681B691B6884
S31520002EB0FB60FB681B69002BF7D1F868FFF79EFFC4
S31520002EC0B9E700BF44B7002070BD002038B7002006
S31520002ED040B700203CB7002080B500AF00F004F8D2
S31520002EE0FFF7A5FC30BFFBE780B582B000AF144BDF
S31520002EF01B68DB687B60134B1B68002B1BD0124BB7
S31520002F001B68002B17D07B68002B07D00D4B1B6846
S31520002F109A687B689B68D31A002B0CDA0A48FFF75D
S31520002F20CBFE034606491846FFF7B4FE044B1B6842
S31520002F301846FFF763FF00BF0837BD4680BD00BFB8
S31520002F4040B7002070BD00203CB7002080B588B077
S31520002F5000AFF860B9607A603B60EFF312833B61A3
S31520002F603B691B09012B14BF01230023DBB2FB772E
S31520002F70FFF74EFC3A48FFF753FEB861BB697A6803
S31520002F80DA60BB693A681A61BB69BA6A5A61354B1D
S31520002F901B68002B04D1344B1B68DB685B6801E09F
S31520002FA0324B1B68FA681A44BB695A60BB695A6877
S31520002FB0BB68002B01DDBB6801E06FF000431A44BB
S31520002FC0BB699A602A4803F0F1F903467B61BB6925
S31520002FD05A687B69D31A002B16DD2649B869FFF794
S31520002FE0CBFD244B1B685B687A699A4204DD00227C
S31520002FF00221214806F001FA1E4B1B685B68194620
S315200030001B4803F012FD21E01C49B869FFF788FD33
S31520003010FB7F002B1AD01A4B1B68002B16D0174BA0
S315200030201B689A68174B1B68DB689B68D31A002BB2
S315200030300CDA1348FFF740FE034612491846FFF7FD
S3152000304029FE104B1B681846FFF7D8FEFB7F002B86
S3152000305001D0FFF7ECFBBB6918462037BD4680BD83
S3152000306038B7002078BD002044B7002080BD00205E
S31520003070000C004074BD00200004024070BD0020FA
S315200030803CB7002040B7002080B588B000AFF8607C
S31520003090B9607A60EFF312833B613B691B09012B10
S315200030A014BF01230023DBB2FB76FFF7B1FBFB68DD
S315200030B01B68FB61FB69002B37D003E0FB691B69AA
S315200030C01B68FB61FB691B69002BF7D1304B1B6822
S315200030D0FA699A4202D0FB7E002B07D1FB7E002B99
S315200030E001D0FFF7A4FB4FF0FF334DE0FB685B6890
S315200030F0002B03D0FB685B6800221A61244B1A68F8
S31520003100FB685A60224B1B68FA681A61F869FFF758
S3152000311075FE1F4B1B68DB68002B06D1FB7E002B40
S3152000312001D0FFF784FB00232EE0194B1A68FB68B9
S315200031301A60FB7E002B05D0FB685B68012B01D053
S31520003140FFF775FBBB687968F86898477861FFF7E1
S315200031505FFBFB6800221A60FB685B68FB61FB690A
S31520003160002B0BD0FB69012B08D0FB6800225A608C
S31520003170FB6900221A61F869FFF740FEFB7E002BEF
S3152000318001D0FFF754FB7B6918462037BD4680BD2A
S3152000319044B7002080B586B000AF7860EFF3128385
S315200031A0FB60FB681B09012B14BF01230023DBB244
S315200031B0FB74FFF72DFB1F497868FFF78FFD034649
S315200031C0002B06D11C497868FFF788FD0346002BA3
S315200031D004D01A497868FFF74BFD21E0184B1B688D
S315200031E07B611AE0174B1B687A699A4212D07B6979
S315200031F0DB687A689A420DD17B691A697B68DB683D
S315200032009A4207D17B690022DA600C497868FFF779
S315200032102FFD05E07B699B687B617B69002BE1D1F3
S31520003220FB7C002B01D0FFF702FB00BF1837BD4601
S3152000323080BD00BF74BD002070BD002038B70020BF
S3152000324040B7002044B7002080B485B000AF786036
S31520003250EFF31283FB60FB681B09012B04D0074B9D
S315200032601B68DB685B6801E0054B1B687A681360A6
S3152000327000BF1437BD465DF8047B704744B7002075
S3152000328080BD002080B485B000AF7860EFF3128354
S31520003290FB60FB681B09012B04D0084B1B68DB680D
S315200032A05B6801E0064B1B687A6812689B1A184611
S315200032B01437BD465DF8047B704700BF44B7002035
S315200032C080BD002080B584B000AFEFF312837B6011
S315200032D07B681B09012B14BF01230023DBB2FB7380
S315200032E0FFF796FA0C4803F061F80346BB60FB7BB8
S315200032F0002B01D0FFF79BFAFB7B002B04D0074B5A
S315200033001B68DB685B6801E0054B1B68BA68D31A4B
S3152000331018461037BD4680BD000C004044B700203B
S3152000332080BD002080B582B000AF00237B6012E014
S315200033307B685A1C13465B001344DB00444A9918E9
S3152000334043487A6813465B001344DB000344196044
S315200033507B6801337B607B681C2BE9DD3C4B0022BC
S31520003360C3F8B82200237B6013E07B685A1C1346FF
S315200033709B0013449B00374A991836487A681346AF
S315200033809B0013449B000344083319607B68013378
S315200033907B607B68022BE8DD2E4B00225A640023DB
S315200033A07B6030E02B497A6813469B0013449B00D0
S315200033B00B4404337A681A607A6813469B001344D8
S315200033C09B00244A1A447B685B0323490B44194615
S315200033D01046FFF75DFA7A6813469B0013449B005C
S315200033E01C4A13441D491846FFF786FA19497A687C
S315200033F013469B0013449B000B44103300221A6093
S315200034007B6801337B607B68032BCBDD144B4FF04D
S31520003410FF325A60124B00229A60114B00221A6129
S315200034200F4B0022DA600F48FFF754F90E48FFF7DA
S3152000343051F90E48FFF74EF90A48FFF74BF90948AC
S31520003440FFF748F9FFF76AFA00BF0837BD4680BD87
S3152000345010BE0020A0BD0020E8C00020312E002094
S31520003460FCBD002074AC002078AC002084AC002089
S3152000347080B586B000AFF860B9601346FB71FB7962
S31520003480022B41D8EFF312833B613B691B09012BC9
S3152000349014BF01230023DBB2FB75FFF7B9F9FB79D3
S315200034A0022B0ED0022B10DC002B02D0012B04D0D5
S315200034B00BE0174B174A1A6014E0174B174A1A608D
S315200034C010E0174B174A1A600CE01748FFF702F96D
S315200034D000220221154805F090FF1548FFF7FAF85B
S315200034E030BFFDE7FB791349FA6841F82320FB79C1
S315200034F01149BA6841F82320FB6801225A60FB7DF6
S31520003500002B01D0FFF793F900BF1837BD4680BDC9
S31520003510D4C00120E929002090C00120512A002092
S315200035209CC00120B92A002050AC00200004024093
S315200035309CAC002090BD0020F0BD002080B586B058
S3152000354002AFF860B9607A60FFF762F9FFF7EAFE2A
S31520003550BB68002B16D00F4802F028FF03461A46F8
S315200035600D4B1A600D4B01221A607B680093BB68D5
S31520003570FA6800210020FFF7E9FC084B00221A60B8
S31520003580FFF7B2FCFFF7A8FC002318461037BD460C
S3152000359080BD00BF000C004080BD002078BD00200B
S315200035A080B5A2B002AF786039603A6807F16C0343
S315200035B01068516803C31189927A19809A7097F816
S315200035C06C30772B0ED097F86C3007F108007D4AC7
S315200035D0642106F0E5FC07F108031A467A497B4880
S315200035E0FFF752FD7B685B690133052B00F2E5800E
S315200035F001A252F823F000BF11360020A336002086
S31520003600D736002089370020BB370020A937002075
S3152000361097F86C307E2B2AD07E2B00F3C7807A2B2E
S3152000362002D07B2B13D0C1E0694B1A466649674806
S31520003630FFF72AFD97F86D301A467B68DB689A42B9
S315200036402BD07B689B685A1C7B689A6025E07B6838
S3152000365001225A61002300935E4B5F4A002100201D
S31520003660FFF774FC97F86D301A467B681A615B4B3E
S315200036701A4655495548FFF707FD07F16C030333F2
S31520003680184606F055FCB8677B689B68BA6F9A4265
S3152000369005DD7B68BA6F9A6001E000BF86E000BF57
S315200036A084E097F86C307F2B40F082807B684FF067
S315200036B0FF325A614A4B1A4643494448FFF7E4FC15
S315200036C04FF0FF330093474B474A00210020FFF776
S315200036D03DFC00BF6CE097F86C30772B6AD107F180
S315200036E06C030333184606F023FCF867FA6F364955
S315200036F03648FFF7C9FC3D4B1A4633493348FFF796
S31520003700C3FC7B689B68022B12D1FB6F002B03F056
S315200037100103B8BF5B42012B0AD1FA6F3449354801
S31520003720FFF7B2FC012234493448FFF7ADFC21E013
S315200037307B689B68032B18D1F96F314B83FB0132D1
S31520003740CB17D21A13465B001344CA1A7B68DB6870
S315200037509A420AD1FA6F26492648FFF795FC01229C
S3152000376025492648FFF790FC04E0002222492348F9
S31520003770FFF78AFC00230093224B1E4A00210020DB
S31520003780FFF7E4FB00BF15E097F86C307F2B13D1D1
S3152000379097F86D301A467B68DB689A4202DD7B68B3
S315200037A000229A6100BF07E000BF06E000BF04E0E8
S315200037B000BF02E000BF00E000BF00BF8037BD466B
S315200037C080BD00BFBCAC00206B05002060B8002087
S315200037D0D0AC0020990A0020F4B6002008AD0020C5
S315200037E040AD0020014A002064B7002054AD0020DF
S315200037F07D4E002040B80020614E002018B80020E1
S31520003800565555550150002080B483B000AF7860DE
S3152000381039607B68DB6818460C37BD465DF8047B4B
S31520003820704780B483B000AF786039607B681B69CD
S3152000383018460C37BD465DF8047B704780B483B0CC
S3152000384000AF786039607B689B6818460C37BD46A8
S315200038505DF8047B704780B5A2B002AF786039600E
S315200038601E4B1A461E491F48FFF70EFC7B689A68B6
S315200038707B68DB6807F11000009313461A4A64211F
S3152000388006F08EFB07F110031A4615491548FFF777
S31520003890FBFB7B68DB68DBB287F875307E2387F815
S315200038A074307B689B6883EAE372A2EBE37207F1CC
S315200038B00C030E49184606F0C3FB012387F8763021
S315200038C03B7B87F8773007F174031A460849094885
S315200038D0FFF7DAFB00BF8037BD4680BD58AD00201C
S315200038E06B05002060B8002098AD0020B4AD002004
S315200038F05B43002094BC002080B5A0B002AF786066
S3152000390039601A4B1A461A491A48FFF7BDFB7B68DD
S3152000391099687B681B697A68D26807F1080001926A
S3152000392000930B46144A642106F03AFB07F108037C
S315200039301A460F490F48FFF7A7FB7B68DB68DBB207
S3152000394087F86D307A2387F86C3007F16C031A46B6
S315200039500A490B48FFF798FB0A4B1A4604490548C3
S31520003960FFF792FB00BF7837BD4680BDB8AD00207B
S315200039706B05002060B80020FCAD00205B430020D2
S3152000398094BC002024AE002080B586B000AF7860BD
S3152000399039600B4B1A460B490B48FFF775FB7B68C2
S315200039A01B69DBB27B737D233B7307F10C031A463D
S315200039B006490748FFF768FB00BF1837BD4680BD9C
S315200039C038AE00206B05002060B800205B43002045
S315200039D094BC002080B586B000AF786039600B4B70
S315200039E01A460B490B48FFF74FFB7B68DB68DBB2B7
S315200039F07B737B233B7307F10C031A460649074862
S31520003A00FFF742FB00BF1837BD4680BD78AE0020C9
S31520003A106B05002060B800205B43002094BC00208A
S31520003A2080B586B000AF786039600D4B1A460D49D7
S31520003A300D48FFF729FB7B68DB68DBB27B737F23AE
S31520003A403B7307F10C031A4608490948FFF71CFB8C
S31520003A507B6802225A6100BF1837BD4680BD00BF71
S31520003A60C0AE00206B05002060B800205B4300201C
S31520003A7094BC002080B483B000AF786039607B6846
S31520003A8002225A6100BF0C37BD465DF8047B7047A1
S31520003A9080B584B002AF786039607B689B69002B63
S31520003AA028D07B6800225A617B68DA687B681A61B5
S31520003AB07B68DB680093154B154A00210020FFF731
S31520003AC045FA00230093134B7A6800210020FFF764
S31520003AD03DFA7B681A697B68DB689A420ED17B685F
S31520003AE05B69002B0AD10C4B1A460C490C48FFF790
S31520003AF0CBFA03E07B684FF0FF325A617B680122E4
S31520003B009A6100BF0837BD4680BD00BF990A0020D4
S31520003B10F4B60020D539002004AF00206B05002024
S31520003B2060B8002080B584B002AF78603960002389
S31520003B3000930C4B0C4A00210020FFF707FA0B4B91
S31520003B401A460B490B48FFF79FFA002300930A4BAE
S31520003B50054A00210948FFF7F9F900BF0837BD4695
S31520003B6080BD00BFF938002048B700201CAF0020D8
S31520003B706B05002060B8002057380020400D030058
S31520003B8080B59CB000AF786039607B689B6807F190
S31520003B900C00074A642106F003FA07F10C031A46C3
S31520003BA004490548FFF770FA00BF7037BD4680BD4F
S31520003BB038AF00206B05002060B8002080B483B0A9
S31520003BC000AF786039607B685B6918460C37BD4664
S31520003BD05DF8047B704780B584B002AF78603960A9
S31520003BE0002300930D4B0E4A00210020FFF7AEF96B
S31520003BF0002300930B4B0A4A002141F28830FFF73D
S31520003C00A5F900230093084B054A002142F21070C3
S31520003C10FFF79CF900BF0837BD4680BD753A0020E6
S31520003C2048B70020213A0020913A002080B483B082
S31520003C3000AF786039607B683A689A6000BF0C37BD
S31520003C40BD465DF8047B704780B483B000AF7860D2
S31520003C5039607B683A681A6100BF0C37BD465DF84B
S31520003C60047B704780B584B002AF786039607B688A
S31520003C709B68012B07D100230093094B7A6800210A
S31520003C800020FFF763F900230093064B064A002124
S31520003C9042F60410FFF75AF900BF0837BD4680BD2B
S31520003CA0D73B00200150002040B8002080B584B0CA
S31520003CB002AF786039607B6801225A610023009345
S31520003CC00D4B0E4A00210020FFF740F901230093F7
S31520003CD00B4B0C4A00210020FFF738F900230093F4
S31520003CE0094B7A68002142F21070FFF72FF900BFC6
S31520003CF00837BD4680BD00BF890C0020F4B60020E1
S31520003D00AB4C002064B70020653C002080B59EB0F7
S31520003D1002AF786039603B68012B16D17B6805229B
S31520003D205A61002300931F4B1F4A00210020FFF7F2
S31520003D300DF9002300931D4B1D4A00210020FFF79B
S31520003D4005F97B6801229A6028E03B68022B1ED188
S31520003D507B6806225A617B6800229A6000230093C2
S31520003D60144B114A00210020FFF7F0F8002300939E
S31520003D700E4B0F4A00210020FFF7E8F8002300939E
S31520003D800D4B7A6800210D48FFF7E0F806E007F1B1
S31520003D900C030B4A6421184606F002F900BF70375F
S31520003DA0BD4680BDFB0B0020F4B60020AB4C0020A6
S31520003DB064B70020410C0020AD3C002060E31600D3
S31520003DC04CAF002080B483B000AF786039607B6848
S31520003DD05B69052B02D17B6801225A6100BF0C3733
S31520003DE0BD465DF8047B704780B59EB002AF786013
S31520003DF039603C4B1A463C493C48FFF745F97B68FD
S31520003E0099687B68DB687A68126907F10C00019271
S31520003E1000930B46364A642106F0C2F807F10C03DC
S31520003E201A4631493148FFF72FF9324B1A462E49A7
S31520003E302E48FFF729F97B685B690133082B46D8A2
S31520003E4001A252F823F000BF893E00206D3E0020DB
S31520003E507B3E0020973E0020CF3E0020CF3E002014
S31520003E60A53E0020B33E0020C13E0020224B1A462C
S31520003E701D491E48FFF708F92AE0204B1A461A4921
S31520003E801A48FFF701F923E01D4B1A461649174831
S31520003E90FFF7FAF81CE01B4B1A4613491348FFF7A5
S31520003EA0F3F815E0184B1A460F491048FFF7ECF8BF
S31520003EB00EE0164B1A460C490C48FFF7E5F807E0CA
S31520003EC0134B1A4608490948FFF7DEF800E000BF01
S31520003ED0104B1A4604490548FFF7D6F800BF70373D
S31520003EE0BD4680BD6CAF00206B05002060B8002069
S31520003EF088AF0020B0AF0020B8AF0020C0AF0020B0
S31520003F00C8AF0020D0AF0020D8AF0020E4AF0020FB
S31520003F10F0AF002054AD002080B483B000AF7860AD
S31520003F2039607B6805225A6100BF0C37BD465DF8B3
S31520003F30047B704780B483B000AF786039607B68BB
S31520003F4006225A6100BF0C37BD465DF8047B7047D8
S31520003F5080B483B000AF786039607B6807225A61ED
S31520003F6000BF0C37BD465DF8047B704780B483B034
S31520003F7000AF786039607B6801225A6100BF0C3738
S31520003F80BD465DF8047B704780B483B000AF78608F
S31520003F9039607B6801225A6100BF0C37BD465DF847
S31520003FA0047B704780B483B000AF786039607B684B
S31520003FB001225A6100BF0C37BD465DF8047B70476D
S31520003FC080B483B000AF0346FB71FB7903F01F0377
S31520003FD0012202FA03F1064A97F907305B0942F8F3
S31520003FE0231000BF0C37BD465DF8047B704700BF29
S31520003FF000E100E080B483B000AF03463960FB7176
S3152000400097F90730002B0BDA3B68DAB20C49FB79BB
S3152000401003F00F03043B1201D2B20B441A7609E0D7
S315200040203B68DAB2074997F907301201D2B20B443E
S3152000403083F8002300BF0C37BD465DF8047B70472C
S3152000404000ED00E000E100E080B586B000AF7860CA
S3152000405039607B6800229A617B689A697B685A611D
S315200040607B685A697B68DA6107F10C03184603F00E
S31520004070B1FF0023BB740023FB7400233B7501238F
S315200040807B751C48FEF726FB0023BB750023FB75BA
S315200040900023BB730023FB7302233B7403237B742F
S315200040A00723BB8107F10C031946134803F0FEFDD5
S315200040B00346002B02D11148FEF70CFB07F10C0337
S315200040C019460F4803F0F2FD0346002B02D10D4896
S315200040D0FEF700FB02211420FFF78CFF1420FFF7C8
S315200040E06FFF01220221044804F0B2FB00BF1837FB
S315200040F0BD4680BDFCAF00200064004020B00020FB
S315200041000068004038B00020B0B58AB002AF7860B1
S3152000411039607B689B685A49184604F0B7FB03460A
S31520004120012B02D05748FEF7D5FA7B68DB69072BAF
S3152000413000F39F807B689B6807F1080200211846E0
S3152000414004F08CF9BB681B09DBB27A68526903F06C
S315200041507F03D8B2796813469B0013445B0013444F
S315200041600B44203302461A70BB68DBB27A68526968
S3152000417003F00F03D8B2796813469B0013445B0003
S3152000418013440B44213302461A70BB7C7A68526969
S3152000419003F00F03D8B2796813469B0013445B00E3
S315200041A013440B44223302461A700023FB7716E091
S315200041B0FB7F7A685269F97F07F12000034413F8E0
S315200041C00D4C786813469B0013445B00134403444C
S315200041D00B44233322461A70FB7F0133FB777B681F
S315200041E05A69796813469B0013445B0013440B44B9
S315200041F022331B78FA7F9A42DAD37B68DB68002B5E
S3152000420025D07B68DC687B681D697B685A6979687C
S3152000421013469B0013445B0013440B4420331B7846
S3152000422019017B685A69786813469B0013445B0022
S315200042301344034421331B780B4400932B46224618
S3152000424000210020FEF782FE0F4B01221A607B68B8
S315200042505B6901335A4203F0070302F0070258BF95
S3152000426053427A6853617B68DB695A1C7B68DA6142
S3152000427002E00648FEF72EFA00BF2037BD46B0BD45
S315200042800300001250B000207CBD002078B0002032
S3152000429090B484B000AF786039607B68DB69002B0E
S315200042A055DD7B689A69796813469B0013445B0049
S315200042B013440B4420331A783B681A707B689A693A
S315200042C0796813469B0013445B0013440B44213347
S315200042D01A783B685A707B689A69796813469B00FE
S315200042E013445B0013440B4422331A783B689A70BC
S315200042F00023FB7313E07B689A69F87BF97B7C6863
S3152000430013469B0013445B00134423440344233386
S315200043101A783B680B44DA70FB7B0133FB733B68EE
S315200043209B78FA7B9A42E6D37B689B6901335A4293
S3152000433003F0070302F0070258BF53427A689361DD
S315200043407B68DB695A1E7B68DA61002300E0012363
S3152000435018461037BD4690BC704780B58AB000AF6E
S31520004360786039607B689B683B620023FB773B68FB
S315200043701B781B013A6852781344BB6000237B7478
S3152000438000233B743B689B78082B02D93B680822A4
S315200043909A703B689B78BB74002387F8273010E01F
S315200043A097F8272097F8273039680A44D27807F1FA
S315200043B028010B4403F8152C97F82730013387F88A
S315200043C027303B689B7897F827209A42E8D307F155
S315200043D008031946386A03F0C1FE0346FB77FB7FC4
S315200043E0042B04D10F48FEF775F9012316E000BF10
S315200043F0FB7F1946386A03F082FF0346022BF7D06B
S31520004400FB7F1946386A03F07AFF0346002B04D156
S315200044100548FEF75FF9012300E0002318462837F8
S31520004420BD4680BD98B00020ACB0002080B584B0D9
S3152000443000AF7860396000220F491048FEF724FE4D
S31520004440F8607B6888331846FEF71CFFB8607B68E7
S31520004450D3F89430BA68D31A094A934208DDFB6828
S31520004460002B05D1074B1A4607490848FEF70CFED4
S3152000447000BF1037BD4680BDA518002080BC002097
S315200044809F86010020B200206B05002060B8002026
S31520004490B0B5BAB000AF786039600023C7F8E43011
S315200044A07B68DB6F022B0CDC7B68DA6F7B681C3247
S315200044B0396843F822107B68DB6F5A1C7B68DA6701
S315200044C015E07B683A681A670023C7F8E0307B68F6
S315200044D01B6FC7F8E0307B685A6F7B681A677B686A
S315200044E09A6F7B685A677B68D7F8E0209A677B6863
S315200044F0DB6F032B40F0A1807B681A6F7B685B6FB4
S31520004500D31A504A9342C0F298807B681A6F7B6810
S315200045105B6FD31A42F20F72934200F38E807B6850
S315200045201A6F7B689B6FD31A464A9342C0F28580E6
S315200045307B681A6F7B689B6FD31A42F20F72934285
S315200045407BDC7B689A6F7B685B6FD31A3D4A93420C
S3152000455073DB7B689A6F7B685B6FD31A42F20F72AC
S3152000456093426ADC7B681A6F7B685B6F1A447B68B0
S315200045709B6F1344344A82FB0312DB17D31AC7F806
S31520004580DC30D7F8DC30314A82FB03125213DB17BA
S31520004590D31A184605F0B0F904460D46D7F8DC20A4
S315200045A02A4B83FB02135913D317CB1A284901FB35
S315200045B003F3D31A274A82FB03125211DB17D31AAD
S315200045C007EE903AF8EEE77A17EE900A05F0A6F98C
S315200045D04FF00002204B05F023FB02460B462046F7
S315200045E0294605F03DF802460B461046194605F0C9
S315200045F0FFFB0346C7F8D830DFED186A97ED367A09
S31520004600C6EE877AFDEEE77A17EE903AC7F8D430F1
S3152000461007F10C00D7F8D430114AC82105F0C0FCA8
S3152000462007F10C031A460F490F48FEF72DFDD7F860
S31520004630D4200E490E48FEF727FD00BFE837BD46B9
S31520004640B0BD00BFF1D8FFFF5655555589B5F814B2
S31520004650A08601001F85EB5100408F40000070426C
S315200046603CB200206B05002060B80020A15300203A
S3152000467040B8002080B5C0B002AF786039607B6852
S31520004680D3F89830002B2BD17B6888331846FEF759
S31520004690F9FDC7F8D4007B68D3F89430D7F8D42036
S315200046A0D31AC7F8D0307B68D7F8D020C3F89C201F
S315200046B07B68D7F8D420C3F894207B680122C3F8FE
S315200046C0982001228A498B48FEF7DEFC00230093BE
S315200046D0894B7A6841F288318848FEF737FC04E135
S315200046E07B6888331846FEF7CDFDC7F8F4007B6853
S315200046F0D3F89430D7F8F420D31AC7F8F030D7F887
S31520004700F0307F4A934269DC7B68D3F89C30C7F847
S31520004710F030D7F8F03042F20F7293420FDC794B2B
S315200047201A4679497948FEF7AFFC7B680022C3F820
S31520004730982000226E496F48FEF7A6FCD5E0D7F8F0
S31520004740F030734A82FB03125113DA178A1A6B4927
S3152000475001FB02F29A1A13469B0013445B00C7F82A
S31520004760E030D7F8F0206A4B83FB02135913D31796
S31520004770CB1A624901FB03F3D31A664A82FB031262
S315200047805211DB17D31AC7F8DC30D7F8F030604A5D
S3152000479082FB03125213DB17D31AC7F8D83007F15E
S315200047A00800D7F8E0300193D7F8DC300093D7F82B
S315200047B0D830594AC82105F0F3FBD7F8F0300093DA
S315200047C0564B7A6800210020FEF7C0FB07F108034C
S315200047D01A464D494D48FEF757FC7DE0D7F8F03094
S315200047E04B4A82FB03125113DA178A1A434901FBFB
S315200047F002F29A1A13469B0013445B00C7F8EC306A
S31520004800D7F8F020424B83FB02135913D317CB1A48
S315200048103A4901FB03F3D31A3E4A82FB0312521193
S31520004820DB17D31AC7F8E830D7F8F030384A82FBBE
S3152000483003125213DB17D31AC7F8E43007F1080026
S31520004840D7F8EC300193D7F8E8300093D7F8E43066
S31520004850334AC82105F0A4FB07F108031A462A4962
S315200048602A48FEF711FCD7F8F0302E4A934208DD8D
S31520004870002300932C4B7A6800210020FEF766FB6C
S315200048802AE0D7F8F030294A934225DD284B1A46EC
S315200048901D491E48FEF7F8FB002226492648FEF74A
S315200048A0F3FB0346002B17D1244B1A46164917480B
S315200048B0FEF7EAFB00230093214B7A6800210020B3
S315200048C0FEF744FB78221F491F48FEF7DDFB002236
S315200048D01E491D48FEF7D8FB7B680022C3F89820A6
S315200048E0002203490348FEF7CFFBF837BD4680BDBB
S315200048F00519002080BC00202D440020A086010040
S315200049009F8601004CB200206B05002060B8002075
S3152000491089B5F8141F85EB5158B200209144002028
S3152000492094B2002020A10700213A0020400D030068
S31520004930C0B20020BD3B002048B70020D4B20020E2
S3152000494089390020A153002040B800205D53002063
S3152000495080B483B000AF786039607B680122C3F8E9
S31520004960A0207B684FF0FF32C3F880207B684FF091
S31520004970FF32C3F8A8207B680022C3F8A42000BF1A
S315200049800C37BD465DF8047B704780B586B002AF14
S3152000499078603960002212491248FEF775FBF860EC
S315200049A0FB68002B18D17B68D3F8AC30002B13D0D2
S315200049B07B68D3F88030012B0ED10B4B1A460B495E
S315200049C00B48FEF761FB002300930A4B0A4A00219D
S315200049D00A48FEF7BBFA00E000BF1037BD4680BD8F
S315200049E0914C002018B80020F8B200206B0500205A
S315200049F060B800208B49002064B7002040420F0099
S31520004A0080B483B000AF786039607B683A68C3F8B9
S31520004A10802000BF0C37BD465DF8047B704780B50B
S31520004A20A2B002AF7860396007F16C031A46674975
S31520004A306748FEF729FB97F86C30632B03D897F865
S31520004A406C30132B1ED897F86C30772B1AD0614B0D
S31520004A501A4661496148FEF717FB614B1A465E49C3
S31520004A605E48FEF711FB97F86C3007F108005D4AA7
S31520004A70642105F095FA07F108031A465649574866
S31520004A80FEF702FB97F86C30642B08D907F16C030C
S31520004A900093554B554A00210020FEF757FA97F808
S31520004AA06C30322B0CD997F86C30402B08D807F194
S31520004AB06C0300934E4B4F4A00210020FEF746FA26
S31520004AC00023FB6700224C494848FEF7DDFAB86709
S31520004AD0BB6F012B72D197F86C30013B072B6FD837
S31520004AE001A252F823F000BF094B00201B4B0020E7
S31520004AF02D4B00203F4B0020554B00206F4B0020B4
S31520004B008D4B0020A74B0020012300933B4B3C4AB2
S31520004B1000210020FEF71AFA53E000230093374BBA
S31520004B20374A00210020FEF711FA4AE000230093BD
S31520004B30344B334A00210020FEF708FA41E00022D8
S31520004B4031492F48FEF7A0FA002230493048FEF7B7
S31520004B509BFA36E007F16C030333184605F0E8F9B3
S31520004B60F867FA6F2B492A48FEF78EFA29E007F1F3
S31520004B706C030333184605F0DBF9F867FB6F5B42DD
S31520004B801A4624492248FEF77FFA1AE007F16C03F9
S31520004B900333184605F0CCF9F867FA6F1E491C480E
S31520004BA0FEF772FA0DE078221B491948FEF76CFAD7
S31520004BB0002218491648FEF767FA02E000BF00E017
S31520004BC000BF00BF8037BD4680BD00BF9142002098
S31520004BD094BC002008B300206B05002060B800209C
S31520004BE040B3002054B30020A135002048B7002050
S31520004BF0D1060020F4B60020BD3B00201D4C00202D
S31520004C0018B80020E54C00207752002005530020DC
S31520004C1040B800205D530020A153002080B483B00B
S31520004C2000AF786039603B68012B09D17B681B692E
S31520004C30132B05DC7B681B695A1C7B681A610BE009
S31520004C403B68002B08D17B681B69012B04DD7B6840
S31520004C501B695A1E7B681A6100BF0C37BD465DF87A
S31520004C60047B704780B483B000AF786039607B687E
S31520004C709B69002B03D17B6801229A6102E07B6845
S31520004C8000229A6100BF0C37BD465DF8047B704751
S31520004C9080B483B000AF786039607B681B691846A2
S31520004CA00C37BD465DF8047B704780B483B000AFF7
S31520004CB0786039603B68012B04D17B685A697B6830
S31520004CC01A6109E03B68002B06D17B681A697B686C
S31520004CD05A617B6800221A6100BF0C37BD465DF819
S31520004CE0047B704780B584B002AF78607B681B690F
S31520004CF0002B09D17B685A697B681A6101220E490B
S31520004D000E48FEF7C1F913E07B681A697B685A6181
S31520004D107B6800221A6100230093094B094A00216F
S31520004D200020FEF713F9002203490448FEF7ACF9E8
S31520004D3000BF0837BD4680BDC518002080BC0020B6
S31520004D408B49002064B7002080B483B000AF786020
S31520004D5039607B680122DA6100BF0C37BD465DF8F9
S31520004D60047B704780B584B002AF786039607B6879
S31520004D70DB68002B0CBF01230023DBB21A467B68BD
S31520004D80DA607B68DB69002B03D17B685B6A002BCA
S31520004D9003D1224B00221A700CE07B68DB68002BC3
S31520004DA005D07B681A691D4BD2B21A7002E01B4BE4
S31520004DB000221A707B689B68002B2AD07B689B692F
S31520004DC0002B16D07B681B6A154A82FB03129210B1
S31520004DD0DB17D01A7B681B6A114A82FB03129210DA
S31520004DE0DB17D11A002300930E4B7A68FEF7AEF834
S31520004DF010E07B681B6A0A4A82FB03129210DB17BB
S31520004E00D01A00230093074B7A680021FEF79EF8FC
S31520004E1000E000BF0837BD4680BD00BF1C740040BF
S31520004E2067666666654D002080B483B000AF786003
S31520004E3039607B683A681A6200BF0C37BD465DF858
S31520004E40047B704780B483B000AF786039607B689C
S31520004E500022DA6100BF0C37BD465DF8047B70473F
S31520004E6080B483B000AF786039607B683A685A6254
S31520004E7000BF0C37BD465DF8047B704780B483B015
S31520004E8000AF786039607B683A681A6100BF0C37DA
S31520004E90BD465DF8047B704780B483B000AF786070
S31520004EA039607B681B6918460C37BD465DF8047B64
S31520004EB0704780B586B002AF786039607B689B68A2
S31520004EC0002B39D07B685B693A689A4234D100223C
S31520004ED01B491C48FEF7D8F87B685B6907EE903AB9
S31520004EE0B8EEE77ADFED186AC6EE877AC7ED037A61
S31520004EF0D7ED037A9FED157A67EE877A9FED147AC0
S31520004F0067EE877AFDEEE76AD7ED037A9FED117A91
S31520004F1067EE877A9FED0E7A67EE877AFDEEE77A5F
S31520004F207B685B6900930C4B7A6817EE901A16EE35
S31520004F30900AFEF70BF800E000BF1037BD4680BD93
S31520004F40E718002080BC0020000070420000FA43D1
S31520004F500000C84200007A43B34E002080B584B0DA
S31520004F6000AF78603960002221492248FEF78CF88C
S31520004F70F860002220491F48FEF786F8B8607B6853
S31520004F8000225A62FB68032B2BD801A252F823F089
S31520004F90E34F0020A14F0020A94F0020BB4F002047
S31520004FA07B6801225A621CE03B6803F00103002B58
S31520004FB014D17B6801225A6210E039680F4B83FBBB
S31520004FC00132CB17D21A13465B001344CA1ABB68A8
S31520004FD0934205D17B6801225A6201E000BF00E0BE
S31520004FE000BF7B685B6A18461037BD4680BD00BF90
S31520004FF03D38002048B70020093800205655555521
S3152000500080B5A4B002AF7860396000227D497E4821
S31520005010FEF73AF8C7F88400D7F88430002B11D170
S315200050207B681B690093794B794A00210020FDF7A4
S315200050308DFF7B681B691A4676497748FEF724F868
S31520005040C7F880007B689B68002B00F0D780D7F8D4
S315200050508430052B00F0D280D7F88430062B00F060
S31520005060CD8000226D496C48FEF70EF87B68DB6820
S315200050700A33FB677B681B69694A52F82320FB6F5A
S315200050801344684A9B001344D3ED007A9FED667A59
S3152000509067EE877AFDEEE77A17EE903ABB67BA6F2E
S315200050A062495D48FDF7F0FF7B681B69604A52F84C
S315200050B023307B677B685B6907EE903AB8EEE77A28
S315200050C0DFED5C6AC6EE877AC7ED1C7A7B685B6982
S315200050D03A689A4230D07B681B690F2B0BD07B68CD
S315200050E01B69112B07D07B681B69152B03D07B68A6
S315200050F01B69172B05D101224F495048FDF7C4FFE4
S3152000510004E000224C494D48FDF7BEFFD7ED1C7A3E
S315200051109FED4B7A67EE877A9FED4A7A67EE877A1C
S31520005120FDEEE77A7B685B690093474B474A00218F
S3152000513017EE900AFDF70AFF7B6F4FF4FA7202FB17
S3152000514003F307EE903AB8EEE77AD7ED1C7A67EECE
S31520005150277A9FED3F7A77EEC77A9FED3A7A67EE08
S31520005160877AFDEEE77A002300933A4B2A4A41F2EA
S31520005170883117EE900AFDF7E9FED7F88430002B28
S315200051803DD17B681B6901335A4203F01F0302F0AD
S315200051901F0258BF53427A6813617B6F4FF4FA722D
S315200051A002FB03F307EE903AB8EEE77AD7ED1C7AC6
S315200051B067EE277A9FED237A67EE877AFDEEE76A18
S315200051C07B6FFA2202FB03F307EE903AB8EEE77AFA
S315200051D0D7ED1C7A67EE277A9FED1A7A67EE877AE3
S315200051E0FDEEE77A7B685B6900931B4B7A6817EEC6
S315200051F0901A16EE900AFDF7A9FE00E000BF883748
S31520005200BD4680BDBD3B002048B70020A9540020E4
S3152000521064B700205D4F002018B80020454E0020BE
S31520005220BCB000203CB1002000247449294E002047
S31520005230A0B1002000007042C518002080BC0020CC
S315200052400000FA430000C842B34E002040B80020B8
S3152000525000004842494D00200150002080B483B010
S3152000526000AF786039607B685B6918460C37BD46AD
S315200052705DF8047B704780B584B002AF78603960F2
S315200052807B689B68002B0CBF01230023DBB21A46E8
S315200052907B689A607B689B68002B13D0114B1A465B
S315200052A011491248FDF7F0FE00230093104B114AD6
S315200052B000210020FDF74AFE01220F490F48FDF785
S315200052C0E3FE0AE00E4B1A4607490848FDF7DCFEC6
S315200052D0002209490948FDF7D7FE00BF0837BD4619
S315200052E080BD00BF5CB300206B05002060B80020A5
S315200052F0654D002018B80020C518002080BC00206D
S3152000530068B3002080B584B002AF786039607B68CE
S315200053109B68002B0CBF01230023DBB21A467B6857
S315200053209A607B685B690093094B0A4A002100203A
S31520005330FDF70CFE7B685B690093074B054A00214D
S315200053400020FDF703FE00BF0837BD4680BD00BF25
S31520005350B34E002040B800200150002080B582B016
S3152000536000AF786039603B6813F1050F06DB3B68B8
S31520005370052B03DC7B683A68DA6006E0054B1A46A3
S3152000538005490648FDF780FE00BF00BF0837BD4629
S3152000539080BD00BF74B300206B05002060B80020DC
S315200053A080B582B000AF786039603B681D2B07DD81
S315200053B03B68B3F5967F03DC7B683A685A6106E062
S315200053C0054B1A4605490648FDF75EFE00BF00BF9D
S315200053D00837BD4680BD00BF84B300206B05002082
S315200053E060B8002080B586B000AF786039603B6831
S315200053F0002B02DA06233B7301E005233B737B680F
S31520005400D3F8A430DBB27B733B6883EAE372A2EB6A
S31520005410E37207F108030949184604F011FE012337
S31520005420BB733B7AFB7307F10C031A460449054804
S31520005430FDF72AFE00BF1837BD4680BD94B3002075
S315200054405B43002094BC002080B586B000AF786016
S31520005450396007F108033A681049184604F0F0FD50
S3152000546006233B737B68D3F8A430DBB27B7303231C
S31520005470BB733B7AFB737B7A3B743B68632B01DD02
S31520005480BB7A7B7407F10C031A4605490548FDF7DC
S31520005490FBFD00BF1837BD4680BD00BF94B300207A
S315200054A05B43002094BC002080B586B000AF7860B6
S315200054B0396077233B737B68D3F8A430DBB27B73E8
S315200054C00223BB7307F108033A680D49184604F016
S315200054D0B7FD3B68092B04DC0023FB733B7A3B7446
S315200054E003E03B7AFB737B7A3B7407F10C031A4685
S315200054F004490548FDF7C8FD00BF1837BD4680BDE5
