S01600002E2F44656275672F5254532D4C61622E73313936
S3152000000000BFDFF814D001F07AFE03F02FFB01F0D9
S3152000001088BEFEE700BF000000C0012080B500AF0B
S3152000002001214FF4804004F047F800214FF480402E
S3152000003004F042F800BF80BD80B483B000AF034611
S31520000040FB71044AFB79136000BF0C37BD465DF88F
S31520000050047B70470038014080B483B000AF03466C
S31520000060FB71044AFB79136000BF0C37BD465DF86F
S31520000070047B70472000274280B485B000AF03463A
S315200000800A46FB711346BB710023FB60BB7903F064
S3152000009003039B000F2202FA03F3FB60164ABB7987
S315200000A09B08DBB2023352F82320FB68DB4312485D
S315200000B0B9798908C9B21A408B1C40F823200E4A08
S315200000C0BB799B08DBB2023352F82320F979BB793E
S315200000D003F003039B0001FA03F30748B979890863
S315200000E0C9B21A438B1C40F8232000BF1437BD46E3
S315200000F05DF8047B704700BF0038014080B483B0B0
S3152000010000AF7860044A7B68136000BF0C37BD4699
S315200001105DF8047B704700BFDC00274280B483B0C3
S3152000012000AF0346FB71044AFB79136000BF0C370E
S31520000130BD465DF8047B70470004274280B483B037
S3152000014000AF0023FB71094B1B6A03F48073002B5D
S3152000015002D00123FB7101E00023FB71FB791846D5
S315200001600C37BD465DF8047B704700BF0038014060
S3152000017080B400AF094B00221A60084B00225A6057
S31520000180064B00229A60054B0022DA60034B044A94
S315200001905A6100BFBD465DF8047B7047003C0140B4
S315200001A0FFFF7F0080B485B000AF78600023FB603E
S315200001B0344BFB607B689B79002B4FD0314B1A6800
S315200001C07B681B68DB432F4913400B602D4B5A6815
S315200001D07B681B68DB432B4913404B607B681B798C
S315200001E01A46FB681344FB60FB6819687B681A682B
S315200001F0FB680A431A60234B9A687B681B68DB43BB
S31520000200204913408B601F4BDA687B681B68DB43F1
S315200002101C491340CB607B685B79102B0ED1194BA0
S315200002209A687B681B68174913438B60154BDA68FD
S315200002307B681B6813491343CB601DE0114BFB60A1
S315200002407B685B791A46FB681344FB60FB68196878
S315200002507B681A68FB680A431A600DE07B681B7985
S315200002601A46FB681344FB60FB6819687B681B68A9
S31520000270DA43FB680A401A6000BF1437BD465DF8B2
S31520000280047B7047003C014080B483B000AF7860A7
S315200002907B6800221A607B6800221A717B680C2218
S315200002A05A717B6800229A7100BF0C37BD465DF8F3
S315200002B0047B704780B483B000AF7860054B1A6921
S315200002C004497B6813430B6100BF0C37BD465DF8BC
S315200002D0047B7047003C014080B485B000AF786055
S315200002E00023FB73084B5A697B681340002B02D00E
S315200002F00123FB7301E00023FB73FB7B18461437B5
S31520000300BD465DF8047B7047003C014080B483B055
S3152000031000AF7860044A7B68536100BF0C37BD4646
S315200003205DF8047B704700BF003C014080B485B077
S3152000033000AF78600023FB73084B5A697B68134033
S31520000340002B02D00123FB7301E00023FB73FB7B10
S3152000035018461437BD465DF8047B7047003C0140C3
S3152000036080B483B000AF7860044A7B68536100BFD5
S315200003700C37BD465DF8047B704700BF003C01404A
S3152000038080B582B000AF78607B680E4A93420AD16E
S3152000039001214FF0007003F06FFE00214FF0007036
S315200003A003F06AFE09E001214FF0806003F064FE4D
S315200003B000214FF0806003F05FFE00BF0837BD4686
S315200003C080BD00BF0064004080B485B000AF786077
S315200003D039600023FB730023BB607B681B6823F016
S315200003E002027B681A607B681B6843F001027B6807
S315200003F01A6002E0BB680133BB607B685B6803F070
S315200004000103012B04D0BB684FF6FF729342F1D152
S315200004107B685B6803F00103012B02D00023FB738A
S315200004209CE03B689B79012B06D17B681B6843F0D7
S3152000043080027B681A6005E07B681B6823F08002D7
S315200004407B681A603B68DB79012B06D17B681B68C9
S3152000045043F040027B681A6005E07B681B6823F046
S3152000046040027B681A603B681B7A012B06D17B68A9
S315200004701B6843F020027B681A6005E07B681B68D6
S3152000048023F020027B681A603B685B7A012B06D139
S315200004907B681B6843F010027B681A6005E07B6866
S315200004A01B6823F010027B681A603B689B7A012B3D
S315200004B006D17B681B6843F008027B681A6005E05A
S315200004C07B681B6823F008027B681A603B68DB7A2E
S315200004D0012B06D17B681B6843F004027B681A60F7
S315200004E005E07B681B6823F004027B681A603B6882
S315200004F09B789A073B68DB781B061A433B681B7977
S315200005001B041A433B685B791B051A433B681B880F
S31520000510013B1A437B68DA617B681B6823F0010282
S315200005207B681A600023BB6002E0BB680133BB60B6
S315200005307B685B6803F00103012B04D1BB684FF68F
S31520000540FF729342F1D17B685B6803F00103012BB4
S3152000055002D10023FB7301E00123FB73FB7B1846CA
S315200005601437BD465DF8047B704790B484B000AF65
S3152000057078600023FB607B689B7A1A4601239340B0
S31520000580FB605A4BD3F80032584A43F00103C2F8B5
S315200005900032564BD3F81C22FB68DB4353491340E9
S315200005A0C1F81C327B681B7B002B29D14F4BD3F81B
S315200005B00C22FB68DB434D491340C1F80C327B68A3
S315200005C0DB881B047A685288144648497A68927AEE
S315200005D0104643EA040200F1480341F833207B68C1
S315200005E09B881B047A681288144640497A68927A56
S315200005F0104643EA040200F14803DB000B445A602C
S315200006007B681B7B012B28D1384BD3F80C2237492A
S31520000610FB681343C1F80C327B681B881B047A687D
S315200006205288144631497A68927A104643EA04027F
S3152000063000F1480341F833207B689B881B047A68C5
S31520000640D288144629497A68927A104643EA0402E7
S3152000065000F14803DB000B445A607B68DB7A002BF1
S3152000066009D1224BD3F80422FB68DB431F491340F0
S31520000670C1F8043207E01D4BD3F804221B49FB685E
S315200006801343C1F804327B681B89002B08D1174B12
S31520000690D3F81422FB68DB4314491340C1F8143203
S315200006A07B681B89012B07D1104BD3F814220F49E5
S315200006B0FB681343C1F814327B685B7B012B07D19F
S315200006C00A4BD3F81C220949FB681343C1F81C3294
S315200006D0064BD3F80032054A23F00103C2F8003254
S315200006E000BF1037BD4690BC704700BF0064004075
S315200006F080B483B000AF78607B6800229A717B68F3
S315200007000022DA717B6800221A727B6800225A72F4
S315200007107B6800229A727B680022DA727B6800224C
S315200007209A707B680022DA707B6803221A717B68D4
S3152000073002225A717B6801221A8000BF0C37BD46FF
S315200007405DF8047B704780B483B000AF0346FB712D
S31520000750144BD3F80032134A43F00103C2F8003297
S31520000760104BD3F800320F4A23F47C5323F00E03A8
S31520000770C2F800320B4BD3F80022FB791B02094941
S315200007801343C1F80032074BD3F80032054A23F051
S315200007900103C2F8003200BF0C37BD465DF8047B6A
S315200007A0704700BF0064004080B483B000AF78601B
S315200007B00B46FB70FB78002B06D07B681B6843F446
S315200007C080327B681A6005E07B681B6823F48032E0
S315200007D07B681A6000BF0C37BD465DF8047B704706
S315200007E080B483B000AF78600B46FB70FB78002B9B
S315200007F01ED07B681B6843F080027B681A607B688A
S31520000800D3F8843143F480727B68C3F884217B68F3
S31520000810D3F8943143F480727B68C3F894217B68C3
S31520000820D3F8A43143F480727B68C3F8A4211DE079
S315200008307B681B6823F080027B681A607B68D3F88C
S31520000840843123F480727B68C3F884217B68D3F8D3
S31520000850943123F480727B68C3F894217B68D3F8A3
S31520000860A43123F480727B68C3F8A42100BF0C371F
S31520000870BD465DF8047B704780B485B000AF7860D4
S3152000088039600023FB737B689B6803F08063B3F1B8
S31520000890806F02D10023FB7315E07B689B6803F011
S315200008A00063B3F1006F02D10123FB730BE07B6879
S315200008B09B6803F08053B3F1805F02D10223FB7360
S315200008C001E00423FB73FB7B042B00F09F80FB7B62
S315200008D07A6818331B0113441A68FB7B02F0010265
S315200008E0796818331B010B441A603B681B7A002B6E
S315200008F013D1FB7B7A6818331B01134419683B68B4
S315200009001B685B053A68527A1A43FB7B0A4379686F
S3152000091018331B010B441A6015E0FB7B7A681833E9
S315200009201B01134419683B685B68DB003A68127A3E
S3152000093013433A68527A1A43FB7B0A437968183381
S315200009401B010B441A603B689B7A03F00F03DAB253
S315200009503B689A72FB7B7A6818331B011344043375
S315200009601A68FB7B22F00F02796818331B010B44AF
S3152000097004331A60FB7B7A6818331B011344043353
S315200009801A683B689B7A1946FB7B0A4379681833B9
S315200009901B010B4404331A603B689B7B1A063B6899
S315200009A05B7B1B041A433B681B7B1B021A433B6879
S315200009B0DB7A1946FB7B0A4379681B010B4403F556
S315200009C0C4731A603B689B7C1A063B685B7C1B04DD
S315200009D01A433B681B7C1B021A433B68DB7B194688
S315200009E0FB7B0A4379681B010B4403F5C6731A6027
S315200009F0FB7B7A6818331B0113441A68FB7B42F091
S31520000A000102796818331B010B441A60FB7B1846D8
S31520000A101437BD465DF8047B704780B485B000AFBF
S31520000A2078600B46FB700023FB60FB78022B12D00C
S31520000A30022B16DC002B02D0012B06D011E07B689E
S31520000A409A68314B1340FB600EE07B689A682F4B07
S31520000A501340FB6008E07B689A682D4B1340FB60CF
S31520000A6002E00023FB6000BFFB68294A93423DD089
S31520000A70FB68274A93423CD8FB68264A93422CD0EF
S31520000A80FB68244A934234D8FB68204A93422AD0F2
S31520000A90FB681E4A93422CD8FB681F4A934219D002
S31520000AA0FB681D4A934224D8FB68174A934217D005
S31520000AB0FB68154A93421CD8FB68002B04D0FB68C0
S31520000AC0164A934203D014E00223FB6014E000236D
S31520000AD0FB6011E00023FB600EE00023FB600BE0CF
S31520000AE00123FB6008E00123FB6005E00123FB6096
S31520000AF002E00023FB6000BFFB68DBB21846143718
S31520000B00BD465DF8047B704703000004000300081F
S31520000B10000003100000011000010008010000047D
S31520000B2080B483B000AF78600B46FB70FB78022B55
S31520000B3014D0022B19DC002B02D0012B07D014E095
S31520000B407B689B6843F080027B689A600EE07B6836
S31520000B509B6843F400427B689A6007E07B689B6849
S31520000B6043F400027B689A6000E000BF00BF0C37A8
S31520000B70BD465DF8047B704780B485B000AFF86051
S31520000B800B467A60FB72FB7AFA681B331B0113440F
S31520000B901B68DBB203F00403DAB27B681A727B6847
S31520000BA01B7A002B0BD1FB7AFA681B331B011344EB
S31520000BB01B685B0DC3F30A027B681A600AE0FB7AA6
S31520000BC0FA681B331B0113441B68DB0823F06042C1
S31520000BD07B685A60FB7AFA681B331B0113441B6837
S31520000BE0DBB203F00203DAB27B685A72FB7AFA6848
S31520000BF01B331B01134404331B68DBB203F00F03C2
S31520000C00DAB27B689A72FB7AFA681B331B011344AB
S31520000C1004331B681B0ADAB27B68DA74FB7AFA683B
S31520000C201B01134403F5DC731B68DAB27B68DA72A6
S31520000C30FB7AFA681B01134403F5DC731B681B0A55
S31520000C40DAB27B681A73FB7AFA681B01134403F540
S31520000C50DC731B681B0CDAB27B685A73FB7AFA6862
S31520000C601B01134403F5DC731B681B0EDAB27B6889
S31520000C709A73FB7AFA681B01134403F5DE731B682B
S31520000C80DAB27B68DA73FB7AFA681B01134403F540
S31520000C90DE731B681B0ADAB27B681A74FB7AFA6861
S31520000CA01B01134403F5DE731B681B0CDAB27B6849
S31520000CB05A74FB7AFA681B01134403F5DE731B682A
S31520000CC01B0EDAB27B689A74FB7A002B06D1FB687E
S31520000CD0DB6843F02002FB68DA6005E0FB681B69ED
S31520000CE043F02002FB681A6100BF1437BD465DF849
S31520000CF0047B704780B483B000AF78600B46FB70EE
S31520000D00FB78002B06D17B68DB6843F020027B68EA
S31520000D10DA6005E07B681B6943F020027B681A6174
S31520000D2000BF0C37BD465DF8047B704780B485B0A4
S31520000D3000AF78600B46FB700023FB73FB78002B1B
S31520000D4006D17B68DB68DBB203F00303FB730BE0A1
S31520000D50FB78012B06D17B681B69DBB203F003030A
S31520000D60FB7301E00023FB73FB7B18461437BD465B
S31520000D705DF8047B704780B485B000AF78600B4681
S31520000D80FB700023FB734FF6FF73BB60FB78002BD1
S31520000D9020D17B681B6823F0030343F001027B68A4
S31520000DA01A6002E0BB68013BBB607B685B6803F0AE
S31520000DB00303012B02D0BB68002BF3D17B685B6851
S31520000DC003F00303012B02D00023FB734AE0012327
S31520000DD0FB7347E0FB78012B1ED17B681B6823F051
S31520000DE003027B681A6002E0BB68013BBB607B683C
S31520000DF05B6803F00303002B02D0BB68002BF3D102
S31520000E007B685B6803F00303002B02D00023FB738F
S31520000E1028E00123FB7325E0FB78022B20D17B6899
S31520000E201B6823F0030343F002027B681A6002E08A
S31520000E30BB68013BBB607B685B6803F00303022B46
S31520000E4002D0BB68002BF3D17B685B6803F00303F9
S31520000E50022B02D00023FB7304E00123FB7301E085
S31520000E600023FB73FB7B18461437BD465DF8047BD5
S31520000E70704780B485B000AF78600023FB737B6831
S31520000E801B6823F0030343F002027B681A607B6829
S31520000E905B6803F00303022B01D10123FB73FB7B69
S31520000EA018461437BD465DF8047B704780B485B07C
S31520000EB000AF78604FF6FF73FB600023FB727B6800
S31520000EC01B6823F002027B681A6002E0FB68013B84
S31520000ED0FB607B685B6803F00203022B02D1FB6890
S31520000EE0002BF3D17B685B6803F00203022B01D051
S31520000EF00123FB72FB7A18461437BD465DF8047B46
S31520000F00704780B485B000AF78600023FB737B68A0
S31520000F109B69DBB203F07003FB73FB7B1846143727
S31520000F20BD465DF8047B704780B485B000AF78601D
S31520000F300023FB737B689B691B0EFB73FB7B1846A8
S31520000F401437BD465DF8047B704780B485B000AF8A
S31520000F5078600023FB737B689B691B0CFB73FB7B10
S31520000F6018461437BD465DF8047B704780B485B0BB
S31520000F7000AFF860B9601346FB71FB79002B06D0F1
S31520000F80FB685A69BB681A43FB685A6106E0FB682E
S31520000F905A69BB68DB431A40FB685A6100BF1437A5
S31520000FA0BD465DF8047B704780B485B000AF78609D
S31520000FB039600023FB733B6803F47003002B0DD0CC
S31520000FC07B689A693B681340C3F31303002B02D056
S31520000FD00123FB7348E00023FB7345E03B6803F0E5
S31520000FE08073002B0DD07B685A683B681340C3F38F
S31520000FF01303002B02D00123FB7335E00023FB7380
S3152000100032E03B6803F00063002B0DD07B689A68C2
S315200010103B681340C3F31303002B02D00123FB7359
S3152000102022E00023FB731FE03B6803F00073002BD4
S315200010300DD07B68DA683B681340C3F31303002B9B
S3152000104002D00123FB730FE00023FB730CE07B68C7
S315200010501A693B681340C3F31303002B02D0012304
S31520001060FB7301E00023FB73FB7B18461437BD4658
S315200010705DF8047B704780B485B000AF7860396036
S315200010800023FB603B68174A934203D17B6800220A
S315200010909A6121E03B68C3F31303FB603B6803F0CE
S315200010A00073002B03D07B68FA68DA6014E03B6893
S315200010B003F08063002B03D07B68FA681A610BE08B
S315200010C03B6803F00063002B03D07B68FA689A60C4
S315200010D002E07B68FA685A6000BF1437BD465DF8A7
S315200010E0047B70477000F03080B584B000AF786024
S315200010F039600023FB737B685A693B681340002BD9
S3152000110000F01B813B68B3F5003F00F0DD803B68B3
S31520001110B3F5003F00F20E813B68B3F5803F00F047
S31520001120CA803B68B3F5803F00F204813B68B3F583
S31520001130004F00F0F6803B68B3F5004F00F2FA80CE
S315200011403B68B3F5006F00F0E3803B68B3F5006FB2
S3152000115000F2F0803B68B3F5806F00F0D0803B68EA
S31520001160B3F5806F00F2E6803B68B3F5007F00F0B0
S31520001170BD803B68B3F5007F00F2DC803B68B3F5A9
S31520001180807F00F0AA803B68B3F5807F00F2D28092
S315200011903B68202B4CD83B68002B00F0CB803B686B
S315200011A0013B1F2B00F2C68001A252F823F000BF9C
S315200011B0391200204B120020351300205D1200202A
S315200011C03513002035130020351300206F12002020
S315200011D03513002035130020351300203513002049
S315200011E035130020351300203513002081120020EE
S315200011F03513002035130020351300203513002029
S315200012003513002035130020351300203513002018
S315200012103513002035130020351300203513002008
S31520001220351300203513002035130020931200209B
S315200012303B68402B36D07DE07B689B684249184648
S3152000124000F060F90346FB7379E07B68DB680321D5
S31520001250184600F057F90346FB7370E07B68DB689D
S315200012600821184600F04EF90346FB7367E07B68B9
S31520001270DB681021184600F045F90346FB735EE053
S315200012807B681B690321184600F03CF90346FB7373
S3152000129055E07B681B690821184600F033F90346A0
S315200012A0FB734CE07B681B691021184600F02AF975
S315200012B00346FB7343E07B685B680821184600F011
S315200012C021F90346FB733AE07B685B6810211846D8
S315200012D000F018F90346FB7331E07B689B69012116
S315200012E0184600F00FF90346FB7328E07B689B69DC
S315200012F00221184600F006F90346FB731FE07B68BF
S315200013009B690421184600F0FDF80346FB7316E09E
S315200013107B689B697021184600F0F4F80346FB733E
S315200013200DE07B685B680421184600F0EBF8034665
S31520001330FB7304E00023FB7301E00023FB73FB7BBC
S3152000134018461037BD4680BD0101010080B483B028
S3152000135000AF786039603B68B3F5003F00F0AA80A3
S315200013603B68B3F5003F00F2C3803B68B3F5803F8E
S3152000137000F09C803B68B3F5803F00F2B9803B6863
S31520001380B3F5004F00F0AD803B68B3F5004F00F297
S31520001390AF803B68B3F5006F00F09C803B68B3F5E7
S315200013A0006F00F2A5803B68B3F5806F00F08E8059
S315200013B03B68B3F5806F00F29B803B68B3F5007FF6
S315200013C000F080803B68B3F5007F00F291803B6897
S315200013D0B3F5807F72D03B68B3F5807F00F28880BA
S315200013E03B68202B4AD83B68002B00F081803B6865
S315200013F0013B1F2B7CD801A252F823F08514002034
S31520001400F1140020F11400208D140020F114002086
S31520001410F1140020F114002095140020F11400206E
S31520001420F1140020F1140020F1140020F114002002
S31520001430F1140020F1140020F1140020F1140020F2
S31520001440F1140020F1140020F1140020F1140020E2
S31520001450F1140020F1140020F1140020F1140020D2
S31520001460F1140020F1140020F1140020F1140020C2
S31520001470F1140020F11400209D1400203B68402B1D
S3152000148010D035E07B681E4A9A6032E07B680822DD
S31520001490DA602EE07B681022DA602AE07B68082278
S315200014A01A6126E07B6810221A6122E07B680822F6
S315200014B05A601EE07B6810225A601AE07B6804227C
S315200014C05A6016E07B6804225A6012E07B68042288
S315200014D05A600EE07B6800229A617B6804225A607B
S315200014E007E07B6800229A617B6804225A6000E04C
S315200014F000BF00BF0C37BD465DF8047B704700BFB8
S315200015000101010080B485B000AF78603960002306
S31520001510FB737A683B681340002B02D00123FB73D0
S3152000152001E00023FB73FB7B18461437BD465DF8AC
S31520001530047B704780B582B000AF78607B684B4AE9
S31520001540934208D10121012002F036FD002101201D
S3152000155002F032FD86E07B68454A934208D101219C
S31520001560022002F029FD0021022002F025FD79E06B
S315200015707B68404A934208D10121042002F01CFDD9
S315200015800021042002F018FD6CE07B683A4A934261
S3152000159008D10121082002F00FFD0021082002F0C9
S315200015A00BFD5FE07B68354A934208D1012110206C
S315200015B002F002FD0021102002F0FEFC52E07B68C2
S315200015C02F4A934208D10121202002F0F5FC002168
S315200015D0202002F0F1FC45E07B682A4A934208D19C
S315200015E00121402002F0E8FC0021402002F0E4FC2A
S315200015F038E07B68244A934208D10121802002F0FA
S31520001600DBFC0021802002F0D7FC2BE07B681F4A00
S3152000161093420AD101214FF4807002F0CDFC0021C3
S315200016204FF4807002F0C8FC1CE07B68184A934295
S315200016300AD101214FF4007002F0BEFC00214FF4C4
S31520001640007002F0B9FC0DE07B68124A934209D182
S3152000165001214FF4806002F0AFFC00214FF480603E
S3152000166002F0AAFC00BF0837BD4680BD000002403C
S315200016700004024000080240000C02400010024014
S315200016800014024000180240001C024000200240C4
S31520001690002402400028024080B487B000AF786062
S315200016A0396000237B6100233B610023FB6000231C
S315200016B07B6176E001227B6902FA03F33B613B689A
S315200016C01B683A691340FB60FA683B699A4265D108
S315200016D07B681A687B695B00032101FA03F3DB430D
S315200016E01A407B681A607B681A683B681B79194622
S315200016F07B695B0001FA03F31A437B681A603B6837
S315200017001B79012B03D03B681B79022B2ED17B68DA
S315200017109A687B695B00032101FA03F3DB431A40D5
S315200017207B689A607B689A683B685B7919467B6917
S315200017305B0001FA03F31A437B689A607B685A6858
S315200017407B699BB2194601238B40DB431A407B6899
S315200017505A607B685B683A68927911467A6992B2D8
S3152000176001FA02F292B21A437B685A607B68DA6801
S315200017707B699BB25B00032101FA03F3DB431A402A
S315200017807B68DA607B68DA683B68DB7919467B69B7
S315200017905B0001FA03F31A437B68DA607B69013345
S315200017A07B617B690F2B85D900BF00BF1C37BD46E7
S315200017B05DF8047B704780B483B000AF78607B68A7
S315200017C04FF6FF721A607B6800221A717B6800222E
S315200017D05A717B6800229A717B680022DA7100BFF9
S315200017E00C37BD465DF8047B704780B485B000AFEA
S315200017F078600B467B804FF48033FB607A88FB68E9
S315200018001343FB60FA687B68DA617A887B68DA6161
S31520001810FA687B68DA617B68DB69FB607B68DB6979
S31520001820FB6000BF1437BD465DF8047B704780B46B
S3152000183085B000AF78600B467B800023FB737B6806
S315200018401A697B881340002B02D00123FB7301E029
S315200018500023FB73FB7B18461437BD465DF8047BDB
S31520001860704780B483B000AF78607B681B699BB2F9
S3152000187018460C37BD465DF8047B704780B485B0AA
S3152000188000AF78600B467B800023FB737B685A6928
S315200018907B881340002B02D00123FB7301E0002339
S315200018A0FB73FB7B18461437BD465DF8047B7047F7
S315200018B080B483B000AF78607B685B699BB21846C2
S315200018C00C37BD465DF8047B704780B483B000AF0B
S315200018D078600B467B807B687A881A8300BF0C373A
S315200018E0BD465DF8047B704780B483B000AF786056
S315200018F00B467B807B687A885A8300BF0C37BD46AF
S315200019005DF8047B704780B483B000AF78600B46E7
S315200019107B8013467B707B78002B03D07B687A888C
S315200019201A8302E07B687A885A8300BF0C37BD464B
S315200019305DF8047B704780B483B000AF78600B46B7
S315200019407B807A887B685A6100BF0C37BD465DF87C
S31520001950047B704780B483B000AF78600B467B80F1
S315200019607B685A697B885A407B685A6100BF0C376E
S31520001970BD465DF8047B704780B485B000AF7860C3
S315200019800B467B8013467B700023FB600023BB60E5
S315200019907A787B8803F007039B0002FA03F3FB6047
S315200019A07B88DB089BB21A467B68083253F82220D4
S315200019B07B8803F007039B000F2101FA03F3DB4327
S315200019C07988C90889B2084602EA03017B6800F1D2
S315200019D0080243F822107B88DB089BB21A467B68F4
S315200019E0083253F82230FA681343BB607B88DB0841
S315200019F09BB21A467B680832B96843F8221000BFAA
S31520001A001437BD465DF8047B704700BF80B400AF35
S31520001A1000BFBD465DF8047B704780B586B000AF39
S31520001A204548FFF787FD4548FEF7AAFC4448FEF7E0
S31520001A30A7FC01214FF0007002F07EFA01214FF041
S31520001A40806002F079FA0121022002F015FA0922BB
S31520001A5009213948FFF790FF092208213648FFF768
S31520001A608BFF07F110031846FFF7A5FE4FF400730E
S31520001A703B6102233B750023BB750023FB750223C4
S31520001A807B7507F1100319462B48FFF705FE4FF427
S31520001A9080733B6102233B750023BB750123FB75D5
S31520001AA002237B7507F1100319462348FFF7F4FD3F
S31520001AB0092206212048FFF75FFF092205211E483B
S31520001AC0FFF75AFF40233B6102233B750023BB757A
S31520001AD00023FB7502237B7507F110031946164870
S31520001AE0FFF7DAFD20233B6102233B750023BB75FC
S31520001AF00123FB7502237B7507F1100319460E4857
S31520001B00FFF7CAFD0023BB720023FB7201233B7340
S31520001B1000233B8000237B800023BB800023FB80A7
S31520001B2000233B8101237B733B461846FEF71DFDB0
S31520001B3000BF1837BD4680BD000402400064004047
S31520001B400068004080B586B000AF01214FF00050FC
S31520001B5002F0F2F907F110031846FFF72CFE2023B6
S31520001B603B6103233B750023FB7507F110031946E0
S31520001B700F48FFF791FD04F07FFA3B46184604F024
S31520001B80BDFA00233B6000237B600023FB603B46BD
S31520001B901946102004F07EFA0121102004F0C4FA20
S31520001BA00021082004F06EFB00BF1837BD4680BD1B
S31520001BB00000024080B584B000AF01214FF4804080
S31520001BC002F0DAF907210120FEF756FAFEF7D0FADD
S31520001BD03B461846FEF758FB80233B6000233B71AB
S31520001BE00C237B710123BB713B461846FEF7DAFABC
S31520001BF007F108031846FFF7DEFD0223BB60012329
S31520001C003B730123BB730023FB7301237B7307F113
S31520001C10080319461848FFF73FFD0123BB6001233F
S31520001C203B730123BB730023FB7301237B7307F1F3
S31520001C30080319461048FFF72FFD012202210E48FE
S31520001C40FFF761FE012201210B48FFF75CFE80238E
S31520001C50BB6000233B730023BB730023FB7301236C
S31520001C607B7307F1080319460348FFF715FD00BFEC
S31520001C701037BD4680BD00BF0004024080B483B04B
S31520001C8000AFEFF314833B603B6823F003037B60D4
S31520001C907B6883F3148800BF094B4FF404725A61A2
S31520001CA0074B5B69064A43F008035361054B4FF027
S31520001CB000425A6000BF0C37BD465DF8047B704772
S31520001CC000ED00E030EF00E080B500AF01210820F4
S31520001CD002F032F90121082002F06EFA00BF80BD21
S31520001CE080B400AF124A02E0002342F8043B114BB5
S31520001CF09A42F9D300BFBD465DF8047B704780B594
S31520001D0000AFFFF7EDFFFFF781FEFFF786FEFFF737
S31520001D1019FFFFF74FFFFFF7B1FFFFF7D5FF00BF12
S31520001D2080BD80B400AF00BFBD465DF8047B704720
S31520001D3000AC0020882F012080B584B000AF7860E9
S31520001D40396000220F49104803F00AFFF8607B68CB
S31520001D508833184604F002F8B8607B68D3F89430CC
S31520001D60BA68D31A094A934208DDFB68002B05D1CD
S31520001D70074B1A460749084803F0F2FE00BF103702
S31520001D80BD4680BD2944002058AA00209F86010018
S31520001D901C9D0020BF4F002038A60020B0B5BAB049
S31520001DA000AF786039600023C7F8E4307B68DB6FCA
S31520001DB0022B0CDC7B68DA6F7B681C32396843F8AF
S31520001DC022107B68DB6F5A1C7B68DA6715E07B681C
S31520001DD03A681A670023C7F8E0307B681B6FC7F89C
S31520001DE0E0307B685A6F7B681A677B689A6F7B68DE
S31520001DF05A677B68D7F8E0209A677B68DB6F032BEE
S31520001E0040F0A1807B681A6F7B685B6FD31A504ABB
S31520001E109342C0F298807B681A6F7B685B6FD31AF7
S31520001E2042F20F72934200F38E807B681A6F7B68B2
S31520001E309B6FD31A464A9342C0F285807B681A6FFD
S31520001E407B689B6FD31A42F20F7293427BDC7B68CE
S31520001E509A6F7B685B6FD31A3D4A934273DB7B682C
S31520001E609A6F7B685B6FD31A42F20F7293426ADCD9
S31520001E707B681A6F7B685B6F1A447B689B6F134481
S31520001E80344A82FB0312DB17D31AC7F8DC30D7F8A3
S31520001E90DC30314A82FB03125213DB17D31A184661
S31520001EA006F02CFD04460D46D7F8DC202A4B83FB92
S31520001EB002135913D317CB1A284901FB03F3D31A5C
S31520001EC0274A82FB03125211DB17D31A07EE903AE8
S31520001ED0F8EEE77A17EE900A06F022FD4FF00002A0
S31520001EE0204B06F09FFE02460B462046294606F06A
S31520001EF0B9FB02460B461046194606F07BFF034601
S31520001F00C7F8D830DFED186A97ED367AC6EE877AAD
S31520001F10FDEEE77A17EE903AC7F8D43007F10C00B9
S31520001F20D7F8D430114AC82107F04AF807F10C0334
S31520001F301A460F490F4803F013FED7F8D4200E494E
S31520001F400E4803F00DFE00BFE837BD46B0BD00BF0A
S31520001F50F1D8FFFF5655555589B5F814A0860100CE
S31520001F601F85EB5100408F4000007042389D0020B5
S31520001F70BF4F002038A60020D12B002018A6002015
S31520001F8080B5C0B002AF786039607B68D3F89830EE
S31520001F90002B2BD17B688833184603F0DFFEC7F869
S31520001FA0D4007B68D3F89430D7F8D420D31AC7F856
S31520001FB0D0307B68D7F8D020C3F89C207B68D7F830
S31520001FC0D420C3F894207B680122C3F898200122EC
S31520001FD08249834803F0C4FD00230093814B7A682D
S31520001FE041F28831804803F01DFDF3E07B68883399
S31520001FF0184603F0B3FEC7F8F4007B68D3F8943094
S31520002000D7F8F420D31AC7F8F030D7F8F030774A4B
S31520002010934269DC7B68D3F89C30C7F8F030D7F858
S31520002020F03042F20F7293420FDC714B1A4671491F
S31520002030714803F095FD7B680022C3F898200022A2
S315200020406649674803F08CFDC4E0D7F8F0306B4A48
S3152000205082FB03125113DA178A1A634901FB02F233
S315200020609A1A13469B0013445B00C7F8E030D7F852
S31520002070F020624B83FB02135913D317CB1A5A490C
S3152000208001FB03F3D31A5E4A82FB03125211DB17BC
S31520002090D31AC7F8DC30D7F8F030584A82FB03123F
S315200020A05213DB17D31AC7F8D83007F10800D7F830
S315200020B0E0300193D7F8DC300093D7F8D830514A76
S315200020C0C82106F07DFFD7F8F03000934E4B7A6892
S315200020D00021002003F0A6FC07F108031A46454913
S315200020E0454803F03DFD6CE0D7F8F030434A82FBCB
S315200020F003125113DA178A1A3B4901FB02F29A1A84
S3152000210013469B0013445B00C7F8EC30D7F8F02049
S315200021103A4B83FB02135913D317CB1A324901FBCF
S3152000212003F3D31A364A82FB03125211DB17D31A52
S31520002130C7F8E830D7F8F030304A82FB0312521342
S31520002140DB17D31AC7F8E43007F10800D7F8EC30CC
S315200021500193D7F8E8300093D7F8E4302B4AC8210A
S3152000216006F02EFF07F108031A462249224803F0FB
S31520002170F7FCD7F8F030264A934222DD254B1A4643
S315200021801C491D4803F0ECFC7B68D3F88030002BFB
S3152000219017D1214B1A461749174803F0E1FC0023B3
S315200021A000931E4B7A680021002003F03BFC782226
S315200021B01B491C4803F0D4FC00221B49194803F094
S315200021C0CFFC7B680022C3F89820002203490448EC
S315200021D003F0C6FCF837BD4680BD00BF8944002009
S315200021E058AA0020391D0020A08601009F860100E4
S315200021F0489D0020BF4F002038A6002089B5F8143E
S315200022001F85EB51549D00209D1D0020909D002090
S31520002210400D0300BC9D0020D09D0020852D002070
S31520002220D12B002018A600208D2B002080B483B04F
S3152000223000AF786039607B684FF0FF32C3F8A0208A
S315200022407B684FF0FF32C3F880207B684FF0FF3267
S31520002250C3F8A8207B684FF0FF32C3F8A42000BF44
S315200022600C37BD465DF8047B704780B483B000AF61
S31520002270786039607B68D3F8A43018460C37BD46A1
S315200022805DF8047B704780B483B000AF7860396016
S315200022907B68D3F8A83018460C37BD465DF8047B1A
S315200022A0704780B483B000AF786039607B68D3F81C
S315200022B0A03018460C37BD465DF8047B704780B4C5
S315200022C083B000AF786039607B681B6918460C378D
S315200022D0BD465DF8047B704780B5A2B002AF78603A
S315200022E03960954B1A469549954803F039FC07F114
S315200022F070031A469349944803F032FC934B1A46CE
S315200023008E498F4803F02CFC97F8703007F10C00AB
S315200023108F4A642106F054FE07F10C031A468749BA
S31520002320874803F01DFC97F870307F2B3DD17B68E2
S31520002330D3F8A430B3F1FF3F1BD107F17003033369
S31520002340184606F0FDFD02467B68C3F8A42097F8E0
S3152000235071301A467B68C3F8A8207B68D3F8A4306E
S31520002360013300937B4B7A680021002003F05AFB4F
S31520002370DBE07B68D3F8A030B3F1FF3F40F0D58097
S3152000238007F170030333184606F0DAFD02467B6830
S31520002390C3F8A0207B68D3F8A03000936E4B7A68F0
S315200023A00021002003F03EFBBFE097F871301A466B
S315200023B07B68D3F8A8309A4240F0B9800023FB67A7
S315200023C07B68D3F88030002B00F0B28097F870300D
S315200023D07E2B7BD07E2B00F3AB80082B1ADC002BC8
S315200023E040F3A680013B072B00F2A28001A252F8FF
S315200023F023F000BF1B2400202D2400203F24002092
S315200024005124002067240020812400209F240020BE
S31520002410B92400207D2B6AD08AE0012300934F4BFC
S315200024204F4A0021002003F0FDFA81E000230093AB
S315200024304A4B4B4A0021002003F0F4FA78E00023AF
S315200024400093484B464A0021002003F0EBFA6FE048
S3152000245000224549424803F083FB00224349444871
S3152000246003F07EFB64E007F170030333184606F0A1
S3152000247067FDF867FA6F3F493D4803F071FB57E067
S3152000248007F170030333184606F05AFDF867FB6F11
S315200024905B421A463749364803F062FB48E007F1AB
S315200024A070030333184606F04BFDF867FA6F32497E
S315200024B02F4803F055FB3BE078222F492C4803F0A8
S315200024C04FFB00222B492A4803F04AFB07F17003F1
S315200024D00333184606F034FDF8677B68FA6FC3F8B5
S315200024E0A020FA6F1C49786803F03AFB20E07B684D
S315200024F0D3F8A4207B68D3F8A8309A4218D00123B9
S3152000250000931E4B1A4A0021002003F08BFA002369
S3152000251000931B4B164A0021002003F083FA002269
S315200025201849786803F01CFB02E000BF00E000BFFA
S315200025308037BD4680BD00BFF49D0020BF4F0020E0
S3152000254038A60020996800206CAA00202C9E002026
S31520002550409E0020C52C0020152C00208925002017
S31520002560F4A5002075260020A92A0020352B00205E
S3152000257018A600208D2B0020D12B0020992E00207C
S31520002580B52E0020852D002080B483B000AF786062
S3152000259039603B68012B09D17B681B69132B05DC4D
S315200025A07B681B695A1C7B681A610BE03B68002B11
S315200025B008D17B681B69012B04DD7B681B695A1EC9
S315200025C07B681A6100BF0C37BD465DF8047B7047F7
S315200025D080B483B000AF786039607B689B69002B3C
S315200025E003D17B6801229A6102E07B6800229A610E
S315200025F000BF0C37BD465DF8047B704780B586B0BA
S3152000260002AF7860396000221249134803F0A8FA15
S31520002610F860FB68002B18D17B68D3F8AC30002B10
S3152000262013D07B68D3F88030012B0ED10B4B1A4682
S315200026300B490C4803F094FA002300930A4B0B4AEB
S3152000264000210B4803F0EEF900E000BF1037BD462D
S3152000265080BD00BFBF220020F4A50020489E002098
S31520002660BF4F002038A60020FD25002044A50020CD
S3152000267040420F0080B584B002AF78607B681B694A
S31520002680002B04D17B685A697B681A610EE07B684F
S315200026901A697B685A617B6800221A6100230093BD
S315200026A0044B054A0021002003F0BCF900BF08377F
S315200026B0BD4680BDFD25002044A5002080B483B002
S315200026C000AF786039607B680122DA6100BF0C3781
S315200026D0BD465DF8047B704780B584B002AF786054
S315200026E039607B68DB68002B0CBF01230023DBB23B
S315200026F01A467B68DA607B68DB69002B03D0224BA5
S3152000270000221A700CE07B68DB68002B05D07B6802
S315200027101A691D4BD2B21A7002E01B4B00221A70A6
S315200027207B689B68002B2AD07B689B69002B16D080
S315200027307B681B6A154A82FB03129210DB17D01A9C
S315200027407B681B6A114A82FB03129210DB17D11A8F
S31520002750002300930E4B7A6803F064F910E07B683F
S315200027601B6A0A4A82FB03129210DB17D01A002337
S315200027700093074B7A68002103F054F900E000BF6C
S315200027800837BD4680BD00BF1C740040676666667C
S31520002790D926002080B483B000AF786039607B688A
S315200027A03A681A6200BF0C37BD465DF8047B704755
S315200027B080B483B000AF786039607B680022DA612C
S315200027C000BF0C37BD465DF8047B704780B586B0E8
S315200027D002AF786039607B689B68002B39D07B68B4
S315200027E05B693A689A4234D100221C491C4803F09E
S315200027F0B7F97B685B6907EE903AB8EEE77ADFEDCA
S31520002800196AC6EE877AC7ED037AD7ED037A9FED6C
S31520002810167A67EE877A9FED157A67EE877AFDEE50
S31520002820E76AD7ED037A9FED127A67EE877A9FEDF6
S315200028300F7A67EE877AFDEEE77A7B685B6900930D
S315200028400C4B7A6817EE901A16EE900A03F0EAF807
S3152000285000E000BF1037BD4680BD00BF6B4400209E
S3152000286058AA0020000070420000FA430000C84227
S3152000287000007A43CD27002080B58AB002AF786069
S3152000288039607B689B68002B00F0E180002272494A
S31520002890724803F065F9F861002271496F4803F028
S315200028A05FF9B86100226F496F4803F059F97B68D8
S315200028B0DB680A337B617B681B696C4A52F82320EC
S315200028C07B6913446A4A9B001344D3ED007A9FED3B
S315200028D0697A67EE877AFDEEE77A17EE903A3B61E2
S315200028E03A696549604803F03BF97B681B69634A8E
S315200028F052F82330FB607B685B6907EE903AB8EEAE
S31520002900E77ADFED5F6AC6EE877AC7ED027A7B68E3
S315200029105B693A689A4230D07B681B690F2B0BD0D3
S315200029207B681B69112B07D07B681B69152B03D08D
S315200029307B681B69172B05D101225249524803F0A7
S315200029400FF904E000224F494F4803F009F9D7ED6B
S31520002950027A9FED4E7A67EE877A9FED4D7A67EE83
S31520002960877AFDEEE77A7B685B690093494B4A4A92
S31520002970002117EE900A03F055F87B681B69013396
S315200029805A4203F01F0302F01F0258BF53427A68CF
S3152000299013617B681B69FA6993FBF2F2F96901FB03
S315200029A002F29B1ABA699A4252D1FB684FF4FA7224
S315200029B002FB03F307EE903AB8EEE77AD7ED027AF8
S315200029C067EE277A9FED357A77EEC77A9FED307AD4
S315200029D067EE877AFDEEE77A00230093304B224A92
S315200029E041F2883117EE900A03F01CF8FB684FF489
S315200029F0FA7202FB03F307EE903AB8EEE77AD7EDC8
S31520002A00027A67EE277A9FED227A67EE877AFDEEC5
S31520002A10E76AFB68FA2202FB03F307EE903AB8EE68
S31520002A20E77AD7ED027A67EE277A9FED197A67EE75
S31520002A30877AFDEEE77A7B685B690093194B7A68A3
S31520002A4017EE901A16EE900A02F0ECFF00E000BF97
S31520002A502037BD4680BD00BFA322002044A500200C
S31520002A606B220020B1270020F4A50020B89B00206F
S31520002A70389C002000247449952700209C9C002027
S31520002A80000070424944002058AA00200000FA4362
S31520002A900000C842CD27002018A60020000048428A
S31520002AA0BD2600207928002080B584B002AF78604A
S31520002AB039607B689B68002B0CBF01230023DBB2A7
S31520002AC01A467B689A607B689B68002B13D0114B53
S31520002AD01A461149114803F043F800230093104B7E
S31520002AE0104A0021002002F09DFF01220E490F48C6
S31520002AF003F036F80AE00E4B1A460749074803F05A
S31520002B002FF800220849094803F02AF800BF0837A1
S31520002B10BD4680BD589E0020BF4F002038A600200D
S31520002B20D9260020F4A500204944002058AA0020D8
S31520002B30649E002080B584B002AF786039607B68DF
S31520002B409B68002B0CBF01230023DBB21A467B684F
S31520002B509A607B685B690093094B0A4A0021002032
S31520002B6002F060FF7B685B690093074B054A0021F2
S31520002B70002002F057FF00BF0837BD4680BD00BFCA
S31520002B80CD27002018A600207928002080B582B005
S31520002B9000AF786039603B6813F1050F06DB3B68B0
S31520002BA0052B03DC7B683A68DA6006E0054B1A469B
S31520002BB00549064802F0D4FF00BF00BF0837BD46CE
S31520002BC080BD00BF709E0020BF4F002038A6002089
S31520002BD080B582B000AF786039603B681D2B07DD79
S31520002BE03B68B3F5967F03DC7B683A685A6106E05A
S31520002BF0054B1A460549064802F0B2FF00BF00BF42
S31520002C000837BD4680BD00BF809E0020BF4F0020F4
S31520002C1038A6002080B5A2B002AF78603960224B7A
S31520002C201A462249224802F09BFF7B68D3F8A0105F
S31520002C307B68D3F8A8307A68D2F8A42007F1100070
S31520002C40019200930B461B4A642106F0B9F907F15D
S31520002C5010031A461549164802F082FF7B68D3F8FE
S31520002C60A830DBB287F875307E2387F874303B684E
S31520002C7083EAE372A2EBE37207F10C030E491846CE
S31520002C8006F0EEF9012387F876303B7B87F877301C
S31520002C9007F174031A460949094802F061FF00BF8B
S31520002CA08037BD4680BD00BF909E0020BF4F0020CC
S31520002CB038A60020D09E0020FC9E002063690020BC
S31520002CC06CAA002080B5A2B002AF78603960254B8F
S31520002CD01A462549254802F043FF7B68D3F8A01001
S31520002CE07B68D3F8A8307A68D2F8A42007F11000C0
S31520002CF0019200930B461E4A642106F061F907F102
S31520002D0010031A461849194802F02AFF7B68D3F89F
S31520002D10A830DBB287F875307F2387F874303B689C
S31520002D2083EAE372A2EBE37207F10C03114918461A
S31520002D3006F096F9012387F876303B7B87F87730C3
S31520002D4007F174031A460C490C4802F009FF0C4B94
S31520002D501A460549054802F003FF00BF8037BD46E5
S31520002D6080BD00BF009F0020BF4F002038A6002056
S31520002D70449F0020FC9E0020636900206CAA00204E
S31520002D806C9F002080B586B000AF786039600C4B10
S31520002D901A460C490C4802F0E3FE7B68D3F8A830AB
S31520002DA0DBB27B737D233B7307F10C031A4607497D
S31520002DB0074802F0D5FE00BF1837BD4680BD00BFCC
S31520002DC0809F0020BF4F002038A600206369002086
S31520002DD06CAA002080B586B000AF786039603B6869
S31520002DE0002B02DA06233B7301E005233B737B6845
S31520002DF0D3F8A430DBB27B733B6883EAE372A2EBA1
S31520002E00E37207F108030949184606F029F9012358
S31520002E10BB733B7AFB7307F10C031A46044905483A
S31520002E2002F09EFE00BF1837BD4680BDFC9E0020E6
S31520002E30636900206CAA002080B586B000AF786058
S31520002E40396007F108033A681049184606F008F970
S31520002E5006233B737B68D3F8A430DBB27B73032352
S31520002E60BB733B7AFB737B7A3B743B68632B01DD38
S31520002E70BB7A7B7407F10C031A460549054802F014
S31520002E806FFE00BF1837BD4680BD00BFFC9E0020E8
S31520002E90636900206CAA002080B483B000AF7860FC
S31520002EA039607B683A68DA6100BF0C37BD465DF849
S31520002EB0047B704780B59EB002AF786039607B682E
S31520002EC0DB69002B17D07B685B6907F10C000C4A85
S31520002ED0642106F075F807F10C031A4609490A48D9
S31520002EE002F03EFE00230093084B7A680021084832
S31520002EF002F098FD00E000BF7037BD4680BD00BFE0
S31520002F00C09F0020BF4F002038A60020B52E0020ED
S31520002F1040420F0080B5BAB002AF78603960BA4B34
S31520002F201A46BA49BA4802F01BFEBA4B1A46B749A6
S31520002F30B74802F015FE3A68B749B54802F010FEC8
S31520002F40B64B1A46B149B24802F00AFE7B68D3F85E
S31520002F508030B3F1FF3F05D1B14B1A46AB49AC489F
S31520002F6002F0FEFD3B686F2B68D17B68D3F880307A
S31520002F70B3F1FF3F30D1AB4B1A46A449A44802F027
S31520002F80EFFD7B680022C3F880207B680022C3F80F
S31520002F90A4207B680022C3F8A8207B68D3F8803061
S31520002FA007F10800A04A642106F00AF807F1080391
S31520002FB01A469649964802F0D3FD012300939B4B6F
S31520002FC07A680021002002F02DFD994B1A468F4980
S31520002FD08F4802F0C5FD31E07B68D3F88030002BA6
S31520002FE016D1944B1A468949894802F0B9FD7B6867
S31520002FF0D3F8803007F108008B4A642105F0E0FF02
S3152000300007F108031A468149814802F0A9FD15E017
S31520003010894B1A467D497E4802F0A2FD7B68D3F88B
S31520003020803007F10800804A642105F0C9FF07F1C6
S3152000303008031A467549764802F092FD3B68613BC3
S31520003040172B00F2DC8101A252F823F07D310020FB
S31520003050F7300020FF330020F53100201B330020FD
S31520003060FF330020FF330020FF330020FF330020F2
S31520003070FF330020AD300020FF330020B93100207F
S31520003080FF330020FF330020693200204131002029
S31520003090DD320020FF330020D9330020FF3300200B
S315200030A0FF330020FF330020A93200207B689B6875
S315200030B07A68134400221A737B680C33184605F08D
S315200030C03FFFC7F8DC007B6800229A607B68D3F854
S315200030D08030002B05D1D7F8DC205849584802F01B
S315200030E03FFDD7F8DC300093564B7A68002100204C
S315200030F002F098FC83E17B689B687A68134400227F
S315200031001A737B680C33184605F01AFFC7F8DC00E3
S315200031107B6800229A607B68D3F88030002B05D12B
S31520003120D7F8DC204849464802F01AFDD7F8DC30AB
S315200031300093464B7A680021002002F073FC5EE182
S315200031407B68D3F88030002B07D101230093404BB6
S31520003150404A0021002002F065FC012387F86C30EC
S31520003160002387F86D30002387F86E3007F16C0353
S315200031701A463949394802F0F3FC40E17B68D3F816
S315200031808030002B07D100230093314B314A002198
S31520003190002002F047FC022387F86C30002387F8D2
S315200031A06D30002387F86E3007F16C031A462A49E2
S315200031B02A4802F0D5FC22E17B68D3F88030002B28
S315200031C007D100230093264B224A0021002002F03B
S315200031D029FC032387F86C30002387F86D30002301
S315200031E087F86E3007F16C031A461B491B4802F01C
S315200031F0B7FC04E1002300931A4B164A0021002055
S3152000320002F010FCFBE000BFD49F0020BF4F00203F
S3152000321038A600200CA000201550002014A0002065
S3152000322018A0002038A0002040A00020C52C002097
S315200032304CA0002064A0002080A000208D2B002020
S3152000324018A60020D52D0020D12B0020392E0020B5
S3152000325089250020F4A50020636900206CAA00209F
S3152000326075260020D12500207B68D3F88030002BDE
S3152000327009D100227049714802F072FC002270497F
S31520003280704802F06DFC042387F86C30002387F821
S315200032906D30002387F86E3007F16C031A466A49B1
S315200032A06A4802F05DFCAAE07B68D3F8A0107B6830
S315200032B0D3F8A8307A68D2F8A42007F178000192D2
S315200032C000930B46624A642105F07AFE07F17803E3
S315200032D01A466049604802F043FC90E07B68D3F8C8
S315200032E08030002B40F086805C4B1A4659495A485C
S315200032F002F036FC00230093594B7A680021002007
S3152000330002F090FB782257494E4802F029FC002211
S3152000331055494C4802F024FC6CE07B68D3F8803099
S31520003320002B31D17B68D3F8AC30002B1AD17B68C7
S315200033300122C3F8AC204D4B1A464649464802F0B6
S315200033400FFC012300934A4B3E4A0021002002F045
S3152000335069FB00230093474B3A4A0021002002F0E4
S3152000336061FB11E0444B1A463A493B4802F0F8FB10
S315200033707B680022C3F8AC20002300933C4B314AE3
S315200033800021002002F04EFB7B68D3F88030012B11
S3152000339032D17B68D3F8AC30002B12D17B68012266
S315200033A0C3F8AC20354B1A462A492B4802F0D8FBE5
S315200033B000230093324B7A680021002002F032FB72
S315200033C01AE0304B1A462349234802F0C9FB7B6892
S315200033D00022C3F8AC200FE07B68D3F88030012BA5
S315200033E00CD100230093284B144A0021002002F020
S315200033F019FB03E000BF02E000BF00E000BF3B680E
S315200034002F2B02DD3B68392B06DD7B689B68002B62
S315200034100DD13B682D2B0AD17B689B68591C7A6895
S3152000342091603A68D1B27A6813440A461A7300BF8B
S31520003430E037BD4680BD00BFA92A0020F4A50020A4
S31520003440352B002018A60020636900206CAA0020D6
S31520003450449F0020BF4F002038A60020D09D00208A
S31520003460852D0020D12B00208D2B002098A0002018
S31520003470992E0020B52E0020C8A00020F8A00020FC
S31520003480FD2500202CA1002075260020B0B5ADF525
S31520003490A76D04AF3B1D18603B46196007F1FC037E
S315200034A018464FF484631A46002105F051FD07F1B2
S315200034B0FC035B4A9A6007F1FC035A4ADA6007F17B
S315200034C0FC03594A1A6107F1E803584A1C46154677
S315200034D00FCD0FC42B68236007F17003184678239D
S315200034E01A46002105F034FD07F17003504A9A6010
S315200034F007F170034B4ADA6007F170034D4A1A61EF
S3152000350007F1700300224C49184602F029FB07F107
S31520003510FC0300224949184602F022FB07F1E80382
S3152000352000224749184602F01BFB3B1D1B688833C7
S31520003530184602F0F5FB07F1E80300224149184638
S3152000354002F00EFB404A07F1FC034049184602F000
S3152000355007FB3B1D00211868FEF768FE3C4A07F171
S31520003560FC033A49184602F0FBFA3B1D1B68D3F8C8
S3152000357080403B1D1B68D3F8A0303A1D1268D2F854
S31520003580A420391D0968D1F8A81007F10C00029172
S315200035900192009323462F4A642105F011FD07F17D
S315200035A00C0207F1FC032949184602F0D9FA012337
S315200035B087F81C35012387F81D35062387F81E3525
S315200035C0482387F81F35652387F820356C2387F82D
S315200035D021356C2387F822356F2387F8233500237E
S315200035E087F8243507F21C5207F170031A4918464A
S315200035F002F0B6FA00230093184B194A0021002046
S3152000360002F010FA00230093164B174A00210020DF
S3152000361002F008FA00BF07F5A567BD46B0BD00BF9A
S315200036200010014044A50020152F0020E8A100200D
S3152000363000640040D922002045660020194F002052
S31520003640F94300204944002060A10020BF4F0020FC
S3152000365074A10020ACA100206369002079280020F5
S3152000366018A60020D9260020F4A5002080B500AF9A
S3152000367000220B490B4802F067FC01220A490B483D
S3152000368002F062FC02220A490A4802F05DFC00228E
S3152000369009490A4802F0BEFC0023184680BD00BF37
S315200036A04B50002038A60020116700206CAA00206D
S315200036B0C944002058AA00208D34002044A50020AB
S315200036C080B400AF164B1B68154A43F00103136004
S315200036D0134B00229A60124B1B68114A23F0A85301
S315200036E023F4102313600E4B0E4A5A600C4B0E4ADD
S315200036F0C3F884200A4B0D4AC3F88820084B1B6860
S31520003700074A23F480231360054B0022DA60044B1A
S315200037100022C3F88C2000BFBD465DF8047B7047AD
S3152000372000380240103000240030002000300024F1
S3152000373080B483B000AF0346FB71064B00221A709B
S31520003740044AFB79137000BF0C37BD465DF8047B35
S31520003750704700BF0238024080B582B000AF002318
S315200037603B600023FB710023BB71312000F08AFDF2
S315200037700346BB713B6801333B603B68B3F5A04F02
S3152000378002D0BB79002BF0D0312000F07BFD034620
S31520003790002B02D00123FB7101E00023FB71FB7992
S315200037A018460837BD4680BD80B485B000AF0346B5
S315200037B0FB710023FB600A4B1B68FB60FB6823F050
S315200037C0F803FB60FB79DB00FA681343FB60044ACD
S315200037D0FB68136000BF1437BD465DF8047B704755
S315200037E00038024080B483B000AF0346FB71044A20
S315200037F0FB79136000BF0C37BD465DF8047B70472C
S315200038000000474280B483B000AF0346FB710D4BE6
S3152000381000221A700B4B00221A70FB79012B02D062
S31520003820042B04D007E0074B01221A7003E0054B56
S3152000383005221A7000BF00BF0C37BD465DF8047B19
S31520003840704700BF7038024080B483B000AF034693
S31520003850FB71044AFB79136000BF0C37BD465DF847
S31520003860047B7047800E474280B485B000AFF86075
S31520003870B9607A603B607B689A01BB681A433B68F3
S315200038805B08013B1B041A43FB681A43BB691B06F2
S31520003890044913434B6000BF1437BD465DF8047BD3
S315200038A0704700BF0038024080B483B000AF0346A3
S315200038B0FB71044AFB79136000BF0C37BD465DF8E7
S315200038C0047B70476000474280B483B000AF7860C5
S315200038D039607B689A013B681B0705491343C1F889
S315200038E0843000BF0C37BD465DF8047B704700BFAF
S315200038F00038024080B483B000AF0346FB71044A0F
S31520003900FB79136000BF0C37BD465DF8047B70471A
S315200039106800474280B485B000AFF860B9607A602D
S31520003920FB689A01BB681B061A437B681B0705497F
S315200039301343C1F8883000BF1437BD465DF8047BB9
S31520003940704700BF0038024080B483B000AF034602
S31520003950FB71044AFB79136000BF0C37BD465DF846
S31520003960047B70477000474280B483B000AF0346A3
S31520003970FB71044AFB79136000BF0C37BD465DF826
S31520003980047B70474C00474280B485B000AF786016
S3152000399039600023FB600B4B9B68FB60FB6823F0C0
S315200039A0EC63FB607A683B681343FA681343FB6059
S315200039B0044AFB68936000BF1437BD465DF8047B5C
S315200039C0704700BF0038024080B485B000AF7860F1
S315200039D039600023FB600B4B9B68FB60FB6823F080
S315200039E07843FB607A683B681343FA681343FB60AD
S315200039F0044AFB68936000BF1437BD465DF8047B1C
S31520003A00704700BF0038024080B485B000AF7860B0
S31520003A100023FB60094B9B68FB60FB6823F00303D4
S31520003A20FB60FA687B681343FB60044AFB6893607B
S31520003A3000BF1437BD465DF8047B7047003802404E
S31520003A4080B400AF054B9B68DBB203F00C03DBB2FE
S31520003A501846BD465DF8047B704700BF003802401B
S31520003A6080B485B000AF78600023FB60094B9B686B
S31520003A70FB60FB6823F0F003FB60FA687B68134366
S31520003A80FB60044AFB68936000BF1437BD465DF8AF
S31520003A90047B70470038024080B485B000AF786060
S31520003AA00023FB60094B9B68FB60FB6823F4E05313
S31520003AB0FB60FA687B681343FB60044AFB689360EB
S31520003AC000BF1437BD465DF8047B704700380240BE
S31520003AD080B485B000AF78600023FB600A4B9B68FA
S31520003AE0FB60FB6823F46043FB607B68DB00FA68BD
S31520003AF01343FB60044AFB68936000BF1437BD463E
S31520003B005DF8047B704700BF0038024080B489B05E
S31520003B1000AF78600023BB6100237B610023FB613B
S31520003B2002233B610023FB600223BB604A4B9B6858
S31520003B3003F00C03BB61BB69082B11D0BB69082BB2
S31520003B4044D8BB69002B03D0BB69042B04D03DE0CD
S31520003B507B68424A1A603DE07B68414A1A6039E038
S31520003B603D4B5B689B0D03F00103FB603A4B5B68A2
S31520003B7003F03F03BB60FB68002B0CD0384ABB68C0
S31520003B80B2FBF3F3344A52689209C2F3080202FBED
S31520003B9003F3FB610BE0314ABB68B2FBF3F32E4A19
S31520003BA052689209C2F3080202FB03F3FB612A4B17
S31520003BB05B681B0C03F0030301335B003B61FA696E
S31520003BC03B69B2FBF3F27B681A6003E07B68234A09
S31520003BD01A6000BF204B9B6803F0F003BB61BB69F2
S31520003BE01B09BB611F4ABB6913441B78DBB27B618F
S31520003BF07B681A687B69DA407B685A60164B9B683B
S31520003C0003F4E053BB61BB699B0ABB61154ABB69E0
S31520003C1013441B78DBB27B617B685A687B69DA4088
S31520003C207B689A600C4B9B6803F46043BB61BB695D
S31520003C305B0BBB610B4ABB6913441B78DBB27B6110
S31520003C407B685A687B69DA407B68DA6000BF243774
S31520003C50BD465DF8047B7047003802400024F4001E
S31520003C6000127A00E4AA002080B485B000AF786004
S31520003C700023FB607B6803F44073B3F5407F11D1CA
S31520003C800F4B9B68FB60FB6823F4F813FB607B6893
S31520003C9023F0704323F44073FA681343FB60084A09
S31520003CA0FB689360064B1A6F7B68C3F30B030449CA
S31520003CB013430B6700BF1437BD465DF8047B70477E
S31520003CC00038024080B483B000AF0346FB71044A3B
S31520003CD0FB79136000BF0C37BD465DF8047B704747
S31520003CE03C0E474280B483B000AF0346FB71044AC2
S31520003CF0FB79136000BF0C37BD465DF8047B704727
S31520003D00400E474280B483B000AF7860044A7B6897
S31520003D10136000BF0C37BD465DF8047B704700BFBB
S31520003D205C01474280B485B000AF78600023FB6019
S31520003D300B4BD3F88C30FB60FB6823F01F03FB6032
S31520003D407B68013BFA681343FB60054AFB68C2F8AF
S31520003D508C3000BF1437BD465DF8047B704700BF2A
S31520003D600038024080B485B000AF78600023FB6045
S31520003D700B4BD3F88C30FB60FB6823F4F853FB60C5
S31520003D807B68013B1B02FA681343FB60044AFB680D
S31520003D90C2F88C3000BF1437BD465DF8047B7047EF
S31520003DA00038024080B485B000AF78600023FB6005
S31520003DB00A4BD3F88C30FB60FB6823F44013FB607E
S31520003DC0FA687B681343FB60044AFB68C2F88C30B0
S31520003DD000BF1437BD465DF8047B704700380240AB
S31520003DE080B485B000AF78600023FB600A4BD3F81F
S31520003DF08C30FB60FB6823F44003FB60FA687B6829
S31520003E001343FB60044AFB68C2F88C3000BF1437AA
S31520003E10BD465DF8047B70470038024080B485B00B
S31520003E2000AF78600023FB600A4BD3F88C30FB6030
S31520003E30FB6823F44033FB60FA687B681343FB601E
S31520003E40044AFB68C2F88C3000BF1437BD465DF8C3
S31520003E50047B70470038024080B483B000AF78609E
S31520003E60044A7B68136000BF0C37BD465DF8047BAF
S31520003E70704700BFE011474280B483B000AF78603E
S31520003E800B46FB70FB78002B06D00A4B1A6B0949B0
S31520003E907B6813430B6306E0064B1A6B7B68DB4398
S31520003EA0044913400B6300BF0C37BD465DF8047B05
S31520003EB0704700BF0038024080B483B000AF7860FE
S31520003EC00B46FB70FB78002B06D00A4B5A6B094930
S31520003ED07B6813434B6306E0064B5A6B7B68DB43D8
S31520003EE0044913404B6300BF0C37BD465DF8047B85
S31520003EF0704700BF0038024080B483B000AF7860BE
S31520003F000B46FB70FB78002B06D00A4B9A6B0949AF
S31520003F107B6813438B6306E0064B9A6B7B68DB4317
S31520003F20044913408B6300BF0C37BD465DF8047B04
S31520003F30704700BF0038024080B483B000AF78607D
S31520003F400B46FB70FB78002B06D00A4B1A6C0949EE
S31520003F507B6813430B6406E0064B1A6C7B68DB43D5
S31520003F60044913400B6400BF0C37BD465DF8047B43
S31520003F70704700BF0038024080B483B000AF78603D
S31520003F800B46FB70FB78002B06D00A4B5A6C09496E
S31520003F907B6813434B6406E0064B5A6C7B68DB4315
S31520003FA0044913404B6400BF0C37BD465DF8047BC3
S31520003FB0704700BF0038024080B483B000AF7860FD
S31520003FC00B46FB70FB78002B06D00A4B1A69094971
S31520003FD07B6813430B6106E0064B1A697B68DB435B
S31520003FE0044913400B6100BF0C37BD465DF8047BC6
S31520003FF0704700BF0038024080B483B000AF7860BD
S315200040000B46FB70FB78002B06D00A4B5A690949F0
S315200040107B6813434B6106E0064B5A697B68DB439A
S31520004020044913404B6100BF0C37BD465DF8047B45
S31520004030704700BF0038024080B483B000AF78607C
S315200040400B46FB70FB78002B06D00A4B9A69094970
S315200040507B6813438B6106E0064B9A697B68DB43DA
S31520004060044913408B6100BF0C37BD465DF8047BC5
S31520004070704700BF0038024080B483B000AF78603C
S315200040800B46FB70FB78002B06D00A4B1A6A0949AF
S315200040907B6813430B6206E0064B1A6A7B68DB4398
S315200040A0044913400B6200BF0C37BD465DF8047B04
S315200040B0704700BF0038024080B483B000AF7860FC
S315200040C00B46FB70FB78002B06D00A4B5A6A09492F
S315200040D07B6813434B6206E0064B5A6A7B68DB43D8
S315200040E0044913404B6200BF0C37BD465DF8047B84
S315200040F0704700BF0038024080B483B000AF7860BC
S315200041000B46FB70FB78002B06D00A4B1A6D09492B
S315200041107B6813430B6506E0064B1A6D7B68DB4311
S31520004120044913400B6500BF0C37BD465DF8047B80
S31520004130704700BF0038024080B483B000AF78607B
S315200041400B46FB70FB78002B06D00A4B5A6D0949AB
S315200041507B6813434B6506E0064B5A6D7B68DB4351
S31520004160044913404B6500BF0C37BD465DF8047B00
S31520004170704700BF0038024080B483B000AF78603B
S315200041800B46FB70FB78002B06D00A4B9A6D09492B
S315200041907B6813438B6506E0064B9A6D7B68DB4391
S315200041A0044913408B6500BF0C37BD465DF8047B80
S315200041B0704700BF0038024080B483B000AF7860FB
S315200041C00B46FB70FB78002B06D00A4B1A6E09496A
S315200041D07B6813430B6606E0064B1A6E7B68DB434F
S315200041E0044913400B6600BF0C37BD465DF8047BBF
S315200041F0704700BF0038024080B483B000AF7860BB
S315200042000B46FB70FB78002B06D00A4B5A6E0949E9
S315200042107B6813434B6606E0064B5A6E7B68DB438E
S31520004220044913404B6600BF0C37BD465DF8047B3E
S31520004230704700BF0038024080B483B000AF034609
S315200042400A46FB711346BB71BB79002B08D00C4B79
S315200042501B78DAB20A49FB791343DBB20B7009E00B
S31520004260074B1B78DAB2FB79DB43DBB204491340F8
S31520004270DBB20B7000BF0C37BD465DF8047B704780
S315200042800D38024080B487B000AF0346FB7100238F
S31520004290FB6000237B610023FB74FB795B09DBB2A7
S315200042A0FB60FB68012B03D1124B1B687B6109E085
S315200042B0FB68022B03D10F4B1B6F7B6102E00D4B7A
S315200042C05B6F7B61FB7903F01F03FB607A69FB68F8
S315200042D022FA03F303F00103002B02D00123FB741F
S315200042E001E00023FB74FB7C18461C37BD465DF8B5
S315200042F0047B70470038024080B400AF054B5B6FEB
S31520004300044A43F08073536700BFBD465DF8047BC3
S31520004310704700BF0038024080B485B000AF034626
S31520004320FB710023FB73094BDA68FB791340002BE2
S3152000433002D00123FB7301E00023FB73FB7B1846AD
S315200043401437BD465DF8047B704700BF0038024035
S3152000435080B483B000AF0346FB71044AFB79137027
S3152000436000BF0C37BD465DF8047B70470E3802400F
S3152000437080B483B000AF0346FB71FB7903F01F03C3
S31520004380012202FA03F1064A97F907305B0942F83F
S31520004390231000BF0C37BD465DF8047B704700BF75
S315200043A000E100E080B483B000AF03463960FB71C2
S315200043B097F90730002B0BDA3B68DAB20C49FB7908
S315200043C003F00F03043B1201D2B20B441A7609E024
S315200043D03B68DAB2074997F907301201D2B20B448B
S315200043E083F8002300BF0C37BD465DF8047B704779
S315200043F000ED00E000E100E080B582B000AF78601B
S315200044003960002201210748FDF77DFA0221172095
S31520004410FFF7C8FF1720FFF7ABFF00BF0837BD46E1
S3152000442080BD00BF0004024080B582B000AF786036
S3152000443039607B689B6880211846FDF7F8F90346AA
S3152000444018460837BD4680BD80B582B000AF78607B
S3152000445039607B689B683A68D2B201211846FDF71D
S3152000446052FA00BF0837BD4680BD80B582B000AF86
S31520004470786039607B689B6801211846FDF76AFAE7
S3152000448000BF0837BD4680BD80B584B000AF7860D8
S31520004490396007F108031846FBF7F6FE8023BB6058
S315200044A000233B733B68002B01D0082300E00C233C
S315200044B07B730123BB7307F108031846FBF772FED3
S315200044C000BF1037BD4680BD80B584B002AF78608E
S315200044D039608020FBF72AFF0346012B14D1802068
S315200044E0FBF73EFF7B68DB68002B10D07B68DA6821
S315200044F07B681B69002100910021002001F092FABF
S31520004500054B01221A6002E0044800F04FFE00230A
S3152000451018460837BD4680BD0CAC0020FCA1002003
S3152000452080B582B000AF78607B683B4A934208D161
S3152000453001211020FFF7C0FD00211020FFF7BCFD50
S3152000454065E07B68354A93420AD101214FF4003059
S31520004550FFF792FD00214FF40030FFF78DFD56E066
S315200045607B682F4A93420AD101214FF48020FFF71E
S3152000457083FD00214FF48020FFF77EFD47E07B6816
S31520004580284A93420AD101214FF40020FFF774FDF7
S3152000459000214FF40020FFF76FFD38E07B68224AA8
S315200045A093420AD101214FF48010FFF765FD0021C7
S315200045B04FF48010FFF760FD29E07B681B4A934289
S315200045C008D101212020FFF777FD00212020FFF7C9
S315200045D073FD1CE07B68164A93420AD101214FF0F5
S315200045E08040FFF749FD00214FF08040FFF744FD52
S315200045F00DE07B680F4A934209D101214FF000401C
S31520004600FFF73AFD00214FF00040FFF735FD00BFD0
S315200046100837BD4680BD00BF001001400044004061
S3152000462000480040004C004000500040001401406B
S3152000463000780040007C004080B58AB000AF7860EA
S31520004640396000237B6200233B620023FB61002349
S31520004650BB617B681B8A9BB27B627B6A23F44053D7
S315200046607B623B68DB881A467B6A13437B627B6AE4
S315200046709AB27B681A827B689B899BB27B627B6A33
S3152000468023F4B05323F00C037B623B689A883B6883
S315200046901B8913439AB23B685B8913439BB21A4624
S315200046A07B6A13437B627B6A9AB27B689A817B68BA
S315200046B09B8A9BB27B627B6A23F440737B623B6856
S315200046C09B891A467B6A13437B627B6A9AB27B6814
S315200046D09A8207F108031846FFF718FA7B68304AD2
S315200046E0934203D07B682F4A934202D17B693B6277
S315200046F001E03B693B627B689B899BB21BB2002B26
S315200047000CDA3A6A13469B0013449A001A443B6813
S315200047101B685B00B2FBF3F3FB610BE03A6A1346BE
S315200047209B0013449A001A443B681B689B00B2FB0B
S31520004730F3F3FB61FB691C4AA2FB03235B091B0104
S315200047407B627B6A1B09642202FB03F3FA69D31A94
S31520004750BB617B689B899BB21BB2002B0CDABB69C1
S31520004760DB003233104AA2FB03235B0903F0070365
S315200047707A6A13437B620BE0BB691B0132330A4A18
S31520004780A2FB03235B0903F00F037A6A13437B62C0
S315200047907B6A9AB27B681A8100BF2837BD4680BDE6
S315200047A000100140001401401F85EB5180B483B0F6
S315200047B000AF78607B684FF416521A607B6800223F
S315200047C09A807B680022DA807B6800221A817B68C7
S315200047D00C225A817B6800229A8100BF0C37BD4685
S315200047E05DF8047B704780B485B000AF786039608F
S315200047F00023FB607B681B8A9BB2FB60FB6823F46B
S315200048007063FB603B681A883B685B8813439AB2E7
S315200048103B689B8813439AB23B68DB8813439BB261
S315200048201A46FB681343FB60FB689AB27B681A82C0
S3152000483000BF1437BD465DF8047B704780B483B053
S3152000484000AF78607B6800221A807B6800225A803D
S315200048507B6800229A807B680022DA8000BF0C37B2
S31520004860BD465DF8047B704780B483B000AF7860A6
S315200048700B46FB70FB78002B08D07B689B899BB28C
S3152000488043F400539AB27B689A8107E07B689B8940
S315200048909BB223F400539AB27B689A8100BF0C37EF
S315200048A0BD465DF8047B704780B483B000AF786066
S315200048B00B46FB707B681B8B9BB223F0FF039AB2DF
S315200048C07B681A837B681B8B9AB2FB789BB2134357
S315200048D09AB27B681A8300BF0C37BD465DF8047B0D
S315200048E0704780B483B000AF78600B46FB70FB78CE
S315200048F0002B0AD07B689B899BB26FEA43436FEA01
S3152000490053439AB27B689A8107E07B689B899BB266
S31520004910C3F30E039AB27B689A8100BF0C37BD465B
S315200049205DF8047B704780B483B000AF78600B4697
S31520004930FB70FB78002B08D07B689B8A9BB243F4E4
S3152000494000639AB27B689A8207E07B689B8A9BB257
S3152000495023F400639AB27B689A8200BF0C37BD4667
S315200049605DF8047B704780B483B000AF78600B4657
S315200049707B807B88C3F308039AB27B689A8000BF4A
S315200049800C37BD465DF8047B704780B483B000AF1A
S3152000499078607B689B889BB2C3F308039BB218465A
S315200049A00C37BD465DF8047B704780B483B000AFFA
S315200049B078600B46FB707B681B8A9BB223F00F0343
S315200049C09AB27B681A827B681B8A9AB2FB789BB262
S315200049D013439AB27B681A8200BF0C37BD465DF836
S315200049E0047B704780B483B000AF78600B46FB70C1
S315200049F0FB78002B08D07B689B899BB243F002038F
S31520004A009AB27B689A8107E07B689B899BB223F0E8
S31520004A1002039AB27B689A8100BF0C37BD465DF8C7
S31520004A20047B704780B483B000AF78600B467B80F0
S31520004A307B689B899BB223F400639AB27B689A8138
S31520004A407B689B899AB27B8813439AB27B689A814A
S31520004A5000BF0C37BD465DF8047B704780B483B039
S31520004A6000AF78600B467B807B681B8A9BB223F065
S31520004A7020039AB27B681A827B681B8A9AB27B884B
S31520004A8013439AB27B681A8200BF0C37BD465DF885
S31520004A90047B704780B483B000AF78600B46FB7010
S31520004AA0FB78002B08D07B681B8A9BB243F480439B
S31520004AB09AB27B681A8207E07B681B8A9BB223F432
S31520004AC080439AB27B681A8200BF0C37BD465DF8D8
S31520004AD0047B704780B483B000AF78607B689B8985
S31520004AE09BB243F001039AB27B689A8100BF0C37D0
S31520004AF0BD465DF8047B704780B483B000AF786014
S31520004B000B46FB70FB78002B08D07B689B8A9BB2F8
S31520004B1043F008039AB27B689A8207E07B689B8AF7
S31520004B209BB223F008039AB27B689A8200BF0C37A7
S31520004B30BD465DF8047B704780B483B000AF7860D3
S31520004B400B46FB707B681B8B9BB2DBB29AB27B68F1
S31520004B501A837B681B8B9AB2FB789BB21B029BB293
S31520004B6013439AB27B681A8300BF0C37BD465DF8A3
S31520004B70047B704780B483B000AF78600B46FB702F
S31520004B80FB78002B08D07B689B8A9BB243F02003DE
S31520004B909AB27B689A8207E07B689B8A9BB223F055
S31520004BA020039AB27B689A8200BF0C37BD465DF817
S31520004BB0047B704780B483B000AF78600B46FB70EF
S31520004BC0FB78002B08D07B689B8A9BB243F01003AE
S31520004BD09AB27B689A8207E07B689B8A9BB223F015
S31520004BE010039AB27B689A8200BF0C37BD465DF8E7
S31520004BF0047B704780B483B000AF78600B467B801F
S31520004C007B689B8A9BB223F004039AB27B689A82C4
S31520004C107B689B8A9AB27B8813439AB27B689A8276
S31520004C2000BF0C37BD465DF8047B704780B483B067
S31520004C3000AF78600B46FB70FB78002B08D07B68B2
S31520004C409B8A9BB243F002039AB27B689A8207E062
S31520004C507B689B8A9BB223F002039AB27B689A8276
S31520004C6000BF0C37BD465DF8047B704780B483B027
S31520004C7000AF78600B467B8013467B707B78002BD9
S31520004C8008D07B689B8A9AB27B8813439AB27B684A
S31520004C909A8209E07B689B8A9AB27B88DB439BB227
S31520004CA013409AB27B689A8200BF0C37BD465DF8E6
S31520004CB0047B704780B487B000AF78600B467B805A
S31520004CC013467B7000233B610023FB600023BB60FF
S31520004CD000237B617B687B617B88DBB25B09DBB26F
S31520004CE03B617B8803F01F03FB600122FB6802FA0D
S31520004CF003F3BB603B69012B03D17B690C337B61DA
S31520004D0009E03B69022B03D17B6910337B6102E00A
S31520004D107B6914337B617B78002B06D07B6919680D
S31520004D207B69BA680A431A6006E07B691968BB6822
S31520004D30DA437B690A401A6000BF1C37BD465DF81E
S31520004D40047B704780B485B000AF78600B467B80CB
S31520004D500023FB737B681B889AB27B8813409BB227
S31520004D60002B02D00123FB7301E00023FB73FB7BA6
S31520004D7018461437BD465DF8047B704780B483B06F
S31520004D8000AF78600B467B807B88DB439AB27B68DA
S31520004D901A8000BF0C37BD465DF8047B704780B48F
S31520004DA087B000AF78600B467B800023FB60002332
S31520004DB07B610023BB600023FB747B88DBB25B092D
S31520004DC0DBB2BB607B8803F01F037B6101227B691A
S31520004DD002FA03F37B61BB68012B07D17B689B89B1
S31520004DE09BB21A467B6913407B6111E0BB68022B9C
S31520004DF007D17B681B8A9BB21A467B6913407B616D
S31520004E0006E07B689B8A9BB21A467B6913407B61CE
S31520004E107B881B0A9BB2FB600122FB6802FA03F324
S31520004E20FB607B681B889BB21A46FB681340FB60BD
S31520004E307B69002B05D0FB68002B02D00123FB7475
S31520004E4001E00023FB74FB7C18461C37BD465DF849
S31520004E50047B704780B485B000AF78600B467B80BA
S31520004E600023FB810023BB817B881B0AFB81FB89F6
S31520004E70012202FA03F3BB81BB89DB439AB27B682A
S31520004E801A8000BF1437BD465DF8047B704700BF0B
S31520004E9080B483B000AF0346FB71FB7903F01F0398
S31520004EA0012202FA03F1064A97F907305B0942F814
S31520004EB0231000BF0C37BD465DF8047B704700BF4A
S31520004EC000E100E080B483B000AF03463960FB7197
S31520004ED097F90730002B0BDA3B68DAB20C49FB79DD
S31520004EE003F00F03043B1201D2B20B441A7609E0F9
S31520004EF03B68DAB2074997F907301201D2B20B4460
S31520004F0083F8002300BF0C37BD465DF8047B70474D
S31520004F1000ED00E000E100E080B582B000AF7860EF
S31520004F2039607B6800229A617B689A697B685A613E
S31520004F307B685A697B68DA61012240F225510A486A
S31520004F40FFF7B8FE002240F227710748FFF7B2FEAE
S31520004F5002212520FFF7B6FF2520FFF799FF00BF86
S31520004F600837BD4680BD00BF0010014080B483B025
S31520004F7000AF78600B46FB707B68DB69B3F5806F0A
S31520004F8017DA7B685B697A681344FA7883F82020FD
S31520004F907B685B6901335A42C3F30903C2F30902F2
S31520004FA058BF53427A6853617B68DB695A1C7B6819
S31520004FB0DA6100BF0C37BD465DF8047B704780B5CB
S31520004FC082B000AF786039607B68DB69002B18D12E
S31520004FD07B689B68012240F227711846FFF76AFE1C
S31520004FE00FE03B681B780A2B03D10D217868FFF769
S31520004FF0BDFF3B685A1C3A601B7819467868FFF754
S31520005000B5FF3B681B78002BEBD100BF00BF0837EC
S31520005010BD4680BD80B582B000AF786039607B68C0
S31520005020DB69002B07D17B689B68012240F2277140
S315200050301846FFF73FFE3B68DBB219467868FFF754
S3152000504095FF00BF0837BD4680BD80B586B002AF4C
S31520005050786039607B689B6820211846FFF772FECE
S315200050600346012B18D17B689B681846FFF78DFCF9
S315200050700346FB607B68DB68002B0DD07B68DA6813
S315200050807B681969FB6800930B460021002000F01D
S31520005090C9FC234B01221A607B689B688021184635
S315200050A0FFF750FE0346012B35D17B68DB69002BC9
S315200050B029DD7B6898687B689B697A68134493F836
S315200050C020309BB21946FFF74EFC7B689B69013363
S315200050D05A42C3F30903C2F3090258BF53427A68FE
S315200050E093617B68DB695A1E7B68DA617B68DB69C2
S315200050F0002B10D17B689B68002240F2277118464E
S31520005100FFF7D8FD07E07B689B68002240F22771F5
S315200051101846FFF7CFFD002318461037BD4680BD41
S315200051200CAC002080B483B000AF0346FB71FB7942
S3152000513003F01F03012202FA03F1064A97F907300A
S315200051405B0942F8231000BF0C37BD465DF8047B8F
S31520005150704700BF00E100E080B483B000AF034693
S315200051603960FB7197F90730002B0BDA3B68DAB20E
S315200051700C49FB7903F00F03043B1201D2B20B4416
S315200051801A7609E03B68DAB2074997F90730120127
S31520005190D2B20B4483F8002300BF0C37BD465DF81E
S315200051A0047B704700ED00E000E100E080B582B0AE
S315200051B000AF78600EE07B681B780D2B07D07B68EC
S315200051C05A1C7A601B78184600F060F902E07B686A
S315200051D001337B607B681B78002BECD100BF00BFBE
S315200051E00837BD4680BD80B586B000AF7860002305
S315200051F07B617B6803F00F027B69591C796110493A
S315200052008A5C07F118010B4403F80C2C7B681B09F8
S315200052107B607B68002BECD10AE07B69013B7B61DC
S3152000522007F10C027B6913441B78184600F02EF90F
S315200052307B69002BF1D100BF00BF1837BD4680BD6A
S31520005240F4AA002080B59EB000AF78607B68002B62
S3152000525002DA4FF0FF3300E001233B677B683A6FA9
S3152000526002FB03F37B6000237B6779681C4B83FB7F
S3152000527001239A10CB17D21A13469B0013445B00C6
S31520005280CA1A7B6F591C796716498A5C07F178011F
S315200052900B4403F86C2C7B68114A82FB0312921094
S315200052A0DB17D31A7B607B68002BDED13B6F002B8C
S315200052B00EDA2D2000F0EAF80AE07B6F013B7B67CF
S315200052C007F10C027B6F13441B78184600F0DEF8BA
S315200052D07B6F002BF1D100BF00BF7837BD4680BD64
S315200052E067666666F4AA002080B483B000AF1023F8
S315200052F07B607B6883F3118800BF00BF0C37BD46F7
S315200053005DF8047B704780B483B000AF30237B60A8
S315200053107B6883F3118800BF00BF0C37BD465DF85C
S31520005320047B704780B584B000AF78600B48FFF7E8
S315200053303DFF0B4B1B68002B02D1094B094A1A6013
S31520005340074B1B68FB60064B1A687B681344044AAC
S315200053501360FB6818461037BD4680BD20A200208A
S3152000536070AF0020882F012080B485B000AF786010
S3152000537039603B6803F5F95310337A6813607B680C
S315200053801B68BB600023FB600AE0FB689B001A4693
S31520005390BB6813441A4600231360FB680133FB6085
S315200053A0FB68332BF1DDBB686FF016021A60BB6811
S315200053B004331A4603231360BB6884331A464FF01E
S315200053C08073136000BF1437BD465DF8047B7047B9
S315200053D080B485B000AF786039607B681B68803305
S315200053E0FB60FB683A681A6000BF1437BD465DF85B
S315200053F0047B704780B584B000AF1D4801F01EFBCA
S315200054003B1D184601F066FC40F24733BB803B1D2E
S315200054101946174801F0F2FB164B174A1A6002216B
S315200054206FF00100FFF798FE144B154A1A60002111
S315200054306FF00400FFF790FE124B134A1A60022108
S315200054403220FFF789FE3220FFF76CFE0021084844
S3152000545001F08AFC0121064801F053FD01220221B8
S31520005460034802F022FD00BF1037BD4680BD00BFB5
S31520005470000C004038C00120CD6400202CC0012043
S31520005480C964002008C101201358002080B582B0CD
S3152000549000AF0346FB71FB799BB219460748FFF71D
S315200054A062FA00BF80210548FFF74CFC0346002B1B
S315200054B0F8D000BF00BF0837BD4680BD00100140B0
S315200054C080B500AF124801F06BFC03461A46114B1B
S315200054D01A60114B01221A60104B00221A60104BE1
S315200054E01B68002B06D00E4B1B680E4A1268002143
S315200054F010469847084B00221A60084B1B68002B61
