S01600002E2F44656275672F5254532D4C61622E73313936
S3152000000000BFDFF814D000F0FCF905F0C5FF00F0C2
S315200000100ABAFEE700BF000000C00120314900E017
S315200000203149EFF3088020ED108A7246EFF31183F1
S3152000003020E9FC0F2D4FD7F80080C8F800001EE0FD
S31520000040084602F06FFB2A4802F06CFB294802F0B2
S3152000005069FBD8F8040002F0B1FB274802F062FBE6
S31520000060D8F8000002F07BFB244802F05BFBD8F8AE
S315200000700000006802F073FB1D4802F053FBDFF816
S315200000808080D8F80080C7F8008018E01D4802F06C
S3152000009049FBD8F8040002F091FB1B4802F042FB12
S315200000A0D8F8000002F05BFB144802F03BFBD8F8BE
S315200000B00000006802F053FB0D4802F033FB134AA0
S315200000C0536843F00063536000BFD8F80000B0E8DF
S315200000D0FC0F83F311889646B0EC108A80F30888CB
S315200000E070470000B8BB0020C9BB0020A0BC002080
S315200000F039BC0020EABB002002BC00200ABC00203C
S31520000100FCC2002013BC002028BC002000ED00E02B
S3152000011080B400AF00BFBD465DF8047B704780B554
S3152000012086B000AF454809F079F9454807F094FFB5
S31520000130444807F091FF01214FF0007002F092F839
S3152000014001214FF0806002F08DF80121022002F09B
S3152000015029F809220921394809F082FB09220821B8
S31520000160364809F07DFB07F11003184609F097FA87
S315200001704FF400733B6102233B750023BB750023BC
S31520000180FB7502237B7507F1100319462B4809F0EE
S31520000190F7F94FF480733B6102233B750023BB754F
S315200001A00123FB7502237B7507F1100319462348AB
S315200001B009F0E6F909220621204809F051FB092217
S315200001C005211E4809F04CFB40233B6102233B7569
S315200001D00023BB750023FB7502237B7507F11003F3
S315200001E01946164809F0CCF920233B6102233B75BA
S315200001F00023BB750123FB7502237B7507F11003D2
S3152000020019460E4809F0BCF90023BB720023FB7285
S3152000021001233B7300233B8000237B800023BB808C
S315200002200023FB8000233B8101237B733B4618463A
S3152000023008F007F800BF1837BD4680BD000402400D
S31520000240006400400068004080B586B000AF012100
S315200002504FF0005002F006F807F11003184609F097
S315200002601EFA20233B6103233B750023FB7507F110
S31520000270100319460F4809F083F905F0B7FE3B46EF
S31520000280184605F0F5FE00233B6000237B60002323
S31520000290FB603B461946102005F0B6FE01211020D2
S315200002A005F0FCFE0021082005F0A6FF00BF183748
S315200002B0BD4680BD0000024080B584B000AF01215C
S315200002C04FF4804001F0EEFF0721012009F040FBAA
S315200002D008F09CFF3B46184609F024F880233B6033
S315200002E000233B710C237B710123BB713B461846CF
S315200002F008F0A6FF07F10803184609F0D0F90223F3
S31520000300BB6001233B730123BB730023FB730123D3
S315200003107B7307F108031946184809F031F90123C0
S31520000320BB6001233B730123BB730023FB730123B3
S315200003307B7307F108031946104809F021F90122B9
S3152000034002210E4809F053FA012201210B4809F037
S315200003504EFA8023BB6000233B730023BB7300232C
S31520000360FB7301237B7307F108031946034809F041
S3152000037007F900BF1037BD4680BD00BF000402400C
S3152000038080B483B000AFEFF314833B603B6823F067
S3152000039003037B607B6883F3148800BF094B4FF40B
S315200003A004725A61074B5B69064A43F0080353619E
S315200003B0054B4FF000425A6000BF0C37BD465DF832
S315200003C0047B704700ED00E030EF00E080B500AF21
S315200003D00121082001F046FF0121082002F082F8C1
S315200003E000BF80BD80B400AF124A02E0002342F86D
S315200003F0043B114B9A42F9D300BFBD465DF8047BFE
S31520000400704780B500AFFFF7EDFFFFF781FEFFF7DE
S3152000041086FEFFF719FFFFF74FFFFFF7B1FFFFF744
S31520000420D5FF00BF80BD80B400AF00BFBD465DF8DC
S31520000430047B7047D0C200205846012080B483B088
S3152000044000AF0346FB71FB7903F01F03012202FA7A
S3152000045003F1064A97F907305B0942F8231000BFDB
S315200004600C37BD465DF8047B704700BF00E100E015
S3152000047080B483B000AF03463960FB7197F907302B
S31520000480002B0BDA3B68DAB20C49FB7903F00F0339
S31520000490043B1201D2B20B441A7609E03B68DAB269
S315200004A0074997F907301201D2B20B4483F800238B
S315200004B000BF0C37BD465DF8047B704700ED00E0B9
S315200004C000E100E080B582B000AF786039607B68DB
S315200004D000229A617B689A697B685A617B685A69AF
S315200004E07B68DA61012240F225510A4801F0B8F80A
S315200004F0002240F22771074801F0B2F80221252098
S31520000500FFF7B6FF2520FFF799FF00BF0837BD4646
S3152000051080BD00BF0010014080B483B000AF78607A
S315200005200B46FB707B68DB69B3F5806F17DA7B6857
S315200005305B697A681344FA7883F820207B685B69C4
S3152000054001335A42C3F30903C2F3090258BF534287
S315200005507A6853617B68DB695A1C7B68DA6100BF65
S315200005600C37BD465DF8047B704780B582B000AF7E
S31520000570786039607B68DB69002B18D17B689B68C3
S31520000580012240F22771184601F06AF80FE03B6815
S315200005901B780A2B03D10D217868FFF7BDFF3B6836
S315200005A05A1C3A601B7819467868FFF7B5FF3B68F6
S315200005B01B78002BEBD100BF00BF0837BD4680BD9E
S315200005C080B582B000AF786039607B68DB69002B2C
S315200005D007D17B689B68012240F22771184601F0FB
S315200005E03FF83B68DBB219467868FFF795FF00BFF6
S315200005F00837BD4680BD80B586B002AF78603960C9
S315200006007B689B682021184601F072F80346012B6F
S3152000061018D17B689B68184600F08DFE0346FB6068
S315200006207B68DB68002B0DD07B68DA687B681969EC
S31520000630FB6800930B460021002002F0AFFC234B01
S3152000064001221A607B689B688021184601F050F8C9
S315200006500346012B35D17B68DB69002B29DD7B68BE
S3152000066098687B689B697A68134493F820309BB21C
S31520000670194600F04EFE7B689B6901335A42C3F34C
S315200006800903C2F3090258BF53427A6893617B6813
S31520000690DB695A1E7B68DA617B68DB69002B10D127
S315200006A07B689B68002240F22771184600F0D8FF2D
S315200006B007E07B689B68002240F22771184600F00D
S315200006C0CFFF002318461037BD4680BDDCC2002070
S315200006D080B5A6B002AF786039603A6807F170033A
S315200006E01068516803C31189927A19809A7097F815
S315200006F0703007F10C00544A642109F051FE97F836
S315200007007030772B06D007F10C031A464F49504814
S3152000071002F0E2FC00224F494F4802F0DDFCC7F808
S315200007208C0000224D494C4802F0D6FCC7F88800C0
S3152000073000224B49484802F0CFFCC7F8840000222B
S315200007404849454802F0C8FCC7F8800097F8703041
S315200007503B3B052B74D801A252F823F00F0800204A
S31520000760E9070020C10700209907002087070020FD
S315200007707507002097F871301A467B6802320021EF
S3152000078043F822105CE097F871301A467B680232F3
S31520000790012143F8221053E0D7F88C30072B06D1DD
S315200007A07B68D7F884200232012143F8221097F87B
S315200007B071301A467B680232062143F822103FE048
S315200007C0D7F88C30072B06D17B68D7F884200232E5
S315200007D0012143F8221097F871301A467B680232BD
S315200007E0052143F822102BE0D7F8803001330093FF
S315200007F01D4B194A0021002002F0D0FB0023009354
S315200008001A4B7A680021002002F0C8FB18E007F195
S3152000081070030333184609F08BFDF867FB6F0093CE
S31520000820114B0D4A0021002002F0B8FB97F87130D9
S3152000083000930F4B084A0021002002F0AFFBFFE790
S3152000084000BF9037BD4680BD98AF00206B050020C5
S31520000850C0BD0020453E0020A4BC0020233A002035
S31520000860093A00203D3A0020B53E0020E10C002048
S31520000870D13E002080B59CB004AF7860396000225C
S315200008808249834802F028FC78640023FB65002314
S31520000890BB6500237B6500233B6500227D497C48A0
S315200008A002F01AFC386400227B49794802F014FCD5
S315200008B0F8630023FB643EE07B68FA6C023253F84F
S315200008C0223013F1020F08D1FB6D0133FB657B68E3
S315200008D0FA6C0232072143F822107B68FA6C023246
S315200008E053F82230002B05D1BB6D0133BB653B6D20
S315200008F001333B657B68FA6C023253F82230012BB8
S3152000090005D1BB6D0133BB657B6D01337B653B6CCC
S31520000910052B0DD03B6C062B0AD07B68FA6C023275
S3152000092053F822207968FB6C04339B000B445A60F1
S31520000930FB6C0133FB64FB6C022BBDDD7B683A6DDF
S315200009401A637B687A6DDA62BA6DFB6B9A421BDAA0
S3152000095007F108007B6D02933B6D0193FB6B0093BF
S31520000960BB6D4E4A642109F01BFD07F108031A46A8
S315200009704B494C4802F0B0FB002300934A4B4B4AAC
S315200009800021002002F00AFBBB6D0093484B404A31
S315200009900021002002F002FB3B6D012B07DD002326
S315200009A00093444B3A4A0021002002F0F7FA3B6CB0
S315200009B0072B0AD1BB6D002B07DD002300933E4B8E
S315200009C0334A0021002002F0E9FA3B6D002B36D194
S315200009D0BB6D012B22D13B6C012B1FD17B687A6C1E
S315200009E0023253F82230052B06D07B687A6C02320D
S315200009F053F82230062B08D1002300932D4B244A8E
S31520000A000021002002F0CAFA19E0002300932B4BA4
S31520000A10264A0021002002F0C1FA10E03B6C052B8B
S31520000A200DD03B6C062B0AD03B6C072B07D000233E
S31520000A300093204B164A0021002002F0AFFA002333
S31520000A4000931F4B7A6800211E4802F0A7FA002364
S31520000A50BB6409E07B68BA6C02326FF0010143F88F
S31520000A602210BB6C0133BB64BB6C022BF2DD00226F
S31520000A701549074802F030FB02467B680232396C82
S31520000A8043F8221000BF6037BD4680BD233A0020C0
S31520000A90A4BC0020453E00203D3A0020ACAF0020FB
S31520000AA06B050020C0BD002045590020A0BD0020B8
S31520000AB0B53E00205F3E0020C1420020F9580020AC
S31520000AC07508002080380100093A002080B58AB0D8
S31520000AD002AF78603960002229492A4802F0FCFAE0
S31520000AE0F86100222849274802F0F6FAB8617B68A7
S31520000AF0FA690232B96943F82210FB69DBB27B73CB
S31520000B00BB69072B21D801A252F823F02D0B002018
S31520000B10330B00204B0B00204B0B00204B0B0020EF
S31520000B20450B00203F0B0020390B002040233B7350
S31520000B300BE03F233B7308E03F233B7305E03E2356
S31520000B403B7302E03D233B7300BFBB69052B09D0F5
S31520000B50BB69062B06D007F10C031A460B490C4835
S31520000B6002F0BAFA002300930A4B7A68002146F273
S31520000B70A81002F013FA00BF2037BD4680BD00BF83
S31520000B80093A0020A4BC0020453E00206F460020E4
S31520000B90F4C10020CD0A002080B483B000AF786075
S31520000BA039607B689B6A18460C37BD465DF8047B26
S31520000BB0704780B483B000AF786039607B683A684C
S31520000BC09A6200BF0C37BD465DF8047B704780B43F
S31520000BD085B000AF786039600023FB600BE07B684E
S31520000BE0FA68023253F82230002B01D1012306E0A5
S31520000BF0FB680133FB60FB68022BF0DD00231846FF
S31520000C001437BD465DF8047B704780B586B000AFCB
S31520000C107860396000220A490A4802F05DFA786154
S31520000C207B69DBB27B723E233B7207F108031A46CF
S31520000C300549064802F050FA00BF1837BD4680BD68
S31520000C40093A0020A4BC00206F460020F4C10020F1
S31520000C5080B586B000AF7860396000220A490B481B
S31520000C6002F03AFA78617B69DBB27B723D233B72F4
S31520000C7007F108031A460649064802F02DFA00BF76
S31520000C801837BD4680BD00BF093A0020A4BC00200D
S31520000C906F460020F4C1002080B586B000AF786092
S31520000CA0396000220A490B4802F016FA78617B69FE
S31520000CB0DBB27B723C233B7207F108031A460649D6
S31520000CC0064802F009FA00BF1837BD4680BD00BFAE
S31520000CD0093A0020A4BC00206F460020F4C1002061
S31520000CE080B58AB000AF786039600022184919486B
S31520000CF002F0F2F9786200221749164802F0ECF960
S31520000D0038627B6A002B20D13B6ADBB27B743B23A3
S31520000D103B74002211490F4802F0DEF9F861FB69A5
S31520000D2083EAE372A2EBE37207F10C030C4918463F
S31520000D3009F086FB0123BB743B7BFB7407F1100390
S31520000D401A460849084802F0C7F92837BD4680BD2B
S31520000D50453E0020A4BC0020093A00203D3A002050
S31520000D60ECAF00206F460020F4C1002080B59EB075
S31520000D7002AF7860396007F10803494A64211846B2
S31520000D8009F00EFB07F108031A464649464802F0C9
S31520000D90A3F90023FB6669E007F10800FB6E434ACE
S31520000DA0642109F0FDFA07F108031A463D493E4839
S31520000DB002F092F97A68FB6E04339B0013445B6859
S31520000DC00233092B4ED801A252F823F0570E0020E9
S31520000DD0110E0020F50D0020030E00201F0E00200E
S31520000DE0650E0020650E00202D0E00203B0E0020F3
S31520000DF0490E00202E4B1A462A492B4802F06CF940
S31520000E0031E02C4B1A462749274802F065F92AE09B
S31520000E10294B1A462349244802F05EF923E0274B42
S31520000E201A462049204802F057F91CE0244B1A465E
S31520000E301C491D4802F050F915E0214B1A46194964
S31520000E40194802F049F90EE01D4B1A461549164875
S31520000E5002F042F907E01B4B1A461249124802F0EB
S31520000E603BF900E000BFFB6E0133FB66FB6E022BF5
S31520000E7092DD7B681A6B7B68DB6A07F108000093BA
S31520000E801346114A642109F08BFA07F108031A4622
S31520000E900449054802F020F900BF7037BD4680BDE1
S31520000EA0F0AF00206B050020C0BD002008B0002058
S31520000EB018B0002020B0002028B0002030B000203C
S31520000EC03CB0002048B0002054B0002080B582B04D
S31520000ED000AF78607B683B4A934208D101211020FD
S31520000EE001F080FA0021102001F07CFA65E07B6891
S31520000EF0354A93420AD101214FF4003001F052FACB
S31520000F0000214FF4003001F04DFA56E07B682F4A5D
S31520000F1093420AD101214FF4802001F043FA0021A7
S31520000F204FF4802001F03EFA47E07B68284A93423E
S31520000F300AD101214FF4002001F034FA00214FF4A8
S31520000F40002001F02FFA38E07B68224A93420AD12A
S31520000F5001214FF4801001F025FA00214FF4801072
S31520000F6001F020FA29E07B681B4A934208D101212F
S31520000F70202001F037FA0021202001F033FA1CE06E
S31520000F807B68164A93420AD101214FF0804001F036
S31520000F9009FA00214FF0804001F004FA0DE07B6849
S31520000FA00F4A934209D101214FF0004001F0FAF98E
S31520000FB000214FF0004001F0F5F900BF0837BD468B
S31520000FC080BD00BF001001400044004000480040A2
S31520000FD0004C0040005000400014014000780040C2
S31520000FE0007C004080B58AB000AF7860396000236D
S31520000FF07B6200233B620023FB610023BB617B688D
S315200010001B8A9BB27B627B6A23F440537B623B68DC
S31520001010DB881A467B6A13437B627B6A9AB27B68BB
S315200010201A827B689B899BB27B627B6A23F4B053CE
S3152000103023F00C037B623B689A883B681B89134329
S315200010409AB23B685B8913439BB21A467B6A134369
S315200010507B627B6A9AB27B689A817B689B8A9BB209
S315200010607B627B6A23F440737B623B689B891A46CA
S315200010707B6A13437B627B6A9AB27B689A8207F10A
S315200010800803184600F0D8FE7B68304A934203D006
S315200010907B682F4A934202D17B693B6201E03B6920
S315200010A03B627B689B899BB21BB2002B0CDA3A6AA7
S315200010B013469B0013449A001A443B681B685B0046
S315200010C0B2FBF3F3FB610BE03A6A13469B00134431
S315200010D09A001A443B681B689B00B2FBF3F3FB6142
S315200010E0FB691C4AA2FB03235B091B017B627B6A0B
S315200010F01B09642202FB03F3FA69D31ABB617B68DE
S315200011009B899BB21BB2002B0CDABB69DB00323306
S31520001110104AA2FB03235B0903F007037A6A1343F1
S315200011207B620BE0BB691B0132330A4AA2FB032315
S315200011305B0903F00F037A6A13437B627B6A9AB2D8
S315200011407B681A8100BF2837BD4680BD001001404C
S31520001150001401401F85EB5180B483B000AF786046
S315200011607B684FF416521A607B6800229A807B684F
S315200011700022DA807B6800221A817B680C225A8141
S315200011807B6800229A8100BF0C37BD465DF8047B40
S31520001190704780B485B000AF786039600023FB606B
S315200011A07B681B8A9BB2FB60FB6823F47063FB6041
S315200011B03B681A883B685B8813439AB23B689B88D6
S315200011C013439AB23B68DB8813439BB21A46FB68EB
S315200011D01343FB60FB689AB27B681A8200BF143700
S315200011E0BD465DF8047B704780B483B000AF78605D
S315200011F07B6800221A807B6800225A807B68002246
S315200012009A807B680022DA8000BF0C37BD465DF8E5
S31520001210047B704780B483B000AF78600B46FB70C8
S31520001220FB78002B08D07B689B899BB243F4005344
S315200012309AB27B689A8107E07B689B899BB223F4EC
S3152000124000539AB27B689A8100BF0C37BD465DF881
S31520001250047B704780B483B000AF78600B46FB7088
S315200012607B681B8B9BB223F0FF039AB27B681A83A1
S315200012707B681B8B9AB2FB789BB213439AB27B682E
S315200012801A8300BF0C37BD465DF8047B704780B4D7
S3152000129083B000AF78600B46FB70FB78002B0AD03A
S315200012A07B689B899BB26FEA43436FEA53439AB2AA
S315200012B07B689A8107E07B689B899BB2C3F30E0308
S315200012C09AB27B689A8100BF0C37BD465DF8047BD5
S315200012D0704780B483B000AF78600B46FB70FB7814
S315200012E0002B08D07B689B8A9BB243F400639AB29A
S315200012F07B689A8207E07B689B8A9BB223F4006313
S315200013009AB27B689A8200BF0C37BD465DF8047B93
S31520001310704780B483B000AF78600B467B807B88B3
S31520001320C3F308039AB27B689A8000BF0C37BD4688
S315200013305DF8047B704780B483B000AF78607B682B
S315200013409B889BB2C3F308039BB218460C37BD4655
S315200013505DF8047B704780B483B000AF78600B469D
S31520001360FB707B681B8A9BB223F00F039AB27B68C3
S315200013701A827B681B8A9AB2FB789BB213439AB275
S315200013807B681A8200BF0C37BD465DF8047B704728
S3152000139080B483B000AF78600B46FB70FB78002BDF
S315200013A008D07B689B899BB243F002039AB27B6884
S315200013B09A8107E07B689B899BB223F002039AB24D
S315200013C07B689A8100BF0C37BD465DF8047B704769
S315200013D080B483B000AF78600B467B807B689B89A6
S315200013E09BB223F400639AB27B689A817B689B89BF
S315200013F09AB27B8813439AB27B689A8100BF0C37D6
S31520001400BD465DF8047B704780B483B000AF78603A
S315200014100B467B807B681B8A9BB223F020039AB203
S315200014207B681A827B681B8A9AB27B8813439AB29E
S315200014307B681A8200BF0C37BD465DF8047B704777
S3152000144080B483B000AF78600B46FB70FB78002B2E
S3152000145008D07B681B8A9BB243F480439AB27B6890
S315200014601A8207E07B681B8A9BB223F480439AB2D8
S315200014707B681A8200BF0C37BD465DF8047B704737
S3152000148080B483B000AF78607B689B899BB243F0C1
S3152000149001039AB27B689A8100BF0C37BD465DF87E
S315200014A0047B704780B483B000AF78600B46FB7036
S315200014B0FB78002B08D07B689B8A9BB243F00803FD
S315200014C09AB27B689A8207E07B689B8A9BB223F05C
S315200014D008039AB27B689A8200BF0C37BD465DF836
S315200014E0047B704780B483B000AF78600B46FB70F6
S315200014F07B681B8B9BB2DBB29AB27B681A837B68B4
S315200015001B8B9AB2FB789BB21B029BB213439AB2F7
S315200015107B681A8300BF0C37BD465DF8047B704795
S3152000152080B483B000AF78600B46FB70FB78002B4D
S3152000153008D07B689B8A9BB243F020039AB27B68D3
S315200015409A8207E07B689B8A9BB223F020039AB29B
S315200015507B689A8200BF0C37BD465DF8047B7047D6
S3152000156080B483B000AF78600B46FB70FB78002B0D
S3152000157008D07B689B8A9BB243F010039AB27B68A3
S315200015809A8207E07B689B8A9BB223F010039AB26B
S315200015907B689A8200BF0C37BD465DF8047B704796
S315200015A080B483B000AF78600B467B807B689B8AD3
S315200015B09BB223F004039AB27B689A827B689B8A4B
S315200015C09AB27B8813439AB27B689A8200BF0C3703
S315200015D0BD465DF8047B704780B483B000AF786069
S315200015E00B46FB70FB78002B08D07B689B8A9BB24E
S315200015F043F002039AB27B689A8207E07B689B8A53
S315200016009BB223F002039AB27B689A8200BF0C3702
S31520001610BD465DF8047B704780B483B000AF786028
S315200016200B467B8013467B707B78002B08D07B682B
S315200016309B8A9AB27B8813439AB27B689A8209E086
S315200016407B689B8A9AB27B88DB439BB213409AB213
S315200016507B689A8200BF0C37BD465DF8047B7047D5
S3152000166080B487B000AF78600B467B8013467B70D2
S3152000167000233B610023FB600023BB6000237B61CA
S315200016807B687B617B88DBB25B09DBB23B617B8855
S3152000169003F01F03FB600122FB6802FA03F3BB6021
S315200016A03B69012B03D17B690C337B6109E03B69E4
S315200016B0022B03D17B6910337B6102E07B691433F3
S315200016C07B617B78002B06D07B6919687B69BA68B9
S315200016D00A431A6006E07B691968BB68DA437B69AE
S315200016E00A401A6000BF1C37BD465DF8047B704770
S315200016F080B485B000AF78600B467B800023FB73F7
S315200017007B681B889AB27B8813409BB2002B02D041
S315200017100123FB7301E00023FB73FB7B1846143780
S31520001720BD465DF8047B704780B483B000AF786017
S315200017300B467B807B88DB439AB27B681A8000BF8E
S315200017400C37BD465DF8047B704780B487B000AF88
S3152000175078600B467B800023FB6000237B6100239F
S31520001760BB600023FB747B88DBB25B09DBB2BB600A
S315200017707B8803F01F037B6101227B6902FA03F356
S315200017807B61BB68012B07D17B689B899BB21A467C
S315200017907B6913407B6111E0BB68022B07D17B6814
S315200017A01B8A9BB21A467B6913407B6106E07B68E5
S315200017B09B8A9BB21A467B6913407B617B881B0AF6
S315200017C09BB2FB600122FB6802FA03F3FB607B6895
S315200017D01B889BB21A46FB681340FB607B69002B73
S315200017E005D0FB68002B02D00123FB7401E0002307
S315200017F0FB74FB7C18461C37BD465DF8047B70479E
S3152000180080B485B000AF78600B467B800023FB81D7
S315200018100023BB817B881B0AFB81FB89012202FAFC
S3152000182003F3BB81BB89DB439AB27B681A8000BF76
S315200018301437BD465DF8047B704700BF80B483B083
S3152000184000AF0346FB71FB7903F01F03012202FA66
S3152000185003F1064A97F907305B0942F8231000BFC7
S315200018600C37BD465DF8047B704700BF00E100E001
S3152000187080B483B000AF03463960FB7197F9073017
S31520001880002B0BDA3B68DAB20C49FB7903F00F0325
S31520001890043B1201D2B20B441A7609E03B68DAB255
S315200018A0074997F907301201D2B20B4483F8002377
S315200018B000BF0C37BD465DF8047B704700ED00E0A5
S315200018C000E100E080B582B000AF78603960002288
S315200018D00121074807F08BFF02211720FFF7C8FFD9
S315200018E01720FFF7ABFF00BF0837BD4680BD00BFFE
S315200018F00004024080B582B000AF786039607B6812
S315200019009B688021184607F006FF034618460837CD
S31520001910BD4680BD80B582B000AF786039607B68F7
S315200019209B683A68D2B20121184607F060FF00BFD3
S315200019300837BD4680BD80B582B000AF786039607B
S315200019407B689B680121184607F078FF00BF08379F
S31520001950BD4680BD80B584B000AF7860396007F1A0
S315200019600803184607F0DEFC8023BB6000233B7388
S315200019703B68002B01D0082300E00C237B73012356
S31520001980BB7307F10803184607F05AFC00BF10374F
S31520001990BD4680BD80B584B002AF786039608020B6
S315200019A007F012FD0346012B14D1802007F026FDF7
S315200019B07B68DB68002B10D07B68DA687B681B6944
S315200019C0002100910021002001F0E8FA054B0122B8
S315200019D01A6002E0044800F0A5FE002318460837E6
S315200019E0BD4680BDDCC2002074B0002080B400AFAC
S315200019F0164B1B68154A43F001031360134B002254
S31520001A009A60124B1B68114A23F0A85323F4102323
S31520001A1013600E4B0E4A5A600C4B0E4AC3F88420B4
S31520001A200A4B0D4AC3F88820084B1B68074A23F443
S31520001A3080231360054B0022DA60044B0022C3F892
S31520001A408C2000BFBD465DF8047B704700380240FD
S31520001A5010300024003000200030002480B483B0F1
S31520001A6000AF0346FB71064B00221A70044AFB792D
S31520001A70137000BF0C37BD465DF8047B704700BF6E
S31520001A800238024080B582B000AF00233B600023BD
S31520001A90FB710023BB71312000F08AFD0346BB7128
S31520001AA03B6801333B603B68B3F5A04F02D0BB795E
S31520001AB0002BF0D0312000F07BFD0346002B02D016
S31520001AC00123FB7101E00023FB71FB7918460837DF
S31520001AD0BD4680BD80B485B000AF0346FB710023B0
S31520001AE0FB600A4B1B68FB60FB6823F0F803FB6076
S31520001AF0FB79DB00FA681343FB60044AFB6813603A
S31520001B0000BF1437BD465DF8047B7047003802409D
S31520001B1080B483B000AF0346FB71044AFB7913609F
S31520001B2000BF0C37BD465DF8047B70470000474276
S31520001B3080B483B000AF0346FB710D4B00221A70B0
S31520001B400B4B00221A70FB79012B02D0042B04D0F8
S31520001B5007E0074B01221A7003E0054B05221A7095
S31520001B6000BF00BF0C37BD465DF8047B704700BF41
S31520001B707038024080B483B000AF0346FB71044A3C
S31520001B80FB79136000BF0C37BD465DF8047B7047B8
S31520001B90800E474280B485B000AFF860B9607A60A5
S31520001BA03B607B689A01BB681A433B685B08013B34
S31520001BB01B041A43FB681A43BB691B0604491343DB
S31520001BC04B6000BF1437BD465DF8047B704700BFED
S31520001BD00038024080B483B000AF0346FB71044A4C
S31520001BE0FB79136000BF0C37BD465DF8047B704758
S31520001BF06000474280B483B000AF786039607B686C
S31520001C009A013B681B0705491343C1F8843000BF7E
S31520001C100C37BD465DF8047B704700BF0038024094
S31520001C2080B483B000AF0346FB71044AFB7913608E
S31520001C3000BF0C37BD465DF8047B704768004742FD
S31520001C4080B485B000AFF860B9607A60FB689A010D
S31520001C50BB681B061A437B681B0705491343C1F85B
S31520001C60883000BF1437BD465DF8047B704700BF3F
S31520001C700038024080B483B000AF0346FB71044AAB
S31520001C80FB79136000BF0C37BD465DF8047B7047B7
S31520001C907000474280B483B000AF0346FB71044A0C
S31520001CA0FB79136000BF0C37BD465DF8047B704797
S31520001CB04C00474280B485B000AF7860396000237D
S31520001CC0FB600B4B9B68FB60FB6823F0EC63FB60BF
S31520001CD07A683B681343FA681343FB60044AFB683F
S31520001CE0936000BF1437BD465DF8047B704700BF84
S31520001CF00038024080B485B000AF78603960002398
S31520001D00FB600B4B9B68FB60FB6823F07843FB6012
S31520001D107A683B681343FA681343FB60044AFB68FE
S31520001D20936000BF1437BD465DF8047B704700BF43
S31520001D300038024080B485B000AF78600023FB6095
S31520001D40094B9B68FB60FB6823F00303FB60FA6882
S31520001D507B681343FB60044AFB68936000BF14371B
S31520001D60BD465DF8047B70470038024080B400AF62
S31520001D70054B9B68DBB203F00C03DBB21846BD466D
S31520001D805DF8047B704700BF0038024080B485B000
S31520001D9000AF78600023FB60094B9B68FB60FB6803
S31520001DA023F0F003FB60FA687B681343FB60044A68
S31520001DB0FB68936000BF1437BD465DF8047B70470F
S31520001DC00038024080B485B000AF78600023FB6005
S31520001DD0094B9B68FB60FB6823F4E053FB60FA68C1
S31520001DE07B681343FB60044AFB68936000BF14378B
S31520001DF0BD465DF8047B70470038024080B485B04C
S31520001E0000AF78600023FB600A4B9B68FB60FB6891
S31520001E1023F46043FB607B68DB00FA681343FB60B6
S31520001E20044AFB68936000BF1437BD465DF8047B07
S31520001E30704700BF0038024080B489B000AF786098
S31520001E400023BB6100237B610023FB6102233B61EE
S31520001E500023FB600223BB604A4B9B6803F00C0304
S31520001E60BB61BB69082B11D0BB69082B44D8BB6961
S31520001E70002B03D0BB69042B04D03DE07B68424A8B
S31520001E801A603DE07B68414A1A6039E03D4B5B6849
S31520001E909B0D03F00103FB603A4B5B6803F03F03A5
S31520001EA0BB60FB68002B0CD0384ABB68B2FBF3F34F
S31520001EB0344A52689209C2F3080202FB03F3FB611B
S31520001EC00BE0314ABB68B2FBF3F32E4A5268920903
S31520001ED0C2F3080202FB03F3FB612A4B5B681B0C6F
S31520001EE003F0030301335B003B61FA693B69B2FBF4
S31520001EF0F3F27B681A6003E07B68234A1A6000BF0E
S31520001F00204B9B6803F0F003BB61BB691B09BB61D7
S31520001F101F4ABB6913441B78DBB27B617B681A6856
S31520001F207B69DA407B685A60164B9B6803F4E05362
S31520001F30BB61BB699B0ABB61154ABB6913441B780D
S31520001F40DBB27B617B685A687B69DA407B689A6082
S31520001F500C4B9B6803F46043BB61BB695B0BBB61A5
S31520001F600B4ABB6913441B78DBB27B617B685A68DA
S31520001F707B69DA407B68DA6000BF2437BD465DF8AE
S31520001F80047B7047003802400024F40000127A00D7
S31520001F9070BC002080B485B000AF78600023FB6061
S31520001FA07B6803F44073B3F5407F11D10F4B9B68D8
S31520001FB0FB60FB6823F4F813FB607B6823F0704317
S31520001FC023F44073FA681343FB60084AFB68936066
S31520001FD0064B1A6F7B68C3F30B03044913430B6745
S31520001FE000BF1437BD465DF8047B704700380240B9
S31520001FF080B483B000AF0346FB71044AFB791360BB
S3152000200000BF0C37BD465DF8047B70473C0E474247
S3152000201080B483B000AF0346FB71044AFB7913609A
S3152000202000BF0C37BD465DF8047B7047400E474223
S3152000203080B483B000AF7860044A7B68136000BF29
S315200020400C37BD465DF8047B704700BF5C014742F4
S3152000205080B485B000AF78600023FB600B4BD3F8CB
S315200020608C30FB60FB6823F01F03FB607B68013B21
S31520002070FA681343FB60054AFB68C2F88C3000BF40
S315200020801437BD465DF8047B704700BF0038024018
S3152000209080B485B000AF78600023FB600B4BD3F88B
S315200020A08C30FB60FB6823F4F853FB607B68013BB4
S315200020B01B02FA681343FB60044AFB68C2F88C30A3
S315200020C000BF1437BD465DF8047B704700380240D8
S315200020D080B485B000AF78600023FB600A4BD3F84C
S315200020E08C30FB60FB6823F44013FB60FA687B6846
S315200020F01343FB60044AFB68C2F88C3000BF1437D8
S31520002100BD465DF8047B70470038024080B485B038
S3152000211000AF78600023FB600A4BD3F88C30FB605D
S31520002120FB6823F44003FB60FA687B681343FB607B
S31520002130044AFB68C2F88C3000BF1437BD465DF8F0
S31520002140047B70470038024080B485B000AF7860C9
S315200021500023FB600A4BD3F88C30FB60FB6823F42A
S315200021604033FB60FA687B681343FB60044AFB68D4
S31520002170C2F88C3000BF1437BD465DF8047B70472B
S315200021800038024080B483B000AF7860044A7B6890
S31520002190136000BF0C37BD465DF8047B704700BF57
S315200021A0E011474280B483B000AF78600B46FB70E5
S315200021B0FB78002B06D00A4B1A6B09497B68134320
S315200021C00B6306E0064B1A6B7B68DB43044913401E
S315200021D00B6300BF0C37BD465DF8047B704700BF1C
S315200021E00038024080B483B000AF78600B46FB70A5
S315200021F0FB78002B06D00A4B5A6B09497B681343A0
S315200022004B6306E0064B5A6B7B68DB43044913405D
S315200022104B6300BF0C37BD465DF8047B704700BF9B
S315200022200038024080B483B000AF78600B46FB7064
S31520002230FB78002B06D00A4B9A6B09497B6813431F
S315200022408B6306E0064B9A6B7B68DB43044913409D
S315200022508B6300BF0C37BD465DF8047B704700BF1B
S315200022600038024080B483B000AF78600B46FB7024
S31520002270FB78002B06D00A4B1A6C09497B6813435E
S315200022800B6406E0064B1A6C7B68DB43044913405B
S315200022900B6400BF0C37BD465DF8047B704700BF5A
S315200022A00038024080B483B000AF78600B46FB70E4
S315200022B0FB78002B06D00A4B5A6C09497B681343DE
S315200022C04B6406E0064B5A6C7B68DB43044913409B
S315200022D04B6400BF0C37BD465DF8047B704700BFDA
S315200022E00038024080B483B000AF78600B46FB70A4
S315200022F0FB78002B06D00A4B1A6909497B681343E1
S315200023000B6106E0064B1A697B68DB4304491340E0
S315200023100B6100BF0C37BD465DF8047B704700BFDC
S315200023200038024080B483B000AF78600B46FB7063
S31520002330FB78002B06D00A4B5A6909497B68134360
S315200023404B6106E0064B5A697B68DB430449134020
S315200023504B6100BF0C37BD465DF8047B704700BF5C
S315200023600038024080B483B000AF78600B46FB7023
S31520002370FB78002B06D00A4B9A6909497B681343E0
S315200023808B6106E0064B9A697B68DB430449134060
S315200023908B6100BF0C37BD465DF8047B704700BFDC
S315200023A00038024080B483B000AF78600B46FB70E3
S315200023B0FB78002B06D00A4B1A6A09497B6813431F
S315200023C00B6206E0064B1A6A7B68DB43044913401E
S315200023D00B6200BF0C37BD465DF8047B704700BF1B
S315200023E00038024080B483B000AF78600B46FB70A3
S315200023F0FB78002B06D00A4B5A6A09497B6813439F
S315200024004B6206E0064B5A6A7B68DB43044913405D
S315200024104B6200BF0C37BD465DF8047B704700BF9A
S315200024200038024080B483B000AF78600B46FB7062
S31520002430FB78002B06D00A4B1A6D09497B6813439B
S315200024400B6506E0064B1A6D7B68DB430449134097
S315200024500B6500BF0C37BD465DF8047B704700BF97
S315200024600038024080B483B000AF78600B46FB7022
S31520002470FB78002B06D00A4B5A6D09497B6813431B
S315200024804B6506E0064B5A6D7B68DB4304491340D7
S315200024904B6500BF0C37BD465DF8047B704700BF17
S315200024A00038024080B483B000AF78600B46FB70E2
S315200024B0FB78002B06D00A4B9A6D09497B6813439B
S315200024C08B6506E0064B9A6D7B68DB430449134017
S315200024D08B6500BF0C37BD465DF8047B704700BF97
S315200024E00038024080B483B000AF78600B46FB70A2
S315200024F0FB78002B06D00A4B1A6E09497B681343DA
S315200025000B6606E0064B1A6E7B68DB4304491340D4
S315200025100B6600BF0C37BD465DF8047B704700BFD5
S315200025200038024080B483B000AF78600B46FB7061
S31520002530FB78002B06D00A4B5A6E09497B68134359
S315200025404B6606E0064B5A6E7B68DB430449134014
S315200025504B6600BF0C37BD465DF8047B704700BF55
S315200025600038024080B483B000AF03460A46FB71B0
S315200025701346BB71BB79002B08D00C4B1B78DAB203
S315200025800A49FB791343DBB20B7009E0074B1B7832
S31520002590DAB2FB79DB43DBB204491340DBB20B70C2
S315200025A000BF0C37BD465DF8047B70470D380240EE
S315200025B080B487B000AF0346FB710023FB60002385
S315200025C07B610023FB74FB795B09DBB2FB60FB6854
S315200025D0012B03D1124B1B687B6109E0FB68022BA0
S315200025E003D10F4B1B6F7B6102E00D4B5B6F7B6151
S315200025F0FB7903F01F03FB607A69FB6822FA03F379
S3152000260003F00103002B02D00123FB7401E0002319
S31520002610FB74FB7C18461C37BD465DF8047B70476F
S315200026200038024080B400AF054B5B6F044A43F08C
S315200026308073536700BFBD465DF8047B704700BFBB
S315200026400038024080B485B000AF0346FB710023FA
S31520002650FB73094BDA68FB791340002B02D0012368
S31520002660FB7301E00023FB73FB7B18461437BD4642
S315200026705DF8047B704700BF0038024080B483B009
S3152000268000AF0346FB71044AFB79137000BF0C3779
S31520002690BD465DF8047B70470E38024080B483B097
S315200026A000AF0346FB71FB7903F01F03012202FAF8
S315200026B003F1064A97F907305B0942F8231000BF59
S315200026C00C37BD465DF8047B704700BF00E100E093
S315200026D080B483B000AF03463960FB7197F90730A9
S315200026E0002B0BDA3B68DAB20C49FB7903F00F03B7
S315200026F0043B1201D2B20B441A7609E03B68DAB2E7
S31520002700074997F907301201D2B20B4483F8002308
S3152000271000BF0C37BD465DF8047B704700ED00E036
S3152000272000E100E080B582B000AF78600EE07B6803
S315200027301B780D2B07D07B685A1C7A601B781846AD
S3152000274000F060F902E07B6801337B607B681B78D0
S31520002750002BECD100BF00BF0837BD4680BD80B539
S3152000276086B000AF786000237B617B6803F00F02A0
S315200027707B69591C796110498A5C07F118010B4461
S3152000278003F80C2C7B681B097B607B68002BECD143
S315200027900AE07B69013B7B6107F10C027B691344EC
S315200027A01B78184600F02EF97B69002BF1D100BF6B
S315200027B000BF1837BD4680BD80BC002080B59EB0C6
S315200027C000AF78607B68002B02DA4FF0FF3300E021
S315200027D001233B677B683A6F02FB03F37B60002390
S315200027E07B6779681C4B83FB01239A10CB17D21A7F
S315200027F013469B0013445B00CA1A7B6F591C7967EA
S3152000280016498A5C07F178010B4403F86C2C7B6827
S31520002810114A82FB03129210DB17D31A7B607B6866
S31520002820002BDED13B6F002B0EDA2D2000F0EAF8CC
S315200028300AE07B6F013B7B6707F10C027B6F134439
S315200028401B78184600F0DEF87B6F002BF1D100BF15
S3152000285000BF7837BD4680BD6766666680BC0020AF
S3152000286080B483B000AF10237B607B6883F311882C
S3152000287000BF00BF0C37BD465DF8047B704780B4AF
S3152000288083B000AF30237B607B6883F3118800BF61
S3152000289000BF0C37BD465DF8047B704780B584B019
S315200028A000AF78600B48FFF73DFF0B4B1B68002BF2
S315200028B002D1094B094A1A60074B1B68FB60064B7D
S315200028C01A687B681344044A1360FB68184610375D
S315200028D0BD4680BD98B0002040C600205846012045
S315200028E080B485B000AF786039603B6803F5F95352
S315200028F010337A6813607B681B68BB600023FB601B
S315200029000AE0FB689B001A46BB6813441A4600235C
S315200029101360FB680133FB60FB68332BF1DDBB687A
S315200029206FF016021A60BB6804331A46032313603D
S31520002930BB6884331A464FF08073136000BF143788
S31520002940BD465DF8047B704780B485B000AF7860E3
S3152000295039607B681B688033FB60FB683A681A60C5
S3152000296000BF1437BD465DF8047B704780B584B040
S3152000297000AF1D4803F062FD3B1D184603F0AAFE7A
S3152000298040F24733BB803B1D1946174803F036FEFD
S31520002990164B174A1A6002216FF00100FFF798FEC6
S315200029A0144B154A1A6000216FF00400FFF790FEC1
S315200029B0124B134A1A6002213220FFF789FE322079
S315200029C0FFF76CFE0021084803F0CEFE01210648E1
S315200029D003F097FF01220221034804F066FF00BF9F
S315200029E01037BD4680BD00BF000C004038C0012016
S315200029F0210000202CC001201D00002008C101203C
S31520002A008B2D002080B582B000AF0346FB71FB7989
S31520002A109BB219460748FEF77CFC00BF802105487B
S31520002A20FEF766FE0346002BF8D000BF00BF08372E
S31520002A30BD4680BD0010014080B500AF124803F0AE
S31520002A40AFFE03461A46114B1A60114B01221A603B
S31520002A50104B00221A60104B1B68002B06D00E4B21
S31520002A601B680E4A1268002110469847084B002220
S31520002A701A60084B1B68002B01D000F05DFA054B4D
S31520002A8000221A6000BF80BD000C0040E0C200207A
S31520002A90D8C20020DCC2002050C30020F0C2002093
S31520002AA080B500AF124803F07BFE03461A46114B51
S31520002AB01A60114B01221A60104B00221A60104B2B
S31520002AC05B68002B06D00E4B5B680E4A52680121CC
S31520002AD010469847084B00221A60084B1B68002BAB
S31520002AE001D000F029FA054B00221A6000BF80BDF4
S31520002AF0000C0040E0C20020D8C20020DCC200202A
S31520002B0050C30020F0C2002080B500AF124803F069
S31520002B1047FE03461A46114B1A60114B01221A60D2
S31520002B20104B00221A60104B9B68002B06D00E4BD0
S31520002B309B680E4A9268022110469847084B00224D
S31520002B401A60084B1B68002B01D000F0F5F9054BE5
S31520002B5000221A6000BF80BD000C0040E0C20020A9
S31520002B60D8C20020DCC2002050C30020F0C20020C2
S31520002B7080B485B000AF786039600023FB603B6885
S31520002B801B68BB6004E0BB68FB60BB681B68BB605E
S31520002B90BB68002B05D0BB689A687B689B689A4205
S31520002BA0F1DD7B68BA681A60FB68002B03D13B68AD
S31520002BB07A681A6002E0FB687A681A6000BF1437E8
S31520002BC0BD465DF8047B704780B485B000AF786061
S31520002BD039600023FB603B681B68BB6004E0BB6870
S31520002BE0FB60BB681B68BB60BB68002B05D0BB685D
S31520002BF05A687B685B689A42F1DD7B68BA681A601E
S31520002C00FB68002B03D13B687A681A6002E0FB68F8
S31520002C107A681A6000BF1437BD465DF8047B70479A
S31520002C2080B584B000AF78607B681B68FB60FB686A
S31520002C30002B04D0FB681A687B681A600CE00948F0
S31520002C40FFF770FD00220221074806F0D0FD074855
S31520002C50FFF768FD30BFFDE7FB6818461037BD4615
S31520002C6080BD00BFB0B0002000040240BCB00020F0
S31520002C7080B584B000AF78607B681B68FB60FB681A
S31520002C80002B04D0FB681A687B681A600CE00948A0
S31520002C90FFF748FD00220221074806F0A8FD074855
S31520002CA0FFF740FD30BFFDE7FB6818461037BD46ED
S31520002CB080BD00BFB0B0002000040240C8B0002094
S31520002CC080B483B000AF786039603B681A687B684F
S31520002CD01A603B687A681A6000BF0C37BD465DF8FB
S31520002CE0047B704780B483B000AF786039603B685E
S31520002CF01A687B689A603B687A681A6000BF0C374E
S31520002D00BD465DF8047B704780B485B000AF78601F
S31520002D107B681B68FB60FB689A687B681A60FB68A7
S31520002D2018461437BD465DF8047B704780B485B0DD
S31520002D3000AF786039600023FB603B681B68BB608E
S31520002D4004E0BB68FB60BB681B68BB60BB68002BEC
S31520002D5003D0BA687B689A42F3D1BB68002B0DD0AA
S31520002D60FB68002B04D0BB681A68FB681A6003E076
S31520002D70BB681A683B681A60012300E000231846E6
S31520002D801437BD465DF8047B704780B582B000AF2E
S31520002D9002211E4804F013FE1C4803F001FD0346E1
S31520002DA07B6007E01A48FFF73BFF034619491846A0
S31520002DB0FFF7DEFE164B1B68002B06D0144B1B6854
S31520002DC05A687B68D31A002BECDD114B1B68002B4D
S31520002DD016D00E4803F0E4FC03463B600C4B1B6800
S31520002DE05B683A689A4204DD002202210A4806F00E
S31520002DF0FEFC074B1B685B681946044804F00FF875
S31520002E0000F09AF800BF0837BD4680BD000C004090
S31520002E10D4C20020D0C20020000402400346024A49
S31520002E20136010DFF74600BFFCC200200346054AA8
S31520002E301360054B5B68044A43F080535360F746A2
S31520002E4000BF00BFFCC2002000ED00E080B582B0CC
S31520002E5000AF7860094B5B68C3F30803002B03D1EE
S31520002E607868FFF7DBFF02E07868FFF7DFFFFFF700
S31520002E7006FD00BF0837BD4680BD00BF00ED00E05F
S31520002E8090B585B000AF234B1C682348FFF7C8FEDA
S31520002E900346E360E368BB60FFF7F1FCBB68D868D4
S31520002EA0BB681969BB685B691A4600F015F9FFF71C
S31520002EB0D7FC1A49B868FFF703FF194B1B689B68B4
S31520002EC0DB687B60144B1B68002B0AD07B68002BC9
S31520002ED0D9D0114B1B689A687B689B68D31A002B44
S31520002EE0D1DD0F48FFF710FF03460E491846FFF7BE
S31520002EF0F9FE0B4B1B68FB6003E0FB681B691B6834
S31520002F00FB60FB681B69002BF7D1F868FFF79EFF73
S31520002F10B9E700BFA0BC0020D0C2002094BC00208E
S31520002F209CBC002098BC002080B500AF00F004F8BF
S31520002F30FFF7A5FC30BFFBE780B582B000AF144B8E
S31520002F401B68DB687B60134B1B68002B1BD0124B66
S31520002F501B68002B17D07B68002B07D00D4B1B68F6
S31520002F609A687B689B68D31A002B0CDA0A48FFF70D
S31520002F70CBFE034606491846FFF7B4FE044B1B68F2
S31520002F801846FFF763FF00BF0837BD4680BD00BF68
S31520002F909CBC0020D0C2002098BC002080B588B000
S31520002FA000AFF860B9607A603B60EFF312833B6153
S31520002FB03B691B09012B14BF01230023DBB2FB77DE
S31520002FC0FFF74EFC3A48FFF753FEB861BB697A68B3
S31520002FD0DA60BB693A681A61BB69BA6A5A61354BCD
S31520002FE01B68002B04D1344B1B68DB685B6801E04F
S31520002FF0324B1B68FA681A44BB695A60BB695A6827
S31520003000BB68002B01DDBB6801E06FF000431A446A
S31520003010BB699A602A4803F0C3FB03467B61BB6900
S315200030205A687B69D31A002B16DD2649B869FFF743
S31520003030CBFD244B1B685B687A699A4204DD00222B
S315200030400221214806F0D3FB1E4B1B685B681946FC
S315200030501B4803F0E4FE21E01C49B869FFF788FD10
S31520003060FB7F002B1AD01A4B1B68002B16D0174B50
S315200030701B689A68174B1B68DB689B68D31A002B62
S315200030800CDA1348FFF740FE034612491846FFF7AD
S3152000309029FE104B1B681846FFF7D8FEFB7F002B36
S315200030A001D0FFF7ECFBBB6918462037BD4680BD33
S315200030B094BC0020D8C20020A0BC0020E0C2002082
S315200030C0000C0040D4C2002000040240D0C20020E0
S315200030D098BC00209CBC002080B588B000AFF8606A
S315200030E0B9607A60EFF312833B613B691B09012BC0
S315200030F014BF01230023DBB2FB76FFF7B1FBFB688D
S315200031001B68FB61FB69002B37D003E0FB691B6959
S315200031101B68FB61FB691B69002BF7D1304B1B68D1
S31520003120FA699A4202D0FB7E002B07D1FB7E002B48
S3152000313001D0FFF7A4FB4FF0FF334DE0FB685B683F
S31520003140002B03D0FB685B6800221A61244B1A68A7
S31520003150FB685A60224B1B68FA681A61F869FFF708
S3152000316075FE1F4B1B68DB68002B06D1FB7E002BF0
S3152000317001D0FFF784FB00232EE0194B1A68FB6869
S315200031801A60FB7E002B05D0FB685B68012B01D003
S31520003190FFF775FBBB687968F86898477861FFF791
S315200031A05FFBFB6800221A60FB685B68FB61FB69BA
S315200031B0002B0BD0FB69012B08D0FB6800225A603C
S315200031C0FB6900221A61F869FFF740FEFB7E002B9F
S315200031D001D0FFF754FB7B6918462037BD4680BDDA
S315200031E0A0BC002080B586B000AF7860EFF31283D4
S315200031F0FB60FB681B09012B14BF01230023DBB2F4
S31520003200FB74FFF72DFB1F497868FFF78FFD0346F8
S31520003210002B06D11C497868FFF788FD0346002B52
S3152000322004D01A497868FFF74BFD21E0184B1B683C
S315200032307B611AE0174B1B687A699A4212D07B6928
S31520003240DB687A689A420DD17B691A697B68DB68EC
S315200032509A4207D17B690022DA600C497868FFF729
S315200032602FFD05E07B699B687B617B69002BE1D1A3
S31520003270FB7C002B01D0FFF702FB00BF1837BD46B1
S3152000328080BD00BFD4C20020D0C2002094BC002044
S315200032909CBC0020A0BC002080B485B000AF786024
S315200032A0EFF31283FB60FB681B09012B04D0074B4D
S315200032B01B68DB685B6801E0054B1B687A68136056
S315200032C000BF1437BD465DF8047B7047A0BC0020C4
S315200032D0E0C2002080B485B000AF7860EFF312839F
S315200032E0FB60FB681B09012B04D0084B1B68DB68BD
S315200032F05B6801E0064B1B687A6812689B1A1846C1
S315200033001437BD465DF8047B704700BFA0BC002083
S31520003310E0C2002080B584B000AFEFF312837B605B
S315200033207B681B09012B14BF01230023DBB2FB732F
S31520003330FFF796FA0C4803F033FA0346BB60FB7B93
S31520003340002B01D0FFF79BFAFB7B002B04D0074B09
S315200033501B68DB685B6801E0054B1B68BA68D31AFB
S3152000336018461037BD4680BD000C0040A0BC00208A
S31520003370E0C2002080B582B000AF00237B6012E05F
S315200033807B685A1C13465B001344DB00444A991899
S3152000339043487A6813465B001344DB0003441960F4
S315200033A07B6801337B607B681C2BE9DD3C4B00226C
S315200033B0C3F8B82200237B6013E07B685A1C1346AF
S315200033C09B0013449B00374A991836487A6813465F
S315200033D09B0013449B000344083319607B68013328
S315200033E07B607B68022BE8DD2E4B00225A6400238B
S315200033F07B6030E02B497A6813469B0013449B0080
S315200034000B4404337A681A607A6813469B00134487
S315200034109B00244A1A447B685B0323490B441946C4
S315200034201046FFF75DFA7A6813469B0013449B000B
S315200034301C4A13441D491846FFF786FA19497A682B
S3152000344013469B0013449B000B44103300221A6042
S315200034507B6801337B607B68032BCBDD144B4FF0FD
S31520003460FF325A60124B00229A60114B00221A61D9
S315200034700F4B0022DA600F48FFF754F90E48FFF78A
S3152000348051F90E48FFF74EF90A48FFF74BF909485C
S31520003490FFF748F9FFF76AFA00BF0837BD4680BD37
S315200034A070C3002000C3002048C60020812E0020C3
S315200034B05CC30020D4B00020D8B00020E4B00020A7
S315200034C080B586B000AFF860B9601346FB71FB7912
S315200034D0022B41D8EFF312833B613B691B09012B79
S315200034E014BF01230023DBB2FB75FFF7B9F9FB7983
S315200034F0022B0ED0022B10DC002B02D0012B04D085
S315200035000BE0174B174A1A6014E0174B174A1A603C
S3152000351010E0174B174A1A600CE01748FFF702F91C
S3152000352000220221154806F062F91548FFF7FAF83D
S3152000353030BFFDE7FB791349FA6841F82320FB7970
S315200035401149BA6841F82320FB6801225A60FB7DA5
S31520003550002B01D0FFF793F900BF1837BD4680BD79
S31520003560D4C00120392A002090C00120A12A0020A1
S315200035709CC00120092B0020B0B00020000402408E
S31520003580FCB00020F0C2002050C3002080B586B0D9
S3152000359002AFF860B9607A60FFF762F9FFF7EAFEDA
S315200035A0BB68002B16D00F4803F0FAF803461A46DC
S315200035B00D4B1A600D4B01221A607B680093BB6885
S315200035C0FA6800210020FFF7E9FC084B00221A6068
S315200035D0FFF7B2FCFFF7A8FC002318461037BD46BC
S315200035E080BD00BF000C0040E0C20020D8C20020F1
S315200035F080B5ACB002AF786039603A6807F17003E5
S315200036001068516803C31189927A19809A7097F8C5
S315200036107030772B0ED097F8703007F10C00784A6F
S31520003620642106F0BDFE07F10C031A46754976485B
S31520003630FFF752FD7B685B690133052B00F2B981E8
S3152000364001A252F823F000BF61360020293700205E
S315200036505337002081390020B3390020A1390020BA
S3152000366097F870307E2B49D07E2B00F39B817A2BE6
S3152000367002D07B2B13D095E1644B1A4661496248F0
S31520003680FFF72AFD97F871301A467B68DB689A4265
S3152000369046D07B689B685A1C7B689A6040E07B68B2
S315200036A001225A6197F871301A467B681A617B6845
S315200036B0DB69002B1AD17B68DB695A1C7B68DA61CF
S315200036C000230093524B534A00210020FFF766FC4B
S315200036D000230093504B4F4A00215048FFF75EFCD1
S315200036E04F4B1A4647494848FFF7F6FC00230093FC
S315200036F04C4B4D4A00210020FFF750FC4B4B1A46FD
S3152000370040494148FFF7E8FC97F87330FB677B6830
S315200037109B68FA6F9A4205DD7B68FA6F9A6001E032
S3152000372000BF3FE100BF3DE197F870307B2B40F0B2
S315200037303B817B6801225A6197F871301A467B6873
S315200037401A613B4B1A462F492F48FFF7C5FC00BF8D
S315200037502AE197F87030772B40F0288197F873305C
S31520003760C7F8A03007F10C03D7F8A0203149184636
S3152000377006F066FE07F10C031A4622492248FFF797
S31520003780ABFC012300932C4B274A00210020FFF796
S3152000379005FC0023C7F8A4307B689B68C7F89C30DB
S315200037A07B68DB68C7F89830D7F8A030002B03F089
S315200037B00103B8BF5B42012B03D1D7F89C30022B03
S315200037C012D0D7F89C30032B3ED1D7F8A0101B4B34
S315200037D083FB0132CB17D21A13465B001344CA1A55
S315200037E0D7F8983093422FD10123C7F8A43001236C
S315200037F00093134B134A00210020FFF7CFFB2EE046
S315200038001CB100206B050020C0BD002030B1002077
S31520003810CD0A00203CBC002075080020803801001D
S3152000382068B1002011520020A0BD00207CB10020EC
S31520003830B4B10020C8B10020F9580020565555557E
S31520003840FD50002078BD00200023C7F8A4300023B7
S3152000385000935A4B5A4A00210020FFF79FFB002273
S3152000386058495948FFF738FCC7F89400D7F89430E0
S315200038700A33C7F89030554AD7F8A03052F823209B
S31520003880D7F890301344524A9B001344D3ED007A64
S315200038909FED507A67EE877AFDEEE77A17EE903A3B
S315200038A0C7F88C30D7F88C204B494548FFF714FCD5
S315200038B0D7F8A430012B61D1484AD7F8A03052F866
S315200038C02330C7F88830002245493F48FFF704FCDB
S315200038D0C7F88400D7F8843007EE903AB8EEE77A36
S315200038E0DFED406AC6EE877AC7ED207A0023009383
S315200038F03D4B334A00210020FFF750FB0023009365
S315200039003A4B2F4A00210020FFF748FB07F10C0015
S31520003910D7F8A4300193D7F888300093D7F88C30A5
S31520003920D7F8A020324906F08BFD07F10C031A4682
S3152000393030493148FFF7D0FBD7F888304FF4FA7278
S3152000394002FB03F307EE903AB8EEE77AD7ED207A3A
S3152000395067EE277A9FED297A77EEC77A9FED287A48
S3152000396067EE877AFDEEE77A00230093254B144A0B
S3152000397041F2883117EE900AFFF710FB00BF15E0E1
S3152000398097F870307F2B13D197F871301A467B68E1
S31520003990DB689A4202DD7B6800229A6100BF07E05D
S315200039A000BF06E000BF04E000BF02E000BF00E069
S315200039B000BF00BFA837BD4680BD00BFFD50002018
S315200039C078BD002007560020A0BD0020B4B50020F9
S315200039D034B6002000247449C550002098B6002033
S315200039E0ED55002000007042E15000205350002089
S315200039F0D8B100206B050020C0BD00200000484241
S31520003A000000C8421D50002080B483B000AF78600B
S31520003A1039607B68DB6818460C37BD465DF8047B49
S31520003A20704780B483B000AF786039607B681B69CB
S31520003A3018460C37BD465DF8047B704780B483B0CA
S31520003A4000AF786039607B689B6818460C37BD46A6
S31520003A505DF8047B704780B5A0B002AF786039600E
S31520003A60194B1A4619491A48FFF736FB7B689A689C
S31520003A707B68DB6807F1080000931346154A64212A
S31520003A8006F08EFC07F108031A4610491048FFF786
S31520003A9023FB7B68DB68DBB287F86D307E2387F8F3
S31520003AA06C30022387F86E307B689B68DBB287F820
S31520003AB06F3007F16C031A4607490848FFF70CFBDD
S31520003AC000BF7837BD4680BD0CB200206B050020B4
S31520003AD0C0BD00204CB200206F460020F4C100205B
S31520003AE080B5A0B002AF786039601A4B1A461A49E1
S31520003AF01A48FFF7F1FA7B6899687B681B697A6830
S31520003B00D26807F10800019200930B46144A6421FB
S31520003B1006F046FC07F108031A460F490F48FFF73F
S31520003B20DBFA7B68DB68DBB287F86D307A2387F8AF
S31520003B306C3007F16C031A460A490B48FFF7CCFA9A
S31520003B400A4B1A4604490548FFF7C6FA00BF7837DC
S31520003B50BD4680BD68B200206B050020C0BD002098
S31520003B60ACB200206F460020F4C10020D4B2002061
S31520003B7080B586B000AF786039600B4B1A460B498A
S31520003B800B48FFF7A9FA7B681B69DBB27B737D23A1
S31520003B903B7307F10C031A4606490748FFF79CFAC0
S31520003BA000BF1837BD4680BDE8B200206B05002057
S31520003BB0C0BD00206F460020F4C1002080B586B02D
S31520003BC000AF786039600B4B1A460B490B48FFF75C
S31520003BD083FA7B68DB68DBB27B737B233B7307F15D
S31520003BE00C031A4606490748FFF776FA00BF18372E
S31520003BF0BD4680BD28B300206B050020C0BD002037
S31520003C006F460020F4C1002080B586B000AF7860F2
S31520003C1039600B4B1A460B490B48FFF75DFA7B6858
S31520003C20DB68DBB27B737F233B7307F10C031A46F9
S31520003C3006490748FFF750FA00BF1837BD4680BD32
S31520003C4070B300206B050020C0BD00206F46002009
S31520003C50F4C1002080B483B000AF786039607B68FF
S31520003C6002225A6100BF0C37BD465DF8047B7047BF
S31520003C7080B584B002AF786039607B6800225A61D3
S31520003C807B68DA687B681A6100230093244B7A6884
S31520003C9000210020FFF782F9002222492248FFF75F
S31520003CA01BFA03460093214B1F4A00210020FFF7F1
S31520003CB075F91F4B1A461F491F48FFF70DFA0022B8
S31520003CC018491948FFF708FA034600931B4B164A72
S31520003CD000210020FFF762F97B68DB69002B1AD1EF
S31520003CE07B68DB695A1C7B68DA6100230093144BDE
S31520003CF0144A00210020FFF751F900230093124BAC
S31520003D00104A00211148FFF749F9114B1A46094973
S31520003D100948FFF7E1F900BF0837BD4680BD00BF5F
S31520003D20BD3B0020ED550020A0BD00202D530020D6
S31520003D30B4B300206B050020C0BD00204F510020E9
S31520003D40CD0A00203CBC00207508002080380100E8
S31520003D5068B1002080B584B002AF786039607B6896
S31520003D609B69002B0ED00D4B1A460D490D48FFF7C7
S31520003D70B3F9002300930C4B7A6800210020FFF74B
S31520003D800DF903E07B684FF0FF325A617B68012210
S31520003D909A6100BF0837BD4680BD00BFCCB3002066
S31520003DA06B050020C0BD0020713C002080B584B08A
S31520003DB002AF78603960002300930C4B0C4A002137
S31520003DC00020FFF7EBF80B4B1A460B490B48FFF781
S31520003DD083F9002300930A4B054A00210948FFF77F
S31520003DE0DDF800BF0837BD4680BD00BFE13A0020A0
S31520003DF0A4BC0020E4B300206B050020C0BD002039
S31520003E00573A0020400D030080B59CB000AF786083
S31520003E1039607B689B6807F10C00074A642106F02D
S31520003E20BFFA07F10C031A4604490548FFF754F96F
S31520003E3000BF7037BD4680BD00B400206B05002052
S31520003E40C0BD002080B483B000AF786039607B6845
S31520003E505B6918460C37BD465DF8047B704780B514
S31520003E6084B002AF78603960002300930D4B0E4A70
S31520003E7000210020FFF792F8002300930B4B0A4AFB
S31520003E8000214FF4FA70FFF789F800230093084BBE
S31520003E90054A00214FF47A70FFF780F800BF0837F3
S31520003EA0BD4680BD553C0020A4BC0020093C002016
S31520003EB0553D002080B483B000AF786039607B68C0
S31520003EC03A689A6000BF0C37BD465DF8047B7047A0
S31520003ED080B483B000AF786039607B683A681A6135
S31520003EE000BF0C37BD465DF8047B704780B582B0B5
S31520003EF000AF7860396000220D490E48FFF7ECF8D4
S31520003F000346002B0FD10C4B1A460C490C48FFF7E1
S31520003F10E3F800220B497868FFF7DEF800220A4909
S31520003F200A48FFF7D9F800BF0837BD4680BD00BF55
S31520003F30CF0B00203CBC002014B400206B050020D1
S31520003F40C0BD00205F3E002015590020A0BD0020E6
S31520003F5080B584B002AF78603960154B1A46154992
S31520003F601548FFF7B9F87B6801225A617B689B6880
S31520003F705A1C7B689A6000230093104B104A00213C
S31520003F800020FFF70BF8012300930E4B0E4A002169
S31520003F900020FFF703F8002300930C4B7A680021DA
S31520003FA042F21070FEF7FAFF00BF0837BD4680BD0B
S31520003FB02CB400206B050020C0BD0020990C0020E9
S31520003FC03CBC00207F4F0020C4BC0020ED3E0020DA
S31520003FD080B59EB002AF78603960234B1A462349DC
S31520003FE02348FFF779F87B685B69002B05D1214BC5
S31520003FF01A461E491E48FFF76FF83B68012B0ED163
S315200040007B6805225A61002300931B4B1B4A002123
S315200040100020FEF7C3FF7B6801229A6020E03B6800
S31520004020022B16D17B6806225A617B6800229A6091
S3152000403000230093104B114A00210020FEF7AEFF0B
S31520004040002300930E4B7A6800210E48FEF7A6FF48
S3152000405006E007F10C030C4A6421184606F0A0F985
S3152000406000BF7037BD4680BD44B400206B050020DC
S31520004070C0BD002054B400207F4F0020C4BC0020C7
S31520004080513F002060E3160074B4002080B483B052
S3152000409000AF786039607B685B69052B02D17B684D
S315200040A001225A6100BF0C37BD465DF8047B70477C
S315200040B080B59EB002AF786039603C4B1A463C49C9
S315200040C03C48FFF709F87B6899687B68DB687A6863
S315200040D0126907F10C00019200930B46364A6421BF
S315200040E006F05EF907F10C031A4631493148FEF70E
S315200040F0F3FF324B1A462E492E48FEF7EDFF7B681A
S315200041005B690133082B46D801A252F823F000BF81
S315200041105141002035410020434100205F410020CD
S3152000412097410020974100206D4100207B410020CF
S3152000413089410020224B1A461D491E48FEF7CCFF16
S315200041402AE0204B1A461A491A48FEF7C5FF23E0F3
S315200041501D4B1A4616491748FEF7BEFF1CE01B4B9F
S315200041601A4613491348FEF7B7FF15E0184B1A46AF
S315200041700F491048FEF7B0FF0EE0164B1A460C49C1
S315200041800C48FEF7A9FF07E0134B1A4608490948D1
S31520004190FEF7A2FF00E000BF104B1A46044905486F
S315200041A0FEF79AFF00BF7037BD4680BD94B400204D
S315200041B06B050020C0BD0020B0B40020D8B400207C
S315200041C0E0B40020E8B40020F0B40020F8B40020C9
S315200041D000B500200CB5002018B5002024B500201D
S315200041E080B582B000AF786039607B685B69002B50
S315200041F005D1064B1A4606490648FEF76DFF7B6831
S3152000420005225A6100BF0837BD4680BD54B4002040
S315200042106B050020C0BD002080B582B000AF78605D
S3152000422039607B685B69002B05D1064B1A46064927
S315200042300648FEF751FF7B6806225A6100BF083701
S31520004240BD4680BD54B400206B050020C0BD0020B3
S3152000425080B582B000AF786039607B685B69002BDF
S3152000426005D1064B1A4606490648FEF735FF7B68F8
S3152000427007225A6100BF0837BD4680BD54B40020CE
S315200042806B050020C0BD002080B483B000AF7860ED
S3152000429039607B6801225A6100BF0C37BD465DF844
S315200042A0047B704780B483B000AF786039607B6848
S315200042B001225A6100BF0C37BD465DF8047B70476A
S315200042C080B483B000AF786039607B6801225A6180
S315200042D000BF0C37BD465DF8047B704780B483B0C1
S315200042E000AF0346FB71FB7903F01F03012202FA9C
S315200042F003F1064A97F907305B0942F8231000BFFD
S315200043000C37BD465DF8047B704700BF00E100E036
S3152000431080B483B000AF03463960FB7197F907304C
S31520004320002B0BDA3B68DAB20C49FB7903F00F035A
S31520004330043B1201D2B20B441A7609E03B68DAB28A
S31520004340074997F907301201D2B20B4483F80023AC
S3152000435000BF0C37BD465DF8047B704700ED00E0DA
S3152000436000E100E080B586B000AF786039607B68F8
S3152000437000229A617B689A697B685A617B685A69D0
S315200043807B68DA6107F10C03184604F01DF8002358
S31520004390BB740023FB7400233B7500237B7500232D
S315200043A0BB750023FB750023BB730023FB7302231D
S315200043B03B7403237B740723BB8107F10C03194647
S315200043C0124803F06DFE0346002B02D11048FEF77B
S315200043D0A9F907F10C0319460E4803F061FE0346BE
S315200043E0002B02D10C48FEF79DF902211420FFF77D
S315200043F08FFF1420FFF772FF01220221034804F0E9
S3152000440021FC00BF1837BD4680BD00BF00640040B8
S3152000441028B500200068004040B50020B0B58AB01D
S3152000442002AF786039607B689B685A49184604F069
S3152000443027FC0346012B02D05748FEF773F97B6809
S31520004440DB69072B00F39F807B689B6807F10802D6
S315200044500021184604F0FCF9BB681B09DBB27A6818
S31520004460526903F07F03D8B2796813469B00134440
S315200044705B0013440B44203302461A70BB68DBB240
S315200044807A68526903F00F03D8B2796813469B0005
S3152000449013445B0013440B44213302461A70BB7C41
S315200044A07A68526903F00F03D8B2796813469B00E5
S315200044B013445B0013440B44223302461A70002334
S315200044C0FB7716E0FB7F7A685269F97F07F12000B7
S315200044D0034413F80D4C786813469B0013445B0085
S315200044E0134403440B44233322461A70FB7F0133C3
S315200044F0FB777B685A69796813469B0013445B00F7
S3152000450013440B4422331B78FA7F9A42DAD37B6812
S31520004510DB68002B25D07B68DC687B681D697B689F
S315200045205A69796813469B0013445B0013440B4475
S3152000453020331B7819017B685A69786813469B00DB
S3152000454013445B001344034421331B780B4400932C
S315200045502B46224600210020FEF720FD0F4B01228C
S315200045601A607B685B6901335A4203F0070302F045
S31520004570070258BF53427A6853617B68DB695A1C2D
S315200045807B68DA6102E00648FEF7CCF800BF2037E8
S31520004590BD46B0BD0300001258B50020DCC2002085
S315200045A080B5002090B484B000AF786039607B6815
S315200045B0DB69002B55DD7B689A69796813469B0079
S315200045C013445B0013440B4420331A783B681A705B
S315200045D07B689A69796813469B0013445B001344F1
S315200045E00B4421331A783B685A707B689A6979683C
S315200045F013469B0013445B0013440B4422331A7862
S315200046003B689A700023FB7313E07B689A69F87BFA
S31520004610F97B7C6813469B0013445B0013442344B8
S31520004620034423331A783B680B44DA70FB7B01334F
S31520004630FB733B689B78FA7B9A42E6D37B689B693F
S3152000464001335A4203F0070302F0070258BF5342D0
S315200046507A6893617B68DB695A1E7B68DA6100237E
S3152000466000E0012318461037BD4690BC704780B540
S315200046708AB000AF786039607B689B683B62002314
S31520004680FB773B681B781B013A6852781344BB6062
S3152000469000237B7400233B743B689B78082B02D94C
S315200046A03B6808229A703B689B78BB74002387F886
S315200046B0273010E097F8272097F8273039680A44E2
S315200046C0D27807F128010B4403F8152C97F82730E8
S315200046D0013387F827303B689B7897F827209A4242
S315200046E0E8D307F108031946386A03F031FF034679
S315200046F0FB77FB7F042B04D10448FEF713F8012334
S3152000470000E0002318462837BD4680BDA0B500200E
S3152000471080B584B000AF7860396000220F49104818
S31520004720FEF7DAFCF8607B6888331846FEF7D2FD80
S31520004730B8607B68D3F89430BA68D31A094A934292
S3152000474008DDFB68002B05D1074B1A4607490848A8
S31520004750FEF7C2FC00BF1037BD4680BDF51800200D
S31520004760E0C100209F86010018B700206B050020BD
S31520004770C0BD0020B0B5BAB000AF78603960002364
S31520004780C7F8E4307B68DB6F022B0CDC7B68DA6FC2
S315200047907B681C32396843F822107B68DB6F5A1C11
S315200047A07B68DA6715E07B683A681A670023C7F8E2
S315200047B0E0307B681B6FC7F8E0307B685A6F7B68F8
S315200047C01A677B689A6F7B685A677B68D7F8E02000
S315200047D09A677B68DB6F032B40F0A1807B681A6F9A
S315200047E07B685B6FD31A504A9342C0F298807B68ED
S315200047F01A6F7B685B6FD31A42F20F72934200F3F3
S315200048008E807B681A6F7B689B6FD31A464A9342C9
S31520004810C0F285807B681A6F7B689B6FD31A42F241
S315200048200F7293427BDC7B689A6F7B685B6FD31A2F
S315200048303D4A934273DB7B689A6F7B685B6FD31A22
S3152000484042F20F7293426ADC7B681A6F7B685B6F59
S315200048501A447B689B6F1344344A82FB0312DB178E
S31520004860D31AC7F8DC30D7F8DC30314A82FB031282
S315200048705213DB17D31A184605F038FA04460D46AC
S31520004880D7F8DC202A4B83FB02135913D317CB1AF4
S31520004890284901FB03F3D31A274A82FB031252113C
S315200048A0DB17D31A07EE903AF8EEE77A17EE900A5E
S315200048B005F02EFA4FF00002204B05F0ABFB024626
S315200048C00B462046294605F0C5F802460B461046FB
S315200048D0194605F087FC0346C7F8D830DFED186A7D
S315200048E097ED367AC6EE877AFDEEE77A17EE903A9E
S315200048F0C7F8D43007F10C00D7F8D430114AC821B4
S3152000490005F04EFD07F10C031A460F490F48FEF736
S31520004910E3FBD7F8D4200E490E48FEF7DDFB00BF97
S31520004920E837BD46B0BD00BFF1D8FFFF56555555F7
S3152000493089B5F814A08601001F85EB5100408F40F1
S315200049400000704234B700206B050020C0BD002057
S3152000495051570020A0BD002080B5C0B002AF7860BE
S3152000496039607B68D3F89830002B2BD17B6888334D
S315200049701846FEF7AFFCC7F8D4007B68D3F894300E
S31520004980D7F8D420D31AC7F8D0307B68D7F8D020F0
S31520004990C3F89C207B68D7F8D420C3F894207B6882
S315200049A00122C3F8982001228A498B48FEF794FBFE
S315200049B000230093894B7A6841F288318848FEF7B4
S315200049C0EDFA04E17B6888331846FEF783FCC7F8C6
S315200049D0F4007B68D3F89430D7F8F420D31AC7F8BC
S315200049E0F030D7F8F0307F4A934269DC7B68D3F801
S315200049F09C30C7F8F030D7F8F03042F20F7293426D
S31520004A000FDC794B1A4679497948FEF765FB7B68B6
S31520004A100022C3F8982000226E496F48FEF75CFBFF
S31520004A20D5E0D7F8F030734A82FB03125113DA1718
S31520004A308A1A6B4901FB02F29A1A13469B00134409
S31520004A405B00C7F8E030D7F8F0206A4B83FB0213EF
S31520004A505913D317CB1A624901FB03F3D31A664ABB
S31520004A6082FB03125211DB17D31AC7F8DC30D7F8B2
S31520004A70F030604A82FB03125213DB17D31AC7F8B1
S31520004A80D83007F10800D7F8E0300193D7F8DC30AA
S31520004A900093D7F8D830594AC82105F081FCD7F8B9
S31520004AA0F0300093564B7A6800210020FEF776FA04
S31520004AB007F108031A464D494D48FEF70DFB7DE0E8
S31520004AC0D7F8F0304B4A82FB03125113DA178A1AB1
S31520004AD0434901FB02F29A1A13469B0013445B00DA
S31520004AE0C7F8EC30D7F8F020424B83FB021359135A
S31520004AF0D317CB1A3A4901FB03F3D31A3E4A82FB5A
S31520004B0003125211DB17D31AC7F8E830D7F8F03062
S31520004B10384A82FB03125213DB17D31AC7F8E43044
S31520004B2007F10800D7F8EC300193D7F8E830009366
S31520004B30D7F8E430334AC82105F032FC07F10803E0
S31520004B401A462A492A48FEF7C7FAD7F8F0302E4ADD
S31520004B50934208DD002300932C4B7A680021002025
S31520004B60FEF71CFA2AE0D7F8F030294A934225DDD1
S31520004B70284B1A461D491E48FEF7AEFA0022264942
S31520004B802648FEF7A9FA0346002B17D1244B1A46CE
S31520004B9016491748FEF7A0FA00230093214B7A689E
S31520004BA000210020FEF7FAF978221F491F48FEF758
S31520004BB093FA00221E491D48FEF78EFA7B680022D2
S31520004BC0C3F89820002203490348FEF785FAF837F0
S31520004BD0BD4680BD55190020E0C1002011470020A8
S31520004BE0A08601009F86010044B700206B050020A7
S31520004BF0C0BD002089B5F8141F85EB5150B70020A1
S31520004C00754700208CB7002020A10700093C002012
S31520004C10400D0300B8B70020453E0020A4BC00206C
S31520004C20CCB70020713B002051570020A0BD0020AA
S31520004C300D57002080B483B000AF786039607B6860
S31520004C400122C3F8A0207B684FF0FF32C3F88020F2
S31520004C507B684FF0FF32C3F8A8207B680022C3F898
S31520004C60A42000BF0C37BD465DF8047B704780B595
S31520004C7086B002AF78603960002212491248FEF7EA
S31520004C802BFAF860FB68002B18D17B68D3F8AC3080
S31520004C90002B13D07B68D3F88030012B0ED10B4B21
S31520004CA01A460B490B48FEF717FA002300930A4BC6
S31520004CB00A4A00210A48FEF771F900E000BF1037C2
S31520004CC0BD4680BD654F002078BD0020F0B700208E
S31520004CD06B050020C0BD00206F4C0020C4BC002006
S31520004CE040420F0080B483B000AF786039607B68A3
S31520004CF03A68C3F8802000BF0C37BD465DF8047BB8
S31520004D00704780B5A2B002AF7860396007F108031A
S31520004D101A4659495948FEF7DFF93B7A632B02D8E0
S31520004D203B7A132B1CD83B7A772B19D0544B1A4637
S31520004D3054495548FEF7D0F9544B1A465149524822
S31520004D40FEF7CAF93B7A07F11400514A642105F0AF
S31520004D5027FB07F114031A464A494B48FEF7BCF9CC
S31520004D603B7A642B08D907F108030093494B4A4A3A
S31520004D7000210020FEF712F93B7A322B0BD93B7A21
S31520004D80402B08D807F108030093444B444A0021DE
S31520004D900020FEF703F90023FB67002241493E4825
S31520004DA0FEF79AF9B867BB6F012B5DD13B7A013BC1
S31520004DB0072B5BD801A252F823F000BFDD4D00205F
S31520004DC0EF4D0020014E0020134E00201F4E0020E4
S31520004DD02F4E0020434E0020534E002001230093E7
S31520004DE0314B324A00210020FEF7D8F83FE000235D
S31520004DF000932D4B2D4A00210020FEF7CFF836E0F8
S31520004E00002300932A4B294A00210020FEF7C6F8EA
S31520004E102DE0002227492848FEF75EF927E0FB7A95
S31520004E20FB67FA6F25492448FEF756F91FE0FB7AFF
S31520004E30FB67FB6F5B421A4620491F48FEF74CF979
S31520004E4015E0FB7AFB67FA6F1D491B48FEF744F90C
S31520004E500DE078221A491848FEF73EF90022174934
S31520004E601548FEF739F902E000BF00E000BF00BF99
S31520004E708037BD4680BD00BFA5450020F4C1002077
S31520004E8000B800206B050020C0BD002038B80020E7
S31520004E904CB80020F1350020A4BC0020D10600200B
S31520004EA03CBC0020453E0020F14E002078BD00206D
S31520004EB0B94F0020C54E0020A0BD00200D57002070
S31520004EC05157002080B483B000AF786039607B688A
S31520004ED09B68012B03D17B6800229A6002E07B68E5
S31520004EE001229A6000BF0C37BD465DF8047B7047EF
S31520004EF080B483B000AF786039603B68012B09D15C
S31520004F007B681B69132B05DC7B681B695A1C7B6835
S31520004F101A610BE03B68002B08D17B681B69012BCB
S31520004F2004DD7B681B695A1E7B681A6100BF0C373B
S31520004F30BD465DF8047B704780B483B000AF7860CF
S31520004F4039607B689B69002B03D17B6801229A61BB
S31520004F5002E07B6800229A6100BF0C37BD465DF8EF
S31520004F60047B704780B483B000AF786039607B687B
S31520004F701B6918460C37BD465DF8047B704780B424
S31520004F8083B000AF786039603B68012B04D17B6821
S31520004F905A697B681A6109E03B68002B06D17B6859
S31520004FA01A697B685A617B6800221A6100BF0C3738
S31520004FB0BD465DF8047B704780B584B002AF78604B
S31520004FC07B681B69002B09D17B685A697B681A614B
S31520004FD000220E490E48FEF77FF813E07B681A6917
S31520004FE07B685A617B6800221A6100230093094B73
S31520004FF0094A00210020FDF7D1FF01220349044878
S31520005000FEF76AF800BF0837BD4680BD1519002097
S31520005010E0C100206F4C0020C4BC002080B483B0C7
S3152000502000AF786039607B680122DA6100BF0C37F7
S31520005030BD465DF8047B704780B483B000AF7860CE
S3152000504039607B685B6A18460C37BD465DF8047B81
S31520005050704780B59EB002AF786039607B681B6A66
S31520005060FB66154B1B78DBB21A467B681B699A4296
S3152000507003D1114B00221A7004E07B681A690E4B8B
S31520005080D2B21A707B68DB69002B11D17B685B6A10
S31520005090012B0DD1FB6E094A82FB03129210DB17FE
S315200050A0D01A3B680093064B7A680021FDF776FFFD
S315200050B07037BD4680BD00BF1C74004067666666BB
S315200050C05350002080B483B000AF786039607B688D
S315200050D03A681A6200BF0C37BD465DF8047B7047FC
S315200050E080B483B000AF786039607B680022DA61D3
S315200050F000BF0C37BD465DF8047B704780B483B093
S3152000510000AF786039607B683A685A6200BF0C3716
S31520005110BD465DF8047B704780B483B000AF7860ED
S3152000512039607B683A681A6100BF0C37BD465DF866
S31520005130047B704780B483B000AF786039607B68A9
S315200051401B6918460C37BD465DF8047B704780B551
S3152000515086B002AF786039607B685B693A689A42AC
S3152000516040D17B689B68002B3CD000221F492048F9
S31520005170FDF7B2FF7B685B6907EE903AB8EEE77AF7
S31520005180DFED1C6AC6EE877AC7ED037A00221A493C
S315200051901A48FDF7A1FF0346002B24D1D7ED037A49
S315200051A09FED177A67EE877A9FED167A67EE877AF4
S315200051B0FDEEE76AD7ED037A9FED137A67EE877ADD
S315200051C09FED107A67EE877AFDEEE77A7B685B695A
S315200051D000930E4B7A6817EE901A16EE900AFDF79A
S315200051E0DDFE00E000BF1037BD4680BD3719002028
S315200051F0E0C1002000007042453E0020A4BC0020F3
S315200052000000FA430000C84200007A434F510020B4
S3152000521080B582B000AF786039607B689B68002BD0
S3152000522005D0002206490748FDF756FF04E0012273
S3152000523003490448FDF750FF00BF0837BD4680BD2F
S3152000524015190020E0C1002080B586B000AF786037
S315200052503960002230493148FDF73EFF786100224F
S315200052602F492E48FDF738FF386100222D492B485B
S31520005270FDF732FFF8607B6800225A627B69032BB8
S3152000528043D801A252F823F00B5300209952002054
S31520005290A1520020E95200207B6801225A6234E0A4
S315200052A03B6803F00103002B0ED1FB68002B03D0D3
S315200052B0FB68012B04D028E07B6801225A6212E0A9
S315200052C07B6800225A620EE0FB68002B03D0FB6845
S315200052D0012B04D019E07B6800225A6203E07B6828
S315200052E001225A6200BF10E039680F4B83FB01325E
S315200052F0CB17D21A13465B001344CA1A3B69934252
S3152000530002D17B6801225A6200BF7B685B6A18461D
S315200053101837BD4680BD00BF3D3A0020A4BC002002
S31520005320093A0020453E00205655555580B5A4B073
S3152000533002AF786039607B689B68002B00F019818A
S31520005340002290499048FDF7C7FEC7F88400D7F899
S315200053508430002B08D17B681B6900938B4B8C4AC9
S3152000536000210020FDF71AFE7B681B691A46894931
S315200053708948FDF7B1FEC7F88000D7F88430052BA1
S3152000538000F0F980D7F88430062B00F0F4807B6893
S31520005390DB680A33FB677B681B69804A52F8232047
S315200053A0FB6F13447E4A9B001344D3ED007A9FED96
S315200053B07D7A67EE877AFDEEE77A17EE903ABB673D
S315200053C0BB6F0093784B744A00210020FDF7E6FD61
S315200053D07B681B69754A52F823307B677B681A699C
S315200053E07B6859697B689B6807F10C000193D7F8A5
S315200053F0803000930B466E4905F022F807F10C0326
S315200054001A466C496C48FDF767FE7B685B6907EEB8
S31520005410903AB8EEE77ADFED696AC6EE877AC7ED8D
S315200054201C7A7B685B693A689A4230D07B681B6934
S315200054300F2B0BD07B681B69112B07D07B681B6950
S31520005440152B03D07B681B69172B05D101225C49DC
S315200054505C48FDF741FE04E0002259495948FDF712
S315200054603BFED7ED1C7A9FED587A67EE877A9FED43
S31520005470577A67EE877AFDEEE77A7B685B69009359
S31520005480534B544A002117EE900AFDF787FD00235F
S315200054900093514B404A00210020FDF77FFD002359
S315200054A000934E4B3C4A00210020FDF777FD7B6F91
S315200054B04FF4FA7202FB03F307EE903AB8EEE77A5E
S315200054C0D7ED1C7A67EE277A9FED457A77EEC77A75
S315200054D09FED3E7A67EE877AFDEEE77A002300930A
S315200054E0404B2D4A41F2883117EE900AFDF756FDC2
S315200054F0D7F88430002B40D17B681B6901335A4290
