S01600002E2F44656275672F5254532D4C61622E73313936
S3152000000000BFDFF814D000F0FCF906F0DDF800F0B0
S315200000100ABAFEE700BF000000C00120314900E017
S315200000203149EFF3088020ED108A7246EFF31183F1
S3152000003020E9FC0F2D4FD7F80080C8F800001EE0FD
S31520000040084602F0FBFB2A4802F0F8FB294802F09A
S31520000050F5FBD8F8040002F03DFC274802F0EEFB41
S31520000060D8F8000002F007FC244802F0E7FBD8F895
S315200000700000006802F0FFFB1D4802F0DFFBDFF8FE
S315200000808080D8F80080C7F8008018E01D4802F06C
S31520000090D5FBD8F8040002F01DFC1B4802F0CEFB6D
S315200000A0D8F8000002F0E7FB144802F0C7FBD8F8A6
S315200000B00000006802F0DFFB0D4802F0BFFB134A88
S315200000C0536843F00063536000BFD8F80000B0E8DF
S315200000D0FC0F83F311889646B0EC108A80F30888CB
S315200000E07047000008BE002019BE0020F0BE002088
S315200000F089BE00203ABE002052BE00205ABE0020F3
S315200001004CC5002063BE002078BE002000ED00E034
S3152000011080B400AF00BFBD465DF8047B704780B554
S3152000012086B000AF454809F091FA454808F0ACF88A
S31520000130444808F0A9F801214FF0007002F01EF99A
S3152000014001214FF0806002F019F90121022002F00E
S31520000150B5F809220921394809F09AFC0922082113
S31520000160364809F095FC07F11003184609F0AFFB55
S315200001704FF400733B6102233B750023BB750023BC
S31520000180FB7502237B7507F1100319462B4809F0EE
S315200001900FFB4FF480733B6102233B750023BB7535
S315200001A00123FB7502237B7507F1100319462348AB
S315200001B009F0FEFA09220621204809F069FC0922E5
S315200001C005211E4809F064FC40233B6102233B7550
S315200001D00023BB750023FB7502237B7507F11003F3
S315200001E01946164809F0E4FA20233B6102233B75A1
S315200001F00023BB750123FB7502237B7507F11003D2
S3152000020019460E4809F0D4FA0023BB720023FB726C
S3152000021001233B7300233B8000237B800023BB808C
S315200002200023FB8000233B8101237B733B4618463A
S3152000023008F01FF900BF1837BD4680BD00040240F4
S31520000240006400400068004080B586B000AF012100
S315200002504FF0005002F092F807F11003184609F00B
S3152000026036FB20233B6103233B750023FB7507F1F7
S31520000270100319460F4809F09BFA05F0CFFF3B46BD
S31520000280184606F00DF800233B6000237B60002310
S31520000290FB603B461946102005F0CEFF01211020B9
S315200002A006F014F80021082006F0BEF800BF183723
S315200002B0BD4680BD0000024080B584B000AF01215C
S315200002C04FF4804002F07AF80721012009F058FC0B
S315200002D009F0B4F83B46184609F03CF980233B6008
S315200002E000233B710C237B710123BB713B461846CF
S315200002F009F0BEF807F10803184609F0E8FA0223C8
S31520000300BB6001233B730123BB730023FB730123D3
S315200003107B7307F108031946184809F049FA0123A7
S31520000320BB6001233B730123BB730023FB730123B3
S315200003307B7307F108031946104809F039FA0122A0
S3152000034002210E4809F06BFB012201210B4809F01E
S3152000035066FB8023BB6000233B730023BB73002313
S31520000360FB7301237B7307F108031946034809F041
S315200003701FFA00BF1037BD4680BD00BF00040240F3
S3152000038080B483B000AFEFF314833B603B6823F067
S3152000039003037B607B6883F3148800BF094B4FF40B
S315200003A004725A61074B5B69064A43F0080353619E
S315200003B0054B4FF000425A6000BF0C37BD465DF832
S315200003C0047B704700ED00E030EF00E080B500AF21
S315200003D00121082001F0D2FF0121082002F00EF9A8
S315200003E000BF80BD80B400AF124A02E0002342F86D
S315200003F0043B114B9A42F9D300BFBD465DF8047BFE
S31520000400704780B500AFFFF7EDFFFFF781FEFFF7DE
S3152000041086FEFFF719FFFFF74FFFFFF7B1FFFFF744
S31520000420D5FF00BF80BD80B400AF00BFBD465DF8DC
S31520000430047B704720C50020A848012080B483B0E3
S3152000044000AF0346FB71FB7903F01F03012202FA7A
S3152000045003F1064A97F907305B0942F8231000BFDB
S315200004600C37BD465DF8047B704700BF00E100E015
S3152000047080B483B000AF03463960FB7197F907302B
S31520000480002B0BDA3B68DAB20C49FB7903F00F0339
S31520000490043B1201D2B20B441A7609E03B68DAB269
S315200004A0074997F907301201D2B20B4483F800238B
S315200004B000BF0C37BD465DF8047B704700ED00E0B9
S315200004C000E100E080B582B000AF786039607B68DB
S315200004D000229A617B689A697B685A617B685A69AF
S315200004E07B68DA61012240F225510A4801F044F97D
S315200004F0002240F22771074801F03EF9022125200B
S31520000500FFF7B6FF2520FFF799FF00BF0837BD4646
S3152000051080BD00BF0010014080B483B000AF78607A
S315200005200B46FB707B68DB69B3F5806F17DA7B6857
S315200005305B697A681344FA7883F820207B685B69C4
S3152000054001335A42C3F30903C2F3090258BF534287
S315200005507A6853617B68DB695A1C7B68DA6100BF65
S315200005600C37BD465DF8047B704780B582B000AF7E
S31520000570786039607B68DB69002B18D17B689B68C3
S31520000580012240F22771184601F0F6F80FE03B6889
S315200005901B780A2B03D10D217868FFF7BDFF3B6836
S315200005A05A1C3A601B7819467868FFF7B5FF3B68F6
S315200005B01B78002BEBD100BF00BF0837BD4680BD9E
S315200005C080B582B000AF786039607B68DB69002B2C
S315200005D007D17B689B68012240F22771184601F0FB
S315200005E0CBF83B68DBB219467868FFF795FF00BF6A
S315200005F00837BD4680BD80B586B002AF78603960C9
S315200006007B689B682021184601F0FEF80346012BE3
S3152000061018D17B689B68184600F019FF0346FB60DB
S315200006207B68DB68002B0DD07B68DA687B681969EC
S31520000630FB6800930B460021002002F03BFD234B74
S3152000064001221A607B689B688021184601F0DCF83D
S315200006500346012B35D17B68DB69002B29DD7B68BE
S3152000066098687B689B697A68134493F820309BB21C
S31520000670194600F0DAFE7B689B6901335A42C3F3C0
S315200006800903C2F3090258BF53427A6893617B6813
S31520000690DB695A1E7B68DA617B68DB69002B10D127
S315200006A07B689B68002240F22771184601F064F8A7
S315200006B007E07B689B68002240F22771184601F00C
S315200006C05BF8002318461037BD4680BD2CC5002098
S315200006D080B5A6B002AF786039603A6807F170033A
S315200006E01068516803C31189927A19809A7097F815
S315200006F0703007F10C005D4A642109F069FF97F814
S315200007007030772B06D007F10C031A465849594802
S3152000071002F06EFD00225849584802F069FDC7F8DC
S315200007208C0000225649554802F062FDC7F8880021
S3152000073000225449514802F05BFDC7F8840000228C
S3152000074051494E4802F054FDC7F8800097F87030A2
S315200007503B3B052B00F2868001A252F823F000BF16
S31520000760330800200D080020E5070020BD070020E3
S315200007709B0700207907002097F871301A467B687E
S315200007800232002143F8221097F871307A68043338
S315200007909B00134400225A6064E097F871301A4691
S315200007A07B680232012143F8221097F871307A686B
S315200007B004339B00134401225A6053E0D7F88C304F
S315200007C0072B06D17B68D7F884200232012143F813
S315200007D0221097F871301A467B680232062143F8B8
S315200007E022103FE0D7F88C30072B06D17B68D7F84C
S315200007F084200232012143F8221097F871301A46DC
S315200008007B680232052143F822102BE0D7F880308E
S31520000810013300931D4B194A0021002002F04AFCA7
S31520000820002300931A4B7A680021002002F042FC34
S3152000083018E007F170030333184609F091FEF867B4
S31520000840FB6F0093114B0D4A0021002002F032FC71
S3152000085097F8713000930F4B084A0021002002F0D0
S3152000086029FCFFE700BF9037BD4680BDC8B10020F8
S315200008706B05002010C0002009410020F4BE002096
S31520000880BF3B0020A53B0020D93B0020794100201A
S31520000890590D00209541002080B59AB002AF7860AE
S315200008A0396000229649974802F0A2FC786400231A
S315200008B0FB650023BB6500237B6500233B65002287
S315200008C09149904802F094FC386400228F498D4863
S315200008D002F08EFCF8630023FB6456E03B6C052B8C
S315200008E00DD03B6C062B0AD07B68FA6C023253F88B
S315200008F022207968FB6C04339B000B445A607A688B
S31520000900FB6C04339B0013445B6813F1020F1DD16B
S31520000910FB6D0133FB657B68FA6C0232072143F8D5
S3152000092022107A68FB6C04339B00134407225A601A
S3152000093007F10800FB6C764A642109F049FE07F1AD
S3152000094008031A467349744802F052FC7A68FB6C15
S3152000095004339B0013445B68002B05D1BB6D013328
S31520000960BB653B6D01333B657A68FB6C04339B00AA
S3152000097013445B68012B05D1BB6D0133BB657B6DD1
S3152000098001337B65FB6C0133FB64FB6C022BA5DD1D
S315200009907B683A6D1A637B687A6DDA62BA6DFB6B97
S315200009A09A4207DA002300935C4B5D4A002100201F
S315200009B002F080FBBB6D00935A4B524A0021002067
S315200009C002F078FB3B6D012B15DD07F10803564A33
S315200009D06421184609F0FCFD07F108031A464D4923
S315200009E04D4802F005FC00230093504B454A002158
S315200009F0002002F05FFB3B6C072B0AD1BB6D002B5E
S31520000A0007DD002300934A4B3E4A0021002002F0D6
S31520000A1051FB3B6D002B54D1BB6D012B32D13B6C6E
S31520000A20012B2FD17A687B6C04339B0013445B68BF
S31520000A30052B07D07A687B6C04339B0013445B68D4
S31520000A40062B16D100230093384B2E4A0021002076
S31520000A5002F030FB07F10803364A6421184609F0F4
S31520000A60B7FD07F108031A462A492B4802F0C0FBB6
S31520000A7027E000230093304B294A0021002002F072
S31520000A8019FB1EE03B6C052B1BD03B6C062B18D0AC
S31520000A903B6C072B15D007F10803284A642118461A
S31520000AA009F096FD07F108031A461A491A4802F07A
S31520000AB09FFB002300931D4B124A0021002002F0C9
S31520000AC0F9FA002300931E4B7A6800214CF250302D
S31520000AD002F0F0FA0023BB6409E07B68BA6C0232AC
S31520000AE06FF0010143F82210BB6C0133BB64BB6C71
S31520000AF0022BF2DD00BF00BF6037BD4680BD00BFC0
S31520000B00BF3B0020F4BE002009410020D93B002035
S31520000B10DCB100206B05002010C000209D5B00206A
S31520000B20F0BF002079410020ECB100200D3E0020CE
S31520000B301945002008B20020515B002028B2002071
S31520000B409908002080B58AB002AF7860396000220B
S31520000B5029492A4802F04CFBF861002228492748F7
S31520000B6002F046FBB8617B68FA690232B96943F83C
S31520000B702210FB69DBB27B73BB69072B21D801A24C
S31520000B8052F823F0A50B0020AB0B0020C30B00204E
S31520000B90C30B0020C30B0020BD0B0020B70B002089
S31520000BA0B10B002040233B730BE03F233B7308E04F
S31520000BB03F233B7305E03E233B7302E03D233B731B
S31520000BC000BFBB69052B09D0BB69062B06D007F1F0
S31520000BD00C031A460B490C4802F00AFB002300932B
S31520000BE00A4B7A6800214CF2503002F063FA00BFBB
S31520000BF02037BD4680BD00BFA53B0020F4BE0020A7
S31520000C0009410020C748002044C40020450B00208D
S31520000C1080B483B000AF786039607B689B6A1846E1
S31520000C200C37BD465DF8047B704780B483B000AFB7
S31520000C30786039607B683A689A6200BF0C37BD4697
S31520000C405DF8047B704780B485B000AF786039606A
S31520000C500023FB600BE07B68FA68023253F82230EF
S31520000C60002B01D1012306E0FB680133FB60FB6802
S31520000C70022BF0DD002318461437BD465DF8047BB1
S31520000C80704780B586B000AF7860396000220A4987
S31520000C900A4802F0ADFA78617B69DBB27B723E23AB
S31520000CA03B7207F108031A460549064802F0A0FAE6
S31520000CB000BF1837BD4680BDA53B0020F4BE0020EE
S31520000CC0C748002044C4002080B586B000AF7860B5
S31520000CD0396000220A490B4802F08AFA78617B695A
S31520000CE0DBB27B723D233B7207F108031A460649A5
S31520000CF0064802F07DFA00BF1837BD4680BD00BF0A
S31520000D00A53B0020F4BE0020C748002044C4002094
S31520000D1080B586B000AF7860396000220A490B485A
S31520000D2002F066FA78617B69DBB27B723C233B7208
S31520000D3007F108031A460649064802F059FA00BF89
S31520000D401837BD4680BD00BFA53B0020F4BE00205D
S31520000D50C748002044C4002080B58AB000AF786020
S31520000D60396000221849194802F042FA78620022B6
S31520000D701749164802F03CFA38627B6A002B20D1CC
S31520000D803B6ADBB27B743B233B74002211490F483C
S31520000D9002F02EFAF861FB6983EAE372A2EBE372B2
S31520000DA007F10C030C49184609F062FC0123BB74B9
S31520000DB03B7BFB7407F110031A460849084802F0EA
S31520000DC017FA2837BD4680BD09410020F4BE002011
S31520000DD0A53B0020D93B00204CB20020C74800206C
S31520000DE044C4002080B584B000AF7860396000220A
S31520000DF00A490B4802F0FCF9F8607B68FA6802326F
S31520000E00396843F822107A68FB6804339B00134440
S31520000E103A685A6000BF1037BD4680BDA53B00200A
S31520000E20F4BE002080B483B000AF786039607B6860
S31520000E303A680232002143F822107A683B6804336C
S31520000E409B00134400225A6000BF0C37BD465DF854
S31520000E50047B704780B483B000AF786039607B68CC
S31520000E603A680232012143F822107A683B6804333B
S31520000E709B00134401225A6000BF0C37BD465DF823
S31520000E80047B704780B59EB002AF7860396007F169
S31520000E900803494A6421184609F09AFB07F108031A
S31520000EA01A464649464802F0A3F90023FB6669E044
S31520000EB007F10800FB6E434A642109F089FB07F11C
S31520000EC008031A463D493E4802F092F97A68FB6EBD
S31520000ED004339B0013445B680233092B4ED801A2CE
S31520000EE052F823F06F0F0020290F00200D0F00204D
S31520000EF01B0F0020370F00207D0F00207D0F0020C4
S31520000F00450F0020530F0020610F00202E4B1A465C
S31520000F102A492B4802F06CF931E02C4B1A46274916
S31520000F20274802F065F92AE0294B1A462349244826
S31520000F3002F05EF923E0274B1A462049204802F0AA
S31520000F4057F91CE0244B1A461C491D4802F050F95B
S31520000F5015E0214B1A461949194802F049F90EE0C5
S31520000F601D4B1A461549164802F042F907E01B4B5D
S31520000F701A461249124802F03BF900E000BFFB6E08
S31520000F800133FB66FB6E022B92DD7B681A6B7B6856
S31520000F90DB6A07F1080000931346114A642109F021
S31520000FA017FB07F108031A460449054802F020F901
S31520000FB000BF7037BD4680BD50B200206B050020B3
S31520000FC010C0002068B2002078B2002080B2002035
S31520000FD088B2002090B200209CB20020A8B2002047
S31520000FE0B4B2002080B582B000AF78607B683B4AFF
S31520000FF0934208D10121102001F080FA002110200F
S3152000100001F07CFA65E07B68354A93420AD10121DA
S315200010104FF4003001F052FA00214FF4003001F075
S315200010204DFA56E07B682F4A93420AD101214FF4AC
S31520001030802001F043FA00214FF4802001F03EFA8F
S3152000104047E07B68284A93420AD101214FF40020C9
S3152000105001F034FA00214FF4002001F02FFA38E095
S315200010607B68224A93420AD101214FF4801001F075
S3152000107025FA00214FF4801001F020FA29E07B6840
S315200010801B4A934208D10121202001F037FA002182
S31520001090202001F033FA1CE07B68164A93420AD1DD
S315200010A001214FF0804001F009FA00214FF08040E5
S315200010B001F004FA0DE07B680F4A934209D1012121
S315200010C04FF0004001F0FAF900214FF0004001F006
S315200010D0F5F900BF0837BD4680BD00BF00100140AE
S315200010E00044004000480040004C004000500040B2
S315200010F00014014000780040007C004080B58AB092
S3152000110000AF7860396000237B6200233B620023B6
S31520001110FB610023BB617B681B8A9BB27B627B6A77
S3152000112023F440537B623B68DB881A467B6A134371
S315200011307B627B6A9AB27B681A827B689B899BB2A8
S315200011407B627B6A23F4B05323F00C037B623B68FB
S315200011509A883B681B8913439AB23B685B89134381
S315200011609BB21A467B6A13437B627B6A9AB27B6880
S315200011709A817B689B8A9BB27B627B6A23F440734D
S315200011807B623B689B891A467B6A13437B627B6A38
S315200011909AB27B689A8207F10803184600F0D8FEB7
S315200011A07B68304A934203D07B682F4A934202D110
S315200011B07B693B6201E03B693B627B689B899BB212
S315200011C01BB2002B0CDA3A6A13469B0013449A0092
S315200011D01A443B681B685B00B2FBF3F3FB610BE030
S315200011E03A6A13469B0013449A001A443B681B68CC
S315200011F09B00B2FBF3F3FB61FB691C4AA2FB0323B2
S315200012005B091B017B627B6A1B09642202FB03F3D9
S31520001210FA69D31ABB617B689B899BB21BB2002BF0
S315200012200CDABB69DB003233104AA2FB03235B09CD
S3152000123003F007037A6A13437B620BE0BB691B0149
S3152000124032330A4AA2FB03235B0903F00F037A6AAF
S3152000125013437B627B6A9AB27B681A8100BF283768
S31520001260BD4680BD00100140001401401F85EB5192
S3152000127080B483B000AF78607B684FF416521A6052
S315200012807B6800229A807B680022DA807B680022B5
S315200012901A817B680C225A817B6800229A8100BFC2
S315200012A00C37BD465DF8047B704780B485B000AF2F
S315200012B0786039600023FB607B681B8A9BB2FB60E9
S315200012C0FB6823F47063FB603B681A883B685B8885
S315200012D013439AB23B689B8813439AB23B68DB88D8
S315200012E013439BB21A46FB681343FB60FB689AB212
S315200012F07B681A8200BF1437BD465DF8047B7047B1
S3152000130080B483B000AF78607B6800221A807B6847
S3152000131000225A807B6800229A807B680022DA802D
S3152000132000BF0C37BD465DF8047B704780B483B0A0
S3152000133000AF78600B46FB70FB78002B08D07B68EB
S315200013409B899BB243F400539AB27B689A8107E04B
S315200013507B689B899BB223F400539AB27B689A815F
S3152000136000BF0C37BD465DF8047B704780B483B060
S3152000137000AF78600B46FB707B681B8B9BB223F01B
S31520001380FF039AB27B681A837B681B8B9AB2FB7821
S315200013909BB213439AB27B681A8300BF0C37BD46B3
S315200013A05DF8047B704780B483B000AF78600B464D
S315200013B0FB70FB78002B0AD07B689B899BB26FEA77
S315200013C043436FEA53439AB27B689A8107E07B686E
S315200013D09B899BB2C3F30E039AB27B689A8100BFA6
S315200013E00C37BD465DF8047B704780B483B000AFF0
S315200013F078600B46FB70FB78002B08D07B689B8AB5
S315200014009BB243F400639AB27B689A8207E07B68BA
S315200014109B8A9BB223F400639AB27B689A8200BFB0
S315200014200C37BD465DF8047B704780B483B000AFAF
S3152000143078600B467B807B88C3F308039AB27B686F
S315200014409A8000BF0C37BD465DF8047B704780B498
S3152000145083B000AF78607B689B889BB2C3F3080398
S315200014609BB218460C37BD465DF8047B704780B4A6
S3152000147083B000AF78600B46FB707B681B8A9BB2FB
S3152000148023F00F039AB27B681A827B681B8A9AB272
S31520001490FB789BB213439AB27B681A8200BF0C3743
S315200014A0BD465DF8047B704780B483B000AF78609A
S315200014B00B46FB70FB78002B08D07B689B899BB280
S315200014C043F002039AB27B689A8107E07B689B8986
S315200014D09BB223F002039AB27B689A8100BF0C3735
S315200014E0BD465DF8047B704780B483B000AF78605A
S315200014F00B467B807B689B899BB223F400639AB260
S315200015007B689A817B689B899AB27B8813439AB2BF
S315200015107B689A8100BF0C37BD465DF8047B704717
S3152000152080B483B000AF78600B467B807B681B8AD3
S315200015309BB223F020039AB27B681A827B681B8AAF
S315200015409AB27B8813439AB27B681A8200BF0C3703
S31520001550BD465DF8047B704780B483B000AF7860E9
S315200015600B46FB70FB78002B08D07B681B8A9BB24E
S3152000157043F480439AB27B681A8207E07B681B8A11
S315200015809BB223F480439AB27B681A8200BF0C3741
S31520001590BD465DF8047B704780B483B000AF7860A9
S315200015A07B689B899BB243F001039AB27B689A8140
S315200015B000BF0C37BD465DF8047B704780B483B00E
S315200015C000AF78600B46FB70FB78002B08D07B6859
S315200015D09B8A9BB243F008039AB27B689A8207E003
S315200015E07B689B8A9BB223F008039AB27B689A8217
S315200015F000BF0C37BD465DF8047B704780B483B0CE
S3152000160000AF78600B46FB707B681B8B9BB2DBB20E
S315200016109AB27B681A837B681B8B9AB2FB789BB243
S315200016201B029BB213439AB27B681A8300BF0C3706
S31520001630BD465DF8047B704780B483B000AF786008
S315200016400B46FB70FB78002B08D07B689B8A9BB2ED
S3152000165043F020039AB27B689A8207E07B689B8AD4
S315200016609BB223F020039AB27B689A8200BF0C3784
S31520001670BD465DF8047B704780B483B000AF7860C8
S315200016800B46FB70FB78002B08D07B689B8A9BB2AD
S3152000169043F010039AB27B689A8207E07B689B8AA4
S315200016A09BB223F010039AB27B689A8200BF0C3754
S315200016B0BD465DF8047B704780B483B000AF786088
S315200016C00B467B807B689B8A9BB223F004039AB2ED
S315200016D07B689A827B689B8A9AB27B8813439AB2EC
S315200016E07B689A8200BF0C37BD465DF8047B704745
S315200016F080B483B000AF78600B46FB70FB78002B7C
S3152000170008D07B689B8A9BB243F002039AB27B681F
S315200017109A8207E07B689B8A9BB223F002039AB2E7
S315200017207B689A8200BF0C37BD465DF8047B704704
S3152000173080B483B000AF78600B467B8013467B7005
S315200017407B78002B08D07B689B8A9AB27B881343D0
S315200017509AB27B689A8209E07B689B8A9AB27B88D8
S31520001760DB439BB213409AB27B689A8200BF0C3748
S31520001770BD465DF8047B704780B487B000AF7860C3
S315200017800B467B8013467B7000233B610023FB6066
S315200017900023BB6000237B617B687B617B88DBB297
S315200017A05B09DBB23B617B8803F01F03FB600122F0
S315200017B0FB6802FA03F3BB603B69012B03D17B690B
S315200017C00C337B6109E03B69022B03D17B69103323
S315200017D07B6102E07B6914337B617B78002B06D02A
S315200017E07B6919687B69BA680A431A6006E07B69D7
S315200017F01968BB68DA437B690A401A6000BF1C3748
S31520001800BD465DF8047B704780B485B000AF786034
S315200018100B467B800023FB737B681B889AB27B88F0
S3152000182013409BB2002B02D00123FB7301E000235F
S31520001830FB73FB7B18461437BD465DF8047B704767
S3152000184080B483B000AF78600B467B807B88DB4317
S315200018509AB27B681A8000BF0C37BD465DF8047BC0
S31520001860704780B487B000AF78600B467B8000233A
S31520001870FB6000237B610023BB600023FB747B8815
S31520001880DBB25B09DBB2BB607B8803F01F037B61A5
S3152000189001227B6902FA03F37B61BB68012B07D126
S315200018A07B689B899BB21A467B6913407B6111E05A
S315200018B0BB68022B07D17B681B8A9BB21A467B69C1
S315200018C013407B6106E07B689B8A9BB21A467B6944
S315200018D013407B617B881B0A9BB2FB600122FB685D
S315200018E002FA03F3FB607B681B889BB21A46FB68EF
S315200018F01340FB607B69002B05D0FB68002B02D0D0
S315200019000123FB7401E00023FB74FB7C18461C3783
S31520001910BD465DF8047B704780B485B000AF786023
S315200019200B467B800023FB810023BB817B881B0A1F
S31520001930FB81FB89012202FA03F3BB81BB89DB43CE
S315200019409AB27B681A8000BF1437BD465DF8047BC7
S31520001950704700BF80B483B000AF0346FB71FB79AC
S3152000196003F01F03012202FA03F1064A97F9073012
S315200019705B0942F8231000BF0C37BD465DF8047B97
S31520001980704700BF00E100E080B483B000AF03469B
S315200019903960FB7197F90730002B0BDA3B68DAB216
S315200019A00C49FB7903F00F03043B1201D2B20B441E
S315200019B01A7609E03B68DAB2074997F9073012012F
S315200019C0D2B20B4483F8002300BF0C37BD465DF826
S315200019D0047B704700ED00E000E100E080B582B0B6
S315200019E000AF7860396000220121074808F017F817
S315200019F002211720FFF7C8FF1720FFF7ABFF00BF14
S31520001A000837BD4680BD00BF0004024080B582B0C5
S31520001A1000AF786039607B689B688021184607F0A4
S31520001A2092FF034618460837BD4680BD80B582B072
S31520001A3000AF786039607B689B683A68D2B2012132
S31520001A40184607F0ECFF00BF0837BD4680BD80B5BD
S31520001A5082B000AF786039607B689B6801211846A8
S31520001A6008F004F800BF0837BD4680BD80B584B0B5
S31520001A7000AF7860396007F10803184607F06AFD61
S31520001A808023BB6000233B733B68002B01D00823D7
S31520001A9000E00C237B730123BB7307F10803184670
S31520001AA007F0E6FC00BF1037BD4680BD80B584B088
S31520001AB002AF78603960802007F09EFD0346012B37
S31520001AC014D1802007F0B2FD7B68DB68002B10D094
S31520001AD07B68DA687B681B69002100910021002061
S31520001AE001F0E8FA054B01221A6002E0044800F0F2
S31520001AF0A5FE002318460837BD4680BD2CC500200C
S31520001B00D4B2002080B400AF164B1B68154A43F0B0
S31520001B1001031360134B00229A60124B1B68114A73
S31520001B2023F0A85323F4102313600E4B0E4A5A6059
S31520001B300C4B0E4AC3F884200A4B0D4AC3F8882062
S31520001B40084B1B68074A23F480231360054B0022A9
S31520001B50DA60044B0022C3F88C2000BFBD465DF836
S31520001B60047B7047003802401030002400300020EB
S31520001B700030002480B483B000AF0346FB71064BCF
S31520001B8000221A70044AFB79137000BF0C37BD4639
S31520001B905DF8047B704700BF0238024080B582B0F2
S31520001BA000AF00233B600023FB710023BB71312073
S31520001BB000F08AFD0346BB713B6801333B603B68FE
S31520001BC0B3F5A04F02D0BB79002BF0D0312000F026
S31520001BD07BFD0346002B02D00123FB7101E000238D
S31520001BE0FB71FB7918460837BD4680BD80B485B0A9
S31520001BF000AF0346FB710023FB600A4B1B68FB60AA
S31520001C00FB6823F0F803FB60FB79DB00FA681343DB
S31520001C10FB60044AFB68136000BF1437BD465DF8BD
S31520001C20047B70470038024080B483B000AF03467F
S31520001C30FB71044AFB79136000BF0C37BD465DF883
S31520001C40047B70470000474280B483B000AF034650
S31520001C50FB710D4B00221A700B4B00221A70FB7978
S31520001C60012B02D0042B04D007E0074B01221A7067
S31520001C7003E0054B05221A7000BF00BF0C37BD4696
S31520001C805DF8047B704700BF7038024080B483B093
S31520001C9000AF0346FB71044AFB79136000BF0C3783
S31520001CA0BD465DF8047B7047800E474280B485B000
S31520001CB000AFF860B9607A603B607B689A01BB68C8
S31520001CC01A433B685B08013B1B041A43FB681A4313
S31520001CD0BB691B06044913434B6000BF1437BD463E
S31520001CE05DF8047B704700BF0038024080B483B0A3
S31520001CF000AF0346FB71044AFB79136000BF0C3723
S31520001D00BD465DF8047B70476000474280B483B0CF
S31520001D1000AF786039607B689A013B681B070549EC
S31520001D201343C1F8843000BF0C37BD465DF8047BF1
S31520001D30704700BF0038024080B483B000AF03462E
S31520001D40FB71044AFB79136000BF0C37BD465DF872
S31520001D50047B70476800474280B485B000AFF860C6
S31520001D60B9607A60FB689A01BB681B061A437B68D8
S31520001D701B0705491343C1F8883000BF1437BD46F9
S31520001D805DF8047B704700BF0038024080B483B002
S31520001D9000AF0346FB71044AFB79136000BF0C3782
S31520001DA0BD465DF8047B70477000474280B483B01F
S31520001DB000AF0346FB71044AFB79136000BF0C3762
S31520001DC0BD465DF8047B70474C00474280B485B021
S31520001DD000AF786039600023FB600B4B9B68FB608B
S31520001DE0FB6823F0EC63FB607A683B681343FA6870
S31520001DF01343FB60044AFB68936000BF1437BD465B
S31520001E005DF8047B704700BF0038024080B485B07F
S31520001E1000AF786039600023FB600B4B9B68FB604A
S31520001E20FB6823F07843FB607A683B681343FA68C3
S31520001E301343FB60044AFB68936000BF1437BD461A
S31520001E405DF8047B704700BF0038024080B485B03F
S31520001E5000AF78600023FB60094B9B68FB60FB6842
S31520001E6023F00303FB60FA687B681343FB60044A94
S31520001E70FB68936000BF1437BD465DF8047B70474E
S31520001E800038024080B400AF054B9B68DBB203F0FC
S31520001E900C03DBB21846BD465DF8047B704700BFD5
S31520001EA00038024080B485B000AF78600023FB6024
S31520001EB0094B9B68FB60FB6823F0F003FB60FA6824
S31520001EC07B681343FB60044AFB68936000BF1437AA
S31520001ED0BD465DF8047B70470038024080B485B06B
S31520001EE000AF78600023FB60094B9B68FB60FB68B2
S31520001EF023F4E053FB60FA687B681343FB60044AD3
S31520001F00FB68936000BF1437BD465DF8047B7047BD
S31520001F100038024080B485B000AF78600023FB60B3
S31520001F200A4B9B68FB60FB6823F46043FB607B687D
S31520001F30DB00FA681343FB60044AFB68936000BF2A
S31520001F401437BD465DF8047B704700BF0038024059
S31520001F5080B489B000AF78600023BB6100237B6129
S31520001F600023FB6102233B610023FB600223BB604D
S31520001F704A4B9B6803F00C03BB61BB69082B11D04D
S31520001F80BB69082B44D8BB69002B03D0BB69042B43
S31520001F9004D03DE07B68424A1A603DE07B68414AB6
S31520001FA01A6039E03D4B5B689B0D03F00103FB6033
S31520001FB03A4B5B6803F03F03BB60FB68002B0CD0F9
S31520001FC0384ABB68B2FBF3F3344A52689209C2F32B
S31520001FD0080202FB03F3FB610BE0314ABB68B2FB4C
S31520001FE0F3F32E4A52689209C2F3080202FB03F366
S31520001FF0FB612A4B5B681B0C03F0030301335B0078
S315200020003B61FA693B69B2FBF3F27B681A6003E035
S315200020107B68234A1A6000BF204B9B6803F0F003BD
S31520002020BB61BB691B09BB611F4ABB6913441B7893
S31520002030DBB27B617B681A687B69DA407B685A6011
S31520002040164B9B6803F4E053BB61BB699B0ABB61DB
S31520002050154ABB6913441B78DBB27B617B685A68DF
S315200020607B69DA407B689A600C4B9B6803F460437B
S31520002070BB61BB695B0BBB610B4ABB6913441B7815
S31520002080DBB27B617B685A687B69DA407B68DA6001
S3152000209000BF2437BD465DF8047B704700380240F8
S315200020A00024F40000127A00C0BE002080B485B05F
S315200020B000AF78600023FB607B6803F44073B3F5C0
S315200020C0407F11D10F4B9B68FB60FB6823F4F8130C
S315200020D0FB607B6823F0704323F44073FA68134354
S315200020E0FB60084AFB689360064B1A6F7B68C3F354
S315200020F00B03044913430B6700BF1437BD465DF835
S31520002100047B70470038024080B483B000AF03469A
S31520002110FB71044AFB79136000BF0C37BD465DF89E
S31520002120047B70473C0E474280B483B000AF034621
S31520002130FB71044AFB79136000BF0C37BD465DF87E
S31520002140047B7047400E474280B483B000AF78606E
S31520002150044A7B68136000BF0C37BD465DF8047BDC
S31520002160704700BF5C01474280B485B000AF7860FD
S315200021700023FB600B4BD3F88C30FB60FB6823F00D
S315200021801F03FB607B68013BFA681343FB60054A2B
S31520002190FB68C2F88C3000BF1437BD465DF8047B5F
S315200021A0704700BF0038024080B485B000AF786029
S315200021B00023FB600B4BD3F88C30FB60FB6823F4C9
S315200021C0F853FB607B68013B1B02FA681343FB60F4
S315200021D0044AFB68C2F88C3000BF1437BD465DF850
S315200021E0047B70470038024080B485B000AF786029
S315200021F00023FB600A4BD3F88C30FB60FB6823F48A
S315200022004013FB60FA687B681343FB60044AFB6853
S31520002210C2F88C3000BF1437BD465DF8047B70478A
S315200022200038024080B485B000AF78600023FB60A0
S315200022300A4BD3F88C30FB60FB6823F44003FB6029
S31520002240FA687B681343FB60044AFB68C2F88C304B
S3152000225000BF1437BD465DF8047B70470038024046
S3152000226080B485B000AF78600023FB600A4BD3F8BA
S315200022708C30FB60FB6823F44033FB60FA687B6894
S315200022801343FB60044AFB68C2F88C3000BF143746
S31520002290BD465DF8047B70470038024080B483B0A9
S315200022A000AF7860044A7B68136000BF0C37BD46D8
S315200022B05DF8047B704700BFE011474280B483B0CD
S315200022C000AF78600B46FB70FB78002B06D00A4BDC
S315200022D01A6B09497B6813430B6306E0064B1A6B9E
S315200022E07B68DB43044913400B6300BF0C37BD46B4
S315200022F05DF8047B704700BF0038024080B483B08D
S3152000230000AF78600B46FB70FB78002B06D00A4B9B
S315200023105A6B09497B6813434B6306E0064B5A6B9D
S315200023207B68DB43044913404B6300BF0C37BD4633
S315200023305DF8047B704700BF0038024080B483B04C
S3152000234000AF78600B46FB70FB78002B06D00A4B5B
S315200023509A6B09497B6813438B6306E0064B9A6B9D
S315200023607B68DB43044913408B6300BF0C37BD46B3
S315200023705DF8047B704700BF0038024080B483B00C
S3152000238000AF78600B46FB70FB78002B06D00A4B1B
S315200023901A6C09497B6813430B6406E0064B1A6CDA
S315200023A07B68DB43044913400B6400BF0C37BD46F2
S315200023B05DF8047B704700BF0038024080B483B0CC
S315200023C000AF78600B46FB70FB78002B06D00A4BDB
S315200023D05A6C09497B6813434B6406E0064B5A6CDA
S315200023E07B68DB43044913404B6400BF0C37BD4672
S315200023F05DF8047B704700BF0038024080B483B08C
S3152000240000AF78600B46FB70FB78002B06D00A4B9A
S315200024101A6909497B6813430B6106E0064B1A6962
S315200024207B68DB43044913400B6100BF0C37BD4674
S315200024305DF8047B704700BF0038024080B483B04B
S3152000244000AF78600B46FB70FB78002B06D00A4B5A
S315200024505A6909497B6813434B6106E0064B5A6962
S315200024607B68DB43044913404B6100BF0C37BD46F4
S315200024705DF8047B704700BF0038024080B483B00B
S3152000248000AF78600B46FB70FB78002B06D00A4B1A
S315200024909A6909497B6813438B6106E0064B9A6962
S315200024A07B68DB43044913408B6100BF0C37BD4674
S315200024B05DF8047B704700BF0038024080B483B0CB
S315200024C000AF78600B46FB70FB78002B06D00A4BDA
S315200024D01A6A09497B6813430B6206E0064B1A6A9F
S315200024E07B68DB43044913400B6200BF0C37BD46B3
S315200024F05DF8047B704700BF0038024080B483B08B
S3152000250000AF78600B46FB70FB78002B06D00A4B99
S315200025105A6A09497B6813434B6206E0064B5A6A9E
S315200025207B68DB43044913404B6200BF0C37BD4632
S315200025305DF8047B704700BF0038024080B483B04A
S3152000254000AF78600B46FB70FB78002B06D00A4B59
S315200025501A6D09497B6813430B6506E0064B1A6D15
S315200025607B68DB43044913400B6500BF0C37BD462F
S315200025705DF8047B704700BF0038024080B483B00A
S3152000258000AF78600B46FB70FB78002B06D00A4B19
S315200025905A6D09497B6813434B6506E0064B5A6D15
S315200025A07B68DB43044913404B6500BF0C37BD46AF
S315200025B05DF8047B704700BF0038024080B483B0CA
S315200025C000AF78600B46FB70FB78002B06D00A4BD9
S315200025D09A6D09497B6813438B6506E0064B9A6D15
S315200025E07B68DB43044913408B6500BF0C37BD462F
S315200025F05DF8047B704700BF0038024080B483B08A
S3152000260000AF78600B46FB70FB78002B06D00A4B98
S315200026101A6E09497B6813430B6606E0064B1A6E51
S315200026207B68DB43044913400B6600BF0C37BD466D
S315200026305DF8047B704700BF0038024080B483B049
S3152000264000AF78600B46FB70FB78002B06D00A4B58
S315200026505A6E09497B6813434B6606E0064B5A6E51
S315200026607B68DB43044913404B6600BF0C37BD46ED
S315200026705DF8047B704700BF0038024080B483B009
S3152000268000AF03460A46FB711346BB71BB79002B8C
S3152000269008D00C4B1B78DAB20A49FB791343DBB21C
S315200026A00B7009E0074B1B78DAB2FB79DB43DBB210
S315200026B004491340DBB20B7000BF0C37BD465DF8F2
S315200026C0047B70470D38024080B487B000AF0346C4
S315200026D0FB710023FB6000237B610023FB74FB79E5
S315200026E05B09DBB2FB60FB68012B03D1124B1B6835
S315200026F07B6109E0FB68022B03D10F4B1B6F7B61CB
S3152000270002E00D4B5B6F7B61FB7903F01F03FB60DF
S315200027107A69FB6822FA03F303F00103002B02D047
S315200027200123FB7401E00023FB74FB7C18461C3755
S31520002730BD465DF8047B70470038024080B400AF88
S31520002740054B5B6F044A43F08073536700BFBD4659
S315200027505DF8047B704700BF0038024080B485B026
S3152000276000AF0346FB710023FB73094BDA68FB7944
S315200027701340002B02D00123FB7301E00023FB73DF
S31520002780FB7B18461437BD465DF8047B704700BFB7
S315200027900038024080B483B000AF0346FB71044A80
S315200027A0FB79137000BF0C37BD465DF8047B70477C
S315200027B00E38024080B483B000AF0346FB71FB792C
S315200027C003F01F03012202FA03F1064A97F90730A4
S315200027D05B0942F8231000BF0C37BD465DF8047B29
S315200027E0704700BF00E100E080B483B000AF03462D
S315200027F03960FB7197F90730002B0BDA3B68DAB2A8
S315200028000C49FB7903F00F03043B1201D2B20B44AF
S315200028101A7609E03B68DAB2074997F907301201C0
S31520002820D2B20B4483F8002300BF0C37BD465DF8B7
S31520002830047B704700ED00E000E100E080B582B047
S3152000284000AF78600EE07B681B780D2B07D07B6885
S315200028505A1C7A601B78184600F060F902E07B6803
S3152000286001337B607B681B78002BECD100BF00BF57
S315200028700837BD4680BD80B586B000AF786000239E
S315200028807B617B6803F00F027B69591C79611049D3
S315200028908A5C07F118010B4403F80C2C7B681B0992
S315200028A07B607B68002BECD10AE07B69013B7B6176
S315200028B007F10C027B6913441B78184600F02EF9A9
S315200028C07B69002BF1D100BF00BF1837BD4680BD04
S315200028D0D0BE002080B59EB000AF78607B68002B0C
S315200028E002DA4FF0FF3300E001233B677B683A6F43
S315200028F002FB03F37B6000237B6779681C4B83FB19
S3152000290001239A10CB17D21A13469B0013445B005F
S31520002910CA1A7B6F591C796716498A5C07F17801B8
S315200029200B4403F86C2C7B68114A82FB031292102D
S31520002930DB17D31A7B607B68002BDED13B6F002B25
S315200029400EDA2D2000F0EAF80AE07B6F013B7B6768
S3152000295007F10C027B6F13441B78184600F0DEF853
S315200029607B6F002BF1D100BF00BF7837BD4680BDFD
S3152000297067666666D0BE002080B483B000AF1023A1
S315200029807B607B6883F3118800BF00BF0C37BD4690
S315200029905DF8047B704780B483B000AF30237B6042
S315200029A07B6883F3118800BF00BF0C37BD465DF8F6
S315200029B0047B704780B584B000AF78600B48FFF782
S315200029C03DFF0B4B1B68002B02D1094B094A1A60AD
S315200029D0074B1B68FB60064B1A687B681344044A46
S315200029E01360FB6818461037BD4680BDF8B200203C
S315200029F090C80020A848012080B485B000AF786038
S31520002A0039603B6803F5F95310337A6813607B68A5
S31520002A101B68BB600023FB600AE0FB689B001A462C
S31520002A20BB6813441A4600231360FB680133FB601E
S31520002A30FB68332BF1DDBB686FF016021A60BB68AA
S31520002A4004331A4603231360BB6884331A464FF0B7
S31520002A508073136000BF1437BD465DF8047B704752
S31520002A6080B485B000AF786039607B681B6880339E
S31520002A70FB60FB683A681A6000BF1437BD465DF8F4
S31520002A80047B704780B584B000AF1D4803F0EEFD8F
S31520002A903B1D184603F036FF40F24733BB803B1DF3
S31520002AA01946174803F0C2FE164B174A1A60022130
S31520002AB06FF00100FFF798FE144B154A1A600021AB
S31520002AC06FF00400FFF790FE124B134A1A600221A2
S31520002AD03220FFF789FE3220FFF76CFE00210848DE
S31520002AE003F05AFF0121064804F023F801220221AF
S31520002AF0034804F0F2FF00BF1037BD4680BD00BF7B
S31520002B00000C004038C00120210000202CC00120EC
S31520002B101D00002008C10120A32E002080B582B010
S31520002B2000AF0346FB71FB799BB219460748FEF7B7
S31520002B307CFC00BF80210548FEF766FE0346002B7D
S31520002B40F8D000BF00BF0837BD4680BD0010014049
S31520002B5080B500AF124803F03BFF03461A46114BDF
S31520002B601A60114B01221A60104B00221A60104B7A
S31520002B701B68002B06D00E4B1B680E4A12680021DC
S31520002B8010469847084B00221A60084B1B68002BFA
S31520002B9001D000F05DFA054B00221A6000BF80BD0F
S31520002BA0000C004030C5002028C500202CC5002080
S31520002BB0A0C5002040C5002080B500AF124803F014
S31520002BC007FF03461A46114B1A60114B01221A6061
S31520002BD0104B00221A60104B5B68002B06D00E4B60
S31520002BE05B680E4A5268012110469847084B00221E
S31520002BF01A60084B1B68002B01D000F029FA054B00
S31520002C0000221A6000BF80BD000C004030C50020A5
S31520002C1028C500202CC50020A0C5002040C50020C6
S31520002C2080B500AF124803F0D3FE03461A46114B77
S31520002C301A60114B01221A60104B00221A60104BA9
S31520002C409B68002B06D00E4B9B680E4A9268022189
S31520002C5010469847084B00221A60084B1B68002B29
S31520002C6001D000F0F5F9054B00221A6000BF80BDA7
S31520002C70000C004030C5002028C500202CC50020AF
S31520002C80A0C5002040C5002080B485B000AF786084
S31520002C9039600023FB603B681B68BB6004E0BB68AF
S31520002CA0FB60BB681B68BB60BB68002B05D0BB689C
S31520002CB09A687B689B689A42F1DD7B68BA681A60DD
S31520002CC0FB68002B03D13B687A681A6002E0FB6838
S31520002CD07A681A6000BF1437BD465DF8047B7047DA
S31520002CE080B485B000AF786039600023FB603B6814
S31520002CF01B68BB6004E0BB68FB60BB681B68BB60ED
S31520002D00BB68002B05D0BB685A687B685B689A4213
S31520002D10F1DD7B68BA681A60FB68002B03D13B683B
S31520002D207A681A6002E0FB687A681A6000BF143776
S31520002D30BD465DF8047B704780B584B000AF7860EF
S31520002D407B681B68FB60FB68002B04D0FB681A6855
S31520002D507B681A600CE00948FFF770FD002202210B
S31520002D60074806F05CFE0748FFF768FD30BFFDE721
S31520002D70FB6818461037BD4680BD00BF10B3002043
S31520002D80000402401CB3002080B584B000AF7860F8
S31520002D907B681B68FB60FB68002B04D0FB681A6805
S31520002DA07B681A600CE00948FFF748FD00220221E3
S31520002DB0074806F034FE0748FFF740FD30BFFDE721
S31520002DC0FB6818461037BD4680BD00BF10B30020F3
S31520002DD00004024028B3002080B483B000AF78609E
S31520002DE039603B681A687B681A603B687A681A60A3
S31520002DF000BF0C37BD465DF8047B704780B483B0B6
S31520002E0000AF786039603B681A687B689A603B68D7
S31520002E107A681A6000BF0C37BD465DF8047B7047A0
S31520002E2080B485B000AF78607B681B68FB60FB6868
S31520002E309A687B681A60FB6818461437BD465DF8A9
S31520002E40047B704780B485B000AF7860396000237A
S31520002E50FB603B681B68BB6004E0BB68FB60BB682B
S31520002E601B68BB60BB68002B03D0BA687B689A429C
S31520002E70F3D1BB68002B0DD0FB68002B04D0BB68B8
S31520002E801A68FB681A6003E0BB681A683B681A6018
S31520002E90012300E0002318461437BD465DF8047B65
S31520002EA0704780B582B000AF02211E4804F09FFE15
S31520002EB01C4803F08DFD03467B6007E01A48FFF7A8
S31520002EC03BFF034619491846FFF7DEFE164B1B68E3
S31520002ED0002B06D0144B1B685A687B68D31A002B2C
S31520002EE0ECDD114B1B68002B16D00E4803F070FD4D
S31520002EF003463B600C4B1B685B683A689A4204DDCC
S31520002F00002202210A4806F08AFD074B1B685B68EF
S31520002F101946044804F09BF800F09AF800BF0837D9
S31520002F20BD4680BD000C004024C5002020C50020E1
S31520002F30000402400346024A136010DFF74600BF32
S31520002F404CC500200346054A1360054B5B68044ABE
S31520002F5043F080535360F74600BF00BF4CC50020A6
S31520002F6000ED00E080B582B000AF7860094B5B6869
S31520002F70C3F30803002B03D17868FFF7DBFF02E0D9
S31520002F807868FFF7DFFFFFF706FD00BF0837BD466D
S31520002F9080BD00BF00ED00E090B585B000AF234BAB
S31520002FA01C682348FFF7C8FE0346E360E368BB605E
S31520002FB0FFF7F1FCBB68D868BB681969BB685B6919
S31520002FC01A4600F015F9FFF7D7FC1A49B868FFF73B
S31520002FD003FF194B1B689B68DB687B60144B1B68DF
S31520002FE0002B0AD07B68002BD9D0114B1B689A681E
S31520002FF07B689B68D31A002BD1DD0F48FFF710FFA3
S3152000300003460E491846FFF7F9FE0B4B1B68FB607B
S3152000301003E0FB681B691B68FB60FB681B69002BD0
S31520003020F7D1F868FFF79EFFB9E700BFF0BE002092
S3152000303020C50020E4BE0020ECBE0020E8BE002013
S3152000304080B500AF00F004F8FFF7A5FC30BFFBE722
S3152000305080B582B000AF144B1B68DB687B60134BD6
S315200030601B68002B1BD0124B1B68002B17D07B68CC
S31520003070002B07D00D4B1B689A687B689B68D31A78
S31520003080002B0CDA0A48FFF7CBFE03460649184602
S31520003090FFF7B4FE044B1B681846FFF763FF00BF1B
S315200030A00837BD4680BD00BFECBE002020C50020ED
S315200030B0E8BE002080B588B000AFF860B9607A60BD
S315200030C03B60EFF312833B613B691B09012B14BF65
S315200030D001230023DBB2FB77FFF74EFC3A48FFF7CC
S315200030E053FEB861BB697A68DA60BB693A681A61CF
S315200030F0BB69BA6A5A61354B1B68002B04D1344B25
S315200031001B68DB685B6801E0324B1B68FA681A446F
S31520003110BB695A60BB695A68BB68002B01DDBB6876
S3152000312001E06FF000431A44BB699A602A4803F015
S315200031304FFC03467B61BB695A687B69D31A002B17
S3152000314016DD2649B869FFF7CBFD244B1B685B6863
S315200031507A699A4204DD00220221214806F05FFCAA
S315200031601E4B1B685B6819461B4803F070FF21E065
S315200031701C49B869FFF788FDFB7F002B1AD01A4B34
S315200031801B68002B16D0174B1B689A68174B1B68B9
S31520003190DB689B68D31A002B0CDA1348FFF740FE36
S315200031A0034612491846FFF729FE104B1B6818469E
S315200031B0FFF7D8FEFB7F002B01D0FFF7ECFBBB69A6
S315200031C018462037BD4680BDE4BE002028C5002015
S315200031D0F0BE002030C50020000C004024C5002091
S315200031E00004024020C50020E8BE0020ECBE0020DE
S315200031F080B588B000AFF860B9607A60EFF31283CB
S315200032003B613B691B09012B14BF01230023DBB261
S31520003210FB76FFF7B1FBFB681B68FB61FB69002BA4
S3152000322037D003E0FB691B691B68FB61FB691B69DF
S31520003230002BF7D1304B1B68FA699A4202D0FB7EED
S31520003240002B07D1FB7E002B01D0FFF7A4FB4FF00C
S31520003250FF334DE0FB685B68002B03D0FB685B689F
S3152000326000221A61244B1A68FB685A60224B1B689D
S31520003270FA681A61F869FFF775FE1F4B1B68DB6851
S31520003280002B06D1FB7E002B01D0FFF784FB002309
S315200032902EE0194B1A68FB681A60FB7E002B05D0BE
S315200032A0FB685B68012B01D0FFF775FBBB6879686B
S315200032B0F86898477861FFF75FFBFB6800221A6081
S315200032C0FB685B68FB61FB69002B0BD0FB69012B5C
S315200032D008D0FB6800225A60FB6900221A61F8694F
S315200032E0FFF740FEFB7E002B01D0FFF754FB7B69E6
S315200032F018462037BD4680BDF0BE002080B586B07A
S3152000330000AF7860EFF31283FB60FB681B09012B8B
S3152000331014BF01230023DBB2FB74FFF72DFB1F49EB
S315200033207868FFF78FFD0346002B06D11C49786885
S31520003330FFF788FD0346002B04D01A497868FFF76B
S315200033404BFD21E0184B1B687B611AE0174B1B686D
S315200033507A699A4212D07B69DB687A689A420DD1E3
S315200033607B691A697B68DB689A4207D17B690022F0
S31520003370DA600C497868FFF72FFD05E07B699B68CA
S315200033807B617B69002BE1D1FB7C002B01D0FFF711
S3152000339002FB00BF1837BD4680BD00BF24C50020F4
S315200033A020C50020E4BE0020ECBE0020F0BE002098
S315200033B080B485B000AF7860EFF31283FB60FB68C2
S315200033C01B09012B04D0074B1B68DB685B6801E0F7
S315200033D0054B1B687A68136000BF1437BD465DF83D
S315200033E0047B7047F0BE002030C5002080B485B035
S315200033F000AF7860EFF31283FB60FB681B09012B9B
S3152000340004D0084B1B68DB685B6801E0064B1B6831
S315200034107A6812689B1A18461437BD465DF8047BF5
S31520003420704700BFF0BE002030C5002080B584B0B4
S3152000343000AFEFF312837B607B681B09012B14BF5F
S3152000344001230023DBB2FB73FFF796FA0C4803F047
S31520003450BFFA0346BB60FB7B002B01D0FFF79BFA2C
S31520003460FB7B002B04D0074B1B68DB685B6801E005
S31520003470054B1B68BA68D31A18461037BD4680BD5F
S31520003480000C0040F0BE002030C5002080B582B080
S3152000349000AF00237B6012E07B685A1C13465B005A
S315200034A01344DB00444A991843487A6813465B0064
S315200034B01344DB00034419607B6801337B607B681F
S315200034C01C2BE9DD3C4B0022C3F8B82200237B608D
S315200034D013E07B685A1C13469B0013449B00374A13
S315200034E0991836487A6813469B0013449B00034478
S315200034F0083319607B6801337B607B68022BE8DD2B
S315200035002E4B00225A6400237B6030E02B497A68D8
S3152000351013469B0013449B000B4404337A681A60BD
S315200035207A6813469B0013449B00244A1A447B68FE
S315200035305B0323490B4419461046FFF75DFA7A6868
S3152000354013469B0013449B001C4A13441D491846EE
S31520003550FFF786FA19497A6813469B0013449B00A5
S315200035600B44103300221A607B6801337B607B6832
S31520003570032BCBDD144B4FF0FF325A60124B002247
S315200035809A60114B00221A610F4B0022DA600F4815
S31520003590FFF754F90E48FFF751F90E48FFF74EF999
S315200035A00A48FFF74BF90948FFF748F9FFF76AFA87
S315200035B000BF0837BD4680BDC0C5002050C50020CD
S315200035C098C80020992F0020ACC5002034B30020D5
S315200035D038B3002044B3002080B586B000AFF86031
S315200035E0B9601346FB71FB79022B41D8EFF31283A6
S315200035F03B613B691B09012B14BF01230023DBB26E
S31520003600FB75FFF7B9F9FB79022B0ED0022B10DCE4
S31520003610002B02D0012B04D00BE0174B174A1A605F
S3152000362014E0174B174A1A6010E0174B174A1A6016
S315200036300CE01748FFF702F900220221154806F090
S31520003640EEF91548FFF7FAF830BFFDE7FB79134985
S31520003650FA6841F82320FB791149BA6841F82320FA
S31520003660FB6801225A60FB7D002B01D0FFF793F9FE
S3152000367000BF1837BD4680BDD4C00120512B002085
S3152000368090C00120B92B00209CC00120212C0020B5
S3152000369010B30020000402405CB3002040C5002087
S315200036A0A0C5002080B586B002AFF860B9607A6008
S315200036B0FFF762F9FFF7EAFEBB68002B16D00F482A
S315200036C003F086F903461A460D4B1A600D4B01226C
S315200036D01A607B680093BB68FA6800210020FFF718
S315200036E0E9FC084B00221A60FFF7B2FCFFF7A8FCA2
S315200036F0002318461037BD4680BD00BF000C004091
S3152000370030C5002028C5002080B5ACB002AF786057
S3152000371039603A6807F16C031068516803C3118950
S31520003720927A19809A7097F86C30772B0ED097F88A
S315200037306C3007F10800934A642106F049FF07F12F
S3152000374008031A4690499148FFF752FD7B685B694A
S315200037500133052B00F2FB8101A252F823F000BFB2
S315200037607937002079380020C53800201D3B0020FD
S315200037704F3B00203D3B002097F86C307E2B65D0D8
S315200037807E2B00F3DD817A2B02D07B2B13D0D7E161
S315200037907F4B1A467C497D48FFF72AFD97F86D3006
S315200037A01A467B68DB689A4262D07B689B685A1C03
S315200037B07B689A605CE07B6801225A610123009352
S315200037C0744B754A00210020FFF774FC00227349D0
S315200037D07348FFF70DFDF867FB6F002B05D101221B
S315200037E070497148FFF704FD04E000226D496E48D8
S315200037F0FFF7FEFC97F86D301A467B681A617B68E6
S31520003800DB69002B1AD17B68DB695A1C7B68DA617D
S3152000381000230093654B604A00210020FFF74AFCF5
S3152000382000230093624B5C4A00216248FFF742FC6A
S31520003830614B1A4654495548FFF7DAFC002300939A
S315200038405E4B5F4A00210020FFF734FC5D4B1A4691
S315200038504D494E48FFF7CCFC97F86F30BB677B6825
S315200038609B68BA6F9A4205DD7B68BA6F9A6001E061
S3152000387000BF65E100BF63E197F86C307B2B40F019
S3152000388061817B6801225A6101230093414B424AA0
S3152000389000210020FFF70EFC97F86D301A467B6852
S315200038A01A617B681B690093474B3B4A0021002025
S315200038B0FFF700FC454B1A4633493448FFF798FC7E
S315200038C000BF3FE197F86C30772B40F03D8197F8A9
S315200038D06F30C7F8A03007F10803D7F8A0203C497D
S315200038E0184606F0C5FE07F108031A46264927485A
S315200038F0FFF77EFCD7F8A0300093364B304A0021E4
S315200039000020FFF7D7FB01230093334B2C4A0021DD
S315200039100020FFF7CFFB0023C7F8A4307B689B6805
S31520003920C7F89C307B68DB68C7F89830D7F8A0309A
S31520003930002B03F00103B8BF5B42012B03D1D7F85C
S315200039409C30022B12D0D7F89C30032B4AD1D7F8C3
S31520003950A010224B83FB0132CB17D21A13465B00F1
S315200039601344CA1AD7F8983093423BD10123C7F89B
S31520003970A430012300931A4B094A00210020FFF7A7
S3152000398099FB3AE07CB300206B05002010C0002094
S3152000399090B30020E50D00208CBE0020BD510020F4
S315200039A0C8BF00202D1A002030C40020450B00205F
S315200039B099080020A0860100C8B300206954002081
S315200039C0F0BF0020DCB30020250E002014B4002018
S315200039D028B4002071530020515B002056555555C0
S315200039E0555300200023C7F8A430002300935A4BD8
S315200039F05A4A00210020FFF75DFB0022584959480A
S31520003A00FFF7F6FBC7F89400D7F894300A33C7F8C7
S31520003A109030554AD7F8A03052F82320D7F8903066
S31520003A201344524A9B001344D3ED007A9FED507AFB
S31520003A3067EE877AFDEEE77A17EE903AC7F88C3074
S31520003A40D7F88C204B494548FFF7D2FBD7F8A4304E
S31520003A50012B61D1484AD7F8A03052F82330C7F855
S31520003A608830002245493F48FFF7C2FBC7F884004B
S31520003A70D7F8843007EE903AB8EEE77ADFED406A61
S31520003A80C6EE877AC7ED207A002300933D4B334A52
S31520003A9000210020FFF70EFB002300933A4B2F4A0C
S31520003AA000210020FFF706FB07F10800D7F8A43015
S31520003AB00193D7F888300093D7F88C30D7F8A02018
S31520003AC0324906F0D5FD07F108031A463049314838
S31520003AD0FFF78EFBD7F888304FF4FA7202FB03F318
S31520003AE007EE903AB8EEE77AD7ED207A67EE277A96
S31520003AF09FED297A77EEC77A9FED287A67EE877A47
S31520003B00FDEEE77A00230093254B144A41F28831D3
S31520003B1017EE900AFFF7CEFA00BF15E097F86C3043
S31520003B207F2B13D197F86D301A467B68DB689A4253
S31520003B3002DD7B6800229A6100BF07E000BF06E035
S31520003B4000BF04E000BF02E000BF00E000BF00BFEE
S31520003B50A837BD4680BD00BF55530020C8BF0020F2
S31520003B605F580020F0BF002014B8002094B8002031
S31520003B70002474491D530020F8B800204558002021
S31520003B800000704239530020AB52002038B4002088
S31520003B906B05002010C00020000048420000C842EB
S31520003BA07552002080B483B000AF786039607B689E
S31520003BB0DB6818460C37BD465DF8047B704780B439
S31520003BC083B000AF786039607B681B6918460C3774
S31520003BD0BD465DF8047B704780B483B000AF786043
S31520003BE039607B689B6818460C37BD465DF8047BB8
S31520003BF0704780B5A0B002AF78603960194B1A467D
S31520003C0019491A48FFF7F4FA7B689A687B68DB68DB
S31520003C1007F1080000931346154A642106F0D8FCE4
S31520003C2007F108031A4610491048FFF7E1FA7B68A6
S31520003C30DB68DBB287F86D307E2387F86C30022391
S31520003C4087F86E307B689B68DBB287F86F3007F1A8
S31520003C506C031A4607490848FFF7CAFA00BF7837A7
S31520003C60BD4680BD6CB400206B05002010C000202E
S31520003C70ACB40020C748002044C4002080B5A0B0C2
S31520003C8002AF786039601A4B1A461A491A48FFF76C
S31520003C90AFFA7B6899687B681B697A68D26807F1F6
S31520003CA00800019200930B46144A642106F090FC0A
S31520003CB007F108031A460F490F48FFF799FA7B6860
S31520003CC0DB68DBB287F86D307A2387F86C3007F132
S31520003CD06C031A460A490B48FFF78AFA0A4B1A461A
S31520003CE004490548FFF784FA00BF7837BD4680BDF2
S31520003CF0C8B400206B05002010C000200CB50020A1
S31520003D00C748002044C4002034B5002080B586B0C2
S31520003D1000AF786039600B4B1A460B490B48FFF70A
S31520003D2067FA7B681B69DBB27B737D233B7307F1E4
S31520003D300C031A4606490748FFF75AFA00BF1837F8
S31520003D40BD4680BD48B500206B05002010C0002070
S31520003D50C748002044C4002080B586B000AF7860F4
S31520003D6039600B4B1A460B490B48FFF741FA7B6823
S31520003D70DB68DBB27B737B233B7307F10C031A46AC
S31520003D8006490748FFF734FA00BF1837BD4680BDFD
S31520003D9088B500206B05002010C00020C7480020F1
S31520003DA044C4002080B586B000AF786039600B4BE4
S31520003DB01A460B490B48FFF71BFA7B68DB68DBB218
S31520003DC07B737F233B7307F10C031A46064907488A
S31520003DD0FFF70EFA00BF1837BD4680BDD0B50020CC
S31520003DE06B05002010C00020C748002044C40020D6
S31520003DF080B483B000AF786039607B6802225A6154
S31520003E0000BF0C37BD465DF8047B704780B584B093
S31520003E1002AF786039607B6800225A6100230093E4
S31520003E202E4B2F4A00210020FFF744F97B681B699F
S31520003E3000932C4B2A4A00210020FFF73BF97B6890
S31520003E40DA687B681A6100230093274B7A68002181
S31520003E500020FFF72FF9002224492548FFF7C8F94B
S31520003E6003460093234B224A00212348FFF722F9D9
S31520003E70224B1A4622492348FFF7BAF900221B494A
S31520003E801B48FFF7B5F9034600931F4B184A00213C
S31520003E900020FFF70FF97B68DB69002B1AD17B68BE
S31520003EA0DB695A1C7B68DA6100230093174B0C4AA6
S31520003EB000210020FFF7FEF800230093144B084A48
S31520003EC000211448FFF7F6F8134B1A460C490D4803
S31520003ED0FFF78EF900BF0837BD4680BDE50D0020EF
S31520003EE08CBE0020550E0020593D0020455800204C
S31520003EF0F0BF00208555002048E8010014B60020B8
S31520003F006B05002010C00020A7530020450B002081
S31520003F1099080020A0860100C8B3002080B584B08F
S31520003F2002AF786039607B6800225A6100230093D3
S31520003F302A4B2B4A00210020FFF7BCF87B68DA6861
S31520003F407B681A6100230093264B7A6800210020A3
S31520003F50FFF7B0F8002224492448FFF749F9034621
S31520003F600093234B214A00212248FFF7A3F8224B36
S31520003F701A4622492248FFF73BF900221A491B48D4
S31520003F80FFF736F9034600931E4B184A00210020FE
S31520003F90FFF790F87B68DB69002B1AD17B68DB6919
S31520003FA05A1C7B68DA6100230093174B0C4A0021C8
S31520003FB00020FFF77FF800230093144B084A0021C6
S31520003FC01348FFF777F8134B1A460C490C48FFF7AE
S31520003FD00FF900BF0837BD4680BD00BFE50D0020A4
S31520003FE08CBE0020593D002045580020F0BF0020FF
S31520003FF08555002048E8010014B600206B050020F6
S3152000400010C00020A7530020450B0020990800204F
S31520004010A0860100C8B3002080B584B002AF7860C6
S3152000402039607B689B69002B0ED00D4B1A460D49D3
S315200040300D48FFF7DDF8002300930C4B7A6800212A
S315200040400020FFF737F803E07B684FF0FF325A6114
S315200040507B6801229A6100BF0837BD4680BD00BF3C
S315200040602CB600206B05002010C000201D3F00202C
S3152000407080B584B002AF78603960002300930C4B82
S315200040800C4A00210020FFF715F80B4B1A460B4966
S315200040900B48FFF7ADF8002300930A4B054A002191
S315200040A00948FFF707F800BF0837BD4680BD00BFA7
S315200040B07D3C0020F4BE002044B600206B05002085
S315200040C010C00020F33B0020400D030080B59CB0BB
S315200040D000AF786039607B689B6807F10C00074A5F
S315200040E0642106F075FA07F10C031A4604490548BF
S315200040F0FFF77EF800BF7037BD4680BD60B6002052
S315200041006B05002010C0002080B483B000AF78601B
S3152000411039607B685B6918460C37BD465DF8047BC1
S31520004120704780B584B002AF786039600023009371
S315200041300D4B0E4A00210020FEF7BCFF0023009302
S315200041400B4B0A4A00214FF4FA70FEF7B3FF002307
S315200041500093084B054A00214FF47A70FEF7AAFF18
S3152000416000BF0837BD4680BDF13D0020F4BE0020CB
S31520004170A53D00201940002080B483B000AF7860B0
S3152000418039607B683A689A6000BF0C37BD465DF897
S31520004190047B704780B483B000AF786039607B6859
S315200041A03A681A6100BF0C37BD465DF8047B70473C
S315200041B080B582B000AF7860396000220D490E4884
S315200041C0FFF716F80346002B0FD10C4B1A460C4965
S315200041D00C48FFF70DF800220B497868FFF708F81E
S315200041E000220A490A48FFF703F800BF0837BD46F0
S315200041F080BD00BF470C00208CBE002074B6002076
S315200042006B05002010C00020234100206D5B00209C
S31520004210F0BF002080B584B002AF78603960194BBA
S315200042201A4619491948FEF7E3FF7B6801225A61AD
S3152000423001230093164B174A00210020FEF73AFF70
S315200042407B689B685A1C7B689A6000230093124BFC
S31520004250104A00210020FEF72DFF012300930F4B6B
S315200042600F4A00210020FEF725FF002300930D4B67
S315200042707A68002142F21070FEF71CFF00BF083753
S31520004280BD4680BD8CB600206B05002010C00020E6
S31520004290E50D00208CBE0020110D0020D7510020F6
S315200042A014BF0020B141002080B59EB002AF7860D7
S315200042B039602B4B1A462B492B48FEF799FF7B6812
S315200042C05B69002B05D1294B1A4626492648FEF75D
S315200042D08FFF3B68012B16D17B6805225A61052387
S315200042E00093234B234A00210020FEF7E3FE002300
S315200042F00093214B214A00210020FEF7DBFE7B683C
S3152000430001229A6028E03B68022B1ED17B68062298
S315200043105A6106230093164B164A00210020FEF709
S31520004320C9FE7B6800229A6000230093124B134A31
S3152000433000210020FEF7BEFE00230093104B7A6872
S3152000434000211048FEF7B6FE06E007F10C030E4AE0
S315200043506421184606F03CF900BF7037BD4680BD83
S31520004360A4B600206B05002010C00020B4B60020A3
S31520004370E50D00208CBE0020D751002014BF002060
S315200043801542002060E31600D4B6002080B483B026
S3152000439000AF786039607B685B69052B02D17B684A
S315200043A001225A6100BF0C37BD465DF8047B704779
S315200043B080B59EB002AF786039603C4B1A463C49C6
S315200043C03C48FEF715FF7B6899687B68DB687A684E
S315200043D0126907F10C00019200930B46364A6421BC
S315200043E006F0F6F807F10C031A4631493148FEF774
S315200043F0FFFE324B1A462E492E48FEF7F9FE7B6801
S315200044005B690133082B46D801A252F823F000BF7E
S315200044105144002035440020434400205F440020BE
S3152000442097440020974400206D4400207B440020C0
S3152000443089440020224B1A461D491E48FEF7D8FE05
S315200044402AE0204B1A461A491A48FEF7D1FE23E0E5
S315200044501D4B1A4616491748FEF7CAFE1CE01B4B91
S315200044601A4613491348FEF7C3FE15E0184B1A46A1
S315200044700F491048FEF7BCFE0EE0164B1A460C49B3
S315200044800C48FEF7B5FE07E0134B1A4608490948C3
S31520004490FEF7AEFE00E000BF104B1A460449054861
S315200044A0FEF7A6FE00BF7037BD4680BDF4B60020DD
S315200044B06B05002010C0002010B7002038B7002060
S315200044C040B7002048B7002050B7002058B700203A
S315200044D060B700206CB7002078B7002084B7002092
S315200044E080B483B000AF786039607B6801225A615E
S315200044F000BF0C37BD465DF8047B704780B483B09F
S3152000450000AF786039607B6801225A6100BF0C37A2
S31520004510BD465DF8047B704780B483B000AF7860F9
S3152000452039607B6801225A6100BF0C37BD465DF8B1
S31520004530047B704780B483B000AF0346FB71FB79E0
S3152000454003F01F03012202FA03F1064A97F9073006
S315200045505B0942F8231000BF0C37BD465DF8047B8B
S31520004560704700BF00E100E080B483B000AF03468F
S315200045703960FB7197F90730002B0BDA3B68DAB20A
S315200045800C49FB7903F00F03043B1201D2B20B4412
S315200045901A7609E03B68DAB2074997F90730120123
S315200045A0D2B20B4483F8002300BF0C37BD465DF81A
S315200045B0047B704700ED00E000E100E080B586B0A6
S315200045C000AF786039607B6800229A617B689A69BF
S315200045D07B685A617B685A697B68DA6107F10C034C
S315200045E0184604F009F80023BB740023FB7400234B
S315200045F03B7500237B750023BB750023FB750023C9
S31520004600BB730023FB7302233B7403237B740723B2
S31520004610BB8107F10C031946124803F059FE0346E5
S31520004620002B02D11048FEF709F907F10C031946B1
S315200046300E4803F04DFE0346002B02D10C48FEF730
S31520004640FDF802211420FFF78FFF1420FFF772FFD9
S3152000465001220221034804F00DFC00BF1837BD4695
S3152000466080BD00BF0064004088B70020006800407D
S31520004670A0B70020B0B58AB002AF786039607B68F9
S315200046809B685A49184604F013FC0346012B02D0B6
S315200046905748FEF7D3F87B68DB69072B00F39F802A
S315200046A07B689B6807F108020021184604F0E8F9A8
S315200046B0BB681B09DBB27A68526903F07F03D8B264
S315200046C0796813469B0013445B0013440B44203344
S315200046D002461A70BB68DBB27A68526903F00F0390
S315200046E0D8B2796813469B0013445B0013440B44ED
S315200046F0213302461A70BB7C7A68526903F00F0395
S31520004700D8B2796813469B0013445B0013440B44CC
S31520004710223302461A700023FB7716E0FB7F7A6865
S315200047205269F97F07F12000034413F80D4C78688D
S3152000473013469B0013445B00134403440B4423336A
S3152000474022461A70FB7F0133FB777B685A697968AA
S3152000475013469B0013445B0013440B4422331B78FF
S31520004760FA7F9A42DAD37B68DB68002B25D07B68F8
S31520004770DC687B681D697B685A69796813469B00EB
S3152000478013445B0013440B4420331B7819017B68C8
S315200047905A69786813469B0013445B00134403440C
S315200047A021331B780B4400932B4622460021002000
S315200047B0FEF780FC0F4B01221A607B685B69013390
S315200047C05A4203F0070302F0070258BF53427A68A1
S315200047D053617B68DB695A1C7B68DA6102E0064814
S315200047E0FEF72CF800BF2037BD46B0BD03000012EF
S315200047F0B8B700202CC50020E0B7002090B484B0C4
S3152000480000AF786039607B68DB69002B55DD7B68FB
S315200048109A69796813469B0013445B0013440B4442
S3152000482020331A783B681A707B689A697968134630
S315200048309B0013445B0013440B4421331A783B68D6
S315200048405A707B689A69796813469B0013445B000B
S3152000485013440B4422331A783B689A700023FB7367
S3152000486013E07B689A69F87BF97B7C6813469B008A
S3152000487013445B0013442344034423331A783B68D0
S315200048800B44DA70FB7B0133FB733B689B78FA7B26
S315200048909A42E6D37B689B6901335A4203F00703A9
S315200048A002F0070258BF53427A6893617B68DB693E
S315200048B05A1E7B68DA61002300E001231846103770
S315200048C0BD4690BC704780B58AB000AF786039602D
S315200048D07B689B683B620023FB773B681B781B0148
S315200048E03A6852781344BB6000237B7400233B74E0
S315200048F03B689B78082B02D93B6808229A703B6854
S315200049009B78BB74002387F8273010E097F8272080
S3152000491097F8273039680A44D27807F128010B44E2
S3152000492003F8152C97F82730013387F827303B6892
S315200049309B7897F827209A42E8D307F1080319466F
S31520004940386A03F01DFF0346FB77FB7F042B04D157
S315200049500448FDF773FF012300E00023184628379B
S31520004960BD4680BD00B8002080B584B000AF786019
S31520004970396000220F491048FEF73AFCF8607B6840
S3152000498088331846FEF732FDB8607B68D3F894303A
S31520004990BA68D31A094A934208DDFB68002B05D171
S315200049A0074B1A4607490848FEF722FC00BF103776
S315200049B0BD4680BD0D1A002030C400209F86010010
S315200049C078B900206B05002010C00020B0B5BAB021
S315200049D000AF786039600023C7F8E4307B68DB6F6E
S315200049E0022B0CDC7B68DA6F7B681C32396843F853
S315200049F022107B68DB6F5A1C7B68DA6715E07B68C0
S31520004A003A681A670023C7F8E0307B681B6FC7F83F
S31520004A10E0307B685A6F7B681A677B689A6F7B6881
S31520004A205A677B68D7F8E0209A677B68DB6F032B91
S31520004A3040F0A1807B681A6F7B685B6FD31A504A5F
S31520004A409342C0F298807B681A6F7B685B6FD31A9B
S31520004A5042F20F72934200F38E807B681A6F7B6856
S31520004A609B6FD31A464A9342C0F285807B681A6FA1
S31520004A707B689B6FD31A42F20F7293427BDC7B6872
S31520004A809A6F7B685B6FD31A3D4A934273DB7B68D0
S31520004A909A6F7B685B6FD31A42F20F7293426ADC7D
S31520004AA07B681A6F7B685B6F1A447B689B6F134425
S31520004AB0344A82FB0312DB17D31AC7F8DC30D7F847
S31520004AC0DC30314A82FB03125213DB17D31A184605
S31520004AD005F024FA04460D46D7F8DC202A4B83FB42
S31520004AE002135913D317CB1A284901FB03F3D31A00
S31520004AF0274A82FB03125211DB17D31A07EE903A8C
S31520004B00F8EEE77A17EE900A05F01AFA4FF000024F
S31520004B10204B05F097FB02460B462046294605F01A
S31520004B20B1F802460B461046194605F073FC0346BB
S31520004B30C7F8D830DFED186A97ED367AC6EE877A51
S31520004B40FDEEE77A17EE903AC7F8D43007F10C005D
S31520004B50D7F8D430114AC82105F03AFD07F10C03E5
S31520004B601A460F490F48FEF743FBD7F8D4200E49C3
S31520004B700E48FEF73DFB00BFE837BD46B0BD00BF7F
S31520004B80F1D8FFFF5655555589B5F814A086010072
S31520004B901F85EB5100408F400000704294B90020E1
S31520004BA06B05002010C00020A9590020F0BF00206E
S31520004BB080B5C0B002AF786039607B68D3F8983092
S31520004BC0002B2BD17B6888331846FEF70FFCC7F8DD
S31520004BD0D4007B68D3F89430D7F8D420D31AC7F8FA
S31520004BE0D0307B68D7F8D020C3F89C207B68D7F8D4
S31520004BF0D420C3F894207B680122C3F89820012290
S31520004C008A498B48FEF7F4FA00230093894B7A6889
S31520004C1041F288318848FEF74DFA04E17B688833F3
S31520004C201846FEF7E3FBC7F8F4007B68D3F8943008
S31520004C30D7F8F420D31AC7F8F030D7F8F0307F4AE7
S31520004C40934269DC7B68D3F89C30C7F8F030D7F8FC
S31520004C50F03042F20F7293420FDC794B1A467949B3
S31520004C607948FEF7C5FA7B680022C3F8982000220F
S31520004C706E496F48FEF7BCFAD5E0D7F8F030734A94
S31520004C8082FB03125113DA178A1A6B4901FB02F2CF
S31520004C909A1A13469B0013445B00C7F8E030D7F8F6
S31520004CA0F0206A4B83FB02135913D317CB1A6249A0
S31520004CB001FB03F3D31A664A82FB03125211DB1758
S31520004CC0D31AC7F8DC30D7F8F030604A82FB0312DB
S31520004CD05213DB17D31AC7F8D83007F10800D7F8D4
S31520004CE0E0300193D7F8DC300093D7F8D830594A12
S31520004CF0C82105F06DFCD7F8F0300093564B7A6842
S31520004D0000210020FEF7D6F907F108031A464D497F
S31520004D104D48FEF76DFA7DE0D7F8F0304B4A82FB1E
S31520004D2003125113DA178A1A434901FB02F29A1A1F
S31520004D3013469B0013445B00C7F8EC30D7F8F020ED
S31520004D40424B83FB02135913D317CB1A3A4901FB63
S31520004D5003F3D31A3E4A82FB03125211DB17D31AEE
S31520004D60C7F8E830D7F8F030384A82FB03125213DE
S31520004D70DB17D31AC7F8E43007F10800D7F8EC3070
S31520004D800193D7F8E8300093D7F8E430334AC821A6
S31520004D9005F01EFC07F108031A462A492A48FEF7A1
S31520004DA027FAD7F8F0302E4A934208DD00230093E5
S31520004DB02C4B7A6800210020FEF77CF92AE0D7F8F0
S31520004DC0F030294A934225DD284B1A461D491E48B4
S31520004DD0FEF70EFA002226492648FEF709FA034670
S31520004DE0002B17D1244B1A4616491748FEF700FA0E
S31520004DF000230093214B7A6800210020FEF75AF900
S31520004E0078221F491F48FEF7F3F900221E491D4844
S31520004E10FEF7EEF97B680022C3F8982000220349AA
S31520004E200348FEF7E5F9F837BD4680BD6D1A002028
S31520004E3030C4002069490020A08601009F86010019
S31520004E40A4B900206B05002010C0002089B5F814F5
S31520004E501F85EB51B0B90020CD490020ECB90020C8
S31520004E6020A10700A53D0020400D030018BA002010
S31520004E7009410020F4BE00202CBA00200D3D002060
S31520004E80A9590020F0BF00206559002080B483B0C6
S31520004E9000AF786039607B680122C3F8A0207B6868
S31520004EA04FF0FF32C3F880207B684FF0FF32C3F803
S31520004EB0A8207B680022C3F8A42000BF0C37BD467B
S31520004EC05DF8047B704780B586B002AF78603960A4
S31520004ED0002212491248FEF78BF9F860FB68002B76
S31520004EE018D17B68D3F8AC30002B13D07B68D3F86D
S31520004EF08030012B0ED10B4B1A460B490B48FEF77F
S31520004F0077F9002300930A4B0A4A00210A48FEF744
S31520004F10D1F800E000BF1037BD4680BDBD5100204E
S31520004F20C8BF002050BA00206B05002010C000200A
S31520004F30C74E002014BF002040420F0080B483B02B
S31520004F4000AF786039607B683A68C3F8802000BF7C
S31520004F500C37BD465DF8047B704780B5A2B002AF22
S31520004F607860396007F108031A4659495948FEF70F
S31520004F703FF93B7A632B02D83B7A132B1CD83B7A1A
S31520004F80772B19D0544B1A4654495548FEF730F919
S31520004F90544B1A4651495248FEF72AF93B7A07F1F3
S31520004FA01400514A642105F013FB07F114031A4635
S31520004FB04A494B48FEF71CF93B7A642B08D907F17E
S31520004FC008030093494B4A4A00210020FEF772F855
S31520004FD03B7A322B0BD93B7A402B08D807F10803B2
S31520004FE00093444B444A00210020FEF763F8002337
S31520004FF0FB67002241493E48FEF7FAF8B867BB6FC7
S31520005000012B5DD13B7A013B072B5BD801A252F8DD
S3152000501023F000BF35500020475000205950002073
S315200050206B50002077500020875000209B50002096
S31520005030AB50002001230093314B324A002100203F
S31520005040FEF738F83FE0002300932D4B2D4A002130
S315200050500020FEF72FF836E0002300932A4B294A3A
S3152000506000210020FEF726F82DE0002227492848B7
S31520005070FEF7BEF827E0FB7AFB67FA6F254924483E
S31520005080FEF7B6F81FE0FB7AFB67FB6F5B421A461A
S3152000509020491F48FEF7ACF815E0FB7AFB67FA6F4C
S315200050A01D491B48FEF7A4F80DE078221A49184836
S315200050B0FEF79EF8002217491548FEF799F802E0F8
S315200050C000BF00E000BF00BF8037BD4680BD00BFE7
S315200050D0FD47002044C4002060BA00206B05002054
S315200050E010C0002098BA0020ACBA00200937002052
S315200050F0F4BE0020D10600208CBE002009410020ED
S3152000510049510020C8BF0020115200201D51002007
S31520005110F0BF002065590020A959002080B483B033
S3152000512000AF786039607B689B68012B03D17B6870
S3152000513000229A6002E07B6801229A6000BF0C3749
S31520005140BD465DF8047B704780B483B000AF7860BD
S3152000515039603B68012B09D17B681B69132B05DC61
S315200051607B681B695A1C7B681A610BE03B68002B25
S3152000517008D17B681B69012B04DD7B681B695A1EDD
S315200051807B681A6100BF0C37BD465DF8047B70470B
S3152000519080B483B000AF786039607B689B69002B50
S315200051A003D17B6801229A6102E07B6800229A6122
S315200051B000BF0C37BD465DF8047B704780B483B0D2
S315200051C000AF786039607B681B6918460C37BD468E
S315200051D05DF8047B704780B483B000AF7860396097
S315200051E03B68012B04D17B685A697B681A6109E008
S315200051F03B68002B06D17B681A697B685A617B68FD
S3152000520000221A6100BF0C37BD465DF8047B70474B
S3152000521080B584B002AF78607B681B69002B09D10A
S315200052207B685A697B681A6100220E490E48FDF791
S31520005230DFFF13E07B681A697B685A617B6800226E
S315200052401A6100230093094B094A00210020FDF72B
S3152000525031FF012203490448FDF7CAFF00BF083782
S31520005260BD4680BD2D1A002030C40020C74E002028
S3152000527014BF002080B483B000AF786039607B68AB
S315200052800122DA6100BF0C37BD465DF8047B70470A
S3152000529080B483B000AF786039607B685B6A18465B
S315200052A00C37BD465DF8047B704780B59EB002AFD3
S315200052B0786039607B681B6AFB66154B1B78DBB20E
S315200052C01A467B681B699A4203D1114B00221A7039
S315200052D004E07B681A690E4BD2B21A707B68DB69D0
S315200052E0002B11D17B685B6A012B0DD1FB6E094A1D
S315200052F082FB03129210DB17D01A3B680093064BF1
S315200053007A680021FDF7D6FE7037BD4680BD00BF06
S315200053101C74004067666666AB52002080B483B07A
S3152000532000AF786039607B683A681A6200BF0C3734
S31520005330BD465DF8047B704780B483B000AF7860CB
S3152000534039607B680022DA6100BF0C37BD465DF804
S31520005350047B704780B483B000AF786039607B6887
S315200053603A685A6200BF0C37BD465DF8047B704729
S3152000537080B483B000AF786039607B683A681A6180
S3152000538000BF0C37BD465DF8047B704780B483B000
S3152000539000AF786039607B681B6918460C37BD46BC
S315200053A05DF8047B704780B586B002AF78603960BF
S315200053B07B685B693A689A4240D17B689B68002B80
S315200053C03CD000221F492048FDF712FF7B685B690D
S315200053D007EE903AB8EEE77ADFED1C6AC6EE877ADA
S315200053E0C7ED037A00221A491A48FDF701FF034642
S315200053F0002B24D1D7ED037A9FED177A67EE877AB3
S315200054009FED167A67EE877AFDEEE76AD7ED037A87
S315200054109FED137A67EE877A9FED107A67EE877A8B
S31520005420FDEEE77A7B685B6900930E4B7A6817EE90
S31520005430901A16EE900AFDF73DFE00E000BF1037E9
S31520005440BD4680BD4F1A002030C4002000007042A7
S3152000545009410020F4BE00200000FA430000C842A3
S3152000546000007A43A753002080B582B000AF786051
S3152000547039607B689B68002B05D0002206490748C7
S31520005480FDF7B6FE04E0012203490448FDF7B0FE0D
S3152000549000BF0837BD4680BD2D1A002030C400202D
S315200054A080B586B000AF7860396000223049314837
S315200054B0FDF79EFE786100222F492E48FDF798FEC3
S315200054C0386100222D492B48FDF792FEF8607B6853
S315200054D000225A627B69032B43D801A252F823F09B
S315200054E063550020F1540020F95400204155002036
S315200054F07B6801225A6234E03B6803F00103002BEB
